:040000000200413287
:03000B000204A943
:0100130032BA
:01001B0032B2
:0100230032AA
:01002B0032A2
:01003300329A
:03003B000204C0FC
:10005400752800752C00752200E4F523F524900022
:10006400157460F07409A3F0E4A3F0A3F0900019F0
:100074007480F07470A3F0E4A3F0A3F090001DF07A
:100084007496A3F0E4A3F0A3F0900021F074E1A32C
:10009400F0E4A3F0A3F0900025F074C2A3F074017F
:1000A400A3F0E4A3F0900029F07484A3F07403A3F4
:1000B400F0E4A3F090002D74E0F07493A3F07404C2
:1000C400A3F0E4A3F0900031F07408A3F014A3F0BB
:1000D400E4A3F09000357420F074A1A3F07407A396
:1000E400F0E4A3F090003974C0F07427A3F074090D
:1000F400A3F0E4A3F090003D7460F074AEA3F07438
:100104000AA3F0E4A3F0900041F07435A3F0740C5A
:10011400A3F0E4A3F090004574A0F074BBA3F074C2
:100124000DA3F0E4A3F0900049F07410A3F0740E52
:05013400A3F0E4A3F0BC
:0302C60002003EF5
:03003E00020AE2D1
:1002C900AF82E5227009C2998F9920990980FBC2F2
:1002D900F98F9A30F9FD22AF827E007D00EE03038B
:1002E900543FFCEF30E00674404CFE800474804CAF
:1002F900FEEFC313FF0DBD040040E28E8222AF82E0
:10030900752201C0071202E01202C9D007EFC454D6
:100319000FF5821202E00202C97522017582F012FC
:1003290002C97582F01202C97582F01202C975827A
:10033900F00202C9AF82C007748FC0E07420C0E028
:10034900121B2F15811581D007BF0002800ABF013A
:10035900028016BF023380227492C0E07420C0E08C
:10036900121B2F1581158180207498C0E07420C05C
:10037900E0121B2F15811581800F749EC0E0742037
:10038900C0E0121B2F15811581AE227F00C006C067
:100399000774A4C0E07420C0E0121B2FE58124FC7F
:1003A900F58122AF82BF0D028004BF1B112274BDEB
:1003B900C0E07420C0E0121B2F15811581227E0038
:1003C900C007C00674C0C0E07420C0E0121B2FE54E
:1003D9008124FCF58122AF82741BB525028002803D
:1003E90079AE268E22AC227D00C007C006C004C0AB
:1003F9000574C3C0E07420C0E0121B2FE58124FC02
:10040900F581D006D007BF0002800DBF010280210F
:10041900BF020280350204A67F018E22758201C0C7
:100429000712033D85272275820112033DD00780FB
:100439006C7F028E22758202C00712033D85272236
:1004490075820212033DD00780537F008E22758288
:1004590000C00712033DD0078043BF0002800ABFD6
:1004690001028014BF0236801E852622852582C09E
:10047900071203ACD0078025852722852582C0076E
:100489001203ACD0078016852622852582C0071263
:1004990003AC8527228525821203ACD0078F8222DF
:1004A900C0E0C0D0758CFF758AF30523E4B523023B
:1004B9000524D0D0D0E032C0E0E5EC75EC00D0E006
:1004C90032AF827E00EE2EFD8DF005F0EF8002C383
:1004D90013D5F0FBFC5304017B00ED04F5F005F0A6
:1004E900EF8002C313D5F0FBFD5305017A00ECB58B
:1004F9000508EBB50204758200220EBE040040C552
:1005090075820122AF827E007D04EF30E00343064D
:1005190080EF0303543FFFEEC313FEDDED8E82220D
:10052900AF827E007D04EEC313FEEF30E003430685
:1005390080EF0303543FFFDDED8E8222AE87530621
:10054900107F00BE1041BF003EAF84AE857D00EF35
:100559002FFFED33FD5306017C00EE2FFFEC3DFD2F
:10056900EF24F1FFED34FFFD8F06530601EDC313B0
:10057900CF13CFFD75C7AA75C7558F8475C7AA75DF
:10058900C7558E855387EF22AF82752201BF31018E
:1005990022BF320122BF33028032BF340122BF5051
:1005A900028049BF5303020635BF5402805EBF561D
:1005B90003020645BF70028023BF7302805EBF74C9
:1005C900028039BF760302064502065574DAC0E097
:1005D9007420C0E0121B2F158115812274F1C0E02F
:1005E9007420C0E0121B2F15811581227404C0E00C
:1005F9007421C0E0121B2F15811581227416C0E0E9
:100609007421C0E0121B2F1581158122742BC0E0C3
:100619007421C0E0121B2F15811581227441C0E09D
:100629007421C0E0121B2F15811581227459C0E075
:100639007421C0E0121B2F15811581227470C0E04E
:100649007421C0E0121B2F1581158122748AC0E024
:100659007421C0E0121B2F1581158174A1C0E074AB
:1006690021C0E0121B2F1581158174B8C0E07421D7
:10067900C0E0121B2F1581158174D9C0E07421C007
:10068900E0121B2F1581158174F4C0E07421C0E0BC
:10069900121B2F158115817413C0E07422C0E0125A
:1006A9001B2F158115817434C0E07422C0E0121B20
:1006B9002F158115812275B10075B20075B30075CA
:1006C900B40075AC0075AD0043B32053B4DF43B13A
:1006D9000453B2FB43B18053B27F53B3BF43B44019
:1006E90053B3F743B40853B3EF43B41053B3FB43C5
:1006F900B40453B3FD43B40253B3FE43B40153B13D
:10070900FE43B20153B1FD43B20253B1EF43B210FC
:1007190053B1F743B208C296D292D293D294C290FF
:10072900C280C281C284C28322AF827E04EFB5280F
:1007390014AB18AC19AD1A8B828C838DF0E412209E
:100749005875820422AB18AC19AD1A8B828C838D33
:10075900F0E41220587A008AF005F0E5288002C3F7
:1007690013D5F0FBF85300017900B80005B9000270
:100779008054B80105B9000280030208198AF005FE
:10078900F0EF8002C313D5F0FBF85300017900B8EC
:100799000005B9000280030208198F288B828C8317
:1007A9008DF0122073F98A0088F005F07401800237
:1007B90025E0D5F0FBF842018B828C838DF0E9129C
:1007C90020587E00804A8AF005F0EF8002C313D5D5
:1007D900F0FBF85300017900B80005B90002803038
:1007E900B8012DB9002A8F288B828C838DF01220B5
:1007F90073F98A0088F005F07401800225E0D5F0CC
:10080900FBF842018B828C838DF0E91220587E011E
:100819000ABA050050030207608E8222E582FF6052
:100829001EEF30E004C2948002D294EF30E104C29A
:10083900938002D293EF30E203C29222D29222D263
:1008490094D293D29222AF82E518C4540FFE530773
:100859000FE4FDFCEEB50708ECB50504758201222D
:1008690075820022AD82AE83AFF074012DFAE43EA9
:10087900FB8F048A828B838CF0122073FC24F9503D
:100889000122EC2C2C900892730209BB0209BB02CD
:1008990009BB0209BB0208A702092B0209A27405B8
:1008A9002DF529E43EF52A8F2B852982852A838512
:1008B9002BF0122073F8A3122073F9A3122073FCF2
:1008C900888289838CF012207324FF92948529826F
:1008D900852A83852BF0122073FAA3122073FBA3B8
:1008E900122073FC0ABA00010B8A828B838CF012E6
:1008F900207324FF9293852982852A83852BF01200
:100909002073FAA3122073FBA3122073FC74022A2A
:10091900FAE43BFB8A828B838CF012207324FF92CA
:10092900922274052DFDE43EFE8D828E838FF01296
:100939002073FAA3122073FBA3122073FC8A828B03
:10094900838CF012207324FF92908D828E838FF016
:10095900122073FAA3122073FBA3122073FC0ABAA4
:1009690000010B8A828B838CF012207324FF928002
:100979008D828E838FF0122073FDA3122073FEA344
:10098900122073FF74022DFDE43EFE8D828E838F4B
:10099900F012207324FF928122AE217F00C006C08D
:1009A900077461C0E07422C0E0121B2FE58124FCAA
:1009B900F58122AD82AE83AFF074012DFAE43EFBDE
:1009C9008F048A828B838CF0122073FC24F95003E4
:1009D900020A85EC2C2C9009E373020AA4020A4C42
:1009E900020AA40209F8020A85020A85020A6B2092
:1009F90095012274022DFAE43EFB8F048A828B83CF
:100A09008CF0122073F87900C004C003C002C00042
:100A1900C0017476C0E07422C0E0121B2FE5812466
:100A2900FCF581D002D003D0048A828B838CF0122A
:100A39002073F52190370012115685211090370047
:100A490002116A74022DFAE43EFB8F048A828B83B9
:100A59008CF0122073FAB521428D828E838FF002B9
:100A6900086DAB217C00C003C004748AC0E0742205
:100A7900C0E0121B2FE58124FCF5812274022DFAB6
:100A8900E43EFB8F048A828B838CF0122073FAB5C3
:100A990021098D828E838FF002086D22E582FFC4C1
:100AA900540FFE7D00C007C006C005749DC0E074E8
:100AB90022C0E0121B2FE58124FCF581D0075307E2
:100AC9000F7E00C007C00674AAC0E07422C0E012FD
:100AD9001B2FE58124FCF581227F00752E01752FDE
:100AE90002753003753104753205753301753400AB
:100AF9008F357E00C007C0061206BF121B1390E196
:100B090000E4F5F0121A96120545538EF7D2A9D2D0
:100B19008C75220074B7C0E07422C0E0121B2F1537
:100B290081158174C7C0E07422C0E0121B2F1581A2
:100B3900158175220174D8C0E07422C0E0121B2F00
:100B490015811581D006D0077C307D750000000025
:100B5900001CBCFF011DEC4D70F2F522A282A2958A
:100B6900E433FD439B02D2AF208202D284D290901B
:100B79003700E493F52190002D75F040C007C006B9
:100B8900C005121A6EE582D005D006D0077003029F
:100B99000DE87431B52D0280427432B52D0280778B
:100BA9007433B52D03020C5C7434B52D03020C9813
:100BB9007435B52D03020CD47436B52D03020D100E
:100BC9007437B52D03020D4C7438B52D03020D870A
:100BD9007474B52D03020DC2020DE8B296C007C0A8
:100BE90006C00574E8C0E07422C0E0121B2F15810D
:100BF9001581A296E433FB7C00C003C00474F1C0E4
:100C0900E07422C0E0121B2FE58124FCF581D00598
:100C1900D006D007020DE8B294C007C006C005741B
:100C2900F6C0E07422C0E0121B2F15811581A29431
:100C3900E433FB7C00C003C00474F1C0E07422C03B
:100C4900E0121B2FE58124FCF581D005D006D007E1
:100C5900020DE8B293C007C006C00574FDC0E07478
:100C690022C0E0121B2F15811581A293E433FB7C6E
:100C790000C003C00474F1C0E07422C0E0121B2F4D
:100C8900E58124FCF581D005D006D007020DE8B234
:100C990092C007C006C0057404C0E07423C0E01206
:100CA9001B2F15811581A292E433FB7C00C003C080
:100CB9000474F1C0E07422C0E0121B2FE58124FC0A
:100CC900F581D005D006D007020DE8B290C007C063
:100CD90006C005740BC0E07423C0E0121B2F1581F8
:100CE9001581A290E433FB7C00C003C00474F1C0F9
:100CF900E07422C0E0121B2FE58124FCF581D005A8
:100D0900D006D007020DE8B280C007C006C005743E
:100D190015C0E07423C0E0121B2F15811581A28034
:100D2900E433FB7C00C003C00474F1C0E07422C04A
:100D3900E0121B2FE58124FCF581D005D006D007F0
:100D4900020DE8B281C007C006C005741FC0E07477
:100D590023C0E0121B2F15811581A281E433FB7C8E
:100D690000C003C00474F1C0E07422C0E0121B2F5C
:100D7900E58124FCF581D005D006D0078061B284D5
:100D8900C007C006C005742AC0E07423C0E0121B66
:100D99002F15811581A284E433FB7C00C003C004B4
:100DA90074F1C0E07422C0E0121B2FE58124FCF528
:100DB90081D005D006D0078026C007C006C005C06F
:100DC90023C0247436C0E07423C0E0121B2FE581D0
:100DD90024FCF581D005D006D007E4F523F5248D50
:100DE90004A295E433FBECB503028067A295E433D2
:100DF900FB7C00C007C006C003C0047441C0E07496
:100E090023C0E0121B2FE58124FCF581D006D00711
:100E190020953B052CE52C540124FFE433FC24FFE9
:100E29009294E52C03540124FFE433FB24FF9293AD
:100E3900E52C0303540124FFE433FA24FF9292ECD6
:100E490024FF9290EB24FF9280EA24FF9281A295DD
:100E5900E433FDA295A282BF0002800DBF0102808A
:100E690036BF02028075020B7F90002D75F040C0DD
:100E790007C006C005121AEBE582D005D006D007D7
:100E89007003020B7FE4F523F5247E0190004DE504
:100E99002DF07F01020B7F90002D75F040C007C037
:100EA90006C005121AEBE582D005D006D0076018F6
:100EB900E4F523F5248E040EEC244DF582E4340088
:100EC900F583E52DF0020B7FC374E8952374039530
:100ED900244003020B7F7F02020B7F754E4D754F35
:100EE900007550008E82C006C0051217C8D005D003
:100EF9000675434D75440075450075462E754700C6
:100F09007548408E82C006C005121412AC82D00505
:100F1900D006BC0202800ABC03028031BC045B809B
:100F29001390002E75F040C006C005121582D00539
:100F3900D0068046C006C005744DC0E07423C0E0E9
:100F4900121B2F15811581D005D006802DBE0113E6
:100F590090004DE0F582C006C005120AA5D005D063
:100F6900068017C006C005745CC0E07423C0E01297
:0F0F79001B2F15811581D005D0067F00020B7F3D
:10208F000A0D0073656C66200063726F73730062D4
:10209F006F74682000206F75747075743A54686996
:1020AF0073206973205541525425640A0D000D0A9F
:1020BF00002563000D0A696E7075743A5468697370
:1020CF00206973205541525425640049646C652082
:1020DF00707265616D626C65206F6E2F6F66660D35
:1020EF000A004C696E65466920506F776572204F04
:1020FF0066660D0A004C696E65466920506F7765FC
:10210F0072204F6E0D0A004C696E6546692055614D
:10211F007274205478204C6F770D0A004C696E65ED
:10212F004669205561727420547820486967680D9C
:10213F000A004C696E65466920435343207278202C
:10214F0046534D204F66660D0A004C696E65466911
:10215F00204353432072782046534D204F4E0D0A93
:10216F000056657273696F6E20312E34206F6E20AA
:10217F0032303233313032360D0A00313A20646F4B
:10218F00776E6C696E6B207061636B657420310DB7
:10219F000A00323A20646F776E6C696E6B20706143
:1021AF00636B657420320D0A00333A2075706C69C9
:1021BF006E6B2069646C6520707265616D626C6511
:1021CF00206F6E2F6F66660D0A00702F503A204CED
:1021DF00696E65466920506F776572206F66662F4E
:1021EF006F6E0D0A00742F543A204C696E65466964
:1021FF002055617274205478204C6F772F4869678F
:10220F00680D0A00732F533A204C696E6546696555
:10221F00204353432052782046534D206F66662F3C
:10222F006F6E0D0A00746573742070726F6365644E
:10223F007572653A2070202D3E2050202D3E20547F
:10224F00202D3E2053202D3E2031206F7220320D45
:10225F000A004D792061646472657373206973207D
:10226F00307825780D0A0073657420616464726597
:10227F0073732061732025640D0A004D792061640A
:10228F0064726573732069732025640D0A0061649D
:10229F0064726573733A25750D0A00636F6D6D6116
:1022AF006E643A25750D0A005468697320697320AE
:1022BF0055415254300A0D004C696E6546692053E2
:1022CF006E69666665720A0D0054686973206973DA
:1022DF002055415254310A0D00554152545F545804
:1022EF003D0025640A0D004C45445F523D004C45AE
:1022FF00445F473D004C45445F423D004D4F544FB6
:10230F00525F454E3D004D4F544F525F43573D0076
:10231F004D4F544F525F4343573D0053454C5F520F
:10232F00585F504F4C3D00636F756E743A25640DC6
:10233F000A005357495443483A25640A0D00455241
:10234F00524F523A2043524321210D0A0045525217
:10235F004F523A20746F6F20736D616C6C206C65F7
:09236F006E67746821210D0A005B
:1037000000000000000000000000000000000000B9
:1037100000000000000000000000000000000000A9
:103720000000000000000000000000000000000099
:103730000000000000000000000000000000000089
:103740000000000000000000000000000000000079
:103750000000000000000000000000000000000069
:103760000000000000000000000000000000000059
:103770000000000000000000000000000000000049
:100F880075C7AA75C75575FD5A75C7AA75C755752A
:100F9800FDA575820022AC82AD83AEF0FF538EF7BB
:100FA800438901D28CEC4D4E4F601A758A76758C48
:100FB800FF108D0280FB1CBCFF091DBDFF051EBE76
:100FC800FF011F80E0C28C22AC82AD83AEF0FF53DC
:100FD8008EF7438901D28CEC4D4E4F601A758A9872
:100FE800758CFA108D0280FB1CBCFF091DBDFF0526
:100FF8001EBEFF011F80E0C28C22AC82AD83AEF022
:10100800FF538EEF438910D28EEC4D4E4F601A7508
:101018008BF6758DC9108F0280FB1CBCFF091DBDA6
:10102800FF051EBEFF011F80E0C28E22AC82AD8389
:10103800AEF0FF53C9BF53C9DF43C910D2CAEC4D44
:101048004E4F601A75CCE575CDF710CF0280FB1CAA
:10105800BCFF091DBDFF051EBEFF011F80E0C2CAFF
:1010680022AC82AD83AEF0FF75C40743C408EC4DD3
:101078004E4F602575C55775C6CDAAC45302107B5F
:1010880000BA10F6BB00F353C4EF1CBCFF091DBD2A
:10109800FF051EBEFF011F80D553C4F722AC82ADE9
:1010A80083AEF0FF75C40743C408EC4D4E4F60256E
:1010B80075C5D775C6FFAAC45302107B00BA10F6CF
:1010C800BB00F353C4EF1CBCFF091DBDFF051EBECA
:1010D800FF011F80D553C4F722AF82A2AF9200C28E
:1010E800AF75C7AA75C755439F01A20092AFE51B0C
:1010F8006013A2AF9200C2AF75C7AA75C75543A5C2
:1011080001A20092AF8519A68518A7851AAE8FAFE0
:10111800A2AF9200C2AF75C7AA75C75543A401A272
:101128000092AFE51B6026A2AF9200C2AF75C7AAB6
:1011380075C75553A5FEA20092AFA2AF9200C2AFE9
:1011480075C7AA75C755539FFEA20092AF22AE82FB
:10115800AF838F188E19751AFF751B0175822202CD
:1011680010E1AE82AF838F188E1985101A751B0196
:101178007582210210E175180075190C751A007531
:101188001B007582041210E1AFAE75180075190DB9
:10119800751A00751B00758204C0071210E1D0078C
:1011A800E5AE540FFEA2AF9200C2AF75C7AA75C7CD
:1011B80055539FFEA20092AFE4C454F0CFC4CF6F42
:1011C800CF54F0CF6FFD7C00EE2FF582EC3DF58318
:1011D80022858219751800751A00751B007582041E
:1011E8001210E185AE82A2AF9200C2AF75C7AA7590
:0A11F800C755539FFEA20092AF22DC
:10013900E4F540F54190006B740FF07424A3F0745A
:1001490080A3F090006E741AF07424A3F07480A355
:10015900F09000717425F07424A3F07480A3F090DA
:1001690000747430F07424A3F07480A3F0900077C5
:10017900743DF07424A3F07480A3F090007A74495C
:10018900F07424A3F07480A3F090007D7458F07487
:1001990024A3F07480A3F09000807466F07424A303
:1001A900F07480A3F09000837466F07424A3F07453
:1001B90080A3F09000867466F07424A3F07480A381
:1001C900F09000897466F07424A3F07480A3F09011
:1001D900008C7466F07424A3F07480A3F090008FEF
:1001E9007466F07424A3F07480A3F090009274668E
:1001F900F07424A3F07480A3F09000957466F074F1
:1002090024A3F07480A3F09000987466F07424A37A
:10021900F07480A3F090009B7466F07424A3F074CA
:1002290080A3F090009E7466F07424A3F07480A3F8
:10023900F09000A17466F07424A3F07480A3F09088
:1002490000A47466F07424A3F07480A3F09000A74E
:100259007466F07424A3F07480A3F09000AA746605
:10026900F07424A3F07480A3F09000AD7466F07468
:1002790024A3F07480A3F09000B07466F07424A3F2
:10028900F07480A3F09000B37466F07424A3F07442
:1002990080A3F09000B67466F07424A3F07480A370
:1002A900F09000B97466F07424A3F07480A3F09000
:0D02B90000BC7466F07424A3F07480A3F000
:10120200AD82AE83AFF074032DFDE43EFE8D828E7F
:10121200838FF01220732405F58222AD82AE83AF54
:10122200F08D028E038F047518047519FF8A828B64
:10123200838CF0C007C006C005121798858219D0AA
:1012420005D006D00774052DFAE43EFB8F048A828E
:101252008B838CF0122073FAA3122073FBA312204B
:1012620073FC74032DFDE43EFE8D828E838FF0129B
:101272002073F5188A828B838CF0021798AD82AEA8
:1012820083AFF0C007C006C00512121DAC82D005A4
:10129200D006D00774042DFDE43EFE8D828E838F2E
:1012A200F0EC022058AD82AE83AFF0C007C006C09A
:1012B2000512121DAC82D005D006D00774042DFD94
:1012C200E43EFE8D828E838FF0122073B504047586
:1012D20082012275820022021AEB021B09AD82AE44
:1012E20083AFF0C007C006C00512121DAC82D00544
:1012F200D006D0078D018E028F0389828A838BF0FC
:10130200122073F58209B900010AC007C006C005A0
:10131200C004C003C002C0011212DCD001D002D04E
:1013220003D004D005D006D00789828A838BF012BD
:101332002073F58209B900010AC007C006C005C0C2
:1013420004C003C002C0011212DCD001D002D003DB
:10135200D004D005D006D00789828A838BF0122070
:1013620073F809B900010A8882C007C006C005C027
:1013720004C003C002C0011212DCD001D002D003AB
:1013820089828A838BF0122073F5821212DCD004D8
:101392008C821212DCD005D006D00774052DFAE437
:1013A2003EFB8F0474032DFDE43EFE7542008D82E8
:1013B2008E838FF0122073F8C3E542985051C00516
:1013C200C006C0078A828B838CF0122073F8A312A6
:1013D2002073F9A3122073FFE54228F8E439F98853
:1013E2008289838FF0122073F582C007C006C00580
:1013F200C004C003C0021212DCD002D003D004D059
:1014020005D006D0070542D007D006D005809F221E
:10141200AF82BF0500500475820322AD46AE47AFCE
:1014220048AA43AB44AC458A828B838CF01220736A
:10143200F974012AF543E43BF5448C458D828E8391
:101442008FF0E91220580DBD00010EAA43AB44AC47
:10145200458A828B838CF0122073F974012AF5433A
:10146200E43BF5448C458D828E838FF0E91220583F
:101472000DBD00010EAA43AB44AC458A828B838C1E
:10148200F0122073F974012AF543E43BF5448C45CC
:101492008D828E838FF0E91220580DBD00010EAAB5
:1014A20043AB44AC458A828B838CF0122073F9746F
:1014B200012AF543E43BF5448C458D828E838FF0FF
:1014C200E91220580DBD00010EAA43AB44AC458A77
:1014D200828B838CF0122073F974012AF543E43B6A
:1014E200F5448C458D828E838FF0E9122058AD46EB
:1014F200AE47AF4874032DFAE43EFB8F0485434A9E
:1015020085444B85454C7549008A828B838CF01249
:101512002073F8C3E549985052C002C003C0047456
:10152200052DF8E43EF98F04888289838CF012201D
:1015320073F8A3122073F9A3122073FCE54928F86B
:10154200E439F9854A82854B83854CF0122073FB7E
:10155200A385824A85834B888289838CF0EB122093
:10156200580549D004D003D002809E8D828E838F8D
:10157200F01212A7E582700475820422758202229B
:10158200AD82AE83AFF0C007C006C0057478C0E07C
:101592007423C0E0121B2F15811581D005D006D00F
:1015A200078D828E838FF0122073FC7B00C007C0F0
:1015B20006C005C004C003749AC0E07423C0E012E0
:1015C2001B2FE58124FCF581D005D006D0077401DC
:1015D2002DFAE43EFB8F048A828B838CF0122073F7
:1015E200FA75F003A4246BF582740035F0F583E0FC
:1015F200F9A3E0FBA3E0FC8A007A00C007C006C0A2
:1016020005C001C003C004C000C00274A5C0E074DC
:1016120023C0E0121B2FE58124F9F581D005D00605
:10162200D00774022DFAE43EFB8F048A828B838CEE
:10163200F0122073FA7C00C007C006C005C002C0C9
:101642000474B4C0E07423C0E0121B2FE58124FCB3
:10165200F581D005D006D00774032DFAE43EFB8F46
:10166200048A828B838CF0122073FA7C00C007C03C
:1016720006C005C002C00474BFC0E07423C0E012FB
:101682001B2FE58124FCF581D005D006D0078D8281
:101692008E838FF0C007C006C00512121DAC82D027
:1016A20005D006D0077B0074042DF8E43EF98F02C2
:1016B200888289838AF0122073F87A00C007C006F4
:1016C200C005C004C003C000C00274CAC0E07423D5
:1016D200C0E0121B2FE58124FAF58174DDC0E074AD
:1016E20023C0E0121B2F15811581D005D006D0072B
:1016F20074052DFAE43EFB8F0474032DFDE43EFED7
:10170200754D008D828E838FF0122073F8C3E54DE4
:10171200985064C005C006C0078A828B838CF01281
:101722002073F8A3122073F9A3122073FFE54D284A
:10173200F8E439F9888289838FF0122073F87F00E8
:10174200C007C006C005C004C003C002C000C00775
:1017520074E4C0E07423C0E0121B2FE58124FCF581
:1017620081D002D003D004D005D006D007054DD0D9
:1017720007D006D005808C74EAC0E07423C0E01262
:101782001B2F158115817478C0E07423C0E0121BF1
:101792002F1581158122AD82AE83AFF0AC19ED4ECB
:1017A20060217B00C3EB951850198D828E838FF0D8
:1017B200122073FAA3AD82AE83EC6A9018D493FC24
:1017C2000B80E18C8222AF82AD40AE410540E4B590
:1017D20040020541C007C005C00674EDC0E0742395
:1017E200C0E0121B2FE58124FCF58174F3C0E07484
:1017F20023C0E0121B2F15811581D0077E00C3EE96
:101802009F50248E047D00C007C006C004C005742A
:10181200FBC0E07423C0E0121B2FE58124FCF5819C
:10182200D006D0070E80D7C00774EAC0E07423C088
:10183200E0121B2F158115817402C0E07424C0E0F0
:10184200121B2F15811581D0077E00C3EE9F5072A7
:10185200AB4EAC4FAD508B828C838DF0122073FA5D
:10186200BA100050308A0174012BF54EE43CF54F5A
:101872008D5089007900C007C006C000C0017408FD
:10188200C0E07424C0E0121B2FE58124FCF581D056
:1018920006D007802A74012BF54EE43CF54F8D509B
:1018A2007D00C007C006C002C00574E4C0E0742316
:1018B200C0E0121B2FE58124FCF581D006D0070E73
:1018C200808974EAC0E07423C0E0121B2F158115D1
:0218D200812271
:102378002D2D2D2D2D2D2D2D2D2D2D2D2D2D2D2D85
:102388002D2D2D2D2D2D2D2D2D2D2D2D2D2D2D0D95
:102398000A00566572203A2025640D0A00547970A7
:1023A800653A202564282573290D0A004164647262
:1023B8003A2025640D0A0053697A653A2025640D90
:1023C8000A0043524320636F6D70203A2025642031
:1023D80025640D0A00444154413A2000307825789C
:0523E80020000D0A00B9
:1018D40000316253C4F5A697B988DBEA7D4C1F2E0C
:1018E4004372211087B6E5D4FACB98A93E0F5C6DFC
:1018F40086B7E4D5427320113F0E5D6CFBCA99A8EC
:10190400C5F4A796013063527C4D1E2FB889DAEBDB
:101914003D0C5F6EF9C89BAA84B5E6D740712213CB
:101924007E4F1C2DBA8BD8E9C7F6A59403326150BB
:10193400BB8AD9E87F4E1D2C02336051C6F7A495AB
:10194400F8C99AAB3C0D5E6F4170231285B4E7D69B
:101954007A4B1829BE8FDCEDC3F2A190073665548B
:1019640039085B6AFDCC9FAE80B1E2D3447526177B
:10197400FCCD9EAF38095A6B4574271681B0E3D26B
:10198400BF8EDDEC7B4A192806376455C2F3A0915B
:101994004776251483B2E1D0FECF9CAD3A0B58694B
:1019A40004356657C0F1A293BD8CDFEE79481B2A3B
:1019B400C1F0A3920534675678491A2BBC8DDEEF2B
:1019C40082B3E0D1467724153B0A5968FFCE9DAC1B
:1023ED002325640D0A00726177203A2020002532E2
:1023FD006420202000646174613A003078302578C3
:10240D002000547970655F42636173740054797074
:10241D00655F556361737400547970655F4D6361D9
:10242D00737400547970655F536574416464720010
:10243D00547970655F5365744C45440054797065EB
:10244D005F4374726C4D6F746F7200547970655F79
:10245D00526561644164647200547970655F4E6FBA
:03246D006E650099
:1019D400AC82AD83AEF0FF53B1BF53B2BF53B17FFE
:1019E40053B27F759850438920438780438E1053A8
:1019F400C4DF8C188D198E1A8F1B90D4BC75F00F10
:101A0400E4121FB0AC82C3E49CF58DD28ED299222D
:101A1400AC82AD83AEF0FF53B1BF53B2BF53B17FBD
:101A240053B27F75985043878053C4F843C4208CC5
:101A3400188D198E1A8F1B90D4BC75F00FE4121FE9
:101A4400B0AC82AD83AEF0FFE4C39CE49DF97401B5
:101A54009EE49F89C6C3E49CFC8CC543C408D29908
:101A6400223098FD859982C29822AD82AE83AFF070
:101A74003098118D828E838FF0E599122058C29888
:101A84007582012275820022AF82C2998F993099A2
:101A9400FD22AC82AD83AEF0FF53B1FB53B2FB53D6
:101AA400B3BF53B4BF75F85875C40853C4DF8C185A
:101AB4008D198E1A8F1B90D4BC75F00FE4121FB0D1
:101AC400AC82AD83AEF0FFE4C39CE49DF974019E47
:101AD400E49F89C6C3E49CFC8CC543C4082230F847
:101AE400FD859A82C2F822AD82AE83AFF030F81140
:101AF4008D828E838FF0E59A122058C2F875820188
:101B04002275820022AF82C2F98F9A30F9FD2290A9
:101B1400E100E4F5F01219D490C20075F001E4126A
:101B24001A96C299C2F9D2ACD2AF22C017858117D6
:101B3400E51724FDF8868318868218E493A3B42558
:101B440077C201C202C203C204C205C20679117778
:101B540000C207E493A324C64017240A5015700555
:101B6400B51102D206D205FAE775F00AA42AF78065
:101B7400E2240A2430B46C04D20180D7B46804D2BD
:101B84000280D0B47303021BC7B46406121EA10200
:101B94001C23B47506121EA1021C43B4630518E687
:101BA400188017B47803021C02B46603021D57B4EC
:101BB4002E0679127700809B6006121F93021B3F4A
:101BC400021FADC083C08286F018868318868218EF
:101BD400300519C206C082C0831220736007A315A2
:101BE40011E51170F4121F7ED083D082122073602D
:101BF40006A3121F9380F5D082D083021B3F121CD0
:101C04001A20020C121C1A300106121C1A121C1A79
:101C1400121FA5021B3FE6121F83E618021F84ED64
:101C240030E71CD204E9F42401F9200212EAF43466
:101C340000FA30010AEBF43400FBECF43400FC202D
:101C44000210300108EB7024EC7021C201EA701C10
:101C5400D202E97017200714300509E51160051553
:101C640011121F7E7430121F93021B3FC082C08367
:101C7400121EBB300560790A30011DEB54F070363A
:101C840019EB540F703019EA54F0702A19EA540F02
:101C9400702419EF54F0701E790520020BEF540FD5
:101CA400701419EE54F0700E7903EE540F70071986
:101CB400ED54F0700119E511A204994019F511C011
:101CC40003C002C007C006C005121F7ED005D0069F
:101CD400D007D002D003300419C003C002C007C02B
:101CE40006C005742D121F93D005D006D007D0026C
:101CF400D00320024030012CC005C006C0078A82F0
:101D0400EBF583121F83E583121F84E582121F8380
:101D1400E582121F84D0E0F582121F83E582D0830E
:101D2400D08280058D828E83EF121F84E583121F7B
:101D340083E58380038D82EE121F84E582121F8364
:101D4400E582121F84121FA5D083D082300701229E
:101D5400021B3F30050EE511D39512F5115028757D
:101D640011008023E6547FFA18860308AE82AF83FD
:101D740090263C7D07E4932BA3E4933A5003A3DD20
:101D8400F48D128E828F83C000121E83C082C083A2
:101D9400EFB47E02801940112482FDC3EA33FAEBCA
:101DA40033FBEC33FCDDF48006F4247F122015753C
:101DB400F01BE4F8FFFEFD9025D0E933F9EA33FA8D
:101DC400EB33FBEC33FC5017E4932DD4FD740193F7
:101DD4003ED4FE7402933FD4FF74039338D4F8A323
:101DE400A3A3A3D5F0D4E47C50FBFAF9E512232392
:101DF40054FC8883122015ED29D4F516EE3AD4F557
:101E040015EF3BD4F514E5833CD4F51392D5D08378
:101E1400D082D000121E83C000C3749E9F5005D090
:101E240000021B57C082122015D08230D50FE9243E
:101E340001F9E43AFAE43BFBE43CFC40E2D2071249
:101E44001C4320050CE5126008121E737003D512A2
:101E5400F4E5126015742E121F937800D20308E87B
:101E6400121E73121F84E8B512F4D000021B3F1433
:101E7400C31392D52413F9E720D501C4540F22E6E5
:101E840018F9E618FC33E9339204FF600343048035
:101E9400E618FBE618FA7900C202D20122E6F9FD3F
:101EA40018200212AA01E6F91830010AAC02AB01AB
:101EB400E6FA18E6F91822E975F06484FE740AC596
:101EC400F084C445F0FD30020122EA540FF9902455
:101ED40070932DD4FDE94410933ED4FEEAC4540F0C
:101EE400F9902490932DD4FDE94410933ED4FEE957
:101EF4004420933400D4FF20010122EB540FF990C5
:101F040024C0932DD4FDE94410933ED4FEE944202B
:101F1400933FD4FFE43400FAEBC4540FF99024F057
:101F2400932DD4FDE94410933ED4FEE94420933F1D
:101F3400D4FFE94430933AD4FAEC540FF9902530A5
:101F44007B00121F51ECC4540FF9902580932DD4BB
:101F5400FDE94410933ED4FEE94420933FD4FFE9C5
:101F64004430933AD4FAE94440933BD4FB2274209E
:101F74003006027430121F931511E51170F022C45B
:101F8400540F7003300319D2032490D43440D4C0C6
:101F940083C082C000F5821202C9D000D082D083EF
:0C1FA400222003FC7430021F93D017228F
:102470000056126824803692480460167228844000
:102480000002050710121517202325283033353890
:102490000096928884807672686460565248444000
:1024A00000408122630445862768095091327314E5
:1024B00000000001010202020303040404050506F2
:1024C00000367208448016528824609632680440B0
:1024D000005510662176328742985308641975308A
:1024E000000613192632394552586572788591983D
:1024F0000076522804805632088460361288644080
:1025000000857157432814008671574329140086AB
:102510000004091419242934384348535863687255
:10252000000102030405060708091011121314150F
:10253000001632486480961228446076920824403F
:1025400000724416886032057749219365381082FD
:102550000077553310886644219977543210886586
:1025600000163350678300173450678401183451C4
:10257000000000000000010101010101020202024D
:1025800000561268248036924804601672288440EF
:102590000054096318722781369145005409631865
:1025A00000438730741761044891357922660953D6
:1025B00000683605734210794715845221895826E0
:1025C000000205081013161821242629323437403A
:1025D00000000050000000250000501200002506F9
:1025E00000501203002556015012780025063900CC
:1025F000125319005676090028880400144402007A
:10260000072201000461000052300000261500007E
:1026100063070000810300009101000095000000A5
:102620004800000024000000120000000600000026
:102630000300000001000000010000007DC5DDC3B3
:0A26400034C2E0BE38BD86BBE4B929
:101FB000FB7A20E4FCFDFEFFE5822582F582E583C5
:101FC00033F583E5F033F5F0EB33FB4017DAE980C6
:101FD00042E5822582F582E58333F583E5F033F52A
:101FE000F0EB33FBEC33FCED33FDEE33FEEF33FF70
:101FF000EC9518ED9519EE951AEF951B4013EC959D
:1020000018FCED9519FDEE951AFEEF951BFF438226
:0520100001DABEEB2225
:06004E00E478FFF6D8FD86
:102015006040F82582500274FFF582E824F8501ECE
:10202500CCCBCAF9E4CC24F85014CBCAF9E4CB24C0
:10203500F8500BCAF9E4CA24F850037900222408A1
:102045006010F8C3EC13FCEB13FBEA13FAE913F980
:10205500D8F12220F71130F6138883A88220F509DC
:0E206500F6A8837583002280FEF280F5F0223B
:0D004100758150120F88E582600302003EB9
:1020730020F71430F6148883A88220F507E6A88396
:0C20830075830022E280F7E49322E02243
:00000001FF
