:040000000200413287
:03000B000204B13B
:0100130032BA
:01001B0032B2
:0100230032AA
:01002B0032A2
:01003300329A
:03003B000204C8F4
:10005400752800752C00752200E4F523F524900022
:10006400157460F07409A3F0E4A3F0A3F0900019F0
:100074007480F07470A3F0E4A3F0A3F090001DF07A
:100084007496A3F0E4A3F0A3F0900021F074E1A32C
:10009400F0E4A3F0A3F0900025F074C2A3F074017F
:1000A400A3F0E4A3F0900029F07484A3F07403A3F4
:1000B400F0E4A3F090002D74E0F07493A3F07404C2
:1000C400A3F0E4A3F0900031F07408A3F014A3F0BB
:1000D400E4A3F09000357420F074A1A3F07407A396
:1000E400F0E4A3F090003974C0F07427A3F074090D
:1000F400A3F0E4A3F090003D7460F074AEA3F07438
:100104000AA3F0E4A3F0900041F07435A3F0740C5A
:10011400A3F0E4A3F090004574A0F074BBA3F074C2
:100124000DA3F0E4A3F0900049F07410A3F0740E52
:05013400A3F0E4A3F0BC
:0302C60002003EF5
:03003E00020AF2C1
:1002C900AE82E5227009C2998E9920990980FBC2F4
:1002D900F98E9A30F9FD22AF827E007D00EE03038C
:1002E900543FFCEF30E00674404CFE800474804CAF
:1002F900FEEFC313FF0DBD040040E28E8222AF82E0
:10030900752201C0071202E07D008D831202C9D057
:1003190007EFC4540FF5821202E07E008E830202B9
:10032900C97522019000F01202C99000F01202C9A9
:100339009000F01202C99000F00202C9AF82C00712
:1003490074B2C0E07420C0E0121B5215811581D02F
:1003590007BF0002800ABF01028016BF0233802254
:1003690074B5C0E07420C0E0121B5215811581805C
:100379002074BBC0E07420C0E0121B5215811581A6
:10038900800F74C1C0E07420C0E0121B52158115A2
:1003990081AE227F00C006C00774C7C0E07420C0C8
:1003A900E0121B52E58124FCF58122AF82BF0D02C8
:1003B9008004BF1B112274E0C0E07420C0E0121B4E
:1003C9005215811581227E00C007C00674E3C0E082
:1003D9007420C0E0121B52E58124FCF58122AF8212
:1003E900741BB5250280028079AE268E22AC227D4F
:1003F90000C007C006C004C00574E6C0E07420C090
:10040900E0121B52E58124FCF581D006D007BF001C
:1004190002800DBF01028021BF020280350204AEB5
:100429007F018E22758201C0071203458527227537
:100439008201120345D007806C7F028E22758202E9
:10044900C007120345852722758202120345D0078A
:1004590080537F008E22758200C007120345D007A2
:100469008043BF0002800ABF01028014BF023680A8
:100479001E852622852582C0071203B4D007802550
:10048900852722852582C0071203B4D007801685E7
:100499002622852582C0071203B485272285258255
:1004A9001203B4D0078F8222C0E0C0D0758CFF75CB
:1004B9008AF30523E4B523020524D0D0D0E032C065
:1004C900E0E5EC75EC00D0E032AF827E00EE2EFD67
:1004D9008DF005F0EF8002C313D5F0FBFC53040146
:1004E9007B00ED04F5F005F0EF8002C313D5F0FBB6
:1004F900FD5305017A00ECB50508EBB502047582D8
:1005090000220EBE040040C575820122AF827E0022
:100519007D04EF30E003430680EF0303543FFFEE11
:10052900C313FEED14FD70EA8E8222AF827E007D38
:1005390004EEC313FEEF30E003430680EF030354D8
:100549003FFFED14FD70EA8E8222AE875306107FBD
:1005590000BE1041BF003EAF84AE857D00EF2FFF86
:10056900ED33FD5306017C00EE2FFFEC3DFDEF243A
:10057900F1FFED34FFFD8F06530601EDC313CF13D1
:10058900CFFD75C7AA75C7558F8475C7AA75C75595
:100599008E855387EF22AF82752201BF310122BFB9
:1005A900320122BF33028032BF340122BF500280A0
:1005B90049BF5303020643BF5402805EBF5603027C
:1005C9000653BF70028023BF7302805EBF7402802E
:1005D90039BF760302065302066374FDC0E0742036
:1005E900C0E0121B5215811581227414C0E07421D8
:1005F900C0E0121B5215811581227427C0E07421B5
:10060900C0E0121B5215811581227439C0E0742192
:10061900C0E0121B521581158122744EC0E074216D
:10062900C0E0121B5215811581227464C0E0742147
:10063900C0E0121B521581158122747CC0E074211F
:10064900C0E0121B5215811581227493C0E07421F8
:10065900C0E0121B52158115812274ADC0E07421CE
:10066900C0E0121B521581158174C4C0E07421C009
:10067900E0121B521581158174DBC0E07421C0E0C2
:10068900121B521581158174FCC0E07421C0E0125F
:100699001B52158115817417C0E07422C0E0121B2A
:1006A90052158115817436C0E07422C0E0121B52C4
:1006B900158115817457C0E07422C0E0121B5215D0
:1006C9008115812275B10075B20075B30075B4004A
:1006D90075AC0075AD0043B32053B4DF43B1045387
:1006E900B2FB43B18053B27F53B3BF43B44053B35A
:1006F900F743B40853B3EF43B41053B3FB43B40403
:1007090053B3FD43B40253B3FE43B40153B1FE43A3
:10071900B20153B1FD43B20253B1EF43B21053B129
:10072900F743B208C296D292D293D294C290C280B1
:10073900C281C284C28322AF827E04EFB52814AB82
:1007490018AC19AD1A8B828C838DF0E412207B755D
:10075900820422AB18AC19AD1A8B828C838DF0E41C
:1007690012207B7A008AF005F0E5288002C313D5B0
:10077900F0FBF85300017900B80005B90002805573
:10078900B80105B9000280030208298AF005F0EFD3
:100799008002C313D5F0FBF85300017900B80005B6
:1007A900B9000280030208298F288B828C838DF07F
:1007B900122096F98A0088F005F07401800225E07C
:1007C900D5F0FBF8E942008B828C838DF0E812208A
:1007D9007B7E00804B8AF005F0EF8002C313D5F0D1
:1007E900FBF85300017900B80005B900028031B85F
:1007F900012EB9002B8F288B828C838DF0122096C5
:10080900F98A0088F005F07401800225E0D5F0FB33
:10081900F8E942008B828C838DF0E812207B7E01FF
:100829000ABA0500500302076E8E8222E582FF6034
:100839001EEF30E004C2948002D294EF30E104C28A
:10084900938002D293EF30E203C29222D29222D253
:1008590094D293D29222AF82E518C4540FFE530763
:100869000FE4FDFCEEB50708ECB50504758201221D
:1008790075820022AD82AE83AFF074012DFAE43E99
:10088900FB8F048A828B838CF0122096FC24F9500A
:100899000122EC2C2C9008A2730209CB0209CB028D
:1008A90009CB0209CB0208B702093B0209B2740558
:1008B9002DF529E43EF52A8F2B852982852A838502
:1008C9002BF0122096F8A3122096F9A3122096FC79
:1008D900888289838CF012209624FF92948529823C
:1008E900852A83852BF0122096FAA3122096FBA362
:1008F900122096FC0ABA00010B8A828B838CF012B3
:10090900209624FF9293852982852A83852BF012CC
:100919002096FAA3122096FBA3122096FC74022AB1
:10092900FAE43BFB8A828B838CF012209624FF9297
:10093900922274052DFDE43EFE8D828E838FF01286
:100949002096FAA3122096FBA3122096FC8A828B8A
:10095900838CF012209624FF92908D828E838FF0E3
:10096900122096FAA3122096FBA3122096FC0ABA2B
:1009790000010B8A828B838CF012209624FF9280CF
:100989008D828E838FF0122096FDA3122096FEA3EE
:10099900122096FF74022DFDE43EFE8D828E838F18
:1009A900F012209624FF928122AE217F00C006C05A
:1009B900077484C0E07422C0E0121B52E58124FC54
:1009C900F58122AD82AE83AFF074012DFAE43EFBCE
:1009D9008F048A828B838CF0122096FC24F95003B1
:1009E900020A95EC2C2C9009F373020AB4020A5CF2
:1009F900020AB4020A08020A95020A95020A7B2031
:100A090095012274022DFAE43EFB8F048A828B83BE
:100A19008CF0122096F87900C004C003C002C0000F
:100A2900C0017499C0E07422C0E0121B52E5812410
:100A3900FCF581D002D003D0048A828B838CF0121A
:100A49002096F52190370012114C8521109037001E
:100A590002116074022DFAE43EFB8F048A828B83B3
:100A69008CF0122096FAB521428D828E838FF00286
:100A7900087DAB217C00C003C00474ADC0E07422C2
:100A8900C0E0121B52E58124FCF5812274022DFA83
:100A9900E43EFB8F048A828B838CF0122096FAB590
:100AA90021098D828E838FF002087D22E582FFC4A1
:100AB900540FFE7D00C007C006C00574C0C0E074B5
:100AC90022C0E0121B52E58124FCF581D0075307AF
:100AD9000F7E00C007C00674CDC0E07422C0E012CA
:100AE9001B52E58124FCF581227F00752E01752FAB
:100AF900027530037531047532057533017534009B
:100B09008F357E00C007C0061206CD121B3690C273
:100B19000075F001E4121AB9120553538EF7D2A9E0
:100B2900D28C75220074DAC0E07422C0E0121B5224
:100B39001581158174EAC0E07422C0E0121B5215B8
:100B490081158175220174FBC0E07422C0E0121B7B
:100B59005215811581D006D0077C307D75000000C3
:100B69000000EC24FFFAED34FFFB8A048B05EA4B05
:100B790070EBF522A282A295E433FD439B02D2AF2A
:100B8900208202D284D290903700E493F52190001C
:100B99002D75F040C007C006C005121A91E582D034
:100BA90005D006D0077003020E007431B52D0280FE
:100BB900427432B52D0280777433B52D03020C745B
:100BC9007434B52D03020CB07435B52D03020CEC49
:100BD9007436B52D03020D287437B52D03020D6443
:100BE9007438B52D03020D9F7474B52D03020DDA07
:100BF900020E00B296C007C006C005740BC0E074AF
:100C090023C0E0121B5215811581A296E433FB7CA7
:100C190000C003C0047414C0E07423C0E0121B5266
:100C2900E58124FCF581D005D006D007020E00B27B
:100C390094C007C006C0057419C0E07423C0E0124F
:100C49001B5215811581A294E433FB7C00C003C0BB
:100C5900047414C0E07423C0E0121B52E58124FC23
:100C6900F581D005D006D007020E00B293C007C0A7
:100C790006C0057420C0E07423C0E0121B52158120
:100C89001581A293E433FB7C00C003C0047414C033
:100C9900E07423C0E0121B52E58124FCF581D005E4
:100CA900D006D007020E00B292C007C006C0057474
:100CB90027C0E07423C0E0121B5215811581A2924E
:100CC900E433FB7C00C003C0047414C0E07423C087
:100CD900E0121B52E58124FCF581D005D006D0072E
:100CE900020E00B290C007C006C005742EC0E074A1
:100CF90023C0E0121B5215811581A290E433FB7CBD
:100D090000C003C0047414C0E07423C0E0121B5275
:100D1900E58124FCF581D005D006D007020E00B28A
:100D290080C007C006C0057438C0E07423C0E01253
:100D39001B5215811581A280E433FB7C00C003C0DE
:100D4900047414C0E07423C0E0121B52E58124FC32
:100D5900F581D005D006D007020E00B281C007C0C8
:100D690006C0057442C0E07423C0E0121B5215810D
:100D79001581A281E433FB7C00C003C0047414C054
:100D8900E07423C0E0121B52E58124FCF581D005F3
:100D9900D006D0078061B284C007C006C005744D73
:100DA900C0E07423C0E0121B5215811581A284E4AE
:100DB90033FB7C00C003C0047414C0E07423C0E09A
:100DC900121B52E58124FCF581D005D006D007809D
:100DD90026C007C006C005C023C0247459C0E074EA
:100DE90023C0E0121B52E58124FCF581D005D00611
:100DF900D007E4F523F5248D04A295E433FBECB583
:100E09000302805BA295E433FB7C00C007C006C0E7
:100E190003C0047464C0E07423C0E0121B52E5816E
:100E290024FCF581D006D00720952F052CE52C54FC
:100E390001FC24FF9294E52C035401FB24FF9293B7
:100E4900E52C03035401FA24FF9292EC24FF9290BB
:100E5900EB24FF9280EA24FF9281A295E433FDA25C
:100E690095A282BF0002800DBF01028036BF020237
:100E79008074020B9790002D75F040C007C006C022
:100E890005121B0EE582D005D006D0077003020BB0
:100E990097E4F523F5247E0190004DE52DF07F01BF
:100EA900020B9790002D75F040C007C006C00512CF
:100EB9001B0EE582D005D006D0076018E4F523F5AE
:100EC900248E040EEC244DF582E43400F583E52DDF
:100ED900F0020B97C374649523E495244003020B35
:100EE900977F02020B97754E4D754F007550008E16
:100EF90082C006C0051217EBD005D00675434D75A3
:100F0900440075450075462E7547007548408E8228
:100F1900C006C005121435AC82D005D006BC020249
:100F2900804EBC0302801CBC0446C006C005747018
:100F3900C0E07423C0E0121B5215811581D005D081
:100F490006802DBE011390004DE0F582C006C00554
:100F5900120AB5D005D0068017C006C005747FC037
:100F6900E07423C0E0121B5215811581D005D0060B
:050F79007F00020B9750
:1020B2000A0D0073656C66200063726F73730062B1
:1020C2006F74682000206F75747075743A54686973
:1020D20073206973205541525425640A0D000D0A7C
:1020E200002563000D0A696E7075743A546869734D
:1020F200206973205541525425640049646C65205F
:10210200707265616D626C65206F6E2F6F66660D11
:102112000A004C696E65466920506F776572204FE0
:1021220066660D0A004C696E65466920506F7765D8
:1021320072204F6E0D0A004C696E6546692055612A
:102142007274205478204C6F770D0A004C696E65CA
:102152004669205561727420547820486967680D79
:102162000A004C696E654669204353432072782009
:1021720046534D204F66660D0A004C696E654669EE
:10218200204353432072782046534D204F4E0D0A70
:102192000056657273696F6E20312E34206F6E2087
:1021A20032303233313032360D0A00313A20646F28
:1021B200776E6C696E6B207061636B657420310D94
:1021C2000A00323A20646F776E6C696E6B20706120
:1021D200636B657420320D0A00333A2075706C69A6
:1021E2006E6B2069646C6520707265616D626C65EE
:1021F200206F6E2F6F66660D0A00702F503A204CCA
:10220200696E65466920506F776572206F66662F2A
:102212006F6E0D0A00742F543A204C696E65466940
:102222002055617274205478204C6F772F4869676B
:10223200680D0A00732F533A204C696E6546696532
:10224200204353432052782046534D206F66662F19
:102252006F6E0D0A00746573742070726F6365642B
:102262007572653A2070202D3E2050202D3E20545C
:10227200202D3E2053202D3E2031206F7220320D22
:102282000A004D792061646472657373206973205A
:10229200307825780D0A0073657420616464726574
:1022A20073732061732025640D0A004D79206164E7
:1022B20064726573732069732025640D0A0061647A
:1022C20064726573733A25750D0A00636F6D6D61F3
:1022D2006E643A25750D0A0054686973206973208B
:1022E20055415254300A0D004C696E6546692053BF
:1022F2006E69666665720A0D0054686973206973B7
:102302002055415254310A0D00554152545F5458E0
:102312003D0025640A0D004C45445F523D004C458A
:10232200445F473D004C45445F423D004D4F544F92
:10233200525F454E3D004D4F544F525F43573D0053
:102342004D4F544F525F4343573D0053454C5F52EC
:10235200585F504F4C3D00636F756E743A25640DA3
:102362000A005357495443483A25640A0D0045521E
:10237200524F523A2043524321210D0A00455252F4
:102382004F523A20746F6F20736D616C6C206C65D4
:092392006E67746821210D0A0038
:1037000000000000000000000000000000000000B9
:1037100000000000000000000000000000000000A9
:103720000000000000000000000000000000000099
:103730000000000000000000000000000000000089
:103740000000000000000000000000000000000079
:103750000000000000000000000000000000000069
:103760000000000000000000000000000000000059
:103770000000000000000000000000000000000049
:100F7E0075C7AA75C75575FD5A75C7AA75C7557534
:100F8E00FDA575820022AC82AD83AEF0FF538EF7C5
:100F9E00438901D28CEC4D4E4F601A758A76758C52
:100FAE00FF108D0280FB1CBCFF091DBDFF051EBE80
:100FBE00FF011F80E0C28C22AC82AD83AEF0FF53E6
:100FCE008EF7438901D28CEC4D4E4F601A758A987C
:100FDE00758CFA108D0280FB1CBCFF091DBDFF0530
:100FEE001EBEFF011F80E0C28C22AC82AD83AEF02C
:100FFE00FF538EEF438910D28EEC4D4E4F601A7513
:10100E008BF6758DC9108F0280FB1CBCFF091DBDB0
:10101E00FF051EBEFF011F80E0C28E22AC82AD8393
:10102E00AEF0FF53C9BF53C9DF43C910D2CAEC4D4E
:10103E004E4F601A75CCE575CDF710CF0280FB1CB4
:10104E00BCFF091DBDFF051EBEFF011F80E0C2CA09
:10105E0022AC82AD83AEF0FF75C40743C408EC4DDD
:10106E004E4F602575C55775C6CDAAC45302107B69
:10107E0000BA10F6BB00F353C4EF1CBCFF091DBD34
:10108E00FF051EBEFF011F80D553C4F722AC82ADF3
:10109E0083AEF0FF75C40743C408EC4D4E4F602578
:1010AE0075C5D775C6FFAAC45302107B00BA10F6D9
:1010BE00BB00F353C4EF1CBCFF091DBDFF051EBED4
:1010CE00FF011F80D553C4F722AF82A2AF9200C298
:1010DE00AF75C7AA75C755439F01A20092AFE51B16
:1010EE006013A2AF9200C2AF75C7AA75C75543A5CC
:1010FE0001A20092AF8519A68518A7851AAE8FAFEB
:10110E00A2AF9200C2AF75C7AA75C75543A401A27C
:10111E000092AFE51B6026A2AF9200C2AF75C7AAC0
:10112E0075C75553A5FEA20092AFA2AF9200C2AFF3
:10113E0075C7AA75C755539FFEA20092AF22AE8205
:10114E00AF838F188E19751AFF751B0175822202D7
:10115E0010D7AE82AF838F188E1985101A751B01AA
:10116E007582210210D775180075190C751A007545
:10117E001B007582041210D7AFAE75180075190DCD
:10118E00751A00751B00758204C0071210D7D007A0
:10119E00E5AE540FFEA2AF9200C2AF75C7AA75C7D7
:1011AE0055539FFEA20092AFE4C454F0CFC4CF6F4C
:1011BE00CF54F0CF6FFD7C00EE2FF582EC3DF58322
:1011CE0022858219751800751A00751B0075820428
:1011DE001210D785AE82A2AF9200C2AF75C7AA75A4
:0A11EE00C755539FFEA20092AF22E6
:10013900E4F540F54190006B7432F07424A3F07437
:1001490080A3F090006E743DF07424A3F07480A332
:10015900F09000717448F07424A3F07480A3F090B7
:1001690000747453F07424A3F07480A3F0900077A2
:100179007460F07424A3F07480A3F090007A746C16
:10018900F07424A3F07480A3F090007D747BF07464
:1001990024A3F07480A3F09000807489F07424A3E0
:1001A900F07480A3F09000837489F07424A3F07430
:1001B90080A3F09000867489F07424A3F07480A35E
:1001C900F09000897489F07424A3F07480A3F090EE
:1001D900008C7489F07424A3F07480A3F090008FCC
:1001E9007489F07424A3F07480A3F0900092748948
:1001F900F07424A3F07480A3F09000957489F074CE
:1002090024A3F07480A3F09000987489F07424A357
:10021900F07480A3F090009B7489F07424A3F074A7
:1002290080A3F090009E7489F07424A3F07480A3D5
:10023900F09000A17489F07424A3F07480A3F09065
:1002490000A47489F07424A3F07480A3F09000A72B
:100259007489F07424A3F07480A3F09000AA7489BF
:10026900F07424A3F07480A3F09000AD7489F07445
:1002790024A3F07480A3F09000B07489F07424A3CF
:10028900F07480A3F09000B37489F07424A3F0741F
:1002990080A3F09000B67489F07424A3F07480A34D
:1002A900F09000B97489F07424A3F07480A3F090DD
:0D02B90000BC7489F07424A3F07480A3F0DD
:1011F800AD82AE83AFF074032DFDE43EFE8D828E8A
:10120800838FF01220962405F58222AD82AE83AF3B
:10121800F08D028E038F047518047519FF8A828B6E
:10122800838CF0C007C006C0051217BB858219D091
:1012380005D006D00774052DFAE43EFB8F048A8298
:101248008B838CF0122096FAA3122096FBA312200F
:1012580096FC74032DFDE43EFE8D828E838FF01282
:101268002096F5188A828B838CF00217BBAD82AE6C
:1012780083AFF0C007C006C005121213AC82D005B8
:10128800D006D00774042DFDE43EFE8D828E838F38
:10129800F0EC02207BAD82AE83AFF0C007C006C081
:1012A80005121213AC82D005D006D00774042DFDA8
:1012B800E43EFE8D828E838FF0122096B50404756D
:1012C80082012275820022021B0E021B2CAD82AE07
:1012D80083AFF0C007C006C005121213AC82D00558
:1012E800D006D00774042DF9E43EFA8F0389828A68
:1012F800838BF0EC12207B8D028E038F048A828B05
:10130800838CF0122096F5820ABA00010BC007C040
:1013180006C005C004C003C0021212D2D002D00316
:10132800D004D005D006D0078A828B838CF0122097
:1013380096F5820ABA00010BC007C006C005C004B2
:10134800C003C0021212D2D002D003D004D005D0FC
:1013580006D0078A828B838CF0122096F90ABA008D
:10136800010B8982C007C006C005C004C003C002C3
:101378001212D2D002D003D004D005D006D0078AEA
:10138800828B838CF0122096F5820ABA00010BC07A
:1013980007C006C005C004C003C0021212D2D002A2
:1013A800D003D0048A828B838CF0122096F58212A7
:1013B80012D2D005D006D00774052DFAE43EFB8F73
:1013C8000474032DFDE43EFE7542008D828E838FEA
:1013D800F0122096F8C3E542985051C005C006C0E7
:1013E800078A828B838CF0122096F8A3122096F934
:1013F800A3122096FFE54228F8E439F98882898308
:101408008FF0122096F582C007C006C005C004C040
:1014180003C0021212D2D002D003D004D005D006E5
:10142800D0070542D007D006D005809F22AF82BFE3
:101438000500500475820322AD46AE47AF48AA4363
:10144800AB44AC458A828B838CF0122096F97401E8
:101458002AF543E43BF5448C458D828E838FF0E971
:1014680012207B0DBD00010EAA43AB44AC458A8215
:101478008B838CF0122096F974012AF543E43BF52E
:10148800448C458D828E838FF0E912207B0DBD0040
:10149800010EAA43AB44AC458A828B838CF01220A0
:1014A80096F974012AF543E43BF5448C458D828E08
:1014B800838FF0E912207B0DBD00010EAA43AB44D7
:1014C800AC458A828B838CF0122096F974012AF538
:1014D80043E43BF5448C458D828E838FF0E91220DE
:1014E8007B0DBD00010EAA43AB44AC458A828B83B9
:1014F8008CF0122096F974012AF543E43BF5448CEC
:10150800458D828E838FF0E912207BAD46AE47AFC2
:101518004874032DFAE43EFB8F0485434A85444B07
:1015280085454C7549008A828B838CF0122096F889
:10153800C3E549985052C002C003C00474052DF891
:10154800E43EF98F04888289838CF0122096F8A3F0
:10155800122096F9A3122096FCE54928F8E439F9F7
:10156800854A82854B83854CF0122096FBA38582A1
:101578004A85834B888289838CF0EB12207B05494E
:10158800D004D003D002809E8D828E838FF01212F9
:101598009DE58270047582042275820222AD82AEB6
:1015A80083AFF0C007C006C005749BC0E07423C0B9
:1015B800E0121B5215811581D005D006D0078D8207
:1015C8008E838FF0122096FC7B00C007C006C005F2
:1015D800C004C00374BDC0E07423C0E0121B52E510
:1015E8008124FCF581D005D006D00774012DFAE4DA
:1015F8003EFB8F048A828B838CF0122096FA75F05A
:1016080003A4246BF582740035F0F583E0F9A3E0B8
:10161800FBA3E0FC8A007A00C007C006C005C00131
:10162800C003C004C000C00274C8C0E07423C0E096
:10163800121B52E58124F9F581D005D006D0077434
:10164800022DFAE43EFB8F048A828B838CF01220F1
:1016580096FA7C00C007C006C005C002C00474D753
:10166800C0E07423C0E0121B52E58124FCF581D050
:1016780005D006D00774032DFAE43EFB8F048A8256
:101688008B838CF0122096FA7C00C007C006C00538
:10169800C002C00474E2C0E07423C0E0121B52E52B
:1016A8008124FCF581D005D006D0078D828E838FEA
:1016B800F0C007C006C005121213AC82D005D006D0
:1016C800D0077B0074042DF8E43EF98F02888289E4
:1016D800838AF0122096F87A00C007C006C005C0B9
:1016E80004C003C000C00274EDC0E07423C0E0125F
:1016F8001B52E58124FAF5817400C0E07424C0E02F
:10170800121B5215811581D005D006D00774052DFE
:10171800FAE43EFB8F0474032DFDE43EFE754D0094
:101728008D828E838FF0122096F8C3E54D98506411
:10173800C005C006C0078A828B838CF0122096F8F9
:10174800A3122096F9A3122096FFE54D28F8E43954
:10175800F9888289838FF0122096F87F00C007C02D
:1017680006C005C004C003C002C000C0077407C09B
:10177800E07424C0E0121B52E58124FCF581D002FC
:10178800D003D004D005D006D007054DD007D00629
:10179800D005808C740DC0E07424C0E0121B521573
:1017A800811581749BC0E07423C0E0121B5215811F
:1017B800158122AD82AE83AFF0AC19ED4E60217B6E
:1017C80000C3EB951850198D828E838FF0122096E6
:1017D800FAA3AD82AE83EC6A9018F793FC0B80E114
:1017E8008C8222AF82AD40AE410540E4B54002058F
:1017F80041C007C005C0067410C0E07424C0E012E0
:101808001B52E58124FCF5817416C0E07424C0E005
:10181800121B5215811581D0077E00C3EE9F5024FC
:101828008E047D00C007C006C004C005741EC0E059
:101838007424C0E0121B52E58124FCF581D006D047
:10184800070E80D7C007740DC0E07424C0E0121BD7
:1018580052158115817425C0E07424C0E0121B5212
:1018680015811581D0077E00C3EE9F5072AB4EAC38
:101878004FAD508B828C838DF0122096FABA1000EF
:1018880050308A0174012BF54EE43CF54F8D508998
:10189800007900C007C006C000C001742BC0E07406
:1018A80024C0E0121B52E58124FCF581D006D00744
:1018B800802A74012BF54EE43CF54F8D507D00C015
:1018C80007C006C002C0057407C0E07424C0E01257
:1018D8001B52E58124FCF581D006D0070E8089745F
:0F18E8000DC0E07424C0E0121B5215811581223F
:10239B002D2D2D2D2D2D2D2D2D2D2D2D2D2D2D2D62
:1023AB002D2D2D2D2D2D2D2D2D2D2D2D2D2D2D0D72
:1023BB000A00566572203A2025640D0A0054797084
:1023CB00653A202564282573290D0A00416464723F
:1023DB003A2025640D0A0053697A653A2025640D6D
:1023EB000A0043524320636F6D70203A202564200E
:1023FB0025640D0A00444154413A20003078257879
:05240B0020000D0A0095
:1018F70000316253C4F5A697B988DBEA7D4C1F2EE9
:101907004372211087B6E5D4FACB98A93E0F5C6DD8
:1019170086B7E4D5427320113F0E5D6CFBCA99A8C8
:10192700C5F4A796013063527C4D1E2FB889DAEBB8
:101937003D0C5F6EF9C89BAA84B5E6D740712213A8
:101947007E4F1C2DBA8BD8E9C7F6A5940332615098
:10195700BB8AD9E87F4E1D2C02336051C6F7A49588
:10196700F8C99AAB3C0D5E6F4170231285B4E7D678
:101977007A4B1829BE8FDCEDC3F2A1900736655468
:1019870039085B6AFDCC9FAE80B1E2D34475261758
:10199700FCCD9EAF38095A6B4574271681B0E3D248
:1019A700BF8EDDEC7B4A192806376455C2F3A09138
:1019B7004776251483B2E1D0FECF9CAD3A0B586928
:1019C70004356657C0F1A293BD8CDFEE79481B2A18
:1019D700C1F0A3920534675678491A2BBC8DDEEF08
:1019E70082B3E0D1467724153B0A5968FFCE9DACF8
:102410002325640D0A00726177203A2020002532BE
:102420006420202000646174613A0030783025789F
:102430002000547970655F42636173740054797051
:10244000655F556361737400547970655F4D6361B6
:10245000737400547970655F5365744164647200ED
:10246000547970655F5365744C45440054797065C8
:102470005F4374726C4D6F746F7200547970655F56
:10248000526561644164647200547970655F4E6F97
:032490006E650076
:1019F700AC82AD83AEF0FF53B1BF53B2BF53B17FDB
:101A070053B27F759850438920438780438E105384
:101A1700C4DF8C188D198E1A8F1B90D4BC75F00FEC
:101A2700E4121FD3AC82C3E49CF58DD28ED29922E7
:101A3700AC82AD83AEF0FF53B1BF53B2BF53B17F9A
:101A470053B27F75985043878053C4F843C4208CA2
:101A5700188D198E1A8F1B90D4BC75F00FE4121FC6
:101A6700D3AC82AD83AEF0FFE4C39CE49DF974016F
:101A77009EE49F89C6C3E49CFC8CC543C408D299E5
:101A8700223098FD859982C29822AD82AE83AFF04D
:101A97003098118D828E838FF0E59912207BC29842
:101AA7007582012275820022AF82C2998F9930997F
:101AB700FD22AC82AD83AEF0FF53B1FB53B2FB53B3
:101AC700B3BF53B4BF75F85875C40853C4DF8C1837
:101AD7008D198E1A8F1B90D4BC75F00FE4121FD38B
:101AE700AC82AD83AEF0FFE4C39CE49DF974019E24
:101AF700E49F89C6C3E49CFC8CC543C4082230F824
:101B0700FD859A82C2F822AD82AE83AFF030F8111C
:101B17008D828E838FF0E59A12207BC2F875820141
:101B27002275820022AF82C2F98F9A30F9FD229086
:101B3700E100E4F5F01219F790C20075F001E41224
:101B47001AB9C299C2F9D2ACD2AF22C01785811790
:101B5700E51724FDF8868318868218E493A3B42535
:101B670077C201C202C203C204C205C20679117755
:101B770000C207E493A324C64017240A5015700532
:101B8700B51102D206D205FAE775F00AA42AF78042
:101B9700E2240A2430B46C04D20180D7B46804D29A
:101BA7000280D0B47303021BEAB46406121EC40297
:101BB7001C46B47506121EC4021C66B4630518E6FB
:101BC700188017B47803021C25B46603021D7AB483
:101BD7002E0679127700809B6006121FB6021B62E1
:101BE700021FD0C083C08286F018868318868218A9
:101BF700300519C206C082C0831220966007A3155C
:101C070011E51170F4121FA1D083D08212209660C3
:101C170006A3121FB680F5D082D083021B62121C66
:101C27003D20020C121C3D300106121C3D121C3DCA
:101C3700121FC8021B62E6121FA6E618021FA7EDB5
:101C470030E71CD204E9F42401F9200212EAF43443
:101C570000FA30010AEBF43400FBECF43400FC200A
:101C67000210300108EB7024EC7021C201EA701CED
:101C7700D202E97017200714300509E51160051530
:101C870011121FA17430121FB6021B62C082C083DB
:101C9700121EDE300560790A30011DEB54F07036F4
:101CA70019EB540F703019EA54F0702A19EA540FDF
:101CB700702419EF54F0701E790520020BEF540FB2
:101CC700701419EE54F0700E7903EE540F70071963
:101CD700ED54F0700119E511A204994019F511C0EE
:101CE70003C002C007C006C005121FA1D005D00659
:101CF700D007D002D003300419C003C002C007C008
:101D070006C005742D121FB6D005D006D007D00225
:101D1700D00320024030012CC005C006C0078A82CC
:101D2700EBF583121FA6E583121FA7E582121FA6F4
:101D3700E582121FA7D0E0F582121FA6E582D083A5
:101D4700D08280058D828E83EF121FA7E583121F35
:101D5700A6E58380038D82EE121FA7E582121FA6D8
:101D6700E582121FA7121FC8D083D0823007012235
:101D7700021B6230050EE511D39512F51150287537
:101D870011008023E6547FFA18860308AE82AF83DA
:101D970090265F7D07E4932BA3E4933A5003A3DDDA
:101DA700F48D128E828F83C000121EA6C082C0835C
:101DB700EFB47E02801940112482FDC3EA33FAEBA7
:101DC70033FBEC33FCDDF48006F4247F12203875F6
:101DD700F01BE4F8FFFEFD9025F3E933F9EA33FA47
:101DE700EB33FBEC33FC5017E4932DD4FD740193D4
:101DF7003ED4FE7402933FD4FF74039338D4F8A300
:101E0700A3A3A3D5F0D4E47C50FBFAF9E51223236E
:101E170054FC8883122038ED29D4F516EE3AD4F510
:101E270015EF3BD4F514E5833CD4F51392D5D08355
:101E3700D082D000121EA6C000C3749E9F5005D04A
:101E470000021B7AC082122038D08230D50FE924D5
:101E570001F9E43AFAE43BFBE43CFC40E2D2071226
:101E67001C6620050CE5126008121E967003D51239
:101E7700F4E5126015742E121FB67800D20308E835
:101E8700121E96121FA7E8B512F4D000021B6214A7
:101E9700C31392D52413F9E720D501C4540F22E6C2
:101EA70018F9E618FC33E9339204FF600343048012
:101EB700E618FBE618FA7900C202D20122E6F9FD1C
:101EC70018200212AA01E6F91830010AAC02AB0188
:101ED700E6FA18E6F91822E975F06484FE740AC573
:101EE700F084C445F0FD30020122EA540FF9902432
:101EF70093932DD4FDE94410933ED4FEEAC4540FC6
:101F0700F99024B3932DD4FDE94410933ED4FEE910
:101F17004420933400D4FF20010122EB540FF990A1
:101F270024E3932DD4FDE94410933ED4FEE94420E5
:101F3700933FD4FFE43400FAEBC4540FF990251310
:101F4700932DD4FDE94410933ED4FEE94420933FFA
:101F5700D4FFE94430933AD4FAEC540FF99025535F
:101F67007B00121F74ECC4540FF99025A3932DD452
:101F7700FDE94410933ED4FEE94420933FD4FFE9A2
:101F87004430933AD4FAE94440933BD4FB2274207B
:101F97003006027430121FB61511E51170F022C415
:101FA700540F7003300319D2032490D43440D4C0A3
:101FB70083C082C000F5821202C9D000D082D083CC
:0C1FC700222003FC7430021FB6D0172249
:1024930000561268248036924804601672288440DD
:1024A300000205071012151720232528303335386D
:1024B30000969288848076726864605652484440DD
:1024C30000408122630445862768095091327314C2
:1024D30000000001010202020303040404050506CF
:1024E300003672084480165288246096326804408D
:1024F3000055106621763287429853086419753067
:102503000006131926323945525865727885919819
:10251300007652280480563208846036128864405C
:102523000085715743281400867157432914008688
:102533000004091419242934384348535863687232
:1025430000010203040506070809101112131415EC
:10255300001632486480961228446076920824401C
:1025630000724416886032057749219365381082DA
:102573000077553310886644219977543210886563
:1025830000163350678300173450678401183451A1
:10259300000000000000010101010101020202022A
:1025A30000561268248036924804601672288440CC
:1025B3000054096318722781369145005409631842
:1025C30000438730741761044891357922660953B3
:1025D30000683605734210794715845221895826BD
:1025E3000002050810131618212426293234374017
:1025F30000000050000000250000501200002506D6
:1026030000501203002556015012780025063900A8
:102613001253190056760900288804001444020056
:10262300072201000461000052300000261500005B
:102633006307000081030000910100009500000082
:102643004800000024000000120000000600000003
:102653000300000001000000010000007DC5DDC390
:0A26630034C2E0BE38BD86BBE4B906
:101FD300FB7A20E4FCFDFEFFE5822582F582E583A2
:101FE30033F583E5F033F5F0EB33FB4017DAE980A3
:101FF30042E5822582F582E58333F583E5F033F507
:10200300F0EB33FBEC33FCED33FDEE33FEEF33FF4C
:10201300EC9518ED9519EE951AEF951B4013EC9579
:1020230018FCED9519FDEE951AFEEF951BFF438203
:0520330001DABEEB2202
:06004E00E478FFF6D8FD86
:102038006040F82582500274FFF582E824F8501EAB
:10204800CCCBCAF9E4CC24F85014CBCAF9E4CB249D
:10205800F8500BCAF9E4CA24F8500379002224087E
:102068006010F8C3EC13FCEB13FBEA13FAE913F95D
:10207800D8F12220F71130F6138883A88220F509B9
:0E208800F6A8837583002280FEF280F5F02218
:0D004100758150120F7EE582600302003EC3
:1020960020F71430F6148883A88220F507E6A88373
:0C20A60075830022E280F7E49322E02220
:00000001FF
