:040000000200413287
:03000B000204B537
:0100130032BA
:01001B0032B2
:0100230032AA
:01002B0032A2
:01003300329A
:03003B000204CCF0
:10005400752800752C00752200E4F523F524900022
:1000640015F09000167460F07409A3F0E4A3F0A3F3
:10007400F090001A7480F07470A3F0E4A3F0A3F07D
:1000840090001EF07496A3F0E4A3F0A3F090002275
:10009400F074E1A3F0E4A3F0A3F0900026F074C29E
:1000A400A3F07401A3F0E4A3F090002AF07484A3F5
:1000B400F07403A3F0E4A3F090002E74E0F07493C2
:1000C400A3F07404A3F0E4A3F0900032F07408A346
:1000D400F014A3F0E4A3F09000367420F074A1A30C
:1000E400F07407A3F0E4A3F090003A74C0F074270E
:1000F400A3F07409A3F0E4A3F090003E7460F074DC
:10010400AEA3F0740AA3F0E4A3F0900042F07435B7
:10011400A3F0740CA3F0E4A3F090004674A0F07470
:10012400BBA3F0740DA3F0E4A3F090004AF07410A4
:09013400A3F0740EA3F0E4A3F0A3
:0302CA0002003EF1
:03003E00020B0DA5
:1002CD00AE82E5227009C2998E9920990980FBC2F0
:1002DD00F98E9A30F9FD22AF827E007D00EE030388
:1002ED00543FFCEF30E00674404CFE800474804CAB
:1002FD00FEEFC313FF0DBD040040E28E8222AF82DC
:10030D00752201C0071202E47D008D831202CDD04B
:10031D0007EFC4540FF5821202E47E008E830202B1
:10032D00CD7522019000F01202CD9000F01202CD99
:10033D009000F01202CD9000F00202CDAF82C00706
:10034D0074E4C0E07420C0E0121B8415811581D0C7
:10035D0007BF0002800ABF01028016BF0233802250
:10036D0074E7C0E07420C0E0121B841581158180F4
:10037D002074EDC0E07420C0E0121B84158115813E
:10038D00800F74F3C0E07420C0E0121B841581153A
:10039D0081AE227F00C006C00774F9C0E07420C092
:1003AD00E0121B84E58124FCF58122AF82BF0D0292
:1003BD008004BF1B11227412C0E07421C0E0121B17
:1003CD008415811581227E00C007C0067415C0E01A
:1003DD007421C0E0121B84E58124FCF58122AF82DB
:1003ED00741BB5250280028079AE268E22AC227D4B
:1003FD0000C007C006C004C0057418C0E07421C059
:10040D00E0121B84E58124FCF581D006D007BF00E6
:10041D0002800DBF01028021BF020280350204B2AD
:10042D007F018E22758201C007120349852722752F
:10043D008201120349D007806C7F028E22758202E1
:10044D00C007120349852722758202120349D0077E
:10045D0080537F008E22758200C007120349D0079A
:10046D008043BF0002800ABF01028014BF023680A4
:10047D001E852622852582C0071203B8D007802548
:10048D00852722852582C0071203B8D007801685DF
:10049D002622852582C0071203B88527228525824D
:1004AD001203B8D0078F8222C0E0C0D0758CFF75C3
:1004BD008AF30523E4B523020524D0D0D0E032C061
:1004CD00E0E5EC75EC00D0E032AF827E00EE2EFD63
:1004DD008DF005F0EF8002C313D5F0FBFC53040142
:1004ED007B00ED04F5F005F0EF8002C313D5F0FBB2
:1004FD00FD5305017A00ECB50508EBB502047582D4
:10050D0000220EBE040040C575820122AF827E001E
:10051D007D04EF30E003430680EF0303543FFFEE0D
:10052D00C313FEED14FD70EA8E8222AF827E007D34
:10053D0004EEC313FEEF30E003430680EF030354D4
:10054D003FFFED14FD70EA8E8222AE875306107FB9
:10055D0000BE1041BF003EAF84AE857D00EF2FFF82
:10056D00ED33FD5306017C00EE2FFFEC3DFDEF2436
:10057D00F1FFED34FFFD8F06530601EDC313CF13CD
:10058D00CFFD75C7AA75C7558F8475C7AA75C75591
:10059D008E855387EF22AF82752201BF310122BFB5
:1005AD00320122BF33028032BF340122BF5002809C
:1005BD0049BF5303020647BF5402805EBF56030274
:1005CD000657BF70028023BF7302805EBF74028026
:1005DD0039BF7603020657020667742FC0E07421F7
:1005ED00C0E0121B8415811581227446C0E0742170
:1005FD00C0E0121B8415811581227459C0E074214D
:10060D00C0E0121B841581158122746BC0E074212A
:10061D00C0E0121B8415811581227480C0E0742105
:10062D00C0E0121B8415811581227496C0E07421DF
:10063D00C0E0121B84158115812274AEC0E07421B7
:10064D00C0E0121B84158115812274C5C0E0742190
:10065D00C0E0121B84158115812274DFC0E0742166
:10066D00C0E0121B841581158174F6C0E07421C0A1
:10067D00E0121B8415811581740DC0E07422C0E059
:10068D00121B8415811581742EC0E07422C0E012F6
:10069D001B84158115817449C0E07422C0E0121BC2
:1006AD0084158115817468C0E07422C0E0121B842A
:1006BD00158115817489C0E07422C0E0121B841568
:1006CD008115812275B10075B20075B30075B40046
:1006DD0075AC0075AD0043B32053B4DF43B1045383
:1006ED00B2FB43B18053B27F53B3BF43B44053B356
:1006FD00F743B40853B3EF43B41053B3FB43B404FF
:10070D0053B3FD43B40253B3FE43B40153B1FE439F
:10071D00B20153B1FD43B20253B1EF43B21053B125
:10072D00F743B208C296D292D293D294C280C281BC
:10073D00C284C28322AF827E04EFB52814AB18ACFD
:10074D0019AD1A8B828C838DF0E41220AD75820465
:10075D0022AB18AC19AD1A8B828C838DF0E412206C
:10076D00AD7A008AF005F0E5288002C313D5F0FBC1
:10077D00F85300017900B80005B900028055B801A1
:10078D0005B90002800302082B8AF005F0EF800204
:10079D00C313D5F0FBF85300017900B80005B9007B
:1007AD0002800302082B8F288B828C838DF0122000
:1007BD00C8F98A0088F005F07401800225E0D5F0B3
:1007CD00FBF8E942008B828C838DF0E81220AD7E20
:1007DD0000804B8AF005F0EF8002C313D5F0FBF8D3
:1007ED005300017900B80005B900028031B8012E1F
:1007FD00B9002B8F288B828C838DF01220C8F98A3B
:10080D000088F005F07401800225E0D5F0FBF8E9D1
:10081D0042008B828C838DF0E81220AD7E010ABAE6
:10082D00050050030207708E8222E582FF6054EFAF
:10083D0030E002B294EF30E102B293EF30E202B257
:10084D0092EF30E348900015E0FF24FC4024EF2F99
:10085D00900861738006800A800E8012C281C2806A
:10086D008010D281C280800AD281D2808004C28160
:10087D00D280900015EF04F0E0FFBF04109000153A
:10088D00E4F022D294D293D292C281C28022AF825E
:10089D00E518C4540FFE53070FE4FDFCEEB5070831
:1008AD00ECB505047582012275820022AD82AE83FE
:1008BD00AFF074012DFAE43EFB8F048A828B838C9A
:1008CD00F01220C8FC24F9500122EC2C2C9008DEEB
:1008DD00730209E60209E60209E60209E60208F3D7
:1008ED000209770209CD74052DF529E43EF52A8F0D
:1008FD002B852982852A83852BF01220C8F8A31217
:10090D0020C8F9A31220C8FC888289838CF012209C
:10091D00C824FF9294852982852A83852BF0122085
:10092D00C8FAA31220C8FBA31220C8FC0ABA000102
:10093D000B8A828B838CF01220C824FF9293852919
:10094D0082852A83852BF01220C8FAA31220C8FBBA
:10095D00A31220C8FC74022AFAE43BFB8A828B8323
:10096D008CF01220C824FF92922274052DFDE43ED6
:10097D00FE8D828E838FF01220C8FAA31220C8FB41
:10098D00A31220C8FC0ABA00010B8A828B838CF05B
:10099D001220C824FF92808D828E838FF01220C882
:1009AD00FDA31220C8FEA31220C8FF74022DFDE482
:1009BD003EFE8D828E838FF01220C824FF928122FD
:1009CD00AE217F00C006C00774B6C0E07422C0E03F
:1009DD00121B84E58124FCF58122AD82AE83AFF03C
:1009ED0074012DFAE43EFB8F048A828B838CF01206
:1009FD0020C8FC24F95003020AB0EC2C2C900A0EEE
:100A0D0073020ACF020A77020ACF020A23020AB042
:100A1D00020AB0020A962095012274022DFAE43ED4
:100A2D00FB8F048A828B838CF01220C8F87900C06A
:100A3D0004C003C002C000C00174CBC0E07422C06A
:100A4D00E0121B84E58124FCF581D002D003D00493
:100A5D008A828B838CF01220C8F5219037001211F9
:100A6D00AB8521109037000211BF74022DFAE43EC0
:100A7D00FB8F048A828B838CF01220C8FAB5214239
:100A8D008D828E838FF00208B9AB217C00C003C02C
:100A9D000474DFC0E07422C0E0121B84E58124FCE5
:100AAD00F5812274022DFAE43EFB8F048A828B833A
:100ABD008CF01220C8FAB521098D828E838FF00239
:100ACD0008B922E582FFC4540FFE7D00C007C006A1
:100ADD00C00574F2C0E07422C0E0121B84E58124CD
:100AED00FCF581D00753070F7E00C007C00674FFC9
:100AFD00C0E07422C0E0121B84E58124FCF5812244
:100B0D007F00754E01754F02755003755104755276
:100B1D00057553017554008F558F567D00C007C064
:100B2D00051206D1121B6890E100E4F5F0121AEBE4
:100B3D00120557538EF7D2A9D28C752200740CC0B2
:100B4D00E07423C0E0121B8415811581741CC0E074
:100B5D007423C0E0121B8415811581752201743335
:100B6D00C0E07423C0E0121B8415811581D005D01F
:100B7D0007752E30752F750000000000E52E24FF3F
:100B8D00FAE52F34FFFC8A2E8C2FEA4C70E9F52202
:100B9D00A282A295E433FC439B02D2AF208202D203
:100BAD0084903700E493F52190002D75F040C00737
:100BBD00C005C004121AC3E582D004D005D0077059
:100BCD0003020E007431B52D0280427432B52D0230
:100BDD0080777433B52D03020C927434B52D030256
:100BED000CCE7435B52D03020D0A7436B52D0302E6
:100BFD000D287437B52D03020D647438B52D03021D
:100C0D000D9F7474B52D03020DDA020E00B296C05D
:100C1D0007C005C0047443C0E07423C0E0121B84F8
:100C2D0015811581A296E433FA7B00C002C00374CE
:100C3D004CC0E07423C0E0121B84E58124FCF581D7
:100C4D00D004D005D007020E00B294C007C005C075
:100C5D00047451C0E07423C0E0121B84158115810A
:100C6D00A294E433FA7B00C002C003744CC0E0745C
:100C7D0023C0E0121B84E58124FCF581D004D0054E
:100C8D00D007020E00B293C007C005C0047458C04F
:100C9D00E07423C0E0121B8415811581A293E43307
:100CAD00FA7B00C002C003744CC0E07423C0E01294
:100CBD001B84E58124FCF581D004D005D007020EFC
:100CCD0000B292C007C005C004745FC0E07423C0B9
:100CDD00E0121B8415811581A292E433FA7B00C0CA
:100CED0002C003744CC0E07423C0E0121B84E58184
:100CFD0024FCF581D004D005D007020E00C007C03A
:100D0D0005C0047466C0E07423C0E0121B84158115
:100D1D001581D004D005D007020E00B280C007C0E7
:100D2D0005C0047474C0E07423C0E0121B841581E7
:100D3D001581A280E433FA7B00C002C003744CC05D
:100D4D00E07423C0E0121B84E58124FCF581D004FE
:100D5D00D005D007020E00B281C007C005C00474D3
:100D6D007EC0E07423C0E0121B8415811581A28121
:100D7D00E433FA7B00C002C003744CC0E07423C09E
:100D8D00E0121B84E58124FCF581D004D005D00749
:100D9D008061B284C007C005C0047489C0E07423AB
:100DAD00C0E0121B8415811581A284E433FA7B0007
:100DBD00C002C003744CC0E07423C0E0121B84E574
:100DCD008124FCF581D004D005D0078026C007C052
:100DDD0005C004C023C0247495C0E07423C0E01284
:100DED001B84E58124FCF581D004D005D007E4F502
:100DFD0023F5248C03A295E433FAEBB5020280555A
:100E0D00A295E433FA7B00C007C005C002C003748D
:100E1D00A0C0E07423C0E0121B84E58124FCF581A1
:100E2D00D005D007209529052CE52C540124FF92DF
:100E3D0094E52C035401FB24FF9293E52C030354FA
:100E4D0001FA24FF9292EB24FF9280EA24FF928113
:100E5D00A295E433FCA295A282BF0002800DBF01D2
:100E6D00028034BF0202806F020BB590002D75F029
:100E7D0040C007C005C00412132EE582D004D00572
:100E8D00D0077003020BB5E4F523F52475560185E3
:100E9D002D307F01020BB590002D75F040C007C0BD
:100EAD0005C00412132EE582D004D005D0076012C0
:100EBD00E4F523F524AB560556EB2430F8A62D02A8
:100ECD000BB5C374E89523740395244003020BB549
:100EDD00AD567F02020BB5BD0141853018758203F9
:100EED00C005C00412089BE582D004D0056027AA76
:100EFD00307B00C005C004C002C00374ACC0E074F8
:100F0D0023C0E0121B84E58124FCF581852D82121E
:100F1D000837D004D0057F00020BB5BD0800506D19
:100F2D008D027B00C005C004C002C00374B4C0E0D4
:100F3D007423C0E0121B84E58124FCF581D004D01C
:100F4D00057B00C3EB9D502CEB2430F987027E000E
:100F5D00C005C004C003C002C00674C1C0E0742344
:100F6D00C0E0121B84E58124FCF581D003D004D0B0
:100F7D00050B80CFC005C00474E4C0E07420C0E050
:100F8D00121B8415811581D004D005803E75643007
:100F9D0075650075664075674E7568007569408D9D
:100FAD0082C005C00412146790004E75F0401209FE
:100FBD00E7D004D005E550B5211190004E75F040F5
:100FCD00C005C0041208B9D004D0057F00020BB5CE
:1020E4000A0D0073656C66200063726F737300627F
:1020F4006F74682000206F75747075743A54686941
:1021040073206973205541525425640A0D000D0A49
:10211400002563000D0A696E7075743A546869731A
:10212400206973205541525425640049646C65202C
:10213400707265616D626C65206F6E2F6F66660DDF
:102144000A004C696E65466920506F776572204FAE
:1021540066660D0A004C696E65466920506F7765A6
:1021640072204F6E0D0A004C696E654669205561F8
:102174007274205478204C6F770D0A004C696E6598
:102184004669205561727420547820486967680D47
:102194000A004C696E6546692043534320727820D7
:1021A40046534D204F66660D0A004C696E654669BC
:1021B400204353432072782046534D204F4E0D0A3E
:1021C4000056657273696F6E20312E34206F6E2055
:1021D40032303233313032360D0A00313A20646FF6
:1021E400776E6C696E6B207061636B657420310D62
:1021F4000A00323A20646F776E6C696E6B207061EE
:10220400636B657420320D0A00333A2075706C6973
:102214006E6B2069646C6520707265616D626C65BB
:10222400206F6E2F6F66660D0A00702F503A204C97
:10223400696E65466920506F776572206F66662FF8
:102244006F6E0D0A00742F543A204C696E6546690E
:102254002055617274205478204C6F772F48696739
:10226400680D0A00732F533A204C696E6546696500
:10227400204353432052782046534D206F66662FE7
:102284006F6E0D0A00746573742070726F636564F9
:102294007572653A2070202D3E2050202D3E20542A
:1022A400202D3E2053202D3E2031206F7220320DF0
:1022B4000A004D7920616464726573732069732028
:1022C400307825780D0A0073657420616464726542
:1022D40073732061732025640D0A004D79206164B5
:1022E40064726573732069732025640D0A00616448
:1022F40064726573733A25750D0A00636F6D6D61C1
:102304006E643A25750D0A00546869732069732058
:1023140055415254300A0D004C696E65466920538C
:102324006C617665204D6F6E69746F720A0D00548E
:102334006869732069732055415254310A0D005560
:102344004152545F54583D0025640A0D004C4544E5
:102354005F523D004C45445F473D004C45445F425D
:102364003D006E6F204D4F544F525F454E0D0A0095
:102374004D4F544F525F43573D004D4F544F525FA2
:102384004343573D0053454C5F52585F504F4C3DBB
:1023940000636F756E743A25640D0A0053574954EF
:1023A40043483A25640A0D0052783A25640A0D0020
:1023B40052782073697A653A25640A0D00307825CD
:0323C4007820007E
:1037000000000000000000000000000000000000B9
:1037100000000000000000000000000000000000A9
:103720000000000000000000000000000000000099
:103730000000000000000000000000000000000089
:103740000000000000000000000000000000000079
:103750000000000000000000000000000000000069
:103760000000000000000000000000000000000059
:103770000000000000000000000000000000000049
:100FDD0075C7AA75C75575FD5A75C7AA75C75575D5
:100FED00FDA575820022AC82AD83AEF0FF538EF766
:100FFD00438901D28CEC4D4E4F601A758A76758CF3
:10100D00FF108D0280FB1CBCFF091DBDFF051EBE20
:10101D00FF011F80E0C28C22AC82AD83AEF0FF5386
:10102D008EF7438901D28CEC4D4E4F601A758A981C
:10103D00758CFA108D0280FB1CBCFF091DBDFF05D0
:10104D001EBEFF011F80E0C28C22AC82AD83AEF0CC
:10105D00FF538EEF438910D28EEC4D4E4F601A75B3
:10106D008BF6758DC9108F0280FB1CBCFF091DBD51
:10107D00FF051EBEFF011F80E0C28E22AC82AD8334
:10108D00AEF0FF53C9BF53C9DF43C910D2CAEC4DEF
:10109D004E4F601A75CCE575CDF710CF0280FB1C55
:1010AD00BCFF091DBDFF051EBEFF011F80E0C2CAAA
:1010BD0022AC82AD83AEF0FF75C40743C408EC4D7E
:1010CD004E4F602575C55775C6CDAAC45302107B0A
:1010DD0000BA10F6BB00F353C4EF1CBCFF091DBDD5
:1010ED00FF051EBEFF011F80D553C4F722AC82AD94
:1010FD0083AEF0FF75C40743C408EC4D4E4F602519
:10110D0075C5D775C6FFAAC45302107B00BA10F679
:10111D00BB00F353C4EF1CBCFF091DBDFF051EBE74
:10112D00FF011F80D553C4F722AF82A2AF9200C238
:10113D00AF75C7AA75C755439F01A20092AFE51BB6
:10114D006013A2AF9200C2AF75C7AA75C75543A56C
:10115D0001A20092AF8519A68518A7851AAE8FAF8B
:10116D00A2AF9200C2AF75C7AA75C75543A401A21D
:10117D000092AFE51B6026A2AF9200C2AF75C7AA61
:10118D0075C75553A5FEA20092AFA2AF9200C2AF94
:10119D0075C7AA75C755539FFEA20092AF22AE82A6
:1011AD00AF838F188E19751AFF751B017582220278
:1011BD001136AE82AF838F188E1985101A751B01EB
:1011CD0075822102113675180075190C751A007586
:1011DD001B00758204121136AFAE75180075190D0E
:1011ED00751A00751B00758204C007121136D007E1
:1011FD00E5AE540FFEA2AF9200C2AF75C7AA75C778
:10120D0055539FFEA20092AFE4C454F0CFC4CF6FEC
:10121D00CF54F0CF6FFD7C00EE2FF582EC3DF583C2
:10122D0022858219751800751A00751B00758204C8
:10123D0012113685AE82A2AF9200C2AF75C7AA75E4
:0A124D00C755539FFEA20092AF2286
:10013D00E4F561F56290004E745EF07424A3F074E2
:10014D0080A3F09000517469F07424A3F07480A31F
:10015D00F09000547474F07424A3F07480A3F090A4
:10016D000057747FF07424A3F07480A3F090005AAC
:10017D00748CF07424A3F07480A3F090005D7498D7
:10018D00F07424A3F07480A3F090006074A7F07451
:10019D0024A3F07480A3F090006374B5F07424A3CD
:1001AD00F07480A3F090006674B5F07424A3F0741D
:1001BD0080A3F090006974B5F07424A3F07480A34B
:1001CD00F090006C74B5F07424A3F07480A3F090DB
:1001DD00006F74B5F07424A3F07480A3F0900072D6
:1001ED0074B5F07424A3F07480A3F090007574B509
:1001FD00F07424A3F07480A3F090007874B5F074BB
:10020D0024A3F07480A3F090007B74B5F07424A344
:10021D00F07480A3F090007E74B5F07424A3F07494
:10022D0080A3F090008174B5F07424A3F07480A3C2
:10023D00F090008474B5F07424A3F07480A3F09052
:10024D00008774B5F07424A3F07480A3F090008A35
:10025D0074B5F07424A3F07480A3F090008D74B580
:10026D00F07424A3F07480A3F090009074B5F07432
:10027D0024A3F07480A3F090009374B5F07424A3BC
:10028D00F07480A3F090009674B5F07424A3F0740C
:10029D0080A3F090009974B5F07424A3F07480A33A
:1002AD00F090009C74B5F07424A3F07480A3F090CA
:0D02BD00009F74B5F07424A3F07480A3F0CA
:10125700AD82AE83AFF074032DFDE43EFE8D828E2A
:10126700838FF01220C82405F58222AD82AE83AFAA
:10127700F08D028E038F047518047519FF8A828B0F
:10128700838CF0C007C006C0051217ED858219D000
:1012970005D006D00774052DFAE43EFB8F048A8239
:1012A7008B838CF01220C8FAA31220C8FBA312204C
:1012B700C8FC74032DFDE43EFE8D828E838FF012F1
:1012C70020C8F5188A828B838CF00217EDAD82AEA9
:1012D70083AFF0C007C006C005121272AC82D005FA
:1012E700D006D00774042DFDE43EFE8D828E838FD9
:1012F700F0EC0220ADAD82AE83AFF0C007C006C0F0
:1013070005121272AC82D005D006D00774042DFDE9
:10131700E43EFE8D828E838FF01220C8B5040475DB
:1013270082012275820022021B40021B5EAD82AE43
:1013370083AFF0C007C006C005121272AC82D00599
:10134700D006D0078D018E028F0389828A838BF0A6
:101357001220C8F58209B900010AC007C006C005F6
:10136700C004C003C002C001121331D001D002D0A3
:1013770003D004D005D006D00789828A838BF01268
:1013870020C8F58209B900010AC007C006C005C018
:1013970004C003C002C001121331D001D002D00330
:1013A700D004D005D006D00789828A838BF012201B
:1013B700C8F809B900010A8882C007C006C005C07D
:1013C70004C003C002C001121331D001D002D00300
:1013D70089828A838BF01220C8F582121331D004D8
:1013E7008C82121331D005D006D00774052DFAE48C
:1013F7003EFB8F0474032DFDE43EFE7563008D8272
:101407008E838FF01220C8F8C3E563985051C0054A
:10141700C006C0078A828B838CF01220C8F8A312FB
:1014270020C8F9A31220C8FFE56328F8E439F98832
:101437008289838FF01220C8F582C007C006C005D5
:10144700C004C003C002121331D002D003D004D0AD
:1014570005D006D0070563D007D006D005809F22A8
:10146700AF82BF0500500475820322AD67AE68AF37
:1014770069AA64AB65AC668A828B838CF01220C83C
:10148700F974012AF564E43BF5658C668D828E83D9
:101497008FF0E91220AD0DBD00010EAA64AB65AC5B
:1014A700668A828B838CF01220C8F974012AF5644E
:1014B700E43BF5658C668D828E838FF0E91220AD53
:1014C7000DBD00010EAA64AB65AC668A828B838C66
:1014D700F01220C8F974012AF564E43BF5658C66BF
:1014E7008D828E838FF0E91220AD0DBD00010EAA0B
:1014F70064AB65AC668A828B838CF01220C8F97462
:10150700012AF564E43BF5658C668D828E838FF046
:10151700E91220AD0DBD00010EAA64AB65AC668A69
:10152700828B838CF01220C8F974012AF564E43B9E
:10153700F5658C668D828E838FF0E91220ADAD67DD
:10154700AE68AF6974032DFAE43EFB8F0485646BC4
:1015570085656C85666D756A008A828B838CF0124F
:1015670020C8F8C3E56A985052C002C003C004748B
:10157700052DF8E43EF98F04888289838CF01220C8
:10158700C8F8A31220C8F9A31220C8FCE56A28F8F6
:10159700E439F9856B82856C83856DF01220C8FB71
:1015A700A385826B85836C888289838CF0EB1220FC
:1015B700AD056AD004D003D002809E8D828E838FC2
:1015C700F01212FCE58270047582042275820222F1
:1015D700AD82AE83AFF0C007C006C00574C7C0E0D8
:1015E7007423C0E0121B8415811581D005D006D065
:1015F700078D828E838FF01220C8FC7B00C007C046
:1016070006C005C004C00374E9C0E07423C0E0123B
:101617001B84E58124FCF581D005D006D007740131
:101627002DFAE43EFB8F048A828B838CF01220C84C
:10163700FA75F003A4244EF582740035F0F583E0C3
:10164700F9A3E0FBA3E0FC8A007A00C007C006C04C
:1016570005C001C003C004C000C00274F4C0E07438
:1016670023C0E0121B84E58124F9F581D005D0065B
:10167700D00774022DFAE43EFB8F048A828B838C99
:10168700F01220C8FA7C00C007C006C005C002C01F
:10169700047403C0E07424C0E0121B84E58124FCB9
:1016A700F581D005D006D00774032DFAE43EFB8FF1
:1016B700048A828B838CF01220C8FA7C00C007C092
:1016C70006C005C002C004740EC0E07424C0E01256
:1016D7001B84E58124FCF581D005D006D0078D82D7
:1016E7008E838FF0C007C006C005121272AC82D07D
:1016F70005D006D0077B0074042DF8E43EF98F026D
:10170700888289838AF01220C8F87A00C007C00649
:10171700C005C004C003C000C0027419C0E074242F
:10172700C0E0121B84E58124FAF581742CC0E074B3
:1017370024C0E0121B8415811581D005D006D0077F
:1017470074052DFAE43EFB8F0474032DFDE43EFE81
:10175700756E008D828E838FF01220C8F8C3E56EF8
:10176700985064C005C006C0078A828B838CF0122C
:1017770020C8F8A31220C8F9A31220C8FFE56E28D5
:10178700F8E439F9888289838FF01220C8F87F003E
:10179700C007C006C005C004C003C002C000C00720
:1017A7007433C0E07424C0E0121B84E58124FCF587
:1017B70081D002D003D004D005D006D007056ED063
:1017C70007D006D005808C7439C0E07424C0E012BD
:1017D7001B841581158174C7C0E07423C0E0121BF8
:1017E700841581158122AD82AE83AFF0AC19ED4E21
:1017F70060217B00C3EB951850198D828E838FF083
:101807001220C8FAA3AD82AE83EC6A90192993FC23
:101817000B80E18C8222AF82AD61AE620561E4B5D7
:1018270061020562C007C005C006743CC0E07424AD
:10183700C0E0121B84E58124FCF5817442C0E0748A
:1018470024C0E0121B8415811581D0077E00C3EEEA
:101857009F50248E047D00C007C006C004C00574D5
:101867004AC0E07424C0E0121B84E58124FCF581A2
:10187700D006D0070E80D7C0077439C0E07424C0E3
:10188700E0121B84158115817451C0E07424C0E0F7
:10189700121B8415811581D0077E00C3EE9F5072FD
:1018A700AB6FAC70AD718B828C838DF01220C8FA50
:1018B700BA100050308A0174012BF56FE43CF570C3
:1018C7008D7189007900C007C006C000C001745738
:1018D700C0E07424C0E0121B84E58124FCF581D0AC
:1018E70006D007802A74012BF56FE43CF5708D71E3
:1018F7007D00C007C006C002C0057433C0E0742471
:10190700C0E0121B84E58124FCF581D006D0070EC8
:1019170080897439C0E07424C0E0121B84158115D6
:0219270081221B
:1023C7002D2D2D2D2D2D2D2D2D2D2D2D2D2D2D2D36
:1023D7002D2D2D2D2D2D2D2D2D2D2D2D2D2D2D0D46
:1023E7000A00566572203A2025640D0A0054797058
:1023F700653A202564282573290D0A004164647213
:102407003A2025640D0A0053697A653A2025640D40
:102417000A0043524320636F6D70203A20256420E1
:1024270025640D0A00444154413A2000307825784C
:0524370020000D0A0069
:1019290000316253C4F5A697B988DBEA7D4C1F2EB6
:101939004372211087B6E5D4FACB98A93E0F5C6DA6
:1019490086B7E4D5427320113F0E5D6CFBCA99A896
:10195900C5F4A796013063527C4D1E2FB889DAEB86
:101969003D0C5F6EF9C89BAA84B5E6D74071221376
:101979007E4F1C2DBA8BD8E9C7F6A5940332615066
:10198900BB8AD9E87F4E1D2C02336051C6F7A49556
:10199900F8C99AAB3C0D5E6F4170231285B4E7D646
:1019A9007A4B1829BE8FDCEDC3F2A1900736655436
:1019B90039085B6AFDCC9FAE80B1E2D34475261726
:1019C900FCCD9EAF38095A6B4574271681B0E3D216
:1019D900BF8EDDEC7B4A192806376455C2F3A09106
:1019E9004776251483B2E1D0FECF9CAD3A0B5869F6
:1019F90004356657C0F1A293BD8CDFEE79481B2AE6
:101A0900C1F0A3920534675678491A2BBC8DDEEFD5
:101A190082B3E0D1467724153B0A5968FFCE9DACC5
:10243C002325640D0A00726177203A202000253292
:10244C006420202000646174613A00307830257873
:10245C002000547970655F42636173740054797025
:10246C00655F556361737400547970655F4D63618A
:10247C00737400547970655F5365744164647200C1
:10248C00547970655F5365744C454400547970659C
:10249C005F4374726C4D6F746F7200547970655F2A
:1024AC00526561644164647200547970655F4E6F6B
:0324BC006E65004A
:101A2900AC82AD83AEF0FF53B1BF53B2BF53B17FA8
:101A390053B27F759850438920438780438E105352
:101A4900C4DF8C188D198E1A8F1B90D4BC75F00FBA
:101A5900E4122005AC82C3E49CF58DD28ED2992282
:101A6900AC82AD83AEF0FF53B1BF53B2BF53B17F68
:101A790053B27F75985043878053C4F843C4208C70
:101A8900188D198E1A8F1B90D4BC75F00FE4122093
:101A990005AC82AD83AEF0FFE4C39CE49DF974010B
:101AA9009EE49F89C6C3E49CFC8CC543C408D299B3
:101AB900223098FD859982C29822AD82AE83AFF01B
:101AC9003098118D828E838FF0E5991220ADC298DE
:101AD9007582012275820022AF82C2998F9930994D
:101AE900FD22AC82AD83AEF0FF53B1FB53B2FB5381
:101AF900B3BF53B4BF75F85875C40853C4DF8C1805
:101B09008D198E1A8F1B90D4BC75F00FE412200525
:101B1900AC82AD83AEF0FFE4C39CE49DF974019EF1
:101B2900E49F89C6C3E49CFC8CC543C4082230F8F1
:101B3900FD859A82C2F822AD82AE83AFF030F811EA
:101B49008D828E838FF0E59A1220ADC2F8758201DD
:101B59002275820022AF82C2F98F9A30F9FD229054
:101B6900E100E4F5F0121A2990C20075F001E412BF
:101B79001AEBC299C2F9D2ACD2AF22C0178581172C
:101B8900E51724FDF8868318868218E493A3B42503
:101B990077C201C202C203C204C205C20679117723
:101BA90000C207E493A324C64017240A5015700500
:101BB900B51102D206D205FAE775F00AA42AF78010
:101BC900E2240A2430B46C04D20180D7B46804D268
:101BD9000280D0B47303021C1CB46406121EF60200
:101BE9001C78B47506121EF6021C98B4630518E633
:101BF900188017B47803021C57B46603021DACB4ED
:101C09002E0679127700809B6006121FE8021B944A
:101C1900022002C083C08286F01886831886821843
:101C2900300519C206C082C0831220C86007A315F7
:101C390011E51170F4121FD3D083D0821220C8602D
:101C490006A3121FE880F5D082D083021B94121CD0
:101C59006F20020C121C6F300106121C6F121C6FD0
:101C6900121FFA021B94E6121FD8E618021FD9EDBB
:101C790030E71CD204E9F42401F9200212EAF43411
:101C890000FA30010AEBF43400FBECF43400FC20D8
:101C99000210300108EB7024EC7021C201EA701CBB
:101CA900D202E97017200714300509E511600515FE
:101CB90011121FD37430121FE8021B94C082C08313
:101CC900121F10300560790A30011DEB54F070368F
:101CD90019EB540F703019EA54F0702A19EA540FAD
:101CE900702419EF54F0701E790520020BEF540F80
:101CF900701419EE54F0700E7903EE540F70071931
:101D0900ED54F0700119E511A204994019F511C0BB
:101D190003C002C007C006C005121FD3D005D006F4
:101D2900D007D002D003300419C003C002C007C0D5
:101D390006C005742D121FE8D005D006D007D002C1
:101D4900D00320024030012CC005C006C0078A829A
:101D5900EBF583121FD8E583121FD9E582121FD82C
:101D6900E582121FD9D0E0F582121FD8E582D0830F
:101D7900D08280058D828E83EF121FD9E583121FD1
:101D8900D8E58380038D82EE121FD9E582121FD810
:101D9900E582121FD9121FFAD083D082300701229F
:101DA900021B9430050EE511D39512F511502875D3
:101DB90011008023E6547FFA18860308AE82AF83A8
:101DC90090268B7D07E4932BA3E4933A5003A3DD7C
:101DD900F48D128E828F83C000121ED8C082C083F8
:101DE900EFB47E02801940112482FDC3EA33FAEB75
:101DF90033FBEC33FCDDF48006F4247F12206A7592
:101E0900F01BE4F8FFFEFD90261FE933F9EA33FAE7
:101E1900EB33FBEC33FC5017E4932DD4FD740193A1
:101E29003ED4FE7402933FD4FF74039338D4F8A3CD
:101E3900A3A3A3D5F0D4E47C50FBFAF9E51223233C
:101E490054FC888312206AED29D4F516EE3AD4F5AC
:101E590015EF3BD4F514E5833CD4F51392D5D08323
:101E6900D082D000121ED8C000C3749E9F5005D0E6
:101E790000021BACC08212206AD08230D50FE9243F
:101E890001F9E43AFAE43BFBE43CFC40E2D20712F4
:101E99001C9820050CE5126008121EC87003D512A3
:101EA900F4E5126015742E121FE87800D20308E8D1
:101EB900121EC8121FD9E8B512F4D000021B9414DF
:101EC900C31392D52413F9E720D501C4540F22E690
:101ED90018F9E618FC33E9339204FF6003430480E0
:101EE900E618FBE618FA7900C202D20122E6F9FDEA
:101EF90018200212AA01E6F91830010AAC02AB0156
:101F0900E6FA18E6F91822E975F06484FE740AC540
:101F1900F084C445F0FD30020122EA540FF99024FF
:101F2900BF932DD4FDE94410933ED4FEEAC4540F67
:101F3900F99024DF932DD4FDE94410933ED4FEE9B2
:101F49004420933400D4FF20010122EB540FF9906F
:101F5900250F932DD4FDE94410933ED4FEE9442086
:101F6900933FD4FFE43400FAEBC4540FF990253FB2
:101F7900932DD4FDE94410933ED4FEE94420933FC8
:101F8900D4FFE94430933AD4FAEC540FF990257F01
:101F99007B00121FA6ECC4540FF99025CF932DD4C2
:101FA900FDE94410933ED4FEE94420933FD4FFE970
:101FB9004430933AD4FAE94440933BD4FB22742049
:101FC9003006027430121FE81511E51170F022C4B1
:101FD900540F7003300319D2032490D43440D4C071
:101FE90083C082C000F5821202CDD000D082D08396
:0C1FF900222003FC7430021FE8D01722E5
:1024BF0000561268248036924804601672288440B1
:1024CF000002050710121517202325283033353841
:1024DF0000969288848076726864605652484440B1
:1024EF000040812263044586276809509132731496
:1024FF0000000001010202020303040404050506A3
:10250F000036720844801652882460963268044060
:10251F00005510662176328742985308641975303A
:10252F0000061319263239455258657278859198ED
:10253F000076522804805632088460361288644030
:10254F00008571574328140086715743291400865C
:10255F000004091419242934384348535863687206
:10256F0000010203040506070809101112131415C0
:10257F0000163248648096122844607692082440F0
:10258F0000724416886032057749219365381082AE
:10259F000077553310886644219977543210886537
:1025AF000016335067830017345067840118345175
:1025BF0000000000000001010101010102020202FE
:1025CF0000561268248036924804601672288440A0
:1025DF000054096318722781369145005409631816
:1025EF000043873074176104489135792266095387
:1025FF000068360573421079471584522189582691
:10260F0000020508101316182124262932343740EA
:10261F0000000050000000250000501200002506A9
:10262F00005012030025560150127800250639007C
:10263F00125319005676090028880400144402002A
:10264F00072201000461000052300000261500002F
:10265F006307000081030000910100009500000056
:10266F0048000000240000001200000006000000D7
:10267F000300000001000000010000007DC5DDC364
:0A268F0034C2E0BE38BD86BBE4B9DA
:10200500FB7A20E4FCFDFEFFE5822582F582E5836F
:1020150033F583E5F033F5F0EB33FB4017DAE98070
:1020250042E5822582F582E58333F583E5F033F5D4
:10203500F0EB33FBEC33FCED33FDEE33FEEF33FF1A
:10204500EC9518ED9519EE951AEF951B4013EC9547
:1020550018FCED9519FDEE951AFEEF951BFF4382D1
:0520650001DABEEB22D0
:06004E00E478FFF6D8FD86
:10206A006040F82582500274FFF582E824F8501E79
:10207A00CCCBCAF9E4CC24F85014CBCAF9E4CB246B
:10208A00F8500BCAF9E4CA24F8500379002224084C
:10209A006010F8C3EC13FCEB13FBEA13FAE913F92B
:1020AA00D8F12220F71130F6138883A88220F50987
:0E20BA00F6A8837583002280FEF280F5F022E6
:0D004100758171120FDDE582600302003E43
:1020C80020F71430F6148883A88220F507E6A88341
:0C20D80075830022E280F7E49322E022EE
:00000001FF
