:040000000200413287
:03000B000204B537
:0100130032BA
:01001B0032B2
:0100230032AA
:01002B0032A2
:01003300329A
:03003B000204CCF0
:10005400752800752C00752200E4F523F524900022
:1000640015F09000167460F07409A3F0E4A3F0A3F3
:10007400F090001A7480F07470A3F0E4A3F0A3F07D
:1000840090001EF07496A3F0E4A3F0A3F090002275
:10009400F074E1A3F0E4A3F0A3F0900026F074C29E
:1000A400A3F07401A3F0E4A3F090002AF07484A3F5
:1000B400F07403A3F0E4A3F090002E74E0F07493C2
:1000C400A3F07404A3F0E4A3F0900032F07408A346
:1000D400F014A3F0E4A3F09000367420F074A1A30C
:1000E400F07407A3F0E4A3F090003A74C0F074270E
:1000F400A3F07409A3F0E4A3F090003E7460F074DC
:10010400AEA3F0740AA3F0E4A3F0900042F07435B7
:10011400A3F0740CA3F0E4A3F090004674A0F07470
:10012400BBA3F0740DA3F0E4A3F090004AF07410A4
:09013400A3F0740EA3F0E4A3F0A3
:0302CA0002003EF1
:03003E00020B0DA5
:1002CD00AE82E5227009C2998E9920990980FBC2F0
:1002DD00F98E9A30F9FD22AF827E007D00EE030388
:1002ED00543FFCEF30E00674404CFE800474804CAB
:1002FD00FEEFC313FF0DBD040040E28E8222AF82DC
:10030D00752201C0071202E47D008D831202CDD04B
:10031D0007EFC4540FF5821202E47E008E830202B1
:10032D00CD7522019000F01202CD9000F01202CD99
:10033D009000F01202CD9000F00202CDAF82C00706
:10034D007417C0E07421C0E0121BB715811581D060
:10035D0007BF0002800ABF01028016BF0233802250
:10036D00741AC0E07421C0E0121BB715811581808D
:10037D00207420C0E07421C0E0121BB715811581D7
:10038D00800F7426C0E07421C0E0121BB7158115D3
:10039D0081AE227F00C006C007742CC0E07421C05E
:1003AD00E0121BB7E58124FCF58122AF82BF0D025F
:1003BD008004BF1B11227445C0E07421C0E0121BE4
:1003CD00B715811581227E00C007C0067448C0E0B4
:1003DD007421C0E0121BB7E58124FCF58122AF82A8
:1003ED00741BB5250280028079AE268E22AC227D4B
:1003FD0000C007C006C004C005744BC0E07421C026
:10040D00E0121BB7E58124FCF581D006D007BF00B3
:10041D0002800DBF01028021BF020280350204B2AD
:10042D007F018E22758201C007120349852722752F
:10043D008201120349D007806C7F028E22758202E1
:10044D00C007120349852722758202120349D0077E
:10045D0080537F008E22758200C007120349D0079A
:10046D008043BF0002800ABF01028014BF023680A4
:10047D001E852622852582C0071203B8D007802548
:10048D00852722852582C0071203B8D007801685DF
:10049D002622852582C0071203B88527228525824D
:1004AD001203B8D0078F8222C0E0C0D0758CFF75C3
:1004BD008AF30523E4B523020524D0D0D0E032C061
:1004CD00E0E5EC75EC00D0E032AF827E00EE2EFD63
:1004DD008DF005F0EF8002C313D5F0FBFC53040142
:1004ED007B00ED04F5F005F0EF8002C313D5F0FBB2
:1004FD00FD5305017A00ECB50508EBB502047582D4
:10050D0000220EBE040040C575820122AF827E001E
:10051D007D04EF30E003430680EF0303543FFFEE0D
:10052D00C313FEED14FD70EA8E8222AF827E007D34
:10053D0004EEC313FEEF30E003430680EF030354D4
:10054D003FFFED14FD70EA8E8222AE875306107FB9
:10055D0000BE1041BF003EAF84AE857D00EF2FFF82
:10056D00ED33FD5306017C00EE2FFFEC3DFDEF2436
:10057D00F1FFED34FFFD8F06530601EDC313CF13CD
:10058D00CFFD75C7AA75C7558F8475C7AA75C75591
:10059D008E855387EF22AF82752201BF310122BFB5
:1005AD00320122BF33028032BF340122BF5002809C
:1005BD0049BF5303020647BF5402805EBF56030274
:1005CD000657BF70028023BF7302805EBF74028026
:1005DD0039BF76030206570206677462C0E07421C4
:1005ED00C0E0121BB715811581227479C0E074210A
:1005FD00C0E0121BB71581158122748CC0E07421E7
:10060D00C0E0121BB71581158122749EC0E07421C4
:10061D00C0E0121BB7158115812274B3C0E074219F
:10062D00C0E0121BB7158115812274C9C0E0742179
:10063D00C0E0121BB7158115812274E1C0E0742151
:10064D00C0E0121BB7158115812274F8C0E074212A
:10065D00C0E0121BB715811581227412C0E07422FF
:10066D00C0E0121BB7158115817429C0E07422C03A
:10067D00E0121BB7158115817440C0E07422C0E0F3
:10068D00121BB7158115817461C0E07422C0E01290
:10069D001BB715811581747CC0E07422C0E0121B5C
:1006AD00B715811581749BC0E07422C0E0121BB791
:1006BD001581158174BCC0E07422C0E0121BB71502
:1006CD008115812275B10075B20075B30075B40046
:1006DD0075AC0075AD0043B32053B4DF43B1045383
:1006ED00B2FB43B18053B27F53B3BF43B44053B356
:1006FD00F743B40853B3EF43B41053B3FB43B404FF
:10070D0053B3FD43B40253B3FE43B40153B1FE439F
:10071D00B20153B1FD43B20253B1EF43B21053B125
:10072D00F743B208C296D292D293D294C280C281BC
:10073D00C284C28322AF827E04EFB52814AB18ACFD
:10074D0019AD1A8B828C838DF0E41220E075820432
:10075D0022AB18AC19AD1A8B828C838DF0E412206C
:10076D00E07A008AF005F0E5288002C313D5F0FB8E
:10077D00F85300017900B80005B900028055B801A1
:10078D0005B90002800302082B8AF005F0EF800204
:10079D00C313D5F0FBF85300017900B80005B9007B
:1007AD0002800302082B8F288B828C838DF0122000
:1007BD00FBF98A0088F005F07401800225E0D5F080
:1007CD00FBF8E942008B828C838DF0E81220E07EED
:1007DD0000804B8AF005F0EF8002C313D5F0FBF8D3
:1007ED005300017900B80005B900028031B8012E1F
:1007FD00B9002B8F288B828C838DF01220FBF98A08
:10080D000088F005F07401800225E0D5F0FBF8E9D1
:10081D0042008B828C838DF0E81220E07E010ABAB3
:10082D00050050030207708E8222E582FF6054EFAF
:10083D0030E002B294EF30E102B293EF30E202B257
:10084D0092EF30E348900015E0FF24FC4024EF2F99
:10085D00900861738006800A800E8012C281C2806A
:10086D008010D281C280800AD281D2808004C28160
:10087D00D280900015EF04F0E0FFBF04109000153A
:10088D00E4F022D294D293D292C281C28022AF825E
:10089D00E518C4540FFE53070FE4FDFCEEB5070831
:1008AD00ECB505047582012275820022AD82AE83FE
:1008BD00AFF074012DFAE43EFB8F048A828B838C9A
:1008CD00F01220FBFC24F9500122EC2C2C9008DEB8
:1008DD00730209E60209E60209E60209E60208F3D7
:1008ED000209770209CD74052DF529E43EF52A8F0D
:1008FD002B852982852A83852BF01220FBF8A312E4
:10090D0020FBF9A31220FBFC888289838CF0122036
:10091D00FB24FF9294852982852A83852BF0122052
:10092D00FBFAA31220FBFBA31220FBFC0ABA000169
:10093D000B8A828B838CF01220FB24FF92938529E6
:10094D0082852A83852BF01220FBFAA31220FBFB54
:10095D00A31220FBFC74022AFAE43BFB8A828B83F0
:10096D008CF01220FB24FF92922274052DFDE43EA3
:10097D00FE8D828E838FF01220FBFAA31220FBFBDB
:10098D00A31220FBFC0ABA00010B8A828B838CF028
:10099D001220FB24FF92808D828E838FF01220FB1C
:1009AD00FDA31220FBFEA31220FBFF74022DFDE41C
:1009BD003EFE8D828E838FF01220FB24FF928122CA
:1009CD00AE217F00C006C00774E9C0E07422C0E00C
:1009DD00121BB7E58124FCF58122AD82AE83AFF009
:1009ED0074012DFAE43EFB8F048A828B838CF01206
:1009FD0020FBFC24F95003020AB0EC2C2C900A0EBB
:100A0D0073020ACF020A77020ACF020A23020AB042
:100A1D00020AB0020A962095012274022DFAE43ED4
:100A2D00FB8F048A828B838CF01220FBF87900C037
:100A3D0004C003C002C000C00174FEC0E07422C037
:100A4D00E0121BB7E58124FCF581D002D003D00460
:100A5D008A828B838CF01220FBF5219037001211C6
:100A6D00B18521109037000211C574022DFAE43EB4
:100A7D00FB8F048A828B838CF01220FBFAB5214206
:100A8D008D828E838FF00208B9AB217C00C003C02C
:100A9D00047412C0E07423C0E0121BB7E58124FC7E
:100AAD00F5812274022DFAE43EFB8F048A828B833A
:100ABD008CF01220FBFAB521098D828E838FF00206
:100ACD0008B922E582FFC4540FFE7D00C007C006A1
:100ADD00C0057425C0E07423C0E0121BB7E5812466
:100AED00FCF581D00753070F7E00C007C006743296
:100AFD00C0E07423C0E0121BB7E58124FCF5812210
:100B0D007F00754E01754F02755003755104755276
:100B1D00057553017554008F558F567D00C007C064
:100B2D00051206D1121B9B90E100E4F5F0121B1E7D
:100B3D00120557538EF7D2A9D28C752200743FC07F
:100B4D00E07423C0E0121BB715811581744FC0E00E
:100B5D007423C0E0121BB7158115817522017466CF
:100B6D00C0E07423C0E0121BB715811581D005D0EC
:100B7D0007752E30752F750000000000E52E24FF3F
:100B8D00FAE52F34FFFC8A2E8C2FEA4C70E9F52202
:100B9D00A282A295E433FC439B02D2AF208202D203
:100BAD0084903700E493F52190002D75F040C00737
:100BBD00C005C004121AF6E582D004D005D0077026
:100BCD0003020E007431B52D0280427432B52D0230
:100BDD0080777433B52D03020C927434B52D030256
:100BED000CCE7435B52D03020D0A7436B52D0302E6
:100BFD000D287437B52D03020D647438B52D03021D
:100C0D000D9F7474B52D03020DDA020E00B296C05D
:100C1D0007C005C0047476C0E07423C0E0121BB792
:100C2D0015811581A296E433FA7B00C002C00374CE
:100C3D007FC0E07423C0E0121BB7E58124FCF58171
:100C4D00D004D005D007020E00B294C007C005C075
:100C5D00047484C0E07423C0E0121BB715811581A4
:100C6D00A294E433FA7B00C002C003747FC0E07429
:100C7D0023C0E0121BB7E58124FCF581D004D0051B
:100C8D00D007020E00B293C007C005C004748BC01C
:100C9D00E07423C0E0121BB715811581A293E433D4
:100CAD00FA7B00C002C003747FC0E07423C0E01261
:100CBD001BB7E58124FCF581D004D005D007020EC9
:100CCD0000B292C007C005C0047492C0E07423C086
:100CDD00E0121BB715811581A292E433FA7B00C097
:100CED0002C003747FC0E07423C0E0121BB7E5811E
:100CFD0024FCF581D004D005D007020E00C007C03A
:100D0D0005C0047499C0E07423C0E0121BB71581AF
:100D1D001581D004D005D007020E00B280C007C0E7
:100D2D0005C00474A7C0E07423C0E0121BB7158181
:100D3D001581A280E433FA7B00C002C003747FC02A
:100D4D00E07423C0E0121BB7E58124FCF581D004CB
:100D5D00D005D007020E00B281C007C005C00474D3
:100D6D00B1C0E07423C0E0121BB715811581A281BB
:100D7D00E433FA7B00C002C003747FC0E07423C06B
:100D8D00E0121BB7E58124FCF581D004D005D00716
:100D9D008061B284C007C005C00474BCC0E0742378
:100DAD00C0E0121BB715811581A284E433FA7B00D4
:100DBD00C002C003747FC0E07423C0E0121BB7E50E
:100DCD008124FCF581D004D005D0078026C007C052
:100DDD0005C004C023C02474C8C0E07423C0E01251
:100DED001BB7E58124FCF581D004D005D007E4F5CF
:100DFD0023F5248C03A295E433FAEBB5020280555A
:100E0D00A295E433FA7B00C007C005C002C003748D
:100E1D00D3C0E07423C0E0121BB7E58124FCF5813B
:100E2D00D005D007209529052CE52C540124FF92DF
:100E3D0094E52C035401FB24FF9293E52C030354FA
:100E4D0001FA24FF9292EB24FF9280EA24FF928113
:100E5D00A295E433FCA295A282BF0002800DBF01D2
:100E6D00028034BF0202806F020BB590002D75F029
:100E7D0040C007C005C004121334E582D004D0056C
:100E8D00D0077003020BB5E4F523F52475560185E3
:100E9D002D307F01020BB590002D75F040C007C0BD
:100EAD0005C004121334E582D004D005D0076012BA
:100EBD00E4F523F524AB560556EB2430F8A62D02A8
:100ECD000BB5C374E89523740395244003020BB549
:100EDD00AD567F02020BB5BD0147853018758203F3
:100EED00C005C00412089BE582D004D005602DAA70
:100EFD00307B00C005C004C002C00374DFC0E074C5
:100F0D0023C0E0121BB7E58124FCF58185308212E8
:100F1D000AD0852D82120837D004D0057F00020B30
:100F2D00B5BD0800506D8D027B00C005C004C00228
:100F3D00C00374E7C0E07423C0E0121BB7E5812441
:100F4D00FCF581D004D0057B00C3EB9D502CEB2428
:100F5D0030F987027E00C005C004C003C002C00680
:100F6D0074F4C0E07423C0E0121BB7E58124FCF5D6
:100F7D0081D003D004D0050B80CFC005C0047417F9
:100F8D00C0E07421C0E0121BB715811581D004D0CB
:100F9D0005803E75643075650075664075674E75E4
:100FAD0068007569408D82C005C00412149A9000C6
:100FBD004E75F0401209E7D004D005E550B521116A
:100FCD0090004E75F040C005C0041208B9D004D091
:060FDD00057F00020BB5C8
:102117000A0D0073656C66200063726F737300624B
:102127006F74682000206F75747075743A5468690D
:1021370073206973205541525425640A0D000D0A16
:10214700002563000D0A696E7075743A54686973E7
:10215700206973205541525425640049646C6520F9
:10216700707265616D626C65206F6E2F6F66660DAC
:102177000A004C696E65466920506F776572204F7B
:1021870066660D0A004C696E65466920506F776573
:1021970072204F6E0D0A004C696E654669205561C5
:1021A7007274205478204C6F770D0A004C696E6565
:1021B7004669205561727420547820486967680D14
:1021C7000A004C696E6546692043534320727820A4
:1021D70046534D204F66660D0A004C696E65466989
:1021E700204353432072782046534D204F4E0D0A0B
:1021F7000056657273696F6E20312E34206F6E2022
:1022070032303233313032360D0A00313A20646FC2
:10221700776E6C696E6B207061636B657420310D2E
:102227000A00323A20646F776E6C696E6B207061BA
:10223700636B657420320D0A00333A2075706C6940
:102247006E6B2069646C6520707265616D626C6588
:10225700206F6E2F6F66660D0A00702F503A204C64
:10226700696E65466920506F776572206F66662FC5
:102277006F6E0D0A00742F543A204C696E654669DB
:102287002055617274205478204C6F772F48696706
:10229700680D0A00732F533A204C696E65466965CD
:1022A700204353432052782046534D206F66662FB4
:1022B7006F6E0D0A00746573742070726F636564C6
:1022C7007572653A2070202D3E2050202D3E2054F7
:1022D700202D3E2053202D3E2031206F7220320DBD
:1022E7000A004D79206164647265737320697320F5
:1022F700307825780D0A007365742061646472650F
:1023070073732061732025640D0A004D7920616481
:1023170064726573732069732025640D0A00616414
:1023270064726573733A25750D0A00636F6D6D618D
:102337006E643A25750D0A00546869732069732025
:1023470055415254300A0D004C696E654669205359
:102357006C617665204D6F6E69746F720A0D00545B
:102367006869732069732055415254310A0D00552D
:102377004152545F54583D0025640A0D004C4544B2
:102387005F523D004C45445F473D004C45445F422A
:102397003D006E6F204D4F544F525F454E0D0A0062
:1023A7004D4F544F525F43573D004D4F544F525F6F
:1023B7004343573D0053454C5F52585F504F4C3D88
:1023C70000636F756E743A25640D0A0053574954BC
:1023D70043483A25640A0D0052783A25640A0D00ED
:1023E70052782073697A653A25640A0D003078259A
:0323F7007820004B
:1037000000000000000000000000000000000000B9
:1037100000000000000000000000000000000000A9
:103720000000000000000000000000000000000099
:103730000000000000000000000000000000000089
:103740000000000000000000000000000000000079
:103750000000000000000000000000000000000069
:103760000000000000000000000000000000000059
:103770000000000000000000000000000000000049
:100FE30075C7AA75C75575FD5A75C7AA75C75575CF
:100FF300FDA575820022AC82AD83AEF0FF538EF760
:10100300438901D28CEC4D4E4F601A758A76758CEC
:10101300FF108D0280FB1CBCFF091DBDFF051EBE1A
:10102300FF011F80E0C28C22AC82AD83AEF0FF5380
:101033008EF7438901D28CEC4D4E4F601A758A9816
:10104300758CFA108D0280FB1CBCFF091DBDFF05CA
:101053001EBEFF011F80E0C28C22AC82AD83AEF0C6
:10106300FF538EEF438910D28EEC4D4E4F601A75AD
:101073008BF6758DC9108F0280FB1CBCFF091DBD4B
:10108300FF051EBEFF011F80E0C28E22AC82AD832E
:10109300AEF0FF53C9BF53C9DF43C910D2CAEC4DE9
:1010A3004E4F601A75CCE575CDF710CF0280FB1C4F
:1010B300BCFF091DBDFF051EBEFF011F80E0C2CAA4
:1010C30022AC82AD83AEF0FF75C40743C408EC4D78
:1010D3004E4F602575C55775C6CDAAC45302107B04
:1010E30000BA10F6BB00F353C4EF1CBCFF091DBDCF
:1010F300FF051EBEFF011F80D553C4F722AC82AD8E
:1011030083AEF0FF75C40743C408EC4D4E4F602512
:1011130075C5D775C6FFAAC45302107B00BA10F673
:10112300BB00F353C4EF1CBCFF091DBDFF051EBE6E
:10113300FF011F80D553C4F722AF82A2AF9200C232
:10114300AF75C7AA75C755439F01A20092AFE51BB0
:101153006013A2AF9200C2AF75C7AA75C75543A566
:1011630001A20092AF8519A68518A7851AAE8FAF85
:10117300A2AF9200C2AF75C7AA75C75543A401A217
:101183000092AFE51B6026A2AF9200C2AF75C7AA5B
:1011930075C75553A5FEA20092AFA2AF9200C2AF8E
:1011A30075C7AA75C755539FFEA20092AF22AE82A0
:1011B300AF838F188E19751AFF751B017582220272
:1011C300113CAE82AF838F188E1985101A751B01DF
:1011D30075822102113C75180075190C751A00757A
:1011E3001B0075820412113CAFAE75180075190D02
:1011F300751A00751B00758204C00712113CD007D5
:10120300E5AE540FFEA2AF9200C2AF75C7AA75C771
:1012130055539FFEA20092AFE4C454F0CFC4CF6FE6
:10122300CF54F0CF6FFD7C00EE2FF582EC3DF583BC
:1012330022858219751800751A00751B00758204C2
:1012430012113C85AE82A2AF9200C2AF75C7AA75D8
:0A125300C755539FFEA20092AF2280
:10013D00E4F561F56290004E7491F07424A3F074AF
:10014D0080A3F0900051749CF07424A3F07480A3EC
:10015D00F090005474A7F07424A3F07480A3F09071
:10016D00005774B2F07424A3F07480A3F090005A79
:10017D0074BFF07424A3F07480A3F090005D74CB71
:10018D00F07424A3F07480A3F090006074DAF0741E
:10019D0024A3F07480A3F090006374E8F07424A39A
:1001AD00F07480A3F090006674E8F07424A3F074EA
:1001BD0080A3F090006974E8F07424A3F07480A318
:1001CD00F090006C74E8F07424A3F07480A3F090A8
:1001DD00006F74E8F07424A3F07480A3F0900072A3
:1001ED0074E8F07424A3F07480A3F090007574E8A3
:1001FD00F07424A3F07480A3F090007874E8F07488
:10020D0024A3F07480A3F090007B74E8F07424A311
:10021D00F07480A3F090007E74E8F07424A3F07461
:10022D0080A3F090008174E8F07424A3F07480A38F
:10023D00F090008474E8F07424A3F07480A3F0901F
:10024D00008774E8F07424A3F07480A3F090008A02
:10025D0074E8F07424A3F07480A3F090008D74E81A
:10026D00F07424A3F07480A3F090009074E8F074FF
:10027D0024A3F07480A3F090009374E8F07424A389
:10028D00F07480A3F090009674E8F07424A3F074D9
:10029D0080A3F090009974E8F07424A3F07480A307
:1002AD00F090009C74E8F07424A3F07480A3F09097
:0D02BD00009F74E8F07424A3F07480A3F097
:10125D00AD82AE83AFF074032DFDE43EFE8D828E24
:10126D00838FF01220FB2405F58222AD82AE83AF71
:10127D00F08D028E038F047518047519FF8A828B09
:10128D00838CF0C007C006C005121820858219D0C6
:10129D0005D006D00774052DFAE43EFB8F048A8233
:1012AD008B838CF01220FBFAA31220FBFBA31220E0
:1012BD00FBFC74032DFDE43EFE8D828E838FF012B8
:1012CD0020FBF5188A828B838CF0021820AD82AE3C
:1012DD0083AFF0C007C006C005121278AC82D005EE
:1012ED00D006D00774042DFDE43EFE8D828E838FD3
:1012FD00F0EC0220E0AD82AE83AFF0C007C006C0B7
:10130D0005121278AC82D005D006D00774042DFDDD
:10131D00E43EFE8D828E838FF01220FBB5040475A2
:10132D0082012275820022021B73021B91AD82AED7
:10133D0083AFF0C007C006C005121278AC82D0058D
:10134D00D006D00774042DF9E43EFA8F0389828A02
:10135D00838BF0EC1220E08D028E038F048A828B3A
:10136D00838CF01220FBF5820ABA00010BC007C076
:10137D0006C005C004C003C002121337D002D0034B
:10138D00D004D005D006D0078A828B838CF0122032
:10139D00FBF5820ABA00010BC007C006C005C004E8
:1013AD00C003C002121337D002D003D004D005D031
:1013BD0006D0078A828B838CF01220FBF90ABA00C3
:1013CD00010B8982C007C006C005C004C003C0025E
:1013DD00121337D002D003D004D005D006D0078A1F
:1013ED00828B838CF01220FBF5820ABA00010BC0B0
:1013FD0007C006C005C004C003C002121337D002D7
:10140D00D003D0048A828B838CF01220FBF58212DC
:10141D001337D005D006D00774052DFAE43EFB8FA7
:10142D000474032DFDE43EFE7563008D828E838F63
:10143D00F01220FBF8C3E563985051C005C006C0FB
:10144D00078A828B838CF01220FBF8A31220FBF904
:10145D00A31220FBFFE56328F8E439F9888289831C
:10146D008FF01220FBF582C007C006C005C004C076
:10147D0003C002121337D002D003D004D005D0061A
:10148D00D0070563D007D006D005809F22AF82BF5D
:10149D000500500475820322AD67AE68AF69AA647A
:1014AD00AB65AC668A828B838CF01220FBF97401DC
:1014BD002AF564E43BF5658C668D828E838FF0E9A9
:1014CD001220E00DBD00010EAA64AB65AC668A82E8
:1014DD008B838CF01220FBF974012AF564E43BF543
:1014ED00658C668D828E838FF0E91220E00DBD0034
:1014FD00010EAA64AB65AC668A828B838CF01220D8
:10150D00FBF974012AF564E43BF5658C668D828EDA
:10151D00838FF0E91220E00DBD00010EAA64AB65CA
:10152D00AC668A828B838CF01220FBF974012AF54C
:10153D0064E43BF5658C668D828E838FF0E9122015
:10154D00E00DBD00010EAA64AB65AC668A828B838B
:10155D008CF01220FBF974012AF564E43BF5658CDF
:10156D00668D828E838FF0E91220E0AD67AE68AF95
:10157D006974032DFAE43EFB8F0485646B85656CFD
:10158D0085666D756A008A828B838CF01220FBF85C
:10159D00C3E56A985052C002C003C00474052DF80B
:1015AD00E43EF98F04888289838CF01220FBF8A326
:1015BD001220FBF9A31220FBFCE56A28F8E439F9A7
:1015CD00856B82856C83856DF01220FBFBA3858274
:1015DD006B85836C888289838CF0EB1220E0056A21
:1015ED00D004D003D002809E8D828E838FF0121393
:1015FD0002E58270047582042275820222AD82AEEC
:10160D0083AFF0C007C006C00574FAC0E07423C0F4
:10161D00E0121BB715811581D005D006D0078D823C
:10162D008E838FF01220FBFC7B00C007C006C00527
:10163D00C004C003741CC0E07424C0E0121BB7E5E5
:10164D008124FCF581D005D006D00774012DFAE474
:10165D003EFB8F048A828B838CF01220FBFA75F08F
:10166D0003A4244EF582740035F0F583E0F9A3E070
:10167D00FBA3E0FC8A007A00C007C006C005C001CC
:10168D00C003C004C000C0027427C0E07424C0E0D1
:10169D00121BB7E58124F9F581D005D006D007746A
:1016AD00022DFAE43EFB8F048A828B838CF012208C
:1016BD00FBFA7C00C007C006C005C002C00474362A
:1016CD00C0E07424C0E0121BB7E58124FCF581D085
:1016DD0005D006D00774032DFAE43EFB8F048A82F1
:1016ED008B838CF01220FBFA7C00C007C006C0056E
:1016FD00C002C0047441C0E07424C0E0121BB7E501
:10170D008124FCF581D005D006D0078D828E838F84
:10171D00F0C007C006C005121278AC82D005D00605
:10172D00D0077B0074042DF8E43EF98F028882897E
:10173D00838AF01220FBF87A00C007C006C005C0EE
:10174D0004C003C000C002744CC0E07424C0E01299
:10175D001BB7E58124FAF581745FC0E07424C0E005
:10176D00121BB715811581D005D006D00774052D34
:10177D00FAE43EFB8F0474032DFDE43EFE756E000E
:10178D008D828E838FF01220FBF8C3E56E98506426
:10179D00C005C006C0078A828B838CF01220FBF82F
:1017AD00A31220FBF9A31220FBFFE56E28F8E43904
:1017BD00F9888289838FF01220FBF87F00C007C063
:1017CD0006C005C004C003C002C000C0077466C0D7
:1017DD00E07424C0E0121BB7E58124FCF581D00232
:1017ED00D003D004D005D006D007056ED007D006A3
:1017FD00D005808C746CC0E07424C0E0121BB7154A
:10180D0081158174FAC0E07423C0E0121BB71581F5
:10181D00158122AD82AE83AFF0AC19ED4E60217B08
:10182D0000C3EB951850198D828E838FF01220FB1B
:10183D00FAA3AD82AE83EC6A90195C93FC0B80E148
:10184D008C8222AF82AD61AE620561E4B5610205A5
:10185D0062C007C005C006746FC0E07424C0E012FA
:10186D001BB7E58124FCF5817475C0E07424C0E0DC
:10187D00121BB715811581D0077E00C3EE9F502432
:10188D008E047D00C007C006C004C005747DC0E095
:10189D007424C0E0121BB7E58124FCF581D006D07D
:1018AD00070E80D7C007746CC0E07424C0E0121B13
:1018BD00B7158115817484C0E07424C0E0121BB784
:1018CD0015811581D0077E00C3EE9F5072AB6FACB2
:1018DD0070AD718B828C838DF01220FBFABA1000E3
:1018ED0050308A0174012BF56FE43CF5708D7189D0
:1018FD00007900C007C006C000C001748AC0E07442
:10190D0024C0E0121BB7E58124FCF581D006D00779
:10191D00802A74012BF56FE43CF5708D717D00C04C
:10192D0007C006C002C0057466C0E07424C0E01292
:10193D001BB7E58124FCF581D006D0070E80897494
:0F194D006CC0E07424C0E0121BB7158115812215
:1023FA002D2D2D2D2D2D2D2D2D2D2D2D2D2D2D2D03
:10240A002D2D2D2D2D2D2D2D2D2D2D2D2D2D2D0D12
:10241A000A00566572203A2025640D0A0054797024
:10242A00653A202564282573290D0A0041646472DF
:10243A003A2025640D0A0053697A653A2025640D0D
:10244A000A0043524320636F6D70203A20256420AE
:10245A0025640D0A00444154413A20003078257819
:05246A0020000D0A0036
:10195C0000316253C4F5A697B988DBEA7D4C1F2E83
:10196C004372211087B6E5D4FACB98A93E0F5C6D73
:10197C0086B7E4D5427320113F0E5D6CFBCA99A863
:10198C00C5F4A796013063527C4D1E2FB889DAEB53
:10199C003D0C5F6EF9C89BAA84B5E6D74071221343
:1019AC007E4F1C2DBA8BD8E9C7F6A5940332615033
:1019BC00BB8AD9E87F4E1D2C02336051C6F7A49523
:1019CC00F8C99AAB3C0D5E6F4170231285B4E7D613
:1019DC007A4B1829BE8FDCEDC3F2A1900736655403
:1019EC0039085B6AFDCC9FAE80B1E2D344752617F3
:1019FC00FCCD9EAF38095A6B4574271681B0E3D2E3
:101A0C00BF8EDDEC7B4A192806376455C2F3A091D2
:101A1C004776251483B2E1D0FECF9CAD3A0B5869C2
:101A2C0004356657C0F1A293BD8CDFEE79481B2AB2
:101A3C00C1F0A3920534675678491A2BBC8DDEEFA2
:101A4C0082B3E0D1467724153B0A5968FFCE9DAC92
:10246F002325640D0A00726177203A20200025325F
:10247F006420202000646174613A00307830257840
:10248F002000547970655F426361737400547970F2
:10249F00655F556361737400547970655F4D636157
:1024AF00737400547970655F53657441646472008E
:1024BF00547970655F5365744C4544005479706569
:1024CF005F4374726C4D6F746F7200547970655FF7
:1024DF00526561644164647200547970655F4E6F38
:0324EF006E650017
:101A5C00AC82AD83AEF0FF53B1BF53B2BF53B17F75
:101A6C0053B27F759850438920438780438E10531F
:101A7C00C4DF8C188D198E1A8F1B90D4BC75F00F87
:101A8C00E4122038AC82C3E49CF58DD28ED299221C
:101A9C00AC82AD83AEF0FF53B1BF53B2BF53B17F35
:101AAC0053B27F75985043878053C4F843C4208C3D
:101ABC00188D198E1A8F1B90D4BC75F00FE4122060
:101ACC0038AC82AD83AEF0FFE4C39CE49DF97401A5
:101ADC009EE49F89C6C3E49CFC8CC543C408D29980
:101AEC00223098FD859982C29822AD82AE83AFF0E8
:101AFC003098118D828E838FF0E5991220E0C29878
:101B0C007582012275820022AF82C2998F99309919
:101B1C00FD22AC82AD83AEF0FF53B1FB53B2FB534D
:101B2C00B3BF53B4BF75F85875C40853C4DF8C18D1
:101B3C008D198E1A8F1B90D4BC75F00FE4122038BF
:101B4C00AC82AD83AEF0FFE4C39CE49DF974019EBE
:101B5C00E49F89C6C3E49CFC8CC543C4082230F8BE
:101B6C00FD859A82C2F822AD82AE83AFF030F811B7
:101B7C008D828E838FF0E59A1220E0C2F875820177
:101B8C002275820022AF82C2F98F9A30F9FD229021
:101B9C00E100E4F5F0121A5C90C20075F001E41259
:101BAC001B1EC299C2F9D2ACD2AF22C017858117C5
:101BBC00E51724FDF8868318868218E493A3B425D0
:101BCC0077C201C202C203C204C205C206791177F0
:101BDC0000C207E493A324C64017240A50157005CD
:101BEC00B51102D206D205FAE775F00AA42AF780DD
:101BFC00E2240A2430B46C04D20180D7B46804D235
:101C0C000280D0B47303021C4FB46406121F290265
:101C1C001CABB47506121F29021CCBB4630518E665
:101C2C00188017B47803021C8AB46603021DDFB453
:101C3C002E0679127700809B600612201B021BC7B0
:101C4C00022035C083C08286F018868318868218DD
:101C5C00300519C206C082C0831220FB6007A31591
:101C6C0011E51170F4122006D083D0821220FB6093
:101C7C0006A312201B80F5D082D083021BC7121C36
:101C8C00A220020C121CA2300106121CA2121CA2D1
:101C9C0012202D021BC7E612200BE61802200CEDB9
:101CAC0030E71CD204E9F42401F9200212EAF434DE
:101CBC0000FA30010AEBF43400FBECF43400FC20A5
:101CCC000210300108EB7024EC7021C201EA701C88
:101CDC00D202E97017200714300509E511600515CB
:101CEC0011122006743012201B021BC7C082C08345
:101CFC00121F43300560790A30011DEB54F0703629
:101D0C0019EB540F703019EA54F0702A19EA540F79
:101D1C00702419EF54F0701E790520020BEF540F4C
:101D2C00701419EE54F0700E7903EE540F700719FD
:101D3C00ED54F0700119E511A204994019F511C088
:101D4C0003C002C007C006C005122006D005D0068D
:101D5C00D007D002D003300419C003C002C007C0A2
:101D6C0006C005742D12201BD005D006D007D0025A
:101D7C00D00320024030012CC005C006C0078A8267
:101D8C00EBF58312200BE58312200CE58212200B5D
:101D9C00E58212200CD0E0F58212200BE582D08374
:101DAC00D08280058D828E83EF12200CE583122069
:101DBC000BE58380038D82EE12200CE58212200B42
:101DCC00E58212200C12202DD083D0823007012204
:101DDC00021BC730050EE511D39512F5115028756D
:101DEC0011008023E6547FFA18860308AE82AF8375
:101DFC009026BE7D07E4932BA3E4933A5003A3DD16
:101E0C00F48D128E828F83C000121F0BC082C08390
:101E1C00EFB47E02801940112482FDC3EA33FAEB41
:101E2C0033FBEC33FCDDF48006F4247F12209D752B
:101E3C00F01BE4F8FFFEFD902652E933F9EA33FA81
:101E4C00EB33FBEC33FC5017E4932DD4FD7401936E
:101E5C003ED4FE7402933FD4FF74039338D4F8A39A
:101E6C00A3A3A3D5F0D4E47C50FBFAF9E512232309
:101E7C0054FC888312209DED29D4F516EE3AD4F546
:101E8C0015EF3BD4F514E5833CD4F51392D5D083F0
:101E9C00D082D000121F0BC000C3749E9F5005D07F
:101EAC0000021BDFC08212209DD08230D50FE924A6
:101EBC0001F9E43AFAE43BFBE43CFC40E2D20712C1
:101ECC001CCB20050CE5126008121EFB7003D5120A
:101EDC00F4E5126015742E12201B7800D20308E86A
:101EEC00121EFB12200CE8B512F4D000021BC71412
:101EFC00C31392D52413F9E720D501C4540F22E65D
:101F0C0018F9E618FC33E9339204FF6003430480AC
:101F1C00E618FBE618FA7900C202D20122E6F9FDB6
:101F2C0018200212AA01E6F91830010AAC02AB0122
:101F3C00E6FA18E6F91822E975F06484FE740AC50D
:101F4C00F084C445F0FD30020122EA540FF99024CC
:101F5C00F2932DD4FDE94410933ED4FEEAC4540F01
:101F6C00F9902512932DD4FDE94410933ED4FEE94B
:101F7C004420933400D4FF20010122EB540FF9903C
:101F8C002542932DD4FDE94410933ED4FEE9442020
:101F9C00933FD4FFE43400FAEBC4540FF99025724C
:101FAC00932DD4FDE94410933ED4FEE94420933F95
:101FBC00D4FFE94430933AD4FAEC540FF99025B29B
:101FCC007B00121FD9ECC4540FF9902602932DD428
:101FDC00FDE94410933ED4FEE94420933FD4FFE93D
:101FEC004430933AD4FAE94440933BD4FB22742016
:101FFC00300602743012201B1511E51170F022C44A
:10200C00540F7003300319D2032490D43440D4C03D
:10201C0083C082C000F5821202CDD000D082D08362
:0C202C00222003FC743002201BD017227D
:1024F200005612682480369248046016722884407E
:10250200000205071012151720232528303335380D
:10251200009692888480767268646056524844407D
:102522000040812263044586276809509132731462
:10253200000000010102020203030404040505066F
:10254200003672084480165288246096326804402D
:102552000055106621763287429853086419753007
:1025620000061319263239455258657278859198BA
:1025720000765228048056320884603612886440FD
:102582000085715743281400867157432914008629
:1025920000040914192429343843485358636872D3
:1025A200000102030405060708091011121314158D
:1025B20000163248648096122844607692082440BD
:1025C200007244168860320577492193653810827B
:1025D2000077553310886644219977543210886504
:1025E2000016335067830017345067840118345142
:1025F20000000000000001010101010102020202CB
:10260200005612682480369248046016722884406C
:1026120000540963187227813691450054096318E2
:102622000043873074176104489135792266095353
:10263200006836057342107947158452218958265D
:1026420000020508101316182124262932343740B7
:102652000000005000000025000050120000250676
:102662000050120300255601501278002506390049
:1026720012531900567609002888040014440200F7
:1026820007220100046100005230000026150000FC
:102692006307000081030000910100009500000023
:1026A20048000000240000001200000006000000A4
:1026B2000300000001000000010000007DC5DDC331
:0A26C20034C2E0BE38BD86BBE4B9A7
:10203800FB7A20E4FCFDFEFFE5822582F582E5833C
:1020480033F583E5F033F5F0EB33FB4017DAE9803D
:1020580042E5822582F582E58333F583E5F033F5A1
:10206800F0EB33FBEC33FCED33FDEE33FEEF33FFE7
:10207800EC9518ED9519EE951AEF951B4013EC9514
:1020880018FCED9519FDEE951AFEEF951BFF43829E
:0520980001DABEEB229D
:06004E00E478FFF6D8FD86
:10209D006040F82582500274FFF582E824F8501E46
:1020AD00CCCBCAF9E4CC24F85014CBCAF9E4CB2438
:1020BD00F8500BCAF9E4CA24F85003790022240819
:1020CD006010F8C3EC13FCEB13FBEA13FAE913F9F8
:1020DD00D8F12220F71130F6138883A88220F50954
:0E20ED00F6A8837583002280FEF280F5F022B3
:0D004100758171120FE3E582600302003E3D
:1020FB0020F71430F6148883A88220F507E6A8830E
:0C210B0075830022E280F7E49322E022BA
:00000001FF
