:040000000200413287
:03000B000205BE2D
:0100130032BA
:01001B0032B2
:0100230032AA
:01002B0032A2
:01003300329A
:03003B000205EDCE
:100054007525009000AEE4F0753200752100900023
:100064001F7422F07439A3F07480A3F090002274FA
:1000740044F07439A3F07480A3F09000257463F005
:100084007439A3F07480A3F0900028748AF0743952
:10009400A3F07480A3F090002B74A9F07439A3F03A
:1000A4007480A3F090002E23F090002FF090003085
:1000B400F0900031F090003204F0900033F09000A2
:1000C40034F0900035F090003604F0900037F09052
:1000D4000038F0900039F090003A04F090003BF0C2
:1000E40090003CF090003DF090003E04F090003F02
:1000F400F0900040F0900041F09000427402F090C3
:100104000043F0900044F0900045F090004614F055
:10011400900047F0900048F0900049F090004A7435
:1001240004F090004BF090004CF090004DF09000E3
:100134004E14F090004FF0900050F0900051F09069
:1001440000527405F0900053F0900054F090005564
:10015400F09000567402F090005774FFF09000582D
:10016400F09000597402F090005A14F090005BF083
:1001740090005CF090005DF090005E7404F09000DC
:100184005FF0900060F0900061F090006214F090D5
:100194000063F0900064F0900065F09000667405D0
:1001A400F0900067F0900068F0900069F090006AA9
:1001B400F090006BF090006CF090006DF090006E89
:1001C400F090006FF0900070F0900071F090007665
:1001D4007460F07409A3F0E4A3F0A3F090007A74BF
:1001E40080F07470A3F0E4A3F0A3F090007EF074A8
:1001F40096A3F0E4A3F0A3F0900082F074E1A3F0DE
:10020400E4A3F0A3F0900086F074C2A3F07401A3F9
:10021400F0E4A3F090008AF07484A3F07403A3F0D4
:10022400E4A3F090008E74E0F07493A3F07404A33C
:10023400F0E4A3F0900092F07408A3F014A3F0E4A7
:10024400A3F09000967420F074A1A3F07407A3F0B7
:10025400E4A3F090009A74C0F07427A3F07409A387
:10026400F0E4A3F090009E7460F074AEA3F0740AFE
:10027400A3F0E4A3F09000A2F07435A3F0740CA3EF
:10028400F0E4A3F09000A674A0F074BBA3F0740D86
:10029400A3F0E4A3F09000AAF07410A3F0740EA3EA
:0402A400F0E4A3F0EF
:0304350002003E84
:03003E0002123C6F
:10043800AE82E5217009C2998E9920990980FBC284
:10044800F98E9A30F9FD90000022AF82C00774F24D
:10045800C0E07434C0E012260415811581D007BFAE
:100468000002800ABF01028016BF0233802274F5A1
:10047800C0E07434C0E01226041581158180207410
:10048800FBC0E07434C0E012260415811581800F8A
:100498007401C0E07435C0E012260415811581AEE0
:1004A800217F00C006C0077407C0E07435C0E012A1
:1004B8002604E58124FCF58122AF82BF0D02800469
:1004C800BF1B11227420C0E07435C0E01226041549
:1004D800811581227E00C007C0067423C0E07435F0
:1004E800C0E0122604E58124FCF58122AF82741B4A
:1004F800B5220280028079AE238E21AC217D00C016
:1005080007C006C004C0057426C0E07435C0E012F8
:100518002604E58124FCF581D006D007BF000280BF
:100528000DBF01028021BF020280350205BB7F0199
:100538008E21758201C0071204528524217582011B
:10054800120452D007806C7F028E21758202C00788
:10055800120452852421758202120452D007805356
:100568007F008E21758200C007120452D007804395
:10057800BF0002800ABF01028014BF0236801E85B8
:100588002321852282C0071204C1D0078025852433
:1005980021852282C0071204C1D007801685232135
:1005A800852282C0071204C1852421852282120473
:1005B800C1D0078F8222C0E0C082C083C0D0758CB2
:1005C800D4758A13900072E02401F0A3E03400F09F
:1005D800900074E02401F0A3E03400F0D0D0D08380
:1005E800D082D0E032C0E0E5EC75EC00D0E032AF6C
:1005F800827E00EE2EFD8DF005F0EF8002C313D54C
:10060800F0FBFC5304017B00ED04F5F005F0EF80EE
:1006180002C313D5F0FBFD5305017A00ECB50508BC
:10062800EBB50204758200220EBE040040C5758237
:100638000122AF827E007D04EF30E003430680EFA5
:100648000303543FFFEEC313FEED14FD70EA8E82E0
:1006580022AF827E007D04EEC313FEEF30E0034339
:100668000680EF0303543FFFED14FD70EA8E8222EB
:10067800AE875306107F00BE1041BF003EAF84AE68
:10068800857D00EF2FFFED33FD5306017C00EE2F33
:10069800FFEC3DFDEF24F1FFED34FFFD8F0653061F
:1006A80001EDC313CF13CFFD75C7AA75C7558F8446
:1006B80075C7AA75C7558E855387EF22AF827521F6
:1006C80001BF310122BF320122BF33028032BF3461
:1006D8000122BF50028049BF5303020768BF54027A
:1006E800805EBF5603020778BF70028023BF730283
:1006F800805EBF74028039BF7603020778020788DC
:10070800743DC0E07435C0E01226041581158122BD
:100718007454C0E07435C0E0122604158115812296
:100728007467C0E07435C0E0122604158115812273
:100738007479C0E07435C0E0122604158115812251
:10074800748EC0E07435C0E012260415811581222C
:1007580074A4C0E07435C0E0122604158115812206
:1007680074BCC0E07435C0E01226041581158122DE
:1007780074D3C0E07435C0E01226041581158122B7
:1007880074EDC0E07435C0E012260415811581743B
:1007980004C0E07436C0E012260415811581741B6C
:1007A800C0E07436C0E012260415811581743CC07F
:1007B800E07436C0E0122604158115817457C0E034
:1007C8007436C0E0122604158115817476C0E07471
:1007D80036C0E0122604158115817497C0E074367E
:1007E800C0E0122604158115812275B10075B2008A
:1007F80075B30075B40075AC0075AD0043B308530C
:10080800B4F743AC0153ADFE43B38053B47F43B157
:100818000153B2FE43B32053B4DF43B12053B2DFD8
:1008280043B11053B2EF53B3FE43B40153B3FD4386
:10083800B40253B3FB43B404C290C291C29222AF34
:10084800827E04EFB52514AB6EAC6FAD708B828CD5
:10085800838DF0E4122B2D75820422AB6EAC6FAD44
:10086800708B828C838DF0E4122B2D7A008AF00530
:10087800F0E5258002C313D5F0FBF8530001790099
:10088800B80005B900028055B80105B90002800317
:100898000209308AF005F0EF8002C313D5F0FBF8A7
:1008A8005300017900B80005B9000280030209303D
:1008B8008F258B828C838DF01234A0F98A0088F002
:1008C80005F07401800225E0D5F0FBF8E942008BC1
:1008D800828C838DF0E8122B2D7E00804B8AF005E8
:1008E800F0EF8002C313D5F0FBF85300017900B88C
:1008F8000005B900028031B8012EB9002B8F258B75
:10090800828C838DF01234A0F98A0088F005F07487
:1009180001800225E0D5F0FBF8E942008B828C8348
:100928008DF0E8122B2D7E010ABA0500500302084B
:10093800758E8222AF82AC26AD27AE287B00C3EB32
:100948009F503F8C828D838EF01234A0FAA3AC8224
:10095800AD838A017A00C007C006C005C004C00381
:10096800C001C0027423C0E07435C0E0122604E55B
:100978008124FCF581D003D004D005D006D0070B24
:1009880080BC7420C0E07435C0E0122604158115BF
:10099800812274C4C0E07436C0E0122604158115A3
:1009A8008174CFC0E07436C0E01226041581158129
:1009B80074E7C0E07436C0E012260415811581740E
:1009C800FBC0E07436C0E01226041581158174005E
:1009D800C0E07437C0E0122604158115817405C083
:1009E800E07437C0E012260415811581740AC0E04E
:1009F8007437C0E012260415811581740FC0E074A5
:100A080037C0E0122604158115817414C0E07437CC
:100A1800C0E0122604158115817419C0E07437C02E
:100A2800E0122604158115817425C0E07437C0E0F2
:100A3800122604158115817430C0E07437C0E012A5
:100A4800260415811581743BC0E07437C0E0122676
:100A580004158115817447C0E07437C0E01226047C
:100A68001581158122AF82BF2B03021056BF2D03BB
:100A780002107BBF3003020B16BF3103020B2FBFDE
:100A88003203020B44BF3303020B59BF3403020B7A
:100A98006EBF3503020B90BF3603020BC6BF370388
:100AA800020BF4BF480302099ABF530302102CBF7C
:100AB800610302109FBF62030210A5BF6303021007
:100AC800ABBF6803020C22BF6A03020CAEBF6B0304
:100AD800020CE1BF6C03020D14BF7303020DA0BF2B
:100AE80074028007BF7503020F6D22900072E0C088
:100AF800E0A3E0C0E07454C0E07437C0E0122604FC
:100B0800E58124FCF581900072E4F0A3F0227521C0
:100B180000C290C291C2927459C0E07437C0E0120A
:100B280026041581158122752100D2907468C0E0D1
:100B38007437C0E01226041581158122752100C280
:100B4800967477C0E07437C0E012260415811581C9
:100B580022752100D2967485C0E07437C0E0122651
:100B6800041581158122752100B296A296E433FE00
:100B78007F00C006C0077493C0E07437C0E0122637
:100B880004E58124FCF58122752100209002D2968B
:100B9800B29074A2C0E07437C0E012260415811523
:100BA80081A290E433FE7F00C006C00774AEC0E0A7
:100BB8007437C0E0122604E58124FCF58122B29145
:100BC80074B3C0E07437C0E012260415811581A201
:100BD80091E433FE7F00C006C00774AEC0E07437EE
:100BE800C0E0122604E58124FCF58122B29274BF8C
:100BF800C0E07437C0E012260415811581A292E482
:100C080033FE7F00C006C00774AEC0E07437C0E092
:100C1800122604E58124FCF58122AD2CAE2DAF2EE1
:100C28008D828E838FF01234A0FC1C8D828E838F70
:100C3800F0EC122B2DAA29AB2AAC2B8A828B838C41
:100C4800F01234A0FABA013C8D828E838FF01234F0
:100C5800A075F004A42476F582740035F0F583E0DD
:100C6800F9A3E0FAA3E0FBA3E0FCC001C002C003C3
:100C7800C00474CBC0E07437C0E0122604E58124B8
:100C8800FAF581228D828E838FF01234A0FD7F00C9
:100C9800C005C00774DEC0E07437C0E0122604E562
:100CA8008124FCF58122AD29AE2AAF2B8D828E835B
:100CB8008FF01234A0FC1C8D828E838FF0EC122BE7
:100CC8002D7F00C004C00774ECC0E07437C0E01288
:100CD8002604E58124FCF58122AD29AE2AAF2B8DAF
:100CE800828E838FF01234A0FC0C8D828E838FF05D
:100CF800EC122B2D7F00C004C00774ECC0E07437E1
:100D0800C0E0122604E58124FCF58122AD2CAE2D2D
:100D1800AF2E8D828E838FF01234A0FC0C8D828EC4
:100D2800838FF0EC122B2DAA29AB2AAC2B8A828B4D
:100D3800838CF01234A0FABA013C8D828E838FF036
:100D48001234A075F004A42476F582740035F0F509
:100D580083E0F9A3E0FAA3E0FBA3E0FCC001C00232
:100D6800C003C00474CBC0E07437C0E0122604E5A9
:100D78008124FAF581228D828E838FF01234A0FDB2
:100D88007F00C005C00774DEC0E07437C0E01226DB
:100D980004E58124FCF58122AD29AE2AAF2B8D8292
:100DA8008E838FF01234A0FC6009BC0103020E4E42
:100DB800020EFB852C2F852D30852E31852F8285BF
:100DC80030838531F01234A0C454F0F85300F07425
:100DD8000F5C48F582C007C006C005121DB3D005D8
:100DE800D006D007852F828530838531F01234A054
:100DF800F8E4C8C4C868C854F0C868FB8D828E83FC
:100E08008FF01234A07A004200EA4203C000C00307
:100E180074FAC0E07437C0E0122604E58124FCF5BA
:100E280081852F828530838531F01234A0FB7A00CA
:100E3800C003C0027412C0E07438C0E0122604E592
:100E48008124FCF58122852C2F852D30852E318536
:100E58002F828530838531F01234A0C454F0F853C2
:100E680000F0740F5C48F582C007C006C005121D6B
:100E7800B3D005D006D007852F828530838531F021
:100E88001234A0F8E4C8C4C868C854F0C868FB8D18
:100E9800828E838FF01234A07A004200EA4203C0A7
:100EA80000C00374FAC0E07437C0E0122604E5817C
:100EB80024FCF581852F828530838531F01234A09A
:100EC80075F004A42476F582740035F0F583E0F813
:100ED800A3E0F9A3E0FAA3E0FBC000C001C002C090
:100EE8000374CBC0E07437C0E0122604E58124FA0D
:100EF800F58122A92CAA2DAB2E89828A838BF01228
:100F080034A0C454F0F85300F0740F5C48F582C064
:100F180007C006C005C003C002C001121DB3D0013E
:100F2800D002D003D005D006D00789828A838BF0FF
:100F38001234A0F9E4C9C4C969C954F0C969FC8D5F
:100F4800828E838FF01234A07F004201EF4204C0EA
:100F580001C00474FAC0E07437C0E0122604E581C9
:100F680024FCF58122AD2CAE2DAF2E8D828E838F81
:100F7800F01234A075F004A42476F582740035F0DC
:100F8800F583E0F9A3E0FAA3E0FBA3E0FCC007C007
:100F980006C005C001C002C003C00474CBC0E07421
:100FA80037C0E0122604E58124FAF581D005D00681
:100FB800D0078D828E838FF01234A075F004A4249C
:100FC80076F582740035F0F583E0F9A3E0FAA3E042
:100FD800FBA3E089828A838BF0C007C006C0051294
:100FE800256BD005D006D0078D828E838FF0123402
:100FF800A075F004A42476F582740035F0F583E03A
:10100800FCA3E0FDA3E0FEA3E0FFC004C005C0060A
:10101800C0077423C0E07438C0E0122604E58124B8
:10102800FAF581229000AEE0F582121DB39000AE71
:10103800E0FF7E00C007C006C007C0067441C0E0DC
:101048007438C0E0122604E58124FAF58122900064
:10105800AEE02401F0E0FF7E00C007C006C007C074
:1010680006745CC0E07438C0E0122604E58124FAF6
:10107800F581229000AEE014F0E0FF7E00C007C0CA
:1010880006C007C006745CC0E07438C0E0122604CD
:10109800E58124FAF58122758211021DB375821249
:1010A800021DB3758213021DB385826E85836F8519
:1010B800F0701234A0900001F07401256EFAE43546
:1010C8006FFBAC708A828B838CF01234A090000284
:1010D800F07402256EFAE4356FFBAC708A828B835C
:1010E8008CF01234A0900003F07403256EFAE435F6
:1010F8006FFBAC708A828B838CF01234A090000452
:10110800F07404256EF8E4356FF9AF70888289832E
:101118008FF01234A0F8900005F07405256EFDE4F8
:10112800356FFEAF707571057572008A828B838C7E
:10113800F01234A0F9C3E572995044C002C003C04C
:1011480004E5712401F8E43400F905718D828E8379
:101158008FF01234A0FAA31234A0FBA31234A0FC1F
:10116800E5722AFAE43BFB8A828B838CF01234A066
:1011780088828983F00572D004D003D00280AC2223
:10118800AD82AE83AFF0C007C006C005121D07AC24
:101198008285326E756F00900011C004122B48755D
:1011A8006E0F756F001234BCAA82AB83D004D005D1
:1011B800D006D007C3EA9404EB648094805067C0DB
:1011C80007C006C005C004C002C0037471C0E07443
:1011D80038C0E0122604E58124FCF581D004D0054E
:1011E800D006D007AB3205328D828E838FF0EB129A
:1011F8002B2D8D828E838FF0C007C006C005C004DA
:10120800121DB6D004D005D006D0078D828E838FEC
:10121800F0C0041210B1D0047515017516007517C9
:10122800008C82022297AC3205328D828E838FF039
:10123800EC022B2D7534017535017F01753700756A
:1012480038007C00900113E4F0900114F09001152F
:10125800F0900116F0900117F0900118F090011924
:10126800F090011AF090011BF090011CF090011D04
:10127800F090011EF090011F04F090012004F090FE
:10128800012114F0900122740AF090012303F090D8
:101298000124742EF07400A3F0E4A3F09001270455
:1012A800F090012804F0900129F090012A740AF0C6
:1012B80090012B03F090012C742EF07400A3F0E43D
:1012C800A3F090012F04F090013004F09001310454
:1012D800F0900132740AF090013303F090013474F5
:1012E8002EF07400A3F0E4A3F090013704F090010D
:1012F8003804F090013923F090013A740AF0900113
:101308003B03F090013C742EF07400A3F0E4A3F0CA
:1013180090013F04F090014004F09001417405F001
:1013280090014223F090014303F0900144742EF0A1
:101338007400A3F0E4A3F08F39753A02753B037586
:101348003C0A753D05753E2E753F00F540900147F6
:1013580004F090014804F090014914F090014A7497
:1013680003F090014B7405F090014C7456F0740032
:10137800A3F0E4A3F0C007C0041207F21225E81294
:101388000678538EF7D2A9D28C7521007476C0E006
:101398007438C0E0122604158115817486C0E07483
:1013A80038C0E0122604158115817521017496C094
:1013B800E07438C0E012260415811581D004D007E6
:1013C8007A307B7500000000001ABAFF011BEA4B57
:1013D80070F2D296C290752100900076E0FAA3E0F0
:1013E800FBA3E0FDA3E08A828B838DF0C007C004D5
:1013F80012256B758251121DB3D004D0077D307E43
:101408007500000000001DBDFF011EED4E70F2903A
:10141800008AE0FAA3E0FBA3E0FDA3E08A828B83C5
:101428008DF0C007C00412256BD004D0077D307E34
:101438007500000000001DBDFF011EED4E70F2D2C8
:1014480096C290D291C29290001FE0FBA3E0FDA348
:10145800E0FEC007C004C003C005C00674A6C0E013
:101468007438C0E07480C0E0122BDAE58124FAF504
:1014780081D004D00790003375F040C007C0041233
:101488002543E582D004D007700302177C741BB58E
:1014980033430CBC05027C00EC75F003A4241FF553
:1014A80082740035F0F583E0FBA3E0FDA3E0FEC005
:1014B80007C004C003C005C00674A6C0E07438C0E5
:1014C800E07480C0E0122BDAE58124FAF581D004BB
:1014D800D0070217C4EC24FB50030217C4EC2C2CD1
:1014E8009014EC730214FB02151E02153C02162D13
:1014F800021733752935752A00752B40752C3475FC
:101508002D00752E40853382C007C004120A6DD0A5
:1015180004D0070217C4900072E4F0A3F090011EF3
:10152800E0FE04F0EE24AFF582E43400F583E53301
:10153800F00217C47466B53302801F7467B53302AE
:1015480080267468B533028027746AB53302803CFC
:10155800746BB5330280620215EC1534E534600310
:101568000215EC753401807CD535797535018074A8
:10157800753E13753F0175400090003975F040C005
:1015880007C004121DB6D004D0078058053574650D
:10159800B53503753564AD357E00C007C004C00598
:1015A800C00674ECC0E07437C0E0122604E581245C
:1015B800FCF581D004D007802B05347410B53403B2
:1015C80075340FAD347E00C007C004C005C0067472
:1015D800DEC0E07437C0E0122604E58124FCF58102
:1015E800D004D0077466B5330280207467B533021F
:1015F80080197468B533030217C4746AB53302805E
:101608000A746BB5330280030217C485343B8535F1
:101618003A90003975F040C007C004122051D00438
:10162800D0070217C47468B533028015746AB533DD
:10163800028020746BB533028033746CB5335A80E2
:101648004690011DE014F0E0FEBEFF4D90011DE440
:10165800F0804690011DE02413FEE43401FD8E82E3
:101668008D83E0FB1B8E828D83EBF0802C90011D17
:10167800E02413FEE43401FD8E828D83E0FB0B8EA3
:10168800828D83EBF0801290011DE02401F0E0FED2
:10169800BE0A06EE1490011DF07468B5330280137B
:1016A800746AB533028032746BB53302802B746C64
:1016B800B5337890011DE0FE7D00C007C004C00668
:1016C800C00574ABC0E07438C0E0122604E581247C
:1016D800FCF581D004D00780527E00EE2413F582F9
:1016E800E43401F583E0FD7B00C007C006C004C0F8
:1016F80005C00374B8C0E07438C0E07480C0E0125C
:101708002BDAE58124FBF581D004D006D0070EBE84
:101718000A0040C7C007C0047420C0E07435C0E0A8
:1017280012260415811581D004D0077465B53302DB
:1017380080267473B5330280030217C4C007C0043F
:1017480074BEC0E07438C0E012260415811581D03B
:1017580004D0077538038064C007C00474E3C0E090
:101768007438C0E012260415811581D004D007759D
:1017780038048048EC24FB4043EC2C901787738096
:101788003B8006803780358033900072E0FDA3E00F
:10179800FEC3740A9DE49E502390011EE0FEE060A3
:1017A8001B7526AF7527007528008E82C007C004F8
:1017B80012093CD004D00790011EE4F0EF70030238
:1017C80018B0A295E433FEA2B0E43325E04206A2A5
:1017D80080E43325E025E04206A293E433C40354B1
:1017E800F84206A297E433C454F04EF582756E367B
:1017F800756F00757040C007C004120847AE82D0EC
:1018080004D007BE010280030219FFEF24FA500337
:101818000219FFEF2F2F901822730219FF021834B4
:1018280002183C0218A40218A80218ACD296D2904A
:101838000F0219FF900076E0FAA3E0FBA3E0FDA3F6
:10184800E08A828B838DF0C00412256B7582511259
:101858001DB390008AE0FAA3E0FBA3E0FDA3E0FE3D
:10186800C002C003C005C00674CBC0E07437C0E036
:10187800122604E58124FAF58190008AE0FAA3E0B3
:10188800FBA3E0FDA3E08A828B838DF012256BD049
:10189800047535027534017F000219FF0F0219FF24
:1018A8000F0219FF0F0219FFA295E433FEA2B0E45C
:1018B8003325E04206A280E43325E025E04206A273
:1018C80093E433C40354F84206A297E433C454F0B3
:1018D8004EF582756E36756F00757040C007C0048E
:1018E800120847AE82D004D007BE01028003021955
:1018F800FFAE36BE01030219D47402B53602804326
:101908007404B536030219A77408B53602800A7440
:1019180010B5360280570219FFD53403753401AD6E
:10192800347E00C007C004C005C00674DEC0E07481
:1019380037C0E0122604E58124FCF581D004D007E5
:101948000219FFD53503753501AD357E00C007C0D6
:1019580004C005C00674ECC0E07437C0E012260469
:10196800E58124FCF581D004D0070219FF85343BBA
:1019780085353AE53430E00B753E2E753F007540ED
:10198800008009753E42753F00754000900039752A
:10199800F040C007C004121DB6D004D00780580517
:1019A800357465B53503753564AD357E00C007C03F
:1019B80004C005C00674ECC0E07437C0E012260409
:1019C800E58124FCF581D004D007802B0534741000
:1019D800B5340375340FAD347E00C007C004C005AC
:1019E800C00674DEC0E07437C0E0122604E5812426
:1019F800FCF581D004D007E4B53702800A7401B53C
:101A08003702803102147D7403B538028003021452
:101A18007D753701900074E4F0A3F0C007C004742A
:101A280008C0E07439C0E012260415811581D0047D
:101A3800D00702147D900074E0FDA3E0FEC374B8E3
:101A48009D740B9E5018900074E4F0A3F090014729
:101A580075F000C007C004121188D004D0077404C0
:101A6800B53802800302147D753700C007C00474BE
:101A780016C0E07439C0E012260415811581D0041F
:051A8800D00702147DEF
:1034F2000A0D0073656C66200063726F737300625D
:103502006F74682000206F75747075743A5468691E
:1035120073206973205541525425640A0D000D0A27
:10352200002563000D0A696E7075743A54686973F8
:10353200206973205541525425640049646C65200A
:10354200707265616D626C65206F6E2F6F66660DBD
:103552000A004C696E65466920506F776572204F8C
:1035620066660D0A004C696E65466920506F776584
:1035720072204F6E0D0A004C696E654669205561D6
:103582007274205478204C6F770D0A004C696E6576
:103592004669205561727420547820486967680D25
:1035A2000A004C696E6546692043534320727820B5
:1035B20046534D204F66660D0A004C696E6546699A
:1035C200204353432072782046534D204F4E0D0A1C
:1035D2000056657273696F6E20312E34206F6E2033
:1035E20032303233313032360D0A00313A20646FD4
:1035F200776E6C696E6B207061636B657420310D40
:103602000A00323A20646F776E6C696E6B207061CB
:10361200636B657420320D0A00333A2075706C6951
:103622006E6B2069646C6520707265616D626C6599
:10363200206F6E2F6F66660D0A00702F503A204C75
:10364200696E65466920506F776572206F66662FD6
:103652006F6E0D0A00742F543A204C696E654669EC
:103662002055617274205478204C6F772F48696717
:10367200680D0A00732F533A204C696E65466965DE
:10368200204353432052782046534D206F66662FC5
:103692006F6E0D0A00746573742070726F636564D7
:1036A2007572653A2070202D3E2050202D3E205408
:1036B200202D3E2053202D3E2031206F7220320DCE
:1036C2000A00743A2074696D65720D0A00303A205E
:1036D2004C696E65466920454E302C312C32206F84
:1036E20066660D0A00313A204C696E6546692045CE
:1036F2004E30203D20310D0A00323A0D0A00333A95
:103702000D0A00343A0D0A00353A0D0A00363A0D18
:103712000A00373A0D0A00683A20416464722D2D7E
:103722000D0A006A3A20436D642D2D0D0A006B3A92
:1037320020436D642B2B0D0A006C3A2041646472A5
:103742002B2B0D0A00733A2073656E64696E670D48
:103752000A0025750A0D004C494E4546495F454E03
:10376200303D300A0D004C494E4546495F454E30CA
:103772003D310A0D004C494E4546495F54583D3093
:103782000A0D004C494E4546495F54583D310A0DD9
:10379200004C494E4546495F54583D25640A0D0088
:1037A2004C494E4546495F454E303D0025640A0D61
:1037B200004C494E4546495F454E313D004C494E0D
:1037C2004546495F454E323D007561727420737003
:1037D2006565643A20256C753A0A0D00616464726D
:1037E2006573733A2025640A0D00636F6D6D616E17
:1037F200643A2025640A0D004C696E6546692053BF
:10380200656E64696E673A20307825783A0A0D0051
:10381200616464726573733A20307825643A0A0DE4
:103822000053657474696E672075617274207370D9
:103832006565642061733A20256C753A0A0D004C67
:10384200696E6546692053656E64696E673A202524
:10385200642830782578290A0D0073656E64206427
:103862006174612025642830782578290A0D0025A5
:10387200640D0A00546869732069732055415254DB
:10388200300A0D004C696E654669204D617374659E
:10389200720A0D00546869732069732055415254AD
:1038A200310A0D0025730D0A004461746149647880
:1038B2003A25640D0A00307825782000535441528D
:1038C2005420706572696F646963207061636B650F
:1038D200742067656E65726174696E672E2E0D0ABB
:1038E2000053544F502020706572696F64696320E1
:1038F2007061636B65742067656E65726174696E71
:10390200672E2E0D0A007374617274696E672E2E13
:103912002E0D0A0073746F7070696E672E2E2E0062
:1039220055415254305F494E5055545F4D4F4445B6
:10393200303A6F6E65206B657920636F6E74726FBB
:103942006C0055415254305F494E5055545F4D4FB3
:103952004445313A737472696E6720696E7075748A
:103962000055415254305F494E5055545F4D4F44BB
:1039720045323A6D696D696320356B657973206FE5
:103982006E20626F6172640055415254305F494E3D
:103992005055545F4D4F4445333A6461746120730E
:1039A200657474696E670055415254305F494E50D8
:1039B20055545F4D4F4445343A706572696F64697E
:0B39C200632066756E6374696F6E0011
:101A8D0075C7AA75C75575FD5A75C7AA75C755751A
:101A9D00FDA575820022AC82AD83AEF0FF538EF7AB
:101AAD00438901D28CEC4D4E4F601A758A76758C38
:101ABD00FF108D0280FB1CBCFF091DBDFF051EBE66
:101ACD00FF011F80E0C28C22AC82AD83AEF0FF53CC
:101ADD008EF7438901D28CEC4D4E4F601A758A9862
:101AED00758CFA108D0280FB1CBCFF091DBDFF0516
:101AFD001EBEFF011F80E0C28C22AC82AD83AEF012
:101B0D00FF538EEF438910D28EEC4D4E4F601A75F8
:101B1D008BF6758DC9108F0280FB1CBCFF091DBD96
:101B2D00FF051EBEFF011F80E0C28E22AC82AD8379
:101B3D00AEF0FF53C9BF53C9DF43C910D2CAEC4D34
:101B4D004E4F601A75CCE575CDF710CF0280FB1C9A
:101B5D00BCFF091DBDFF051EBEFF011F80E0C2CAEF
:101B6D0022AC82AD83AEF0FF75C40743C408EC4DC3
:101B7D004E4F602575C55775C6CDAAC45302107B4F
:101B8D0000BA10F6BB00F353C4EF1CBCFF091DBD1A
:101B9D00FF051EBEFF011F80D553C4F722AC82ADD9
:101BAD0083AEF0FF75C40743C408EC4D4E4F60255E
:101BBD0075C5D775C6FFAAC45302107B00BA10F6BF
:101BCD00BB00F353C4EF1CBCFF091DBDFF051EBEBA
:101BDD00FF011F80D553C4F722AF82A2AF9200C27E
:101BED00AF75C7AA75C755439F01A20092AFE571A6
:101BFD006013A2AF9200C2AF75C7AA75C75543A5B2
:101C0D0001A20092AF856FA6856EA78570AE8FAFCE
:101C1D00A2AF9200C2AF75C7AA75C75543A401A262
:101C2D000092AFE5716026A2AF9200C2AF75C7AA50
:101C3D0075C75553A5FEA20092AFA2AF9200C2AFD9
:101C4D0075C7AA75C755539FFEA20092AF22AE82EB
:101C5D00AF838F6E8E6F7570FF7571017582220265
:101C6D001BE6AE82AF838F6E8E6F8510707571011E
:101C7D00758221021BE6756E00756F0C757000750F
:101C8D007100758204121BE6AFAE756E00756F0D97
:101C9D00757000757100758204C007121BE6D007C0
:101CAD00E5AE540FFEA2AF9200C2AF75C7AA75C7BD
:101CBD0055539FFEA20092AFE4C454F0CFC4CF6F32
:101CCD00CF54F0CF6FFD7C00EE2FF582EC3DF58308
:101CDD002285826F756E00757000757100758204B6
:101CED00121BE685AE82A2AF9200C2AF75C7AA7570
:0A1CFD00C755539FFEA20092AF22CC
:1002A800E4F511F51290014F7464F0743AA3F074F8
:1002B80080A3F0900152746FF0743AA3F07480A395
:1002C800F0900155747AF0743AA3F07480A3F0901A
:1002D80001587485F0743AA3F07480A3F090015B20
:1002E8007492F0743AA3F07480A3F090015E749E47
:1002F800F0743AA3F07480A3F090016174ADF074C7
:100308003AA3F07480A3F090016474BBF0743AA32C
:10031800F07480A3F090016774BBF0743AA3F07492
:1003280080A3F090016A74BBF0743AA3F07480A3C0
:10033800F090016D74BBF0743AA3F07480A3F09050
:10034800017074BBF0743AA3F07480A3F090017349
:1003580074BBF0743AA3F07480A3F090017674BB78
:10036800F0743AA3F07480A3F090017974BBF07430
:100378003AA3F07480A3F090017C74BBF0743AA3A4
:10038800F07480A3F090017F74BBF0743AA3F0740A
:1003980080A3F090018274BBF0743AA3F07480A338
:1003A800F090018574BBF0743AA3F07480A3F090C8
:1003B800018874BBF0743AA3F07480A3F090018BA9
:1003C80074BBF0743AA3F07480A3F090018E74BBF0
:1003D800F0743AA3F07480A3F090019174BBF074A8
:1003E8003AA3F07480A3F090019474BBF0743AA31C
:1003F800F07480A3F090019774BBF0743AA3F07482
:1004080080A3F090019A74BBF0743AA3F07480A3AF
:10041800F090019D74BBF0743AA3F07480A3F0903F
:0D04280001A074BBF0743AA3F07480A3F03F
:101D0700AD82AE83AFF074032DFDE43EFE8D828E6F
:101D1700838FF01234A02405F58222AD82AE83AF03
:101D2700F08D028E038F04756E04756FFF8A828BA8
:101D3700838CF0C007C006C00512226785826FD06A
:101D470005D006D00774052DFAE43EFB8F048A827E
:101D57008B838CF01234A0FAA31234A0FBA31234A5
:101D6700A0FC74032DFDE43EFE8D828E838FF0125E
:101D770034A0F56E8A828B838CF0022267AD82AE27
:101D870083AFF0C007C006C005121D22AC82D00584
:101D9700D006D00774042DFDE43EFE8D828E838F1E
:101DA700F0EC022B2D758201220225C00225DEAD43
:101DB70082AE83AFF08D028E038F048A828B838C71
:101DC700F01234A0F5820ABA00010BC007C006C0A2
:101DD70005C004C003C002121DB3D002D003D00453
:101DE700D005D006D0078A828B838CF01234A0F5F9
:101DF700820ABA00010BC007C006C005C004C003B1
:101E0700C002121DB3D002D003D004D005D006D033
:101E1700078A828B838CF01234A0F90ABA00010B6F
:101E27008982C007C006C005C004C003C002121DD6
:101E3700B3D002D003D004D005D006D0078A828B56
:101E4700838CF01234A0F5820ABA00010BC007C0D8
:101E570006C005C004C003C002121DB3D002D003E0
:101E6700D0048A828B838CF01234A0F582121DB3C2
:101E7700D005D006D00774052DFAE43EFB8F047415
:101E8700032DFDE43EFE7513008D828E838FF012C5
:101E970034A0F8C3E513985051C005C006C0078A9F
:101EA700828B838CF01234A0F8A31234A0F9A3120A
:101EB70034A0FFE51328F8E439F9888289838FF085
:101EC7001234A0F582C007C006C005C004C003C015
:101ED70002121DB3D002D003D004D005D006D0071C
:101EE7000513D007D006D005809F22AF82BF05001B
:101EF700500475820322AD71AE72AF73AA6EAB6FD9
:101F0700AC708A828B838CF01234A0F974012AF5A5
:101F17006EE43BF56F8C708D828E838FF0E9122B08
:101F27002D0DBD00010EAA6EAB6FAC708A828B833C
:101F37008CF01234A0F974012AF56EE43BF56F8C2E
:101F4700708D828E838FF0E9122B2D0DBD00010E4F
:101F5700AA6EAB6FAC708A828B838CF01234A0F9B7
:101F670074012AF56EE43BF56F8C708D828E838F3A
:101F7700F0E9122B2D0DBD00010EAA6EAB6FAC70F0
:101F87008A828B838CF01234A0F974012AF56EE4EF
:101F97003BF56F8C708D828E838FF0E9122B2D0DA0
:101FA700BD00010EAA6EAB6FAC708A828B838CF07A
:101FB7001234A0F974012AF56EE43BF56F8C708D2D
:101FC700828E838FF0E9122B2DAD71AE72AF7374D1
:101FD700032DFAE43EFB8F04856E75856F76857059
:101FE700777574008A828B838CF01234A0F8C3E56E
:101FF70074985052C002C003C00474052DF8E43E23
:10200700F98F04888289838CF01234A0F8A31234E4
:10201700A0F9A31234A0FCE57428F8E439F9857512
:10202700828576838577F01234A0FBA38582758538
:102037008376888289838CF0EB122B2D0574D0046C
:10204700D003D002809E75820222AD82AE83AFF0AC
:10205700C007C006C00574CDC0E07439C0E01226C1
:102067000415811581D005D006D0078D828E838F08
:10207700F01234A0FC7B00C007C006C005C004C036
:102087000374EFC0E07439C0E0122604E58124FC34
:10209700F581D005D006D00774012DFAE43EFB8FF9
:1020A700048A828B838CF01234A0FA75F003A4247F
:1020B7004FF582740135F0F583E0F9A3E0FBA3E067
:1020C700FC8A007A00C007C006C005C001C003C073
:1020D70004C000C00274FAC0E07439C0E0122604DC
:1020E700E58124F9F581D005D006D00774022DFAD1
:1020F700E43EFB8F048A828B838CF01234A0FA7C37
:1021070000C007C006C005C002C0047409C0E0745F
:102117003AC0E0122604E58124FCF581D005D006FB
:10212700D00774032DFAE43EFB8F048A828B838CDD
:10213700F01234A0FA7C00C007C006C005C002C078
:10214700047414C0E0743AC0E0122604E58124FC4C
:10215700F581D005D006D0078D828E838FF0C0071A
:10216700C006C005121D22AC82D005D006D0077B61
:102177000074042DF8E43EF98F02888289838AF07F
:102187001234A0F87A00C007C006C005C004C00317
:10219700C000C002741FC0E0743AC0E0122604E514
:1021A7008124FAF5817432C0E0743AC0E012260443
:1021B70015811581D005D006D00774052DFAE43EA8
:1021C700FB8F0474032DFDE43EFE7514008D828E93
:1021D700838FF01234A0F8C3E514985064C005C08B
:1021E70006C0078A828B838CF01234A0F8A31234BE
:1021F700A0F9A31234A0FFE51428F8E439F988827E
:1022070089838FF01234A0F87F00C007C006C0058D
:10221700C004C003C002C000C0077439C0E0743AEC
:10222700C0E0122604E58124FCF581D002D003D05A
:1022370004D005D006D0070514D007D006D00580F6
:102247008C743FC0E0743AC0E012260415811581F2
:1022570074CDC0E07439C0E01226041581158122BF
:10226700AD82AE83AFF0AC6FED4E60217B00C3EB68
:10227700956E50198D828E838FF01234A0FAA3AD1C
:1022870082AE83EC6A9023A993FC0B80E18C8222B7
:10229700AF82AC15AD16AE178C828D838EF01234DB
:1022A700A0FC7E00C007C004C0067442C0E0743AB8
:1022B700C0E0122604E58124FCF5817448C0E0746F
:1022C7003AC0E012260415811581D0077E00C3EEBF
:1022D7009F50248E047D00C007C006C004C005744B
:1022E70050C0E0743AC0E0122604E58124FCF58171
:1022F700D006D0070E80D7C007743FC0E0743AC03D
:10230700E0122604158115817457C0E0743AC0E0C5
:1023170012260415811581D0077E00C3EE9F5072E7
:10232700AB15AC16AD178B828C838DF01234A0FAE7
:10233700BA100050308A0174012BF515E43CF516EC
:102347008D1789007900C007C006C000C001745D01
:10235700C0E0743AC0E0122604E58124FCF581D080
:1023670006D007802A74012BF515E43CF5168D1766
:102377007D00C007C006C002C0057439C0E0743ACA
:10238700C0E0122604E58124FCF581D006D0070EB3
:102397008089743FC0E0743AC0E0122604158115A5
:0223A700812291
:1039CD002D2D2D2D2D2D2D2D2D2D2D2D2D2D2D2D1A
:1039DD002D2D2D2D2D2D2D2D2D2D2D2D2D2D2D0D2A
:1039ED000A00566572203A2025640D0A005479703C
:1039FD00653A202564282573290D0A0041646472F7
:103A0D003A2025640D0A0053697A653A2025640D24
:103A1D000A0043524320636F6D70203A20256420C5
:103A2D0025640D0A00444154413A20003078257830
:053A3D0020000D0A004D
:1023A90000316253C4F5A697B988DBEA7D4C1F2E2C
:1023B9004372211087B6E5D4FACB98A93E0F5C6D1C
:1023C90086B7E4D5427320113F0E5D6CFBCA99A80C
:1023D900C5F4A796013063527C4D1E2FB889DAEBFC
:1023E9003D0C5F6EF9C89BAA84B5E6D740712213EC
:1023F9007E4F1C2DBA8BD8E9C7F6A59403326150DC
:10240900BB8AD9E87F4E1D2C02336051C6F7A495CB
:10241900F8C99AAB3C0D5E6F4170231285B4E7D6BB
:102429007A4B1829BE8FDCEDC3F2A19007366554AB
:1024390039085B6AFDCC9FAE80B1E2D3447526179B
:10244900FCCD9EAF38095A6B4574271681B0E3D28B
:10245900BF8EDDEC7B4A192806376455C2F3A0917B
:102469004776251483B2E1D0FECF9CAD3A0B58696B
:1024790004356657C0F1A293BD8CDFEE79481B2A5B
:10248900C1F0A3920534675678491A2BBC8DDEEF4B
:1024990082B3E0D1467724153B0A5968FFCE9DAC3B
:103A42002325640D0A00726177203A202000253276
:103A52006420202000646174613A00307830257857
:103A62002000547970655F42636173740054797009
:103A7200655F556361737400547970655F4D63616E
:103A8200737400547970655F5365744164647200A5
:103A9200547970655F5365744C4544005479706580
:103AA2005F4374726C4D6F746F7200547970655F0E
:103AB200526561644164647200547970655F4E6F4F
:033AC2006E65002E
:1024A900AC82AD83AEF0FF53B1BF53B2BF53B17F1E
:1024B90053B27F759850438920438780438E1053C8
:1024C900C4DF8C6E8D6F8E708F7190D4BC75F00FD8
:1024D900E4122A85AC82C3E49CF58DD28ED299226E
:1024E900AC82AD83AEF0FF53B1BF53B2BF53B17FDE
:1024F90053B27F75985043878053C4F843C4208CE6
:102509006E8D6F8E708F7190D4BC75F00FE4122AA6
:1025190085AC82AD83AEF0FFE4C39CE49DF9740100
:102529009EE49F89C6C3E49CFC8CC543C408D29928
:10253900223098FD859982C29822AD82AE83AFF090
:102549003098118D828E838FF0E599122B2DC298C8
:102559007582012275820022AF82C2998F993099C2
:10256900FD22AC82AD83AEF0FF53B1FB53B2FB53F6
:10257900B3BF53B4BF75F85875C40853C4DF8C6E24
:102589008D6F8E708F7190D4BC75F00FE4122A850F
:10259900AC82AD83AEF0FFE4C39CE49DF974019E67
:1025A900E49F89C6C3E49CFC8CC543C4082230F867
:1025B900FD859A82C2F822AD82AE83AFF030F81160
:1025C9008D828E838FF0E59A122B2DC2F8758201C8
:1025D9002275820022AF82C2F98F9A30F9FD2290CA
:1025E900E100E4F5F01224A990C20075F001E412AB
:1025F900256BC299C2F9D2ACD2AF22C01E85811E09
:10260900E51E24FDF8868318868218E493A3B42571
:1026190077C201C202C203C204C205C20679187791
:1026290000C207E493A324C64017240A5015700575
:10263900B51802D206D205FAE775F00AA42AF7807E
:10264900E2240A2430B46C04D20180D7B46804D2DD
:102659000280D0B4730302269CB464061229760260
:1026690026F8B47506122976022718B4630518E608
:10267900188017B478030226D7B4660302282CB44D
:102689002E0679197700809B6006122A68022614A3
:10269900022A82C083C08286F0188683188682182F
:1026A900300519C206C082C0831234A06007A31581
:1026B90018E51870F4122A53D083D0821234A0601E
:1026C90006A3122A6880F5D082D083022614122626
:1026D900EF20020C1226EF3001061226EF1226EF28
:1026E900122A7A022614E6122A58E618022A59ED05
:1026F90030E71CD204E9F42401F9200212EAF43487
:1027090000FA30010AEBF43400FBECF43400FC204D
:102719000210300108EB7024EC7021C201EA701C30
:10272900D202E97017200714300509E5186005156C
:1027390018122A537430122A68022614C082C083E0
:10274900122990300560790A30011DEB54F070367A
:1027590019EB540F703019EA54F0702A19EA540F22
:10276900702419EF54F0701E790520020BEF540FF5
:10277900701419EE54F0700E7903EE540F700719A6
:10278900ED54F0700119E518A204994019F518C023
:1027990003C002C007C006C005122A53D005D006DF
:1027A900D007D002D003300419C003C002C007C04B
:1027B90006C005742D122A68D005D006D007D002AC
:1027C900D00320024030012CC005C006C0078A8210
:1027D900EBF583122A58E583122A59E582122A5801
:1027E900E582122A59D0E0F582122A58E582D0836F
:1027F900D08280058D828E83EF122A59E583122AB1
:1028090058E58380038D82EE122A59E582122A58EF
:10281900E582122A59122A7AD083D08230070122FE
:1028290002261430050EE518D39519F518502875A8
:1028390018008023E6547FFA18860308AE82AF8316
:10284900903C917D07E4932BA3E4933A5003A3DDD5
:10285900F48D198E828F83C000122958C082C083DB
:10286900EFB47E02801940112482FDC3EA33FAEBEA
:1028790033FBEC33FCDDF48006F4247F122AEA757D
:10288900F01BE4F8FFFEFD903C25E933F9EA33FA41
:10289900EB33FBEC33FC5017E4932DD4FD74019317
:1028A9003ED4FE7402933FD4FF74039338D4F8A343
:1028B900A3A3A3D5F0D4E47C50FBFAF9E5192323AB
:1028C90054FC8883122AEAED29D4F51DEE3AD4F591
:1028D9001CEF3BD4F51BE5833CD4F51A92D5D08384
:1028E900D082D000122958C000C3749E9F5005D0D1
:1028F9000002262CC082122AEAD08230D50FE924A0
:1029090001F9E43AFAE43BFBE43CFC40E2D2071269
:10291900271820050CE51960081229487003D519F4
:10292900F4E5196015742E122A687800D20308E8B4
:10293900122948122A59E8B519F4D00002261414AC
:10294900C31392D5241AF9E720D501C4540F22E6FE
:1029590018F9E618FC33E9339204FF600343048055
:10296900E618FBE618FA7900C202D20122E6F9FD5F
:1029790018200212AA01E6F91830010AAC02AB01CB
:10298900E6FA18E6F91822E975F06484FE740AC5B6
:10299900F084C445F0FD30020122EA540FF9903A5F
:1029A900C5932DD4FDE94410933ED4FEEAC4540FD7
:1029B900F9903AE5932DD4FDE94410933ED4FEE90C
:1029C9004420933400D4FF20010122EB540FF990E5
:1029D9003B15932DD4FDE94410933ED4FEE94420E0
:1029E900933FD4FFE43400FAEBC4540FF9903B450C
:1029F900932DD4FDE94410933ED4FEE94420933F3E
:102A0900D4FFE94430933AD4FAEC540FF9903B855A
:102A19007B00122A26ECC4540FF9903BD5932DD490
:102A2900FDE94410933ED4FEE94420933FD4FFE9E5
:102A39004430933AD4FAE94440933BD4FB227420BE
:102A49003006027430122A681518E51870F022C48D
:102A5900540F7003300319D2032490D43440D4C0E6
:102A690083C082C000F582120438D000D082D0839E
:0C2A7900222003FC7430022A68D01E22C8
:103AC5000056126824803692480460167228844095
:103AD5000002050710121517202325283033353825
:103AE5000096928884807672686460565248444095
:103AF500004081226304458627680950913273147A
:103B05000000000101020202030304040405050686
:103B15000036720844801652882460963268044044
:103B2500005510662176328742985308641975301E
:103B350000061319263239455258657278859198D1
:103B45000076522804805632088460361288644014
:103B55000085715743281400867157432914008640
:103B650000040914192429343843485358636872EA
:103B750000010203040506070809101112131415A4
:103B850000163248648096122844607692082440D4
:103B95000072441688603205774921936538108292
:103BA500007755331088664421997754321088651B
:103BB5000016335067830017345067840118345159
:103BC50000000000000001010101010102020202E2
:103BD5000056126824803692480460167228844084
:103BE50000540963187227813691450054096318FA
:103BF500004387307417610448913579226609536B
:103C05000068360573421079471584522189582674
:103C150000020508101316182124262932343740CE
:103C2500000000500000002500005012000025068D
:103C35000050120300255601501278002506390060
:103C4500125319005676090028880400144402000E
:103C55000722010004610000523000002615000013
:103C6500630700008103000091010000950000003A
:103C750048000000240000001200000006000000BB
:103C85000300000001000000010000007DC5DDC348
:0A3C950034C2E0BE38BD86BBE4B9BE
:102A8500FB7A20E4FCFDFEFFE5822582F582E583E5
:102A950033F583E5F033F5F0EB33FB4017DAE980E6
:102AA50042E5822582F582E58333F583E5F033F54A
:102AB500F0EB33FBEC33FCED33FDEE33FEEF33FF90
:102AC500EC956EED956FEE9570EF95714013EC9565
:102AD5006EFCED956FFDEE9570FEEF9571FF4382EF
:052AE50001DABEEB2246
:06004E00E478FFF6D8FD86
:102AEA006040F82582500274FFF582E824F8501EEF
:102AFA00CCCBCAF9E4CC24F85014CBCAF9E4CB24E1
:102B0A00F8500BCAF9E4CA24F850037900222408C1
:102B1A006010F8C3EC13FCEB13FBEA13FAE913F9A0
:102B2A00D8F12220F71130F6138883A88220F509FC
:102B3A00F6A8837583002280FEF280F5F022E582F2
:102B4A00856EF0A4C582C0F0856FF0A4D0F025F0A0
:102B5A00C583856EF0A42583F58322E56E456F60F3
:102B6A00467A01E56E25E0F56EE56F334012F56FA2
:102B7A00E582956EE583956F40030A80E6C3E56FAB
:102B8A0013F56FE56E13F56EC3E582956EF5F0E504
:102B9A0083956F4005F58385F082C3E56F13F56F62
:102BAA00E56E13F56EDAE122C01E85811E7E008E67
:102BBA0083120438D01E2285825185835285F053B0
:102BCA00E4F54EF54FF550851F54902BB2022CA018
:102BDA00C01EE581F51E24FBFF8F54E4F54EF54F28
:102BEA00F550E51E24FBF886510886520886539054
:102BFA002BB2122CA0D01E22AF82C044C045C046C0
:102C0A00122C0F8007C042C0438F82221581158182
:102C1A001581054CE4B54C02054D22AF8274302F64
:102C2A00FF24C6500B74072FFFE5416003430720BA
:102C3A008F82022C02E582FFC4540FF582C007126C
:102C4A002C25D007740F5FF582022C2585826EAB86
:102C5A0047AC48AD49AE4AAA4B7570208A07EF2F98
:102C6A00F56FEE235401456FFAEB2BFBEC33FCEDC9
:102C7A0033FDEE33FEC3EA956E4008EAC3956EFA59
:102C8A00430301E57014FF8F7070D18B478C488D18
:102C9A00498E4A8A4B22858242858343854E4485E2
:102CAA004F45855046E4F54CF54DAD51AE52AF5304
:102CBA008D828E838FF01234A0FC74012DF551E4BD
:102CCA003EF5528F53ECFF7003023481BF25028018
:102CDA00030234797E007D008E558E567A007B0081
:102CEA008E577C008E58E4F560F5617559FF755A68
:102CFA00FF85516285526385536485628285638349
:102D0A008564F01234A0F565A385826285836385A4
:102D1A0062518563528564537425B5650885658259
:102D2A00122C02808574D025654003022DE2E565E8
:102D3A0024C65003022DE274FFB55955B55A52857F
:102D4A00606E85616F90000AC006C005C004C003AA
:102D5A00C002122B48858266858367D002D003D0D1
:102D6A0004D005D006856568756900E5682566F5AD
:102D7A0068E5693567F569E56824D0F560E5693481
:102D8A00FFF561E56045616003022D047D01022DB6
:102D9A000485596E855A6F90000AC006C005C004A2
:102DAA00C003C002122B48858268858369D002D08D
:102DBA0003D004D005D006856566756700E56625EB
:102DCA0068F568E5673569F569E56824D0F559E578
:102DDA006934FFF55A022D04742EB5651574FFB5D2
:102DEA005905B55A028003022D04E4F559F55A0231
:102DFA002D04749F2565500EE565248540085365AA
:102E0A00DF75410180037541007420B56503022E08
:102E1A00AE742BB56503022EA8742DB565028079B0
:102E2A007442B56503022EB47443B56503022EBF1E
:102E3A007444B5650302310C7446B5650302312248
:102E4A007448B56503022D047449B5650302310C53
:102E5A00744AB56503022D04744CB565028050743A
:102E6A004FB565030231137450B5650302305774C8
:102E7A0053B5650280767454B56503022D04745502
:102E8A00B565030231187458B5650302311D745AC9
:102E9A00B56503022D040231267E01022D04755503
:102EAA0001022D04755601022D047B01022D0475C1
:102EBA005701022D04EB600AE55414F98954876816
:102ECA00800DE55424FEF566856654A966876885F3
:102EDA006882C006C005C004C003C002122C02D01A
:102EEA0002D003D004D005D006023148E55424FDAF
:102EFA00F568856854A96887620987630987641930
:102F0A00198562478563488564498562828563833A
:102F1A008564F0C006C005C004C003C0021234882C
:102F2A00858268858369D002D003D004D005D00693
:102F3A0074FFB55909B55A0685685985695AEE70FC
:102F4A004FC3E5689560E56995615044E560C395AE
:102F5A0068F566E5619569F5678566628567631553
:102F6A006674FFB566021567E5624563601C758283
:102F7A0020C006C005C004C003C002122C02D00241
:102F8A00D003D004D005D00680CF856660856761FE
:102F9A00855966855A678547828548838549F0122F
:102FAA0034A0F56285625D604FC3E49566748085DE
:102FBA0067F063F08095F0503F156674FFB56602BE
:102FCA001567855D82C006C005C004C003C0021231
:102FDA002C02D002D003D004D005D00685476285E2
:102FEA0048638549640562E4B56202056385624700
:102FFA00856348856449809EEE7003023148C3E5C3
:10300A00689560E56995614003023148E560C395BA
:10301A0068F568E5619569F5698568668569671582
:10302A006874FFB568021569E56645677003023181
:10303A0042758220C006C005C004C003C002122C1B
:10304A0002D002D003D004D005D00680CCE55424A7
:10305A00FDF566856654A9668762098763098764F0
:10306A00191985624785634885644985495E748074
:10307A00255E5005756643801974A0255E50057556
:10308A006650800E74C0255E5005756649800375CA
:10309A006658856682C006C005C004C003C0021215
:1030AA002C0275823A122C02758230122C02758219
:1030BA0078122C02D002D003D004D005D00674496D
:1030CA00B5660280217450B56602801A854882C0AE
:1030DA0006C005C004C003C002122C3FD002D003B0
:1030EA00D004D005D006854782C006C005C004C0FA
:1030FA0003C002122C3FD002D003D004D005D00660
:10310A00803C7A0175580A803575580880307558A0
:10311A000A802B75581080267C018022856582C022
:10312A0006C005C004C003C002122C02D002D0039C
:10313A00D004D005D0068006856860856961EC6098
:10314A0068E55424FCFC8C548C01876A09876B0956
:10315A00876C09876D191919856A47856B48856CCB
:10316A0049856D4A75479F75483C75498085476A08
:10317A0085486B85496C7401256AF562E4356BF5FF
:10318A0063856C64856247856348856449856A827C
:10319A00856B83856CF01234A0FC8C6A7003022C58
:1031AA00B4856A82122C0280C4E5587003022CB4DA
:1031BA00EB603FE55414F9895487048C6A756B00F7
:1031CA00756C00756D00856A47856B48856C498505
:1031DA006D4AEA600302326585476A756B00756C51
:1031EA0000756D00856A47856B48856C49856D4A0F
:1031FA008069E5576025E55424FCFC8C548C0187D2
:10320A006A09876B09876C09876D191919856A47D5
:10321A00856B48856C49856D4A8040E55424FEFCDF
:10322A008C548C018703098704198B6AECF56B337C
:10323A0095E0F56CF56D856A47856B48856C49851F
:10324A006D4AEA701685476A85486BF56CF56D8597
:10325A006A47856B48856C49856D4AEA602AE54A62
:10326A0030E723C3E49547F56AE49548F56BE4959E
:10327A0049F56CE4954AF56D856A47856B48856C16
:10328A0049856D4A80027A007C01797DE4F56AF508
:10329A006B754B00855882C006C005C004C002C0C9
:1032AA0001122C56D001D002D004D005D006EC7001
:1032BA000DE54BC4F568E7FB4568F7198002A74B93
:1032CA00056AE4B56A02056BECB40100E433FCE577
:1032DA004745484549454A70B8895F856A5B856BA9
:1032EA005CE56045617005756001F561ED7043EE5E
:1032FA00704085606A85616BAB5B0B8B6875690092
:10330A00C3E568956AE569956B5021758220C00608
:10331A00C005C004C002122C02D002D004D005D0CD
:10332A0006156A74FFB56A02156B80CC856A6085DA
:10333A006B61EA601D75822DC006C005C004122C9F
:10334A0002D004D005D006156074FFB5600215617D
:10335A008046E55B455C6040E555601D75822BC083
:10336A0006C005C004122C02D004D005D006156090
:10337A0074FFB560021561801FE556601B758220D7
:10338A00C006C005C004122C02D004D005D0061510
:10339A006074FFB560021561EE703C85606A8561F4
:1033AA006BAA6AAB6B156A74FFB56A02156BC3E543
:1033BA005B9AE55C9B5041ED60067A307B008004A5
:1033CA007A207B008A82C006C005C004122C02D073
:1033DA0004D005D00680CAC3E55B9560E55C9561BB
:1033EA00500FE560C3955BF568E561955CF569800A
:1033FA000DE4F568F5698006856A68856B69A95FD9
:10340A00855B6A855C6BAA6AAD6B156A74FFB56ADF
:10341A0002156BEA4D602EECB40100E433FC700A2D
:10342A0009E7C4540FFD8D4B80078705740F5DF5BE
:10343A004B854B82C006C004C001122C25D001D096
:10344A0004D00680C1EE7003022CB4AD68AE698D5B
:10345A00038E041DBDFF011EEB4C7003022CB475D4
:10346A008220C006C005122C02D005D00680E08F4B
:0E347A0082122C02022CB4854C82854D8322D6
:0B3C9F003C4E4F20464C4F41543E006D
:10348800AA82AB831234A06003A380F8C3E5829AB2
:08349800F582E5839BF5832218
:0D00410075817D121A8DE582600302003E7C
:1034A00020F71430F6148883A88220F507E6A88355
:1034B00075830022E280F7E49322E022C2D5E583FF
:1034C00030E70DD2D5E4C39582F582E49583F58388
:1034D000E56F30E70BE4C3956EF56EE4956FF56F1D
:1034E000122B6530D50BE4C39582F582E49583F504
:0234F000832235
:00000001FF
