:040000000200413287
:03000B0002052EBD
:0100130032BA
:01001B0032B2
:0100230032AA
:01002B0032A2
:01003300329A
:03003B000205516A
:1000540075250090006FE4F0752100900001743A5A
:10006400F07433A3F07480A3F0900004745CF07413
:1000740033A3F07480A3F0900007747BF07433A36F
:10008400F07480A3F090000A74A2F07433A3F074A7
:1000940080A3F090000D23F090000EF090000FF07C
:1000A400900010F090001104F0900012F0900013F2
:1000B400F0900014F090001504F0900016F09000F9
:1000C40017F0900018F090001904F090001AF090C6
:1000D400001BF090001CF090001D04F090001EF036
:1000E40090001FF0900020F09000217402F0900026
:1000F40022F0900023F0900024F090002514F0905A
:100104000026F0900027F0900028F0900029740455
:10011400F090002AF090002BF090002CF090002D2D
:1001240014F090002EF090002FF0900030F090002A
:10013400317405F0900032F0900033F0900034F008
:100144009000377460F07409A3F0E4A3F0A3F09076
:10015400003B7480F07470A3F0E4A3F0A3F090006B
:100164003FF07496A3F0E4A3F0A3F0900043F0747E
:10017400E1A3F0E4A3F0A3F0900047F074C2A3F06D
:100184007401A3F0E4A3F090004BF07484A3F07422
:1001940003A3F0E4A3F090004F74E0F07493A3F091
:1001A4007404A3F0E4A3F0900053F07408A3F014D3
:1001B400A3F0E4A3F09000577420F074A1A3F074AA
:1001C40007A3F0E4A3F090005B74C0F07427A3F0DD
:1001D4007409A3F0E4A3F090005F7460F074AEA31C
:1001E400F0740AA3F0E4A3F0900063F07435A3F074
:1001F400740CA3F0E4A3F090006774A0F074BBA3A4
:10020400F0740DA3F0E4A3F090006BF07410A3F06D
:07021400740EA3F0E4A3F057
:0303A80002003E12
:03003E00020FC5E9
:1003AB00AF82E5217009C2998F9920990980FBC210
:1003BB00F98F9A30F9FD22AF82C0077491C0E074B7
:1003CB002FC0E01222C515811581D007BF00028016
:1003DB000ABF01028016BF023380227494C0E074FE
:1003EB002FC0E01222C5158115818020749AC0E0C0
:1003FB00742FC0E01222C515811581800F74A0C027
:10040B00E0742FC0E01222C515811581AE217F004B
:10041B00C006C00774A6C0E0742FC0E01222C5E569
:10042B008124FCF58122AF82BF0D028004BF1B111A
:10043B002274BFC0E0742FC0E01222C51581158154
:10044B00227E00C007C00674C2C0E0742FC0E01249
:10045B0022C5E58124FCF58122AF82741BB52202F3
:10046B0080028079AE238E21AC217D00C007C006AF
:10047B00C004C00574C5C0E0742FC0E01222C5E5EE
:10048B008124FCF581D006D007BF0002800DBF018F
:10049B00028021BF0202803502052B7F018E217560
:1004AB008201C0071203C28524217582011203C287
:1004BB00D007806C7F028E21758202C0071203C2A7
:1004CB008524217582021203C2D00780537F008ED0
:1004DB0021758200C0071203C2D0078043BF000200
:1004EB00800ABF01028014BF0236801E852321853E
:1004FB002282C007120431D0078025852421852252
:10050B0082C007120431D0078016852321852282F1
:10051B00C007120431852421852282120431D007B1
:10052B008F8222C0E0C082C083C0D0758CD4758A04
:10053B0013900035E02401F0A3E03400F0D0D0D0CC
:10054B0083D082D0E032C0E0E5EC75EC00D0E03235
:10055B00AF827E00EE2EFD8DF005F0EF8002C3130F
:10056B00D5F0FBFC5304017B00ED04F5F005F0EF37
:10057B008002C313D5F0FBFD5305017A00ECB505E2
:10058B0008EBB50204758200220EBE040040C5754F
:10059B00820122AF827E007D04EF30E003430680B0
:1005AB00EF0303543FFFEEC313FEDDED8E8222AF4C
:1005BB00827E007D04EEC313FEEF30E00343068022
:1005CB00EF0303543FFFDDED8E8222AE87530610FF
:1005DB007F00BE1041BF003EAF84AE857D00EF2F84
:1005EB00FFED33FD5306017C00EE2FFFEC3DFDEFDD
:1005FB0024F1FFED34FFFD8F06530601EDC313CF3E
:10060B0013CFFD75C7AA75C7558F8475C7AA75C754
:10061B00558E855387EF22AF82752101BF310122A1
:10062B00BF320122BF33028032BF340122BF5002DE
:10063B008049BF53030206C6BF5402805EBF5603F8
:10064B000206D6BF70028023BF7302805EBF7402A6
:10065B008039BF76030206D60206E674DCC0E0746E
:10066B002FC0E01222C5158115812274F3C0E074EE
:10067B002FC0E01222C515811581227406C0E074CB
:10068B0030C0E01222C515811581227418C0E074A8
:10069B0030C0E01222C51581158122742DC0E07483
:1006AB0030C0E01222C515811581227443C0E0745D
:1006BB0030C0E01222C51581158122745BC0E07435
:1006CB0030C0E01222C515811581227472C0E0740E
:1006DB0030C0E01222C51581158122748CC0E074E4
:1006EB0030C0E01222C51581158174A3C0E07430AF
:1006FB00C0E01222C51581158174BAC0E07430C0F8
:10070B00E01222C51581158174DBC0E07430C0E0A6
:10071B001222C51581158174F6C0E07430C0E01249
:10072B0022C5158115817415C0E07431C0E0122209
:10073B00C5158115817436C0E07431C0E01222C535
:10074B00158115812275B10075B20075B30075B4B2
:10075B000075AC0075AD0043B30853B4F743AC015F
:10076B0053ADFE43B38053B47F43B10153B2FE4349
:10077B00B32053B4DF43B12053B2DF43B11053B2B4
:10078B00EF53B3FE43B40153B3FD43B40253B3FB76
:10079B0043B404C290C291C29222AF827E04EFB5E1
:1007AB002514AB19AC1AAD1B8B828C838DF0E41224
:1007BB0027EE75820422AB19AC1AAD1B8B828C838E
:1007CB008DF0E41227EE7A008AF005F0E525800221
:1007DB00C313D5F0FBF85300017900B80005B9003D
:1007EB00028054B80105B90002800302088C8AF01C
:1007FB0005F0EF8002C313D5F0FBF853000179002D
:10080B00B80005B90002800302088C8F258B828CFF
:10081B00838DF0122F75F98A0088F005F074018032
:10082B000225E0D5F0FBF842018B828C838DF0E939
:10083B001227EE7E00804A8AF005F0EF8002C31388
:10084B00D5F0FBF85300017900B80005B900028020
:10085B0030B8012DB9002A8F258B828C838DF01235
:10086B002F75F98A0088F005F07401800225E0D518
:10087B00F0FBF842018B828C838DF0E91227EE7E20
:10088B00010ABA050050030207D38E8222AF82AC55
:10089B0026AD27AE287B00C3EB9F503F8C828D8308
:1008AB008EF0122F75FAA3AC82AD838A017A00C049
:1008BB0007C006C005C004C003C001C00274C2C09B
:1008CB00E0742FC0E01222C5E58124FCF581D00332
:1008DB00D004D005D006D0070B80BC74BFC0E07429
:1008EB002FC0E01222C515811581227463C0E074FC
:1008FB0031C0E01222C515811581746EC0E07431D0
:10090B00C0E01222C5158115817486C0E07431C018
:10091B00E01222C515811581749AC0E07431C0E0D4
:10092B001222C515811581749FC0E07431C0E0128D
:10093B0022C51581158174A4C0E07431C0E0122268
:10094B00C51581158174A9C0E07431C0E01222C5B0
:10095B001581158174AEC0E07431C0E01222C5154B
:10096B0081158174B3C0E07431C0E01222C51581CA
:10097B00158174B8C0E07431C0E01222C515811521
:10098B008174C4C0E07431C0E01222C51581158199
:10099B0074CFC0E07431C0E01222C515811581748B
:1009AB00DAC0E07431C0E01222C51581158174E6FE
:1009BB00C0E07431C0E01222C51581158122AF82CF
:1009CB00BF2B03020F6ABF2D03020F8FBF30030231
:1009DB000A72BF3103020A8BBF3203020AA0BF3374
:1009EB0003020AB5BF3403020ACABF3503020AEC7D
:1009FB00BF3603020B22BF3703020B50BF48030263
:100A0B0008F6BF5303020F40BF6103020FB3BF626F
:100A1B0003020FB9BF6303020FBFBF6803020B7E54
:100A2B00BF6A03020C0ABF6B03020C3DBF6C0302CF
:100A3B000C70BF7303020CFCBF74028007BF7503FD
:100A4B00020EC922900035E0C0E0A3E0C0E074F3D1
:100A5B00C0E07431C0E01222C5E58124FCF5819021
:100A6B000035E4F0A3F022752100C290C291C2922E
:100A7B0074F8C0E07431C0E01222C51581158122D3
:100A8B00752100D2907407C0E07432C0E01222C509
:100A9B001581158122752100C2967416C0E074323F
:100AAB00C0E01222C51581158122752100D29674E2
:100ABB0024C0E07432C0E01222C515811581227565
:100ACB002100B296A296E433FE7F00C006C00774E5
:100ADB0032C0E07432C0E01222C5E58124FCF581FE
:100AEB0022752100209002D296B2907441C0E0741E
:100AFB0032C0E01222C515811581A290E433FE7F2E
:100B0B0000C006C007744DC0E07432C0E01222C5AD
:100B1B00E58124FCF58122B2917452C0E07432C09D
:100B2B00E01222C515811581A291E433FE7F00C02E
:100B3B0006C007744DC0E07432C0E01222C5E581D7
:100B4B0024FCF58122B292745EC0E07432C0E012D4
:100B5B0022C515811581A292E433FE7F00C006C029
:100B6B0007744DC0E07432C0E01222C5E58124FC4D
:100B7B00F58122AD2CAE2DAF2E8D828E838FF01290
:100B8B002F75FC1C8D828E838FF0EC1227EEAA2919
:100B9B00AB2AAC2B8A828B838CF0122F75FABA019D
:100BAB003C8D828E838FF0122F7575F004A4243741
:100BBB00F582740035F0F583E0F9A3E0FAA3E0FBCE
:100BCB00A3E0FCC001C002C003C004746AC0E0749F
:100BDB0032C0E01222C5E58124FAF581228D828E86
:100BEB00838FF0122F75FD7F00C005C007747DC089
:100BFB00E07432C0E01222C5E58124FCF58122AD00
:100C0B0029AE2AAF2B8D828E838FF0122F75FC1C91
:100C1B008D828E838FF0EC1227EE7F00C004C0070D
:100C2B00748BC0E07432C0E01222C5E58124FCF560
:100C3B008122AD29AE2AAF2B8D828E838FF0122F9E
:100C4B0075FC0C8D828E838FF0EC1227EE7F00C02B
:100C5B0004C007748BC0E07432C0E01222C5E5817A
:100C6B0024FCF58122AD2CAE2DAF2E8D828E838F81
:100C7B00F0122F75FC0C8D828E838FF0EC1227EE09
:100C8B00AA29AB2AAC2B8A828B838CF0122F75FA94
:100C9B00BA013C8D828E838FF0122F7575F004A4F0
:100CAB002437F582740035F0F583E0F9A3E0FAA35D
:100CBB00E0FBA3E0FCC001C002C003C004746AC027
:100CCB00E07432C0E01222C5E58124FAF581228D51
:100CDB00828E838FF0122F75FD7F00C005C00774C5
:100CEB007DC0E07432C0E01222C5E58124FCF581A1
:100CFB0022AD29AE2AAF2B8D828E838FF0122F75EA
:100D0B00FC6009BC0103020DAA020E57852C2F852E
:100D1B002D30852E31852F828530838531F0122F32
:100D2B0075C454F0F85300F0740F5C48F582C0079B
:100D3B00C006C005121A72D005D006D007852F82C7
:100D4B008530838531F0122F75F8E4C8C4C868C8A4
:100D5B0054F0C868FB8D828E838FF0122F757A004A
:100D6B004200EA4203C000C0037499C0E07432C071
:100D7B00E01222C5E58124FCF581852F8285308325
:100D8B008531F0122F75FB7A00C003C00274B1C01D
:100D9B00E07432C0E01222C5E58124FCF581228586
:100DAB002C2F852D30852E31852F828530838531F3
:100DBB00F0122F75C454F0F85300F0740F5C48F523
:100DCB0082C007C006C005121A72D005D006D00724
:100DDB00852F828530838531F0122F75F8E4C8C4D6
:100DEB00C868C854F0C868FB8D828E838FF0122FB1
:100DFB00757A004200EA4203C000C0037499C0E058
:100E0B007432C0E01222C5E58124FCF581852F8266
:100E1B008530838531F0122F7575F004A42437F5D6
:100E2B0082740035F0F583E0F8A3E0F9A3E0FAA3B0
:100E3B00E0FBC000C001C002C003746AC0E07432A2
:100E4B00C0E01222C5E58124FAF58122A92CAA2D36
:100E5B00AB2E89828A838BF0122F75C454F0F85312
:100E6B0000F0740F5C48F582C007C006C005C003D4
:100E7B00C002C001121A72D001D002D003D005D02B
:100E8B0006D00789828A838BF0122F75F9E4C9C4C7
:100E9B00C969C954F0C969FC8D828E838FF0122FFA
:100EAB00757F004201EF4204C001C0047499C0E099
:100EBB007432C0E01222C5E58124FCF58122AD2CF1
:100ECB00AE2DAF2E8D828E838FF0122F7575F004A1
:100EDB00A42437F582740035F0F583E0F9A3E0FA2A
:100EEB00A3E0FBA3E0FCC007C006C005C001C00225
:100EFB00C003C004746AC0E07432C0E01222C5E5BE
:100F0B008124FAF581D005D006D0078D828E838F90
:100F1B00F0122F7575F004A42437F582740035F0A8
:100F2B00F583E0FCA3E0FDA3E0FEA3E08C828D83C0
:100F3B008EF002222C90006FE0F582121A72900054
:100F4B006FE0FF7E00C007C006C007C00674C2C0BA
:100F5B00E07432C0E01222C5E58124FAF5812290BB
:100F6B00006FE02401F0E0FF7E00C007C006C00761
:100F7B00C00674DDC0E07432C0E01222C5E58124E6
:100F8B00FAF5812290006FE014F0E0FF7E00C007BD
:100F9B00C006C007C00674DDC0E07432C0E0122288
:100FAB00C5E58124FAF58122758211021A727582C8
:100FBB0012021A72758213021A727533017534019B
:100FCB007F017E009000D4E4F09000D5F09000D625
:100FDB00F09000D7F09000D8F09000D9F09000DAA4
:100FEB00F09000DBF09000DCF09000DDF09000DE84
:100FFB00F09000DFF09000E004F09000E104F0903E
:10100B0000E214F09000E3740AF09000E403F09017
:10101B0000E5740DF07400A3F0E4A3F09000E80475
:10102B00F09000E904F09000EAF09000EB740AF005
:10103B009000EC03F09000ED740DF07400A3F0E45D
:10104B00A3F09000F004F09000F104F09000F20493
:10105B00F09000F3740AF09000F403F09000F57434
:10106B000DF07400A3F0E4A3F09000F804F09000EE
:10107B00F904F09000FA23F09000FB740AF0900052
:10108B00FC03F09000FD740DF07400A3F0E4A3F0EA
:10109B0090010004F090010104F09001027405F03E
:1010AB0090010323F090010403F0900105740DF0FF
:1010BB007400A3F0E4A3F08F36753702753803750F
:1010CB00390A753A05753B0D753C00F53DC007C0F7
:1010DB00061207501222A91205D6538EF7D2A9D2A7
:1010EB008C75210074F2C0E07432C0E01222C51579
:1010FB008115817402C0E07433C0E01222C51581E2
:10110B0015817521017412C0E07433C0E01222C541
:10111B0015811581D006D0077C307D75000000004D
:10112B00001CBCFF011DEC4D70F2D296C2907521D4
:10113B0000900037E0FAA3E0FBA3E0FCA3E08A8277
:10114B008B838CF0C007C00612222C758231121AC9
:10115B0072D006D0077C307D7500000000001CBCEF
:10116B00FF011DEC4D70F2900043E0FAA3E0FBA3EE
:10117B00E0FCA3E08A828B838CF0C007C0061222AE
:10118B002CD006D0077C307D7500000000001CBC05
:10119B00FF011DEC4D70F2D296C290D291C292908B
:1011AB000001E0FBA3E0FCA3E0FDC007C006C00309
:1011BB00C004C0057422C0E07433C0E07480C0E08A
:1011CB00122831E58124FAF581D006D00790003240
:1011DB0075F040C007C006122204E582D006D00786
:1011EB007003021496741BB532430EBE04027E00CC
:1011FB00EE75F003A42401F582740035F0F583E05D
:10120B00FBA3E0FCA3E0FDC007C006C003C004C005
:10121B00057422C0E07433C0E07480C0E012283142
:10122B00E58124FAF581D006D0070214DEEE24FB0B
:10123B0050030214DEEE2E2E90124773021256024A
:10124B0012790212970213880214DE752934752A5B
:10125B0000752B40752C33752D00752E4085328211
:10126B00C007C0061209C9D006D0070214DE9000D1
:10127B0035E4F0A3F09000DFE0FD04F0ED2470F511
:10128B0082E43400F583E532F00214DE7466B53285
:10129B0002801F7467B5320280267468B5320280F3
:1012AB0027746AB53202803C746BB53202806202DD
:1012BB0013471533E5336003021347753301807C05
:1012CB00D534797534018074753BD4753C00753D0C
:1012DB000090003675F040C007C006121A75D00694
:1012EB00D007805805347465B53403753464AC3459
:1012FB007D00C007C006C004C005748BC0E074320B
:10130B00C0E01222C5E58124FCF581D006D0078010
:10131B002B05337410B5330375330FAC337D00C01D
:10132B0007C006C004C005747DC0E07432C0E01273
:10133B0022C5E58124FCF581D006D0077466B53251
:10134B000280207467B5320280197468B5320302CB
:10135B0014DE746AB53202800A746BB532028003F4
:10136B000214DE85333885343790003675F040C073
:10137B0007C006121D18D006D0070214DE7468B51C
:10138B0032028015746AB532028020746BB532025A
:10139B008033746CB5325A80469000DEE014F0E076
:1013AB00FDBDFF4D9000DEE4F080469000DEE024B2
:1013BB00D4FDE43400FC8D828C83E0FB1B8D828C8E
:1013CB0083EBF0802C9000DEE024D4FDE43400FCB1
:1013DB008D828C83E0FB0B8D828C83EBF0801290E3
:1013EB0000DEE02401F0E0FDBD0A06ED149000DE06
:1013FB00F07468B532028018746AB53202803874A2
:10140B006BB532028031746CB5320280030214DE8C
:10141B009000DEE0FD7C00C007C006C005C0047470
:10142B0027C0E07433C0E01222C5E58124FCF581AE
:10143B00D006D0070214DE7D00ED24D4F582E4340F
:10144B0000F583E0FC7B00C007C006C005C004C0EC
:10145B00037434C0E07433C0E07480C0E0122831F0
:10146B00E58124FBF581D005D006D0070DBD0A0020
:10147B0040C7C007C00674BFC0E0742FC0E0122283
:10148B00C515811581D006D0078048EE24FB40435B
:10149B00EE2E9014A173803B80068037803580330D
:1014AB00900035E0FCA3E0FDC3740A9CE49D50233F
:1014BB009000DFE0FDE0601B752670752700752836
:1014CB00008D82C007C006120898D006D007900086
:1014DB00DFE4F0EF70030215CAA295E433FDA2B06E
:1014EB00E43325E04205A280E43325E025E0420504
:1014FB00A293E433C40354F84205A297E433C454D3
:10150B00F04DF582751935751A00751B40C007C073
:10151B00061207A5AD82D006D007BD0102800302DB
:10152B0011D8EF24FA50030211D8EF2F2F90153C4E
:10153B00730211D802154E0215560215BE0215C2C2
:10154B000215C6D296D2900F0211D8900037E0FA4E
:10155B00A3E0FBA3E0FCA3E08A828B838CF0C006A4
:10156B0012222C758231121A72900043E0FAA3E01A
:10157B00FBA3E0FCA3E0FDC002C003C004C00574E4
:10158B006AC0E07432C0E01222C5E58124FAF5810D
:10159B00900043E0FAA3E0FBA3E0FCA3E08A828B7C
:1015AB00838CF012222CD0067534027533017F0028
:1015BB000211D80F0211D80F0211D80F0211D8A2A5
:1015CB0095E433FDA2B0E43325E04205A280E43379
:1015DB0025E025E04205A293E433C40354F8420509
:1015EB00A297E433C454F04DF582751935751A0082
:1015FB00751B40C007C0061207A5AD82D006D007E9
:10160B00BD010280030211D8AD35BD01030216F0F6
:10161B007402B5350280437404B535030216C274E7
:10162B0008B53502800A7410B5350280570211D8FF
:10163B00D53303753301AC337D00C007C006C0043E
:10164B00C005747DC0E07432C0E01222C5E5812470
:10165B00FCF581D006D0070211D8D53403753401BF
:10166B00AC347D00C007C006C004C005748BC0E05D
:10167B007432C0E01222C5E58124FCF581D006D07E
:10168B00070211D8853338853437E53330E00B75D5
:10169B003B0D753C00753D008009753B21753C0089
:1016AB00753D0090003675F040C007C006121A75E4
:1016BB00D006D0070211D805347465B534037534E0
:1016CB0064AC347D00C007C006C004C005748BC079
:1016DB00E07432C0E01222C5E58124FCF581D0060E
:1016EB00D0070211D805337410B5330375330FAC23
:1016FB00337D00C007C006C004C005747DC0E07414
:10170B0032C0E01222C5E58124FCF581D006D0075A
:03171B000211D8E0
:102F91000A0D0073656C66200063726F73730062C3
:102FA1006F74682000206F75747075743A54686985
:102FB10073206973205541525425640A0D000D0A8E
:102FC100002563000D0A696E7075743A546869735F
:102FD100206973205541525425640049646C652071
:102FE100707265616D626C65206F6E2F6F66660D24
:102FF1000A004C696E65466920506F776572204FF3
:1030010066660D0A004C696E65466920506F7765EA
:1030110072204F6E0D0A004C696E6546692055613C
:103021007274205478204C6F770D0A004C696E65DC
:103031004669205561727420547820486967680D8B
:103041000A004C696E65466920435343207278201B
:1030510046534D204F66660D0A004C696E65466900
:10306100204353432072782046534D204F4E0D0A82
:103071000056657273696F6E20312E34206F6E2099
:1030810032303233313032360D0A00313A20646F3A
:10309100776E6C696E6B207061636B657420310DA6
:1030A1000A00323A20646F776E6C696E6B20706132
:1030B100636B657420320D0A00333A2075706C69B8
:1030C1006E6B2069646C6520707265616D626C6500
:1030D100206F6E2F6F66660D0A00702F503A204CDC
:1030E100696E65466920506F776572206F66662F3D
:1030F1006F6E0D0A00742F543A204C696E65466953
:103101002055617274205478204C6F772F4869677D
:10311100680D0A00732F533A204C696E6546696544
:10312100204353432052782046534D206F66662F2B
:103131006F6E0D0A00746573742070726F6365643D
:103141007572653A2070202D3E2050202D3E20546E
:10315100202D3E2053202D3E2031206F7220320D34
:103161000A00743A2074696D65720D0A00303A20C4
:103171004C696E65466920454E302C312C32206FEA
:1031810066660D0A00313A204C696E654669204534
:103191004E30203D20310D0A00323A0D0A00333AFB
:1031A1000D0A00343A0D0A00353A0D0A00363A0D7F
:1031B1000A00373A0D0A00683A20416464722D2DE5
:1031C1000D0A006A3A20436D642D2D0D0A006B3AF9
:1031D10020436D642B2B0D0A006C3A20416464720C
:1031E1002B2B0D0A00733A2073656E64696E670DAF
:1031F1000A0025750A0D004C494E4546495F454E6A
:10320100303D300A0D004C494E4546495F454E3030
:103211003D310A0D004C494E4546495F54583D30F9
:103221000A0D004C494E4546495F54583D310A0D3F
:10323100004C494E4546495F54583D25640A0D00EE
:103241004C494E4546495F454E303D0025640A0DC7
:10325100004C494E4546495F454E313D004C494E73
:103261004546495F454E323D007561727420737069
:103271006565643A20256C753A0A0D0061646472D3
:103281006573733A2025640A0D00636F6D6D616E7D
:10329100643A2025640A0D004C696E654669205325
:1032A100656E64696E673A20307825783A0A0D00B8
:1032B100616464726573733A20307825643A0A0D4B
:1032C100004C696E6546692053656E64696E673AA4
:1032D1002025642830782578290A0D0073656E64ED
:1032E10020646174612025642830782578290A0DCD
:1032F10000546869732069732055415254300A0D96
:10330100004C696E654669204D61737465720A0DE2
:1033110000546869732069732055415254310A0D74
:103321000025730D0A00446174614964783A25648B
:103331000D0A0030782578200055415254305F49FC
:103341004E5055545F4D4F4445303A6F6E65206B7A
:10335100657920636F6E74726F6C00554152543001
:103361005F494E5055545F4D4F4445313A73747225
:10337100696E6720696E7075740055415254305FF3
:10338100494E5055545F4D4F4445323A6D696D6910
:103391006320356B657973206F6E20626F61726493
:1033A1000055415254305F494E5055545F4D4F4482
:1033B10045333A646174612073657474696E6700A2
:10171E0075C7AA75C75575FD5A75C7AA75C755758C
:10172E00FDA575820022AC82AD83AEF0FF538EF71D
:10173E00438901D28CEC4D4E4F601A758A76758CAA
:10174E00FF108D0280FB1CBCFF091DBDFF051EBED8
:10175E00FF011F80E0C28C22AC82AD83AEF0FF533E
:10176E008EF7438901D28CEC4D4E4F601A758A98D4
:10177E00758CFA108D0280FB1CBCFF091DBDFF0588
:10178E001EBEFF011F80E0C28C22AC82AD83AEF084
:10179E00FF538EEF438910D28EEC4D4E4F601A756B
:1017AE008BF6758DC9108F0280FB1CBCFF091DBD09
:1017BE00FF051EBEFF011F80E0C28E22AC82AD83EC
:1017CE00AEF0FF53C9BF53C9DF43C910D2CAEC4DA7
:1017DE004E4F601A75CCE575CDF710CF0280FB1C0D
:1017EE00BCFF091DBDFF051EBEFF011F80E0C2CA62
:1017FE0022AC82AD83AEF0FF75C40743C408EC4D36
:10180E004E4F602575C55775C6CDAAC45302107BC1
:10181E0000BA10F6BB00F353C4EF1CBCFF091DBD8C
:10182E00FF051EBEFF011F80D553C4F722AC82AD4B
:10183E0083AEF0FF75C40743C408EC4D4E4F6025D0
:10184E0075C5D775C6FFAAC45302107B00BA10F631
:10185E00BB00F353C4EF1CBCFF091DBDFF051EBE2C
:10186E00FF011F80D553C4F722AF82A2AF9200C2F0
:10187E00AF75C7AA75C755439F01A20092AFE51C6D
:10188E006013A2AF9200C2AF75C7AA75C75543A524
:10189E0001A20092AF851AA68519A7851BAE8FAF40
:1018AE00A2AF9200C2AF75C7AA75C75543A401A2D5
:1018BE000092AFE51C6026A2AF9200C2AF75C7AA18
:1018CE0075C75553A5FEA20092AFA2AF9200C2AF4C
:1018DE0075C7AA75C755539FFEA20092AF22AE825E
:1018EE00AF838F198E1A751BFF751C01758222022C
:1018FE001877AE82AF838F198E1A85101B751C0157
:10190E00758221021877751900751A0C751B0075F2
:10191E001C00758204121877AFAE751900751A0D7A
:10192E00751B00751C00758204C007121877D0074E
:10193E00E5AE540FFEA2AF9200C2AF75C7AA75C72F
:10194E0055539FFEA20092AFE4C454F0CFC4CF6FA4
:10195E00CF54F0CF6FFD7C00EE2FF582EC3DF5837A
:10196E002285821A751900751B00751C007582047C
:10197E0012187785AE82A2AF9200C2AF75C7AA7554
:0A198E00C755539FFEA20092AF223E
:10021B00E4F53EF53F9001087458F07434A3F07484
:10022B0080A3F090010B7463F07434A3F07480A37B
:10023B00F090010E746EF07434A3F07480A3F09000
:10024B0001117479F07434A3F07480A3F09001144D
:10025B007486F07434A3F07480A3F0900117749239
:10026B00F07434A3F07480A3F090011A74A1F074AD
:10027B0034A3F07480A3F090011D74AFF07434A319
:10028B00F07480A3F090012074AFF07434A3F07479
:10029B0080A3F090012374AFF07434A3F07480A3A7
:1002AB00F090012674AFF07434A3F07480A3F09037
:1002BB00012974AFF07434A3F07480A3F090012C77
:1002CB0074AFF07434A3F07480A3F090012F74AF6B
:1002DB00F07434A3F07480A3F090013274AFF07417
:1002EB0034A3F07480A3F090013574AFF07434A391
:1002FB00F07480A3F090013874AFF07434A3F074F1
:10030B0080A3F090013B74AFF07434A3F07480A31E
:10031B00F090013E74AFF07434A3F07480A3F090AE
:10032B00014174AFF07434A3F07480A3F0900144D6
:10033B0074AFF07434A3F07480A3F090014774AFE2
:10034B00F07434A3F07480A3F090014A74AFF0748E
:10035B0034A3F07480A3F090014D74AFF07434A308
:10036B00F07480A3F090015074AFF07434A3F07468
:10037B0080A3F090015374AFF07434A3F07480A396
:10038B00F090015674AFF07434A3F07480A3F09026
:0D039B00015974AFF07434A3F07480A3F026
:10199800AD82AE83AFF074032DFDE43EFE8D828EE2
:1019A800838FF0122F752405F58222AD82AE83AFA6
:1019B800F08D028E038F04751904751AFF8A828BC5
:1019C800838CF0C007C006C005121F2E85821AD06E
:1019D80005D006D00774052DFAE43EFB8F048A82F1
:1019E8008B838CF0122F75FAA3122F75FBA3122F7D
:1019F80075FC74032DFDE43EFE8D828E838FF012FC
:101A08002F75F5198A828B838CF0021F2EAD82AE5A
:101A180083AFF0C007C006C0051219B3AC82D00569
:101A2800D006D00774042DFDE43EFE8D828E838F90
:101A3800F0EC0227EEAD82AE83AFF0C007C006C05F
:101A4800051219B3AC82D005D006D00774042DFD59
:101A5800E43EFE8D828E838FF0122F75B5040475D7
:101A68008201227582002202228102229FAD82AE6B
:101A780083AFF0C007C006C0051219B3AC82D00509
:101A8800D006D0078D018E028F0389828A838BF05E
:101A9800122F75F58209B900010AC007C006C005F2
:101AA800C004C003C002C001121A72D001D002D013
:101AB80003D004D005D006D00789828A838BF01220
:101AC8002F75F58209B900010AC007C006C005C014
:101AD80004C003C002C001121A72D001D002D003A0
:101AE800D004D005D006D00789828A838BF0122FC4
:101AF80075F809B900010A8882C007C006C005C088
:101B080004C003C002C001121A72D001D002D0036F
:101B180089828A838BF0122F75F582121A72D0048B
:101B28008C82121A72D005D006D00774052DFAE4FB
:101B38003EFB8F0474032DFDE43EFE7540008D824C
:101B48008E838FF0122F75F8C3E540985051C00569
:101B5800C006C0078A828B838CF0122F75F8A312F7
:101B68002F75F9A3122F75FFE54028F8E439F98895
:101B78008289838FF0122F75F582C007C006C005D1
:101B8800C004C003C002121A72D002D003D004D01D
:101B980005D006D0070540D007D006D005809F2283
:101BA800AF82BF0500500475820322AD44AE45AF35
:101BB80046AA41AB42AC438A828B838CF0122F75C4
:101BC800F974012AF541E43BF5428C438D828E83FA
:101BD8008FF0E91227EE0DBD00010EAA41AB42AC11
:101BE800438A828B838CF0122F75F974012AF54190
:101BF800E43BF5428C438D828E838FF0E91227EE09
:101C08000DBD00010EAA41AB42AC438A828B838C86
:101C1800F0122F75F974012AF541E43BF5428C4323
:101C28008D828E838FF0E91227EE0DBD00010EAA7A
:101C380041AB42AC438A828B838CF0122F75F974C6
:101C4800012AF541E43BF5428C438D828E838FF067
:101C5800E91227EE0DBD00010EAA41AB42AC438A42
:101C6800828B838CF0122F75F974012AF541E43BBD
:101C7800F5428C438D828E838FF0E91227EEAD44B6
:101C8800AE45AF4674032DFAE43EFB8F0485414808
:101C980085424985434A7547008A828B838CF012B6
:101CA8002F75F8C3E547985052C002C003C00474AA
:101CB800052DF8E43EF98F04888289838CF0122F71
:101CC80075F8A3122F75F9A3122F75FCE54728F8AC
:101CD800E439F9854882854983854AF0122F75FBD6
:101CE800A3858248858349888289838CF0EB1227F3
:101CF800EE0547D004D003D002809E8D828E838F5C
:101D0800F0121A3DE582700475820422758202225F
:101D1800AD82AE83AFF0C007C006C00574C1C0E095
:101D28007433C0E01222C515811581D005D006D0C4
:101D3800078D828E838FF0122F75FC7B00C007C041
:101D480006C005C004C00374E3C0E07433C0E012E9
:101D580022C5E58124FCF581D005D006D0077401A1
:101D68002DFAE43EFB8F048A828B838CF0122F7548
:101D7800FA75F003A42408F582740135F0F583E0C0
:101D8800F9A3E0FBA3E0FC8A007A00C007C006C004
:101D980005C001C003C004C000C00274EEC0E074F6
:101DA80033C0E01222C5E58124F9F581D005D006BB
:101DB800D00774022DFAE43EFB8F048A828B838C51
:101DC800F0122F75FA7C00C007C006C005C002C01B
:101DD8000474FDC0E07433C0E01222C5E58124FC20
:101DE800F581D005D006D00774032DFAE43EFB8FA9
:101DF800048A828B838CF0122F75FA7C00C007C08E
:101E080006C005C002C0047408C0E07434C0E01203
:101E180022C5E58124FCF581D005D006D0078D8246
:101E28008E838FF0C007C006C0051219B3AC82D0EC
:101E380005D006D0077B0074042DF8E43EF98F0224
:101E4800888289838AF0122F75F87A00C007C00645
:101E5800C005C004C003C000C0027413C0E07434DD
:101E6800C0E01222C5E58124FAF5817426C0E07429
:101E780034C0E01222C515811581D005D006D007DF
:101E880074052DFAE43EFB8F0474032DFDE43EFE39
:101E9800754B008D828E838FF0122F75F8C3E54B3A
:101EA800985064C005C006C0078A828B838CF012E4
:101EB8002F75F8A3122F75F9A3122F75FFE54B287C
:101EC800F8E439F9888289838FF0122F75F87F003A
:101ED800C007C006C005C004C003C002C000C007D8
:101EE800742DC0E07434C0E01222C5E58124FCF5ED
:101EF80081D002D003D004D005D006D007054BD03E
:101F080007D006D005808C7433C0E07434C0E0126A
:101F180022C51581158174C1C0E07433C0E0122256
:101F2800C51581158122AD82AE83AFF0AC1AED4E96
:101F380060217B00C3EB951950198D828E838FF039
:101F4800122F75FAA3AD82AE83EC6A90206A93FCD7
:101F58000B80E18C8222AF82AD3EAE3F053EE4B5F8
:101F68003E02053FC007C005C0067436C0E07434A1
:101F7800C0E01222C5E58124FCF581743CC0E07400
:101F880034C0E01222C515811581D0077E00C3EE4A
:101F98009F50248E047D00C007C006C004C005748D
:101FA80044C0E07434C0E01222C5E58124FCF58108
:101FB800D006D0070E80D7C0077433C0E07434C091
:101FC800E01222C515811581744BC0E07434C0E05D
:101FD8001222C515811581D0077E00C3EE9F50726D
:101FE800AB4CAC4DAD4E8B828C838DF0122F75FAB5
:101FF800BA100050308A0174012BF54CE43CF54DC1
:102008008D4E89007900C007C006C000C001745118
:10201800C0E07434C0E01222C5E58124FCF581D00B
:1020280006D007802A74012BF54CE43CF54D8D4E03
:102038007D00C007C006C002C005742DC0E074341E
:10204800C0E01222C5E58124FCF581D006D0070E38
:1020580080897433C0E07434C0E01222C51581153C
:022068008122D3
:1033C1002D2D2D2D2D2D2D2D2D2D2D2D2D2D2D2D2C
:1033D1002D2D2D2D2D2D2D2D2D2D2D2D2D2D2D0D3C
:1033E1000A00566572203A2025640D0A005479704E
:1033F100653A202564282573290D0A004164647209
:103401003A2025640D0A0053697A653A2025640D36
:103411000A0043524320636F6D70203A20256420D7
:1034210025640D0A00444154413A20003078257842
:0534310020000D0A005F
:10206A0000316253C4F5A697B988DBEA7D4C1F2E6E
:10207A004372211087B6E5D4FACB98A93E0F5C6D5E
:10208A0086B7E4D5427320113F0E5D6CFBCA99A84E
:10209A00C5F4A796013063527C4D1E2FB889DAEB3E
:1020AA003D0C5F6EF9C89BAA84B5E6D7407122132E
:1020BA007E4F1C2DBA8BD8E9C7F6A594033261501E
:1020CA00BB8AD9E87F4E1D2C02336051C6F7A4950E
:1020DA00F8C99AAB3C0D5E6F4170231285B4E7D6FE
:1020EA007A4B1829BE8FDCEDC3F2A19007366554EE
:1020FA0039085B6AFDCC9FAE80B1E2D344752617DE
:10210A00FCCD9EAF38095A6B4574271681B0E3D2CD
:10211A00BF8EDDEC7B4A192806376455C2F3A091BD
:10212A004776251483B2E1D0FECF9CAD3A0B5869AD
:10213A0004356657C0F1A293BD8CDFEE79481B2A9D
:10214A00C1F0A3920534675678491A2BBC8DDEEF8D
:10215A0082B3E0D1467724153B0A5968FFCE9DAC7D
:103436002325640D0A00726177203A202000253288
:103446006420202000646174613A00307830257869
:103456002000547970655F4263617374005479701B
:10346600655F556361737400547970655F4D636180
:10347600737400547970655F5365744164647200B7
:10348600547970655F5365744C4544005479706592
:103496005F4374726C4D6F746F7200547970655F20
:1034A600526561644164647200547970655F4E6F61
:0334B6006E650040
:10216A00AC82AD83AEF0FF53B1BF53B2BF53B17F60
:10217A0053B27F759850438920438780438E10530A
:10218A00C4DF8C198D1A8E1B8F1C90D4BC75F00F6E
:10219A00E4122746AC82C3E49CF58DD28ED29922F2
:1021AA00AC82AD83AEF0FF53B1BF53B2BF53B17F20
:1021BA0053B27F75985043878053C4F843C4208C28
:1021CA00198D1A8E1B8F1C90D4BC75F00FE4122740
:1021DA0046AC82AD83AEF0FFE4C39CE49DF9740182
:1021EA009EE49F89C6C3E49CFC8CC543C408D2996B
:1021FA00223098FD859982C29822AD82AE83AFF0D3
:10220A003098118D828E838FF0E5991227EEC2984D
:10221A007582012275820022AF82C2998F99309904
:10222A00FD22AC82AD83AEF0FF53B1FB53B2FB5338
:10223A00B3BF53B4BF75F85875C40853C4DF8C19BB
:10224A008D1A8E1B8F1C90D4BC75F00FE412274692
:10225A00AC82AD83AEF0FFE4C39CE49DF974019EA9
:10226A00E49F89C6C3E49CFC8CC543C4082230F8A9
:10227A00FD859A82C2F822AD82AE83AFF030F811A2
:10228A008D828E838FF0E59A1227EEC2F87582014D
:10229A002275820022AF82C2F98F9A30F9FD22900C
:1022AA00E100E4F5F012216A90C20075F001E4122F
:1022BA00222CC299C2F9D2ACD2AF22C0178581179B
:1022CA00E51724FDF8868318868218E493A3B425BB
:1022DA0077C201C202C203C204C205C206791177DB
:1022EA0000C207E493A324C64017240A50157005B8
:1022FA00B51102D206D205FAE775F00AA42AF780C8
:10230A00E2240A2430B46C04D20180D7B46804D21F
:10231A000280D0B4730302235DB464061226370226
:10232A0023B9B475061226370223D9B4630518E611
:10233A00188017B47803022398B466030224EDB414
:10234A002E0679127700809B60061227290222D571
:10235A00022743C083C08286F018868318868218B3
:10236A00300519C206C082C083122F756007A315F3
:10237A0011E51170F4122714D083D082122F7560E0
:10238A0006A312272980F5D082D0830222D51223F0
:10239A00B020020C1223B03001061223B01223B06F
:1023AA0012273B0222D5E6122719E61802271AED50
:1023BA0030E71CD204E9F42401F9200212EAF434C9
:1023CA0000FA30010AEBF43400FBECF43400FC2090
:1023DA000210300108EB7024EC7021C201EA701C73
:1023EA00D202E97017200714300509E511600515B6
:1023FA001112271474301227290222D5C082C083F1
:10240A00122651300560790A30011DEB54F07036FE
:10241A0019EB540F703019EA54F0702A19EA540F64
:10242A00702419EF54F0701E790520020BEF540F37
:10243A00701419EE54F0700E7903EE540F700719E8
:10244A00ED54F0700119E511A204994019F511C073
:10245A0003C002C007C006C005122714D005D00663
:10246A00D007D002D003300419C003C002C007C08D
:10247A0006C005742D122729D005D006D007D00230
:10248A00D00320024030012CC005C006C0078A8252
:10249A00EBF583122719E58312271AE58212271909
:1024AA00E58212271AD0E0F582122719E582D08335
:1024BA00D08280058D828E83EF12271AE583122738
:1024CA0019E58380038D82EE12271AE582122719F5
:1024DA00E58212271A12273BD083D08230070122C5
:1024EA000222D530050EE511D39512F51150287543
:1024FA0011008023E6547FFA18860308AE82AF8360
:10250A009036857D07E4932BA3E4933A5003A3DD29
:10251A00F48D128E828F83C000122619C082C08366
:10252A00EFB47E02801940112482FDC3EA33FAEB2C
:10253A0033FBEC33FCDDF48006F4247F1227AB7501
:10254A00F01BE4F8FFFEFD903619E933F9EA33FA95
:10255A00EB33FBEC33FC5017E4932DD4FD74019359
:10256A003ED4FE7402933FD4FF74039338D4F8A385
:10257A00A3A3A3D5F0D4E47C50FBFAF9E5122323F4
:10258A0054FC88831227ABED29D4F516EE3AD4F51C
:10259A0015EF3BD4F514E5833CD4F51392D5D083DB
:1025AA00D082D000122619C000C3749E9F5005D055
:1025BA00000222EDC0821227ABD08230D50FE92467
:1025CA0001F9E43AFAE43BFBE43CFC40E2D20712AC
:1025DA0023D920050CE51260081226097003D512CA
:1025EA00F4E5126015742E1227297800D20308E840
:1025FA0012260912271AE8B512F4D0000222D514BD
:10260A00C31392D52413F9E720D501C4540F22E647
:10261A0018F9E618FC33E9339204FF600343048097
:10262A00E618FBE618FA7900C202D20122E6F9FDA1
:10263A0018200212AA01E6F91830010AAC02AB010D
:10264A00E6FA18E6F91822E975F06484FE740AC5F8
:10265A00F084C445F0FD30020122EA540FF99034A7
:10266A00B9932DD4FDE94410933ED4FEEAC4540F25
:10267A00F99034D9932DD4FDE94410933ED4FEE960
:10268A004420933400D4FF20010122EB540FF99027
:10269A003509932DD4FDE94410933ED4FEE9442034
:1026AA00933FD4FFE43400FAEBC4540FF990353960
:1026BA00932DD4FDE94410933ED4FEE94420933F80
:1026CA00D4FFE94430933AD4FAEC540FF9903579AF
:1026DA007B001226E7ECC4540FF99035C9932DD428
:1026EA00FDE94410933ED4FEE94420933FD4FFE928
:1026FA004430933AD4FAE94440933BD4FB22742001
:10270A0030060274301227291511E51170F022C41F
:10271A00540F7003300319D2032490D43440D4C028
:10272A0083C082C000F5821203ABD000D082D0836E
:0C273A00222003FC7430022729D0172253
:1034B90000561268248036924804601672288440A7
:1034C9000002050710121517202325283033353837
:1034D90000969288848076726864605652484440A7
:1034E900004081226304458627680950913273148C
:1034F9000000000101020202030304040405050699
:103509000036720844801652882460963268044056
:103519000055106621763287429853086419753030
:1035290000061319263239455258657278859198E3
:103539000076522804805632088460361288644026
:103549000085715743281400867157432914008652
:1035590000040914192429343843485358636872FC
:1035690000010203040506070809101112131415B6
:1035790000163248648096122844607692082440E6
:1035890000724416886032057749219365381082A4
:10359900007755331088664421997754321088652D
:1035A900001633506783001734506784011834516B
:1035B90000000000000001010101010102020202F4
:1035C9000056126824803692480460167228844096
:1035D900005409631872278136914500540963180C
:1035E900004387307417610448913579226609537D
:1035F9000068360573421079471584522189582687
:1036090000020508101316182124262932343740E0
:10361900000000500000002500005012000025069F
:103629000050120300255601501278002506390072
:103639001253190056760900288804001444020020
:103649000722010004610000523000002615000025
:10365900630700008103000091010000950000004C
:1036690048000000240000001200000006000000CD
:103679000300000001000000010000007DC5DDC35A
:0A36890034C2E0BE38BD86BBE4B9D0
:10274600FB7A20E4FCFDFEFFE5822582F582E58327
:1027560033F583E5F033F5F0EB33FB4017DAE98028
:1027660042E5822582F582E58333F583E5F033F58C
:10277600F0EB33FBEC33FCED33FDEE33FEEF33FFD2
:10278600EC9519ED951AEE951BEF951C4013EC95FB
:1027960019FCED951AFDEE951BFEEF951CFF438285
:0527A60001DABEEB2288
:06004E00E478FFF6D8FD86
:1027AB006040F82582500274FFF582E824F8501E31
:1027BB00CCCBCAF9E4CC24F85014CBCAF9E4CB2423
:1027CB00F8500BCAF9E4CA24F85003790022240804
:1027DB006010F8C3EC13FCEB13FBEA13FAE913F9E3
:1027EB00D8F12220F71130F6138883A88220F5093F
:1027FB00F6A8837583002280FEF280F5F022C017C5
:10280B008581177E008E831203ABD0172285825FE2
:10281B0085836085F061E4F55CF55DF55E85186296
:10282B009028090228F2C017E581F51724FBFF8FCA
:10283B0062E4F55CF55DF55EE51724FBF8865F0851
:10284B0086600886619028091228F2D01722AF8281
:10285B00C052C053C0541228668007C050C0518F5D
:10286B008222158115811581055AE4B55A02055B43
:10287B0022AF8274302FFF24C6500B74072FFFE555
:10288B004F60034307208F82022859E582FFC4540F
:10289B000FF582C00712287CD007740F5FF58202F8
:1028AB00287C858219AB55AC56AD57AE58AA5975D5
:1028BB001B208A07EF2FF51AEE235401451AFAEB6A
:1028CB002BFBEC33FCED33FDEE33FEC3EA951940E5
:1028DB0008EAC39519FA430301D51BD68B558C56C1
:1028EB008D578E588A5922858250858351855C522B
:1028FB00855D53855E54E4F55AF55BAD5FAE60AF15
:10290B00618D828E838FF0122F75FC74012DF55F14
:10291B00E43EF5608F61ECFF7003022F39BF250297
:10292B008003022F31E4F563F564F565F566F56711
:10293B00F568F569F56AF56CF579F57A756DFF75DE
:10294B006EFF855F73856074856175857382857491
:10295B00838575F0122F75F576A385827385837445
:10296B0085735F8574608575617425B5760885768A
:10297B0082122859808574D025765068E57624C656
:10298B00406274FFB56D36B56E33857919857A1A49
:10299B0090000A122F58858277858378AA767E005D
:1029AB00EA2577FAEE3578FEEA24D0F579EE34FF96
:1029BB00F57AE579457A7093756401808E856D198A
:1029CB00856E1A90000A122F58AE82AB83AA767DC1
:1029DB0000EA2EFEED3BFBEE24D0F56DEB34FFF55C
:1029EB006E022956742EB5761574FFB56D05B56E4E
:1029FB00028003022956E4F56DF56E022956749F89
:102A0B002576500EE576248540085376DF754F0109
:102A1B008003754F007420B57603022ABC742BB566
:102A2B007603022AB6742DB5760280797442B57698
:102A3B0003022AC27443B57603022ACE7444B576D8
:102A4B0003022C527446B57603022C697448B57692
:102A5B00030229567449B57603022C52744AB57693
:102A6B0003022956744CB576028052744FB5760327
:102A7B00022C5A7450B57603022BE77453B57602C9
:102A8B0080627454B576030229567455B5760302E9
:102A9B002C5F7458B57603022C64745AB576030216
:102AAB002956022C6E7563010229567565010229A0
:102ABB00567566010229567568010229567569011A
:102ACB00022956E568600AE56214F9896287068077
:102ADB000BE56224FEFB8B628B0187068E8212282C
:102AEB0059022C7CE56224FDFE8E628E0187020961
:102AFB00870309870619198A558B568E578A828B3D
:102B0B00838EF0122F4085827385837474FFB56DAD
:102B1B0009B56E0685736D85746EE5637037C3E515
:102B2B00739579E574957A502CE579C39573F577A0
:102B3B00E57A9574F578AA77AE78157774FFB57743
:102B4B00021578EA4E600875822012285980E785B5
:102B5B00777985787AAB6DAE6E8555828556838590
:102B6B0057F0122F75FA8A716034C3E49B74808E10
:102B7B00F063F08095F050261BBBFF011E85718220
:102B8B00C006C003122859D003D006AA55AC56ADC7
:102B9B00570ABA00010C8A558C568D5780BBE563DA
:102BAB007003022C7CC3E5739579E574957A400329
:102BBB00022C7CE579C39573F577E57A9574F578F6
:102BCB00AA77AE78157774FFB577021578EA4E7051
:102BDB0003022C7675822012285980E4E56224FDCD
:102BEB00FE8E628E01870209870309870619198AEF
:102BFB00558B568E57AE57BE800040047B438014D6
:102C0B00BE600040047B50800BBE400040047B49FB
:102C1B0080027B588B82C00312285975823A122886
:102C2B0059758230122859758278122859D003BBF6
:102C3B004902800BBB50028006855682122896856E
:102C4B005582122896802A756701756C0A80227549
:102C5B006C08801D756C0A8018756C108013756A72
:102C6B0001800E85768212285980068577798578C2
:102C7B007AE56A6060E56224FCFE8E628E018779DC
:102C8B0009877A09877B09877C19191985795585F5
:102C9B007A56857B57857C5875559375563675577F
:102CAB008085557985567A85577B74012579FAE4A9
:102CBB00357AFBAE7B8A558B568E57857982857A12
:102CCB0083857BF0122F75FEFB70030229068B8226
:102CDB0012285980CCE56C7003022906E568602B3D
:102CEB00E56214F9896287068E027B007D007E0007
:102CFB008A558B568D578E58E5677064AA55FBFD28
:102D0B00FE8A558B568D578E588055E5696021E5A7
:102D1B006224FCFE8E628E018702098703098705F8
:102D2B000987061919198A558B568D578E5880307D
:102D3B00E56224FEFE8E628E01870309870619EE7B
:102D4B00FA3395E0FDFE8B558A568D578E58E56705
:102D5B00700EAA55AB56FDFE8A558B568D578E5865
:102D6B00E5676023E55830E71BC3E49555FBE49515
:102D7B0056FCE49557FDE49558FE8B558C568D57B4
:102D8B008E588003756700756B0179827D007E001C
:102D9B00755900856C82C006C005C0011228ADD0E4
:102DAB0001D005D006E56B7014E559C454F0FCE571
:102DBB0059C4540F4204E7FB4CF7198002A7590D75
:102DCB00BD00010EE56BB40100E433F56BE5554531
:102DDB00564557455870B989728D6F8E70E5794598
:102DEB007A7005757901F57AE564702DE5637029C4
:102DFB00AA79AB7AAC6F0C7E00C3EC9AEE9B5015A4
:102E0B00758220C003C002122859D002D0031ABA0F
:102E1B00FF011B80DF8A798B7AE567601175822D44
:102E2B00122859157974FFB57902157A802EE56F42
:102E3B0045706028E565601175822B12285915794C
:102E4B0074FFB57902157A8013E566600F758220E1
:102E5B00122859157974FFB57902157AE563703329
:102E6B00AD79AE7A8D038E041DBDFF011EC3E56FD8
:102E7B009BE5709C503EE56460067B307C008004D3
:102E8B007B207C008B82C006C005122859D005D050
:102E9B000680D1C3E56F9579E570957A500FE5798A
:102EAB00C3956FF579E57A9570F57A800BE4F57932
:102EBB00F57A80048D798E7AA972AD6FAE708D0222
:102ECB008E041DBDFF011EEA4C6030E56BB40100A2
:102EDB00E433F56B700A09E7C4540FFC8C59800777
:102EEB008704740F5CF559855982C006C005C00173
:102EFB0012287CD001D005D00680C3E56370030295
:102F0B002906AD79AE7A8D038E041DBDFF011EEB34
:102F1B004C7003022906758220C006C00512285981
:102F2B00D005D00680E08F82122859022906855AD7
:052F3B0082855B83228A
:0B3693003C4E4F20464C4F41543E007F
:102F4000AA82AB83122F756003A380F8C3E5829A2F
:102F5000F582E5839BF58322E5828519F0A4C5827D
:102F6000C0F0851AF0A4D0F025F0C5838519F0A42F
:052F70002583F583221A
:0D00410075818212171EE582600302003EE9
:102F750020F71430F6148883A88220F507E6A88385
:0C2F850075830022E280F7E49322E02232
:00000001FF
