:040000000200413287
:03000B000205BA31
:0100130032BA
:01001B0032B2
:0100230032AA
:01002B0032A2
:01003300329A
:03003B000205E9D2
:100054007525009000AEE4F0753200752100900023
:100064001F7497F07438A3F07480A3F09000227486
:10007400B9F07438A3F07480A3F090002574D8F01C
:100084007438A3F07480A3F090002874FFF07438DF
:10009400A3F07480A3F090002B741EF07439A3F0C5
:1000A4007480A3F090002E23F090002FF090003085
:1000B400F0900031F090003204F0900033F09000A2
:1000C40034F0900035F090003604F0900037F09052
:1000D4000038F0900039F090003A04F090003BF0C2
:1000E40090003CF090003DF090003E04F090003F02
:1000F400F0900040F0900041F09000427402F090C3
:100104000043F0900044F0900045F090004614F055
:10011400900047F0900048F0900049F090004A7435
:1001240004F090004BF090004CF090004DF09000E3
:100134004E14F090004FF0900050F0900051F09069
:1001440000527405F0900053F0900054F090005564
:10015400F09000567402F0900057F0900058F09020
:100164000059F090005A14F090005BF090005CF09D
:1001740090005DF090005E7404F090005FF09000D9
:1001840060F0900061F090006214F0900063F090D1
:100194000064F0900065F09000667405F0900067CC
:1001A400F0900068F0900069F090006AF090006BA5
:1001B400F090006CF090006DF090006EF090006F85
:1001C400F0900070F0900071F09000767460F0741C
:1001D40009A3F0E4A3F0A3F090007A7480F07470A3
:1001E400A3F0E4A3F0A3F090007EF07496A3F0E4EF
:1001F400A3F0A3F0900082F074E1A3F0E4A3F0A3D1
:10020400F0900086F074C2A3F07401A3F0E4A3F0AC
:1002140090008AF07484A3F07403A3F0E4A3F09034
:10022400008E74E0F07493A3F07404A3F0E4A3F0DC
:10023400900092F07408A3F014A3F0E4A3F09000EB
:10024400967420F074A1A3F07407A3F0E4A3F090D3
:10025400009A74C0F07427A3F07409A3F0E4A3F027
:1002640090009E7460F074AEA3F0740AA3F0E4A34B
:10027400F09000A2F07435A3F0740CA3F0E4A3F0A2
:100284009000A674A0F074BBA3F0740DA3F0E4A3D3
:10029400F09000AAF07410A3F0740EA3F0E4A3F09D
:0304310002003E88
:03003E000211DDCF
:10043400AE82E5217009C2998E9920990980FBC288
:10044400F98E9A30F9FD90000022AF82C007746CD7
:10045400C0E07434C0E012260115811581D007BFB5
:100464000002800ABF01028016BF02338022746F2B
:10047400C0E07434C0E01226011581158180207417
:1004840075C0E07434C0E012260115811581800F17
:10049400747BC0E07434C0E012260115811581AE6E
:1004A400217F00C006C0077481C0E07434C0E0122C
:1004B4002601E58124FCF58122AF82BF0D02800470
:1004C400BF1B1122749AC0E07434C0E012260115D7
:1004D400811581227E00C007C006749DC0E074347B
:1004E400C0E0122601E58124FCF58122AF82741B51
:1004F400B5220280028079AE238E21AC217D00C01A
:1005040007C006C004C00574A0C0E07434C0E01283
:100514002601E58124FCF581D006D007BF000280C6
:100524000DBF01028021BF020280350205B77F01A1
:100534008E21758201C00712044E85242175820123
:1005440012044ED007806C7F028E21758202C00790
:1005540012044E85242175820212044ED007805362
:100564007F008E21758200C00712044ED00780439D
:10057400BF0002800ABF01028014BF0236801E85BC
:100584002321852282C0071204BDD007802585243B
:1005940021852282C0071204BDD00780168523213D
:1005A400852282C0071204BD85242185228212047B
:1005B400BDD0078F8222C0E0C082C083C0D0758CBA
:1005C400D4758A13900072E02401F0A3E03400F0A3
:1005D400900074E02401F0A3E03400F0D0D0D08384
:1005E400D082D0E032C0E0E5EC75EC00D0E032AF70
:1005F400827E00EE2EFD8DF005F0EF8002C313D550
:10060400F0FBFC5304017B00ED04F5F005F0EF80F2
:1006140002C313D5F0FBFD5305017A00ECB50508C0
:10062400EBB50204758200220EBE040040C575823B
:100634000122AF827E007D04EF30E003430680EFA9
:100644000303543FFFEEC313FEED14FD70EA8E82E4
:1006540022AF827E007D04EEC313FEEF30E003433D
:100664000680EF0303543FFFED14FD70EA8E8222EF
:10067400AE875306107F00BE1041BF003EAF84AE6C
:10068400857D00EF2FFFED33FD5306017C00EE2F37
:10069400FFEC3DFDEF24F1FFED34FFFD8F06530623
:1006A40001EDC313CF13CFFD75C7AA75C7558F844A
:1006B40075C7AA75C7558E855387EF22AF827521FA
:1006C40001BF310122BF320122BF33028032BF3465
:1006D4000122BF50028049BF5303020764BF540282
:1006E400805EBF5603020774BF70028023BF73028B
:1006F400805EBF74028039BF7603020774020784E8
:1007040074B7C0E07434C0E012260115811581224B
:1007140074CEC0E07434C0E0122601158115812224
:1007240074E1C0E07434C0E0122601158115812201
:1007340074F3C0E07434C0E01226011581158122DF
:100744007408C0E07435C0E01226011581158122B9
:10075400741EC0E07435C0E0122601158115812293
:100764007436C0E07435C0E012260115811581226B
:10077400744DC0E07435C0E0122601158115812244
:100784007467C0E07435C0E01226011581158174C8
:100794007EC0E07435C0E012260115811581749580
:1007A400C0E07435C0E01226011581158174B6C00D
:1007B400E07435C0E01226011581158174D1C0E0C2
:1007C4007435C0E01226011581158174F0C0E074FF
:1007D40035C0E0122601158115817411C0E074360C
:1007E400C0E0122601158115812275B10075B20091
:1007F40075B30075B40075AC0075AD0043B3085310
:10080400B4F743AC0153ADFE43B38053B47F43B15B
:100814000153B2FE43B32053B4DF43B12053B2DFDC
:1008240043B11053B2EF53B3FE43B40153B3FD438A
:10083400B40253B3FB43B404C290C291C29222AF38
:10084400827E04EFB52514AB19AC1AAD1B8B828CD8
:10085400838DF0E4122B2A75820422AB19AC1AADF5
:100864001B8B828C838DF0E4122B2A7A008AF0058C
:10087400F0E5258002C313D5F0FBF853000179009D
:10088400B80005B900028055B80105B9000280031B
:1008940002092C8AF005F0EF8002C313D5F0FBF8AF
:1008A4005300017900B80005B90002800302092C45
:1008B4008F258B828C838DF0123450F98A0088F056
:1008C40005F07401800225E0D5F0FBF8E942008BC5
:1008D400828C838DF0E8122B2A7E00804B8AF005EF
:1008E400F0EF8002C313D5F0FBF85300017900B890
:1008F4000005B900028031B8012EB9002B8F258B79
:10090400828C838DF0123450F98A0088F005F074DB
:1009140001800225E0D5F0FBF8E942008B828C834C
:100924008DF0E8122B2A7E010ABA05005003020852
:10093400718E8222AF82AC26AD27AE287B00C3EB3A
:100944009F503F8C828D838EF0123450FAA3AC8278
:10095400AD838A017A00C007C006C005C004C00385
:10096400C001C002749DC0E07434C0E0122601E5E9
:100974008124FCF581D003D004D005D006D0070B28
:1009840080BC749AC0E07434C0E01226011581154D
:100994008122743EC0E07436C0E012260115811530
:1009A400817449C0E07436C0E012260115811581B6
:1009B4007461C0E07436C0E012260115811581749B
:1009C40075C0E07436C0E012260115811581747A71
:1009D400C0E07436C0E012260115811581747FC011
:1009E400E07436C0E0122601158115817484C0E0DC
:1009F4007436C0E0122601158115817489C0E07433
:100A040036C0E012260115811581748EC0E074365B
:100A1400C0E0122601158115817493C0E07436C0BC
:100A2400E012260115811581749FC0E07436C0E080
:100A34001226011581158174AAC0E07436C0E01233
:100A440026011581158174B5C0E07436C0E0122604
:100A5400011581158174C1C0E07436C0E01226010D
:100A64001581158122AF82BF2B03021052BF2D03C3
:100A7400021077BF3003020B12BF3103020B2BBFEE
:100A84003203020B40BF3303020B55BF3403020B86
:100A94006ABF3503020B8CBF3603020BC2BF370398
:100AA400020BF0BF4803020996BF5303021028BF8C
:100AB400610302109BBF62030210A1BF6303021013
:100AC400A7BF6803020C1EBF6A03020CAABF6B0314
:100AD400020CDDBF6C03020D10BF7303020D9CBF3B
:100AE40074028007BF7503020F6922900072E0C090
:100AF400E0A3E0C0E074CEC0E07436C0E01226018A
:100B0400E58124FCF581900072E4F0A3F0227521C4
:100B140000C290C291C29274D3C0E07436C0E01295
:100B240026011581158122752100D29074E2C0E05E
:100B34007436C0E01226011581158122752100C288
:100B44009674F1C0E07436C0E01226011581158157
:100B540022752100D29674FFC0E07436C0E01226DC
:100B6400011581158122752100B296A296E433FE07
:100B74007F00C006C007740DC0E07437C0E01226C1
:100B840001E58124FCF58122752100209002D29692
:100B9400B290741CC0E07437C0E0122601158115B0
:100BA40081A290E433FE7F00C006C0077428C0E031
:100BB4007437C0E0122601E58124FCF58122B2914C
:100BC400742DC0E07437C0E012260115811581A28E
:100BD40091E433FE7F00C006C0077428C0E0743778
:100BE400C0E0122601E58124FCF58122B292743919
:100BF400C0E07437C0E012260115811581A292E489
:100C040033FE7F00C006C0077428C0E07437C0E01C
:100C1400122601E58124FCF58122AD2CAE2DAF2EE8
:100C24008D828E838FF0123450FC1C8D828E838FC4
:100C3400F0EC122B2AAA29AB2AAC2B8A828B838C48
:100C4400F0123450FABA013C8D828E838FF0123444
:100C54005075F004A42476F582740035F0F583E031
:100C6400F9A3E0FAA3E0FBA3E0FCC001C002C003C7
:100C7400C0047445C0E07437C0E0122601E5812445
:100C8400FAF581228D828E838FF0123450FD7F001D
:100C9400C005C0077458C0E07437C0E0122601E5EF
:100CA4008124FCF58122AD29AE2AAF2B8D828E835F
:100CB4008FF0123450FC1C8D828E838FF0EC122B3B
:100CC4002A7F00C004C0077466C0E07437C0E01215
:100CD4002601E58124FCF58122AD29AE2AAF2B8DB6
:100CE400828E838FF0123450FC0C8D828E838FF0B1
:100CF400EC122B2A7F00C004C0077466C0E074376E
:100D0400C0E0122601E58124FCF58122AD2CAE2D34
:100D1400AF2E8D828E838FF0123450FC0C8D828E18
:100D2400838FF0EC122B2AAA29AB2AAC2B8A828B54
:100D3400838CF0123450FABA013C8D828E838FF08A
:100D440012345075F004A42476F582740035F0F55D
:100D540083E0F9A3E0FAA3E0FBA3E0FCC001C00236
:100D6400C003C0047445C0E07437C0E0122601E536
:100D74008124FAF581228D828E838FF0123450FD06
:100D84007F00C005C0077458C0E07437C0E0122665
:100D940001E58124FCF58122AD29AE2AAF2B8D8299
:100DA4008E838FF0123450FC6009BC0103020E4A9A
:100DB400020EF7852C2F852D30852E31852F8285C7
:100DC40030838531F0123450C454F0F85300F07479
:100DD4000F5C48F582C007C006C005121D81D0050E
:100DE400D006D007852F828530838531F0123450A8
:100DF400F8E4C8C4C868C854F0C868FB8D828E8300
:100E04008FF01234507A004200EA4203C000C0035B
:100E14007474C0E07437C0E0122601E58124FCF547
:100E240081852F828530838531F0123450FB7A001E
:100E3400C003C002748CC0E07437C0E0122601E520
:100E44008124FCF58122852C2F852D30852E31853A
:100E54002F828530838531F0123450C454F0F85316
:100E640000F0740F5C48F582C007C006C005121D6F
:100E740081D005D006D007852F828530838531F057
:100E8400123450F8E4C8C4C868C854F0C868FB8D6C
:100E9400828E838FF01234507A004200EA4203C0FB
:100EA40000C0037474C0E07437C0E0122601E58109
:100EB40024FCF581852F828530838531F0123450EE
:100EC40075F004A42476F582740035F0F583E0F817
:100ED400A3E0F9A3E0FAA3E0FBC000C001C002C094
:100EE400037445C0E07437C0E0122601E58124FA9A
:100EF400F58122A92CAA2DAB2E89828A838BF0122C
:100F04003450C454F0F85300F0740F5C48F582C0B8
:100F140007C006C005C003C002C001121D81D00174
:100F2400D002D003D005D006D00789828A838BF003
:100F3400123450F9E4C9C4C969C954F0C969FC8DB3
:100F4400828E838FF01234507F004201EF4204C03E
:100F540001C0047474C0E07437C0E0122601E58156
:100F640024FCF58122AD2CAE2DAF2E8D828E838F85
:100F7400F012345075F004A42476F582740035F030
:100F8400F583E0F9A3E0FAA3E0FBA3E0FCC007C00B
:100F940006C005C001C002C003C0047445C0E074AB
:100FA40037C0E0122601E58124FAF581D005D00688
:100FB400D0078D828E838FF012345075F004A424F0
:100FC40076F582740035F0F583E0F9A3E0FAA3E046
:100FD400FBA3E089828A838BF0C007C006C0051298
:100FE4002568D005D006D0078D828E838FF0123409
:100FF4005075F004A42476F582740035F0F583E08E
:10100400FCA3E0FDA3E0FEA3E0FFC004C005C0060E
:10101400C007749DC0E07437C0E0122601E5812446
:10102400FAF581229000AEE0F582121D819000AEA7
:10103400E0FF7E00C007C006C007C00674BBC0E066
:101044007437C0E0122601E58124FAF5812290006C
:10105400AEE02401F0E0FF7E00C007C006C007C078
:101064000674D6C0E07437C0E0122601E58124FA84
:10107400F581229000AEE014F0E0FF7E00C007C0CE
:1010840006C007C00674D6C0E07437C0E01226015B
:10109400E58124FAF58122758211021D817582127F
:1010A400021D81758213021D8185821985831A852B
:1010B400F01B123450900001F074012519FAE43544
:1010C4001AFBAC1B8A828B838CF012345090000282
:1010D400F074022519FAE4351AFBAC1B8A828B835F
:1010E4008CF0123450900003F074032519FAE4359F
:1010F4001AFBAC1B8A828B838CF012345090000450
:10110400F074042519F8E4351AF9AF1B8882898331
:101114008FF0123450F8900005F074052519FDE4A1
:10112400351AFEAF1B751C05751D008A828B838CD6
:10113400F0123450F9C3E51D995044C002C003C0F5
:1011440004E51C2401F8E43400F9051C8D828E8327
:101154008FF0123450FAA3123450FBA3123450FC13
:10116400E51D2AFAE43BFB8A828B838CF01234500F
:1011740088828983F0051DD004D003D00280AC227C
:10118400AD82AE83AFF0C007C006C005121CA7AC89
:1011940082D005D006D007AB3205328D828E838F84
:1011A400F0EB122B2A8D828E838FF0C007C006C00D
:1011B40005C004121D84D004D005D006D0078D824A
:1011C4008E838FF0C0041210ADD004754F0175509A
:1011D400007551008C8202229A7534017535017FA5
:1011E400017537007538007C00900113E4F090011C
:1011F40014F0900115F0900116F0900117F0900191
:1012040018F0900119F090011AF090011BF0900170
:101214001CF090011DF090011EF090011F04F0904D
:10122400012004F090012114F0900122740AF0903E
:10123400012303F0900124742EF07400A3F0E4A3BE
:10124400F090012704F090012804F0900129F09017
:10125400012A740AF090012B03F090012C742EF0F3
:101264007400A3F0E4A3F090012F04F09001300483
:10127400F090013104F0900132740AF090013303CC
:10128400F0900134742EF07400A3F0E4A3F0900104
:101294003704F090013804F090013923F090013ABA
:1012A400740AF090013B03F090013C742EF074003A
:1012B400A3F0E4A3F090013F04F090014004F09007
:1012C40001417405F090014223F090014303F09032
:1012D4000144742EF07400A3F0E4A3F08F39753A3E
:1012E40002753B03753C0A753D05753E2E753F003E
:1012F400F54090014704F090014804F0900149142E
:10130400F090014A7414F090014B7405F090014C74
:101314007456F07400A3F0E4A3F0C007C0041207ED
:10132400EE1225E5120674538EF7D2A9D28C7521DC
:101334000074EBC0E07437C0E012260115811581FA
:1013440074FBC0E07437C0E0122601158115817565
:101354002101740BC0E07438C0E012260115811518
:1013640081D004D0077A307B7500000000001ABADF
:10137400FF011BEA4B70F2D296C2907521009000D7
:1013840076E0FAA3E0FBA3E0FDA3E08A828B838DE1
:10139400F0C007C004122568758241121D81D00473
:1013A400D0077D307E7500000000001DBDFF011ECA
:1013B400ED4E70F2900086E0FAA3E0FBA3E0FDA3FB
:1013C400E08A828B838DF0C007C004122568D004A4
:1013D400D0077D307E7500000000001DBDFF011E9A
:1013E400ED4E70F2D296C290D291C29290001FE05C
:1013F400FBA3E0FDA3E0FEC007C004C003C005C01A
:1014040006741BC0E07438C0E07480C0E0122B6D19
:10141400E58124FAF581D004D00790003375F040BB
:10142400C007C004122540E582D004D0077003022F
:10143400171D741BB533430CBC05027C00EC75F01E
:1014440003A4241FF582740035F0F583E0FBA3E0C8
:10145400FDA3E0FEC007C004C003C005C006741BA2
:10146400C0E07438C0E07480C0E0122B6DE58124C4
:10147400FAF581D004D007021765EC24FB5003026F
:101484001765EC2C2C90148D7302149C0214BF026B
:1014940014DD0215CE0216D4752935752A00752B74
:1014A40040752C34752D00752E40853382C007C0DD
:1014B40004120A69D004D007021765900072E4F0A0
:1014C400A3F090011EE0FE04F0EE24AFF582E434B4
:1014D40000F583E533F00217657466B53302801FA7
:1014E4007467B5330280267468B533028027746A42
:1014F400B53302803C746BB53302806202158D15DE
:1015040034E534600302158D753401807CD535795A
:101514007535018074753E13753F01754000900068
:101524003975F040C007C004121D84D004D0078070
:101534005805357465B53503753564AD357E00C021
:1015440007C004C005C0067466C0E07437C0E0126A
:101554002601E58124FCF581D004D007802B0534D5
:101564007410B5340375340FAD347E00C007C00465
:10157400C005C0067458C0E07437C0E0122601E507
:101584008124FCF581D004D0077466B53302802031
:101594007467B5330280197468B533030217657430
:1015A4006AB53302800A746BB5330280030217658F
:1015B40085343B85353A90003975F040C007C00446
:1015C400122054D004D0070217657468B533028022
:1015D40015746AB533028020746BB533028033749A
:1015E4006CB5335A804690011DE014F0E0FEBEFF56
:1015F4004D90011DE4F0804690011DE02413FEE4AB
:101604003401FD8E828D83E0FB1B8E828D83EBF093
:10161400802C90011DE02413FEE43401FD8E828DA4
:1016240083E0FB0B8E828D83EBF0801290011DE032
:101634002401F0E0FEBE0A06EE1490011DF0746869
:10164400B533028013746AB533028032746BB533D8
:1016540002802B746CB5337890011DE0FE7D00C0D0
:1016640007C004C006C0057420C0E07438C0E0128E
:101674002601E58124FCF581D004D00780527E0048
:10168400EE2413F582E43401F583E0FD7B00C0070A
:10169400C006C004C005C003742DC0E07438C0E0A7
:1016A4007480C0E0122B6DE58124FBF581D004D059
:1016B40006D0070EBE0A0040C7C007C004749AC013
:1016C400E07434C0E012260115811581D004D007DE
:1016D4007465B5330280267473B533028003021730
:1016E40065C007C0047433C0E07438C0E01226013A
:1016F40015811581D004D0077538038064C007C0F4
:10170400047458C0E07438C0E012260115811581B4
:10171400D004D0077538048048EC24FB4043EC2CFB
:1017240090172873803B8006803780358033900083
:1017340072E0FDA3E0FEC3740A9DE49E5023900171
:101744001EE0FEE0601B7526AF7527007528008E2D
:1017540082C007C004120938D004D00790011EE4E7
:10176400F0EF7003021851A295E433FEA2B0E43303
:1017740025E04206A280E43325E025E04206A29358
:10178400E433C40354F84206A297E433C454F04E3D
:10179400F582751936751A00751B40C007C004120E
:1017A4000843AE82D004D007BE010280030219A010
:1017B400EF24FA50030219A0EF2F2F9017C37302DE
:1017C40019A00217D50217DD02184502184902189C
:1017D4004DD296D2900F0219A0900076E0FAA3E0C1
:1017E400FBA3E0FDA3E08A828B838DF0C004122565
:1017F40068758241121D81900086E0FAA3E0FBA384
:10180400E0FDA3E0FEC002C003C005C0067445C0ED
:10181400E07437C0E0122601E58124FAF5819000D6
:1018240086E0FAA3E0FBA3E0FDA3E08A828B838D2C
:10183400F0122568D0047535027534017F00021951
:10184400A00F0219A00F0219A00F0219A0A295E47B
:1018540033FEA2B0E43325E04206A280E43325E05F
:1018640025E04206A293E433C40354F84206A29747
:10187400E433C454F04EF582751936751A00751B9D
:1018840040C007C004120843AE82D004D007BE0192
:101894000280030219A0AE36BE0103021975740258
:1018A400B5360280437404B536030219487408B58A
:1018B4003602800A7410B5360280570219A0D53456
:1018C40003753401AD347E00C007C004C005C006F2
:1018D4007458C0E07437C0E0122601E58124FCF599
:1018E40081D004D0070219A0D53503753501AD3573
:1018F4007E00C007C004C005C0067466C0E074372B
:10190400C0E0122601E58124FCF581D004D0070251
:1019140019A085343B85353AE53430E00B753E2E0D
:10192400753F007540008009753E42753F00754063
:101934000090003975F040C007C004121D84D00423
:10194400D007805805357465B53503753564AD35F4
:101954007E00C007C004C005C0067466C0E07437CA
:10196400C0E0122601E58124FCF581D004D0078073
:101974002B05347410B5340375340FAD347E00C0B8
:1019840007C004C005C0067458C0E07437C0E01234
:101994002601E58124FCF581D004D007E4B53702A3
:1019A400800A7401B53702803102141E7403B538FD
:1019B40002800302141E753701900074E4F0A3F052
:1019C400C007C004747DC0E07438C0E0122601155D
:1019D400811581D004D00702141E900074E0FDA389
:1019E400E0FEC374649DE49E5018900074E4F0A378
:1019F400F090014775F000C007C004121184D004B0
:101A0400D0077404B53802800302141E753700C071
:101A140007C004748BC0E07438C0E012260115813D
:091A24001581D004D00702141E44
:10346C000A0D0073656C66200063726F73730062E3
:10347C006F74682000206F75747075743A546869A5
:10348C0073206973205541525425640A0D000D0AAE
:10349C00002563000D0A696E7075743A546869737F
:1034AC00206973205541525425640049646C652091
:1034BC00707265616D626C65206F6E2F6F66660D44
:1034CC000A004C696E65466920506F776572204F13
:1034DC0066660D0A004C696E65466920506F77650B
:1034EC0072204F6E0D0A004C696E6546692055615D
:1034FC007274205478204C6F770D0A004C696E65FD
:10350C004669205561727420547820486967680DAB
:10351C000A004C696E65466920435343207278203B
:10352C0046534D204F66660D0A004C696E65466920
:10353C00204353432072782046534D204F4E0D0AA2
:10354C000056657273696F6E20312E34206F6E20B9
:10355C0032303233313032360D0A00313A20646F5A
:10356C00776E6C696E6B207061636B657420310DC6
:10357C000A00323A20646F776E6C696E6B20706152
:10358C00636B657420320D0A00333A2075706C69D8
:10359C006E6B2069646C6520707265616D626C6520
:1035AC00206F6E2F6F66660D0A00702F503A204CFC
:1035BC00696E65466920506F776572206F66662F5D
:1035CC006F6E0D0A00742F543A204C696E65466973
:1035DC002055617274205478204C6F772F4869679E
:1035EC00680D0A00732F533A204C696E6546696565
:1035FC00204353432052782046534D206F66662F4C
:10360C006F6E0D0A00746573742070726F6365645D
:10361C007572653A2070202D3E2050202D3E20548E
:10362C00202D3E2053202D3E2031206F7220320D54
:10363C000A00743A2074696D65720D0A00303A20E4
:10364C004C696E65466920454E302C312C32206F0A
:10365C0066660D0A00313A204C696E654669204554
:10366C004E30203D20310D0A00323A0D0A00333A1B
:10367C000D0A00343A0D0A00353A0D0A00363A0D9F
:10368C000A00373A0D0A00683A20416464722D2D05
:10369C000D0A006A3A20436D642D2D0D0A006B3A19
:1036AC0020436D642B2B0D0A006C3A20416464722C
:1036BC002B2B0D0A00733A2073656E64696E670DCF
:1036CC000A0025750A0D004C494E4546495F454E8A
:1036DC00303D300A0D004C494E4546495F454E3051
:1036EC003D310A0D004C494E4546495F54583D301A
:1036FC000A0D004C494E4546495F54583D310A0D60
:10370C00004C494E4546495F54583D25640A0D000E
:10371C004C494E4546495F454E303D0025640A0DE7
:10372C00004C494E4546495F454E313D004C494E93
:10373C004546495F454E323D007561727420737089
:10374C006565643A20256C753A0A0D0061646472F3
:10375C006573733A2025640A0D00636F6D6D616E9D
:10376C00643A2025640A0D004C696E654669205345
:10377C00656E64696E673A20307825783A0A0D00D8
:10378C00616464726573733A20307825643A0A0D6B
:10379C000053657474696E67207561727420737060
:1037AC006565642061733A20256C753A0A0D004CEE
:1037BC00696E6546692053656E64696E673A2025AB
:1037CC00642830782578290A0D0073656E642064AE
:1037DC006174612025642830782578290A0D0054FD
:1037EC006869732069732055415254300A0D004C9E
:1037FC00696E654669204D61737465720A0D0054DB
:10380C006869732069732055415254310A0D0025A3
:10381C00730D0A00446174614964783A25640D0A99
:10382C000030782578200053544152542070657232
:10383C00696F646963207061636B65742067656E82
:10384C0065726174696E672E2E0D0A0053544F50C9
:10385C002020706572696F646963207061636B65A9
:10386C00742067656E65726174696E672E2E0D0A21
:10387C00007374617274696E672E2E2E0D0A0073BC
:10388C00746F7070696E672E2E2E00554152543035
:10389C005F494E5055545F4D4F4445303A6F6E65FD
:1038AC00206B657920636F6E74726F6C005541529A
:1038BC0054305F494E5055545F4D4F4445313A7327
:1038CC007472696E6720696E70757400554152543C
:1038DC00305F494E5055545F4D4F4445323A6D69F7
:1038EC006D696320356B657973206F6E20626F6133
:1038FC0072640055415254305F494E5055545F4DDF
:10390C004F4445333A646174612073657474696E15
:10391C00670055415254305F494E5055545F4D4FDE
:10392C004445343A706572696F6469632066756EDC
:06393C006374696F6E0068
:101A2D0075C7AA75C75575FD5A75C7AA75C755757A
:101A3D00FDA575820022AC82AD83AEF0FF538EF70B
:101A4D00438901D28CEC4D4E4F601A758A76758C98
:101A5D00FF108D0280FB1CBCFF091DBDFF051EBEC6
:101A6D00FF011F80E0C28C22AC82AD83AEF0FF532C
:101A7D008EF7438901D28CEC4D4E4F601A758A98C2
:101A8D00758CFA108D0280FB1CBCFF091DBDFF0576
:101A9D001EBEFF011F80E0C28C22AC82AD83AEF072
:101AAD00FF538EEF438910D28EEC4D4E4F601A7559
:101ABD008BF6758DC9108F0280FB1CBCFF091DBDF7
:101ACD00FF051EBEFF011F80E0C28E22AC82AD83DA
:101ADD00AEF0FF53C9BF53C9DF43C910D2CAEC4D95
:101AED004E4F601A75CCE575CDF710CF0280FB1CFB
:101AFD00BCFF091DBDFF051EBEFF011F80E0C2CA50
:101B0D0022AC82AD83AEF0FF75C40743C408EC4D23
:101B1D004E4F602575C55775C6CDAAC45302107BAF
:101B2D0000BA10F6BB00F353C4EF1CBCFF091DBD7A
:101B3D00FF051EBEFF011F80D553C4F722AC82AD39
:101B4D0083AEF0FF75C40743C408EC4D4E4F6025BE
:101B5D0075C5D775C6FFAAC45302107B00BA10F61F
:101B6D00BB00F353C4EF1CBCFF091DBDFF051EBE1A
:101B7D00FF011F80D553C4F722AF82A2AF9200C2DE
:101B8D00AF75C7AA75C755439F01A20092AFE51C5B
:101B9D006013A2AF9200C2AF75C7AA75C75543A512
:101BAD0001A20092AF851AA68519A7851BAE8FAF2E
:101BBD00A2AF9200C2AF75C7AA75C75543A401A2C3
:101BCD000092AFE51C6026A2AF9200C2AF75C7AA06
:101BDD0075C75553A5FEA20092AFA2AF9200C2AF3A
:101BED0075C7AA75C755539FFEA20092AF22AE824C
:101BFD00AF838F198E1A751BFF751C01758222021A
:101C0D001B86AE82AF838F198E1A85101B751C0132
:101C1D00758221021B86751900751A0C751B0075CE
:101C2D001C00758204121B86AFAE751900751A0D56
:101C3D00751B00751C00758204C007121B86D0072A
:101C4D00E5AE540FFEA2AF9200C2AF75C7AA75C71D
:101C5D0055539FFEA20092AFE4C454F0CFC4CF6F92
:101C6D00CF54F0CF6FFD7C00EE2FF582EC3DF58368
:101C7D002285821A751900751B00751C007582046A
:101C8D00121B8685AE82A2AF9200C2AF75C7AA7530
:0A1C9D00C755539FFEA20092AF222C
:1002A400E4F541F54290014F74D9F07439A3F07428
:1002B40080A3F090015274E4F07439A3F07480A325
:1002C400F090015574EFF07439A3F07480A3F090AA
:1002D400015874FAF07439A3F07480A3F090015BB0
:1002E4007407F0743AA3F07480A3F090015E741361
:1002F400F0743AA3F07480A3F09001617422F07456
:100304003AA3F07480A3F09001647430F0743AA3BB
:10031400F07480A3F09001677430F0743AA3F07421
:1003240080A3F090016A7430F0743AA3F07480A34F
:10033400F090016D7430F0743AA3F07480A3F090DF
:1003440001707430F0743AA3F07480A3F0900173D8
:100354007430F0743AA3F07480A3F0900176743092
:10036400F0743AA3F07480A3F09001797430F074BF
:100374003AA3F07480A3F090017C7430F0743AA333
:10038400F07480A3F090017F7430F0743AA3F07499
:1003940080A3F09001827430F0743AA3F07480A3C7
:1003A400F09001857430F0743AA3F07480A3F09057
:1003B40001887430F0743AA3F07480A3F090018B38
:1003C4007430F0743AA3F07480A3F090018E74300A
:1003D400F0743AA3F07480A3F09001917430F07437
:1003E4003AA3F07480A3F09001947430F0743AA3AB
:1003F400F07480A3F09001977430F0743AA3F07411
:1004040080A3F090019A7430F0743AA3F07480A33E
:10041400F090019D7430F0743AA3F07480A3F090CE
:0D04240001A07430F0743AA3F07480A3F0CE
:101CA700AD82AE83AFF074032DFDE43EFE8D828ED0
:101CB700838FF01234502405F58222AD82AE83AFB4
:101CC700F08D028E038F04751904751AFF8A828BB3
:101CD700838CF0C007C006C00512226A85821AD01D
:101CE70005D006D00774052DFAE43EFB8F048A82DF
:101CF7008B838CF0123450FAA3123450FBA31234A6
:101D070050FC74032DFDE43EFE8D828E838FF0120E
:101D17003450F5198A828B838CF002226AAD82AE29
:101D270083AFF0C007C006C005121CC2AC82D00545
:101D3700D006D00774042DFDE43EFE8D828E838F7E
:101D4700F0EC022B2AAD82AE83AFF0C007C006C00D
:101D570005121CC2AC82D005D006D00774042DFD35
:101D6700E43EFE8D828E838FF0123450B5040475E5
:101D7700820122758200220225BD0225DBAD82AEDB
:101D870083AFF0C007C006C005121CC2AC82D005E5
:101D9700D006D00774042DF9E43EFA8F0389828AAE
:101DA700838BF0EC122B2A8D028E038F048A828B91
:101DB700838CF0123450F5820ABA00010BC007C0B9
:101DC70006C005C004C003C002121D81D002D003A3
:101DD700D004D005D006D0078A828B838CF01234CA
:101DE70050F5820ABA00010BC007C006C005C0043F
:101DF700C003C002121D81D002D003D004D005D089
:101E070006D0078A828B838CF0123450F90ABA0005
:101E1700010B8982C007C006C005C004C003C00209
:101E2700121D81D002D003D004D005D006D0078A76
:101E3700828B838CF0123450F5820ABA00010BC0F2
:101E470007C006C005C004C003C002121D81D0022E
:101E5700D003D0048A828B838CF0123450F582121F
:101E67001D81D005D006D00774052DFAE43EFB8FFF
:101E77000474032DFDE43EFE7543008D828E838F2F
:101E8700F0123450F8C3E543985051C005C006C05E
:101E9700078A828B838CF0123450F8A3123450F9DE
:101EA700A3123450FFE54328F8E439F9888289837F
:101EB7008FF0123450F582C007C006C005C004C0B9
:101EC70003C002121D81D002D003D004D005D00672
:101ED700D0070543D007D006D005809F22AF82BF29
:101EE7000500500475820322AD47AE48AF49AA44A6
:101EF700AB45AC468A828B838CF0123450F974015F
:101F07002AF544E43BF5458C468D828E838FF0E9B4
:101F1700122B2A0DBD00010EAA44AB45AC468A829E
:101F27008B838CF0123450F974012AF544E43BF5A5
:101F3700458C468D828E838FF0E9122B2A0DBD00CA
:101F4700010EAA44AB45AC468A828B838CF01234CF
:101F570050F974012AF544E43BF5458C468D828E91
:101F6700838FF0E9122B2A0DBD00010EAA44AB4561
:101F7700AC468A828B838CF0123450F974012AF5AF
:101F870044E43BF5458C468D828E838FF0E9122B16
:101F97002A0DBD00010EAA44AB45AC468A828B834D
:101FA7008CF0123450F974012AF544E43BF5458C62
:101FB700468D828E838FF0E9122B2AAD47AE48AF4C
:101FC7004974032DFAE43EFB8F0485444B85454C49
:101FD70085464D754A008A828B838CF0123450F8FF
:101FE700C3E54A985052C002C003C00474052DF8D7
:101FF700E43EF98F04888289838CF0123450F8A369
:10200700123450F9A3123450FCE54A28F8E439F9A0
:10201700854B82854C83854DF0123450FBA3858216
:102027004B85834C888289838CF0EB122B2A054AD7
:10203700D004D003D002809E8D828E838FF0121D34
:102047004CE58270047582042275820222AD82AE4D
:1020570083AFF0C007C006C0057442C0E07439C042
:10206700E012260115811581D005D006D0078D8293
:102077008E838FF0123450FC7B00C007C006C0056A
:10208700C004C0037464C0E07439C0E0122601E5DF
:102097008124FCF581D005D006D00774012DFAE420
:1020A7003EFB8F048A828B838CF0123450FA75F0D2
:1020B70003A4244FF582740135F0F583E0F9A3E01A
:1020C700FBA3E0FC8A007A00C007C006C005C00178
:1020D700C003C004C000C002746FC0E07439C0E020
:1020E700122601E58124F9F581D005D006D00774C1
:1020F700022DFAE43EFB8F048A828B838CF0123424
:1021070050FA7C00C007C006C005C002C004747E38
:10211700C0E07439C0E0122601E58124FCF581D0C6
:1021270005D006D00774032DFAE43EFB8F048A829C
:102137008B838CF0123450FA7C00C007C006C005B0
:10214700C002C0047489C0E07439C0E0122601E5FA
:102157008124FCF581D005D006D0078D828E838F30
:10216700F0C007C006C005121CC2AC82D005D0065D
:10217700D0077B0074042DF8E43EF98F028882892A
:10218700838AF0123450F87A00C007C006C005C031
:1021970004C003C000C0027494C0E07439C0E012E8
:1021A7002601E58124FAF58174A7C0E07439C0E0FF
:1021B70012260115811581D005D006D00774052D8B
:1021C700FAE43EFB8F0474032DFDE43EFE754E00DA
:1021D7008D828E838FF0123450F8C3E54E98506489
:1021E700C005C006C0078A828B838CF0123450F872
:1021F700A3123450F9A3123450FFE54E28F8E439FE
:10220700F9888289838FF0123450F87F00C007C0A5
:1022170006C005C004C003C002C000C00774AEC03A
:10222700E07439C0E0122601E58124FCF581D00273
:10223700D003D004D005D006D007054ED007D0066E
:10224700D005808C74B4C0E07439C0E01226011543
:102257008115817442C0E07439C0E01226011581EE
:10226700158122AD82AE83AFF0AC1AED4E60217BB3
:1022770000C3EB951950198D828E838FF01234505D
:10228700FAA3AD82AE83EC6A9023A693FC0B80E1A0
:102297008C8222AF82AD41AE420541E4B5410205D1
:1022A70042C007C005C00674B7C0E07439C0E01269
:1022B7002601E58124FCF58174BDC0E07439C0E0D6
:1022C70012260115811581D0077E00C3EE9F502489
:1022D7008E047D00C007C006C004C00574C5C0E0F9
:1022E7007439C0E0122601E58124FCF581D006D0BF
:1022F700070E80D7C00774B4C0E07439C0E0122657
:10230700011581158174CCC0E07439C0E012260133
:1023170015811581D0077E00C3EE9F5072AB4FAC7D
:1023270050AD518B828C838DF0123450FABA100065
:1023370050308A0174012BF54FE43CF5508D5189DB
:10234700007900C007C006C000C00174D2C0E074A5
:1023570039C0E0122601E58124FCF581D006D007BB
:10236700802A74012BF54FE43CF5508D517D00C058
:1023770007C006C002C00574AEC0E07439C0E012E1
:102387002601E58124FCF581D006D0070E808974EB
:0F239700B4C0E07439C0E012260115811581220F
:103942002D2D2D2D2D2D2D2D2D2D2D2D2D2D2D2DA5
:103952002D2D2D2D2D2D2D2D2D2D2D2D2D2D2D0DB5
:103962000A00566572203A2025640D0A00547970C7
:10397200653A202564282573290D0A004164647282
:103982003A2025640D0A0053697A653A2025640DB0
:103992000A0043524320636F6D70203A2025642051
:1039A20025640D0A00444154413A200030782578BC
:0539B20020000D0A00D9
:1023A60000316253C4F5A697B988DBEA7D4C1F2E2F
:1023B6004372211087B6E5D4FACB98A93E0F5C6D1F
:1023C60086B7E4D5427320113F0E5D6CFBCA99A80F
:1023D600C5F4A796013063527C4D1E2FB889DAEBFF
:1023E6003D0C5F6EF9C89BAA84B5E6D740712213EF
:1023F6007E4F1C2DBA8BD8E9C7F6A59403326150DF
:10240600BB8AD9E87F4E1D2C02336051C6F7A495CE
:10241600F8C99AAB3C0D5E6F4170231285B4E7D6BE
:102426007A4B1829BE8FDCEDC3F2A19007366554AE
:1024360039085B6AFDCC9FAE80B1E2D3447526179E
:10244600FCCD9EAF38095A6B4574271681B0E3D28E
:10245600BF8EDDEC7B4A192806376455C2F3A0917E
:102466004776251483B2E1D0FECF9CAD3A0B58696E
:1024760004356657C0F1A293BD8CDFEE79481B2A5E
:10248600C1F0A3920534675678491A2BBC8DDEEF4E
:1024960082B3E0D1467724153B0A5968FFCE9DAC3E
:1039B7002325640D0A00726177203A202000253202
:1039C7006420202000646174613A003078302578E3
:1039D7002000547970655F42636173740054797095
:1039E700655F556361737400547970655F4D6361FA
:1039F700737400547970655F536574416464720031
:103A0700547970655F5365744C454400547970650B
:103A17005F4374726C4D6F746F7200547970655F99
:103A2700526561644164647200547970655F4E6FDA
:033A37006E6500B9
:1024A600AC82AD83AEF0FF53B1BF53B2BF53B17F21
:1024B60053B27F759850438920438780438E1053CB
:1024C600C4DF8C198D1A8E1B8F1C90D4BC75F00F2F
:1024D600E4122A82AC82C3E49CF58DD28ED2992274
:1024E600AC82AD83AEF0FF53B1BF53B2BF53B17FE1
:1024F60053B27F75985043878053C4F843C4208CE9
:10250600198D1A8E1B8F1C90D4BC75F00FE4122AFD
:1025160082AC82AD83AEF0FFE4C39CE49DF9740106
:102526009EE49F89C6C3E49CFC8CC543C408D2992B
:10253600223098FD859982C29822AD82AE83AFF093
:102546003098118D828E838FF0E599122B2AC298CE
:102556007582012275820022AF82C2998F993099C5
:10256600FD22AC82AD83AEF0FF53B1FB53B2FB53F9
:10257600B3BF53B4BF75F85875C40853C4DF8C197C
:102586008D1A8E1B8F1C90D4BC75F00FE4122A8214
:10259600AC82AD83AEF0FFE4C39CE49DF974019E6A
:1025A600E49F89C6C3E49CFC8CC543C4082230F86A
:1025B600FD859A82C2F822AD82AE83AFF030F81163
:1025C6008D828E838FF0E59A122B2AC2F8758201CE
:1025D6002275820022AF82C2F98F9A30F9FD2290CD
:1025E600E100E4F5F01224A690C20075F001E412B1
:1025F6002568C299C2F9D2ACD2AF22C0178581171D
:10260600E51724FDF8868318868218E493A3B4257B
:1026160077C201C202C203C204C205C2067911779B
:1026260000C207E493A324C64017240A5015700578
:10263600B51102D206D205FAE775F00AA42AF78088
:10264600E2240A2430B46C04D20180D7B46804D2E0
:102656000280D0B47303022699B464061229730269
:1026660026F5B47506122973022715B4630518E614
:10267600188017B478030226D4B46603022829B456
:102686002E0679127700809B6006122A65022611B3
:10269600022A7FC083C08286F01886831886821835
:1026A600300519C206C082C0831234506007A315D4
:1026B60011E51170F4122A50D083D0821234506082
:1026C60006A3122A6580F5D082D08302261112262F
:1026D600EC20020C1226EC3001061226EC1226EC37
:1026E600122A77022611E6122A55E618022A56ED14
:1026F60030E71CD204E9F42401F9200212EAF4348A
:1027060000FA30010AEBF43400FBECF43400FC2050
:102716000210300108EB7024EC7021C201EA701C33
:10272600D202E97017200714300509E51160051576
:1027360011122A507430122A65022611C082C083F3
:1027460012298D300560790A30011DEB54F0703680
:1027560019EB540F703019EA54F0702A19EA540F25
:10276600702419EF54F0701E790520020BEF540FF8
:10277600701419EE54F0700E7903EE540F700719A9
:10278600ED54F0700119E511A204994019F511C034
:1027960003C002C007C006C005122A50D005D006E5
:1027A600D007D002D003300419C003C002C007C04E
:1027B60006C005742D122A65D005D006D007D002B2
:1027C600D00320024030012CC005C006C0078A8213
:1027D600EBF583122A55E583122A56E582122A550D
:1027E600E582122A56D0E0F582122A55E582D08378
:1027F600D08280058D828E83EF122A56E583122AB7
:1028060055E58380038D82EE122A56E582122A55FB
:10281600E582122A56122A77D083D0823007012207
:1028260002261130050EE511D39512F511502875C3
:1028360011008023E6547FFA18860308AE82AF8320
:10284600903C067D07E4932BA3E4933A5003A3DD63
:10285600F48D128E828F83C000122955C082C083E8
:10286600EFB47E02801940112482FDC3EA33FAEBED
:1028760033FBEC33FCDDF48006F4247F122AE77583
:10288600F01BE4F8FFFEFD903B9AE933F9EA33FAD0
:10289600EB33FBEC33FC5017E4932DD4FD7401931A
:1028A6003ED4FE7402933FD4FF74039338D4F8A346
:1028B600A3A3A3D5F0D4E47C50FBFAF9E5122323B5
:1028C60054FC8883122AE7ED29D4F516EE3AD4F59E
:1028D60015EF3BD4F514E5833CD4F51392D5D0839C
:1028E600D082D000122955C000C3749E9F5005D0D7
:1028F60000022629C082122AE7D08230D50FE924A9
:1029060001F9E43AFAE43BFBE43CFC40E2D207126C
:10291600271520050CE51260081229457003D5120B
:10292600F4E5126015742E122A657800D20308E8C1
:10293600122945122A56E8B512F4D00002261114BF
:10294600C31392D52413F9E720D501C4540F22E608
:1029560018F9E618FC33E9339204FF600343048058
:10296600E618FBE618FA7900C202D20122E6F9FD62
:1029760018200212AA01E6F91830010AAC02AB01CE
:10298600E6FA18E6F91822E975F06484FE740AC5B9
:10299600F084C445F0FD30020122EA540FF9903A62
:1029A6003A932DD4FDE94410933ED4FEEAC4540F65
:1029B600F9903A5A932DD4FDE94410933ED4FEE99A
:1029C6004420933400D4FF20010122EB540FF990E8
:1029D6003A8A932DD4FDE94410933ED4FEE944206F
:1029E600933FD4FFE43400FAEBC4540FF9903ABA9B
:1029F600932DD4FDE94410933ED4FEE94420933F41
:102A0600D4FFE94430933AD4FAEC540FF9903AFAE9
:102A16007B00122A23ECC4540FF9903B4A932DD421
:102A2600FDE94410933ED4FEE94420933FD4FFE9E8
:102A36004430933AD4FAE94440933BD4FB227420C1
:102A46003006027430122A651511E51170F022C4A1
:102A5600540F7003300319D2032490D43440D4C0E9
:102A660083C082C000F582120434D000D082D083A5
:0C2A7600222003FC7430022A65D01722D5
:103A3A000056126824803692480460167228844020
:103A4A0000020507101215172023252830333538B0
:103A5A000096928884807672686460565248444020
:103A6A000040812263044586276809509132731405
:103A7A000000000101020202030304040405050612
:103A8A0000367208448016528824609632680440D0
:103A9A0000551066217632874298530864197530AA
:103AAA00000613192632394552586572788591985D
:103ABA0000765228048056320884603612886440A0
:103ACA0000857157432814008671574329140086CC
:103ADA000004091419242934384348535863687276
:103AEA000001020304050607080910111213141530
:103AFA000016324864809612284460769208244060
:103B0A00007244168860320577492193653810821D
:103B1A0000775533108866442199775432108865A6
:103B2A0000163350678300173450678401183451E4
:103B3A00000000000000010101010101020202026D
:103B4A00005612682480369248046016722884400F
:103B5A000054096318722781369145005409631885
:103B6A0000438730741761044891357922660953F6
:103B7A000068360573421079471584522189582600
:103B8A00000205081013161821242629323437405A
:103B9A000000005000000025000050120000250619
:103BAA0000501203002556015012780025063900EC
:103BBA00125319005676090028880400144402009A
:103BCA00072201000461000052300000261500009F
:103BDA0063070000810300009101000095000000C6
:103BEA004800000024000000120000000600000047
:103BFA000300000001000000010000007DC5DDC3D4
:0A3C0A0034C2E0BE38BD86BBE4B949
:102A8200FB7A20E4FCFDFEFFE5822582F582E583E8
:102A920033F583E5F033F5F0EB33FB4017DAE980E9
:102AA20042E5822582F582E58333F583E5F033F54D
:102AB200F0EB33FBEC33FCED33FDEE33FEEF33FF93
:102AC200EC9519ED951AEE951BEF951C4013EC95BC
:102AD20019FCED951AFDEE951BFEEF951CFF438246
:052AE20001DABEEB2249
:06004E00E478FFF6D8FD86
:102AE7006040F82582500274FFF582E824F8501EF2
:102AF700CCCBCAF9E4CC24F85014CBCAF9E4CB24E4
:102B0700F8500BCAF9E4CA24F850037900222408C4
:102B17006010F8C3EC13FCEB13FBEA13FAE913F9A3
:102B2700D8F12220F71130F6138883A88220F509FF
:102B3700F6A8837583002280FEF280F5F022C01785
:102B47008581177E008E83120434D0172285826216
:102B570085836385F064E4F55FF560F56185186545
:102B6700902B45022C33C017E581F51724FBFF8F07
:102B770065E4F55FF560F561E51724FBF886620803
:102B87008663088664902B45122C33D01722AF82B8
:102B9700C055C056C057122BA28007C053C0548FD0
:102BA7008222158115811581055DE4B55D02055EFB
:102BB70022AF8274302FFF24C6500B74072FFFE516
:102BC7005260034307208F82022B95E582FFC4548E
:102BD7000FF582C007122BB8D007740F5FF582027A
:102BE7002BB8858219AB58AC59AD5AAE5BAA5C7548
:102BF7001B208A07EF2FF51AEE235401451AFAEB2B
:102C07002BFBEC33FCED33FDEE33FEC3EA951940A5
:102C170008EAC39519FA430301E51B14FF8F1B70DC
:102C2700D18B588C598D5A8E5B8A5C22858253854D
:102C37008354855F55856056856157E4F55DF55E7C
:102C4700AD62AE63AF648D828E838FF0123450FC19
:102C570074012DF562E43EF5638F64ECFF700302A7
:102C67003414BF2502800302340C7E007D008E667B
:102C77008E677A007B008E687C008E69E4F571F5BB
:102C870072756AFF756BFF856273856374856475FA
:102C97008573828574838575F0123450F576A38524
:102CA70082738583748573628574638575647425FF
:102CB700B57608857682122B95808574D025764067
:102CC70003022D75E57624C65003022D7574FFB5F2
:102CD7006A55B56B5285711985721A90000AC0063C
:102CE700C005C004C003C0021234338582778583D0
:102CF70078D002D003D004D005D006857679757ACE
:102D070000E5792577F579E57A3578F57AE5792457
:102D1700D0F571E57A34FFF572E57145726003020B
:102D27002C977D01022C97856A19856B1A90000AEA
:102D3700C006C005C004C003C002123433858279BF
:102D470085837AD002D003D004D005D00685767764
:102D5700757800E5772579F579E578357AF57AE5B7
:102D67007924D0F56AE57A34FFF56B022C97742E37
:102D7700B5761574FFB56A05B56B028003022C970B
:102D8700E4F56AF56B022C97749F2576500EE5766D
:102D9700248540085376DF7552018003755200740D
:102DA70020B57603022E41742BB57603022E3B74B1
:102DB7002DB5760280797442B57603022E477443A7
:102DC700B57603022E527444B5760302309F7446DB
:102DD700B576030230B57448B57603022C9774496B
:102DE700B5760302309F744AB57603022C97744C6C
:102DF700B576028050744FB576030230A67450B58D
:102E07007603022FEA7453B5760280767454B5764A
:102E170003022C977455B576030230AB7458B57618
:102E2700030230B0745AB57603022C970230B97E8C
:102E370001022C97756601022C97756701022C9782
:102E47007B01022C97756801022C97EB600AE565F8
:102E570014F989658779800DE56524FEF57785770F
:102E670065A9778779857982C006C005C004C00344
:102E7700C002122B95D002D003D004D005D0060291
:102E870030DBE56524FDF579857965A979877309CF
:102E97008774098775191985735885745985755A03
:102EA7008573828574838575F0C006C005C004C02C
:102EB70003C00212341B85827985837AD002D0033E
:102EC700D004D005D00674FFB56A09B56B068579BD
:102ED7006A857A6BEE704FC3E5799571E57A9572DD
:102EE7005044E571C39579F577E572957AF578855C
:102EF7007773857874157774FFB577021578E5735E
:102F07004574601C758220C006C005C004C003C09C
:102F170002122B95D002D003D004D005D00680CF63
:102F2700857771857872856A77856B78855882850C
:102F37005983855AF0123450F57385736E604FC309
:102F4700E4957774808578F063F08095F0503F15AD
:102F57007774FFB577021578856E82C006C005C005
:102F670004C003C002122B95D002D003D004D005B1
:102F7700D006855873855974855A750573E4B573FA
:102F870002057485735885745985755A809EEE704D
:102F9700030230DBC3E5799571E57A957240030248
:102FA70030DBE571C39579F579E572957AF57A8520
:102FB7007977857A78157974FFB57902157AE57787
:102FC700457870030230D5758220C006C005C0045D
:102FD700C003C002122B95D002D003D004D005D075
:102FE7000680CCE56524FDF577857765A977877336
:102FF70009877409877519198573588574598575F3
:103007005A855A6F7480256F5005757743801974F8
:10301700A0256F5005757750800E74C0256F500539
:103027007577498003757758857782C006C005C0D4
:1030370004C003C002122B9575823A122B95758234
:1030470030122B95758278122B95D002D003D004BD
:10305700D005D0067449B5770280217450B5770240
:10306700801A855982C006C005C004C003C0021279
:103077002BD2D002D003D004D005D006855882C009
:1030870006C005C004C003C002122BD2D002D00371
:10309700D004D005D006803C7A0175690A80357561
:1030A7006908803075690A802B75691080267C0154
:1030B7008022857682C006C005C004C003C0021204
:1030C7002B95D002D003D004D005D0068006857991
:1030D70071857A72EC6068E56524FCFC8C658C016F
:1030E700877B09877C09877D09877E191919857B65
:1030F70058857C59857D5A857E5B75581475593C72
:10310700755A8085587B85597C855A7D7401257B46
:10311700F573E4357CF574857D7585735885745929
:1031270085755A857B82857C83857DF0123450FCBA
:103137008C7B7003022C47857B82122B9580C4E51C
:10314700697003022C47EB603FE56514F9896587D1
:10315700048C7B757C00757D00757E00857B5885AA
:103167007C59857D5A857E5BEA60030231F8855874
:103177007B757C00757D00757E00857B58857C5945
:10318700857D5A857E5B8069E5686025E56524FC59
:10319700FC8C658C01877B09877C09877D09877E85
:1031A700191919857B58857C59857D5A857E5B80E1
:1031B70040E56524FEFC8C658C01870309870419AB
:1031C7008B7BECF57C3395E0F57DF57E857B58852B
:1031D7007C59857D5A857E5BEA701685587B8559B3
:1031E7007CF57DF57E857B58857C59857D5A857E66
:1031F7005BEA602AE55B30E723C3E49558F57BE497
:103207009559F57CE4955AF57DE4955BF57E857BCC
:1032170058857C59857D5A857E5B80027A007C01C2
:103227007984E4F57BF57C755C00856982C006C00E
:1032370005C004C002C001122BE9D001D002D0049E
:10324700D005D006EC700DE55CC4F579E7FB457950
:10325700F7198002A75C057BE4B57B02057CECB41B
:103267000100E433FCE5584559455A455B70B88978
:1032770070857B6C857C6DE5714572700575710194
:10328700F572ED7043EE704085717B85727CAB6C97
:103297000B8B79757A00C3E579957BE57A957C5038
:1032A70021758220C006C005C004C002122B95D02C
:1032B70002D004D005D006157B74FFB57B02157CC0
:1032C70080CC857B71857C72EA601D75822DC00676
:1032D700C005C004122B95D004D005D00615717413
:1032E700FFB5710215728046E56C456D6040E56675
:1032F700601D75822BC006C005C004122B95D00433
:10330700D005D006157174FFB571021572801FE5DF
:1033170067601B758220C006C005C004122B95D0BC
:1033270004D005D006157174FFB571021572EE70E1
:103337003C85717B85727CAA7BAB7C157B74FFB562
:103347007B02157CC3E56C9AE56D9B5041ED6006E9
:103357007A307B0080047A207B008A82C006C00511
:10336700C004122B95D004D005D00680CAC3E56CE3
:103377009571E56D9572500FE571C3956CF579E51B
:1033870072956DF57A800DE4F579F57A8006857B7F
:1033970079857C7AA970856C7B856D7CAA7BAD7CF1
:1033A700157B74FFB57B02157CEA4D602EECB401EA
:1033B70000E433FC700A09E7C4540FFD8D5C8007F5
:1033C7008705740F5DF55C855C82C006C004C0018B
:1033D700122BB8D001D004D00680C1EE7003022CA6
:1033E70047AD79AE7A8D038E041DBDFF011EEB4CF0
:1033F7007003022C47758220C006C005122B95D09A
:1034070005D00680E08F82122B95022C47855D82BE
:04341700855E832229
:0B3C14003C4E4F20464C4F41543E00F8
:10341B00AA82AB831234506003A380F8C3E5829A6F
:10342B00F582E5839BF58322E5828519F0A4C5829D
:10343B00C0F0851AF0A4D0F025F0C5838519F0A44F
:05344B002583F583223A
:0D004100758184121A2DE582600302003ED5
:1034500020F71430F6148883A88220F507E6A883A5
:0C34600075830022E280F7E49322E02252
:00000001FF
