:040000000200413287
:03000B000204AD3F
:0100130032BA
:01001B0032B2
:0100230032AA
:01002B0032A2
:01003300329A
:03003B000204C4F8
:10005400752800752C00752200E4F523F524900022
:1000640015F09000167460F07409A3F0E4A3F0A3F3
:10007400F090001A7480F07470A3F0E4A3F0A3F07D
:1000840090001EF07496A3F0E4A3F0A3F090002275
:10009400F074E1A3F0E4A3F0A3F0900026F074C29E
:1000A400A3F07401A3F0E4A3F090002AF07484A3F5
:1000B400F07403A3F0E4A3F090002E74E0F07493C2
:1000C400A3F07404A3F0E4A3F0900032F07408A346
:1000D400F014A3F0E4A3F09000367420F074A1A30C
:1000E400F07407A3F0E4A3F090003A74C0F074270E
:1000F400A3F07409A3F0E4A3F090003E7460F074DC
:10010400AEA3F0740AA3F0E4A3F0900042F07435B7
:10011400A3F0740CA3F0E4A3F090004674A0F07470
:10012400BBA3F0740DA3F0E4A3F090004AF07410A4
:09013400A3F0740EA3F0E4A3F0A3
:0302CA0002003EF1
:03003E00020A4B68
:1002CD00AF82E5227009C2998F9920990980FBC2EE
:1002DD00F98F9A30F9FD22AF827E007D00EE030387
:1002ED00543FFCEF30E00674404CFE800474804CAB
:1002FD00FEEFC313FF0DBD040040E28E8222AF82DC
:10030D00752201C0071202E41202CDD007EFC454CA
:10031D000FF5821202E40202CD7522017582F012F0
:10032D0002CD7582F01202CD7582F01202CD75826A
:10033D00F00202CDAF82C0077410C0E07420C0E09F
:10034D00121AB015811581D007BF0002800ABF01B6
:10035D00028016BF023380227413C0E07420C0E007
:10036D00121AB01581158180207419C0E07420C057
:10037D00E0121AB015811581800F741FC0E0742032
:10038D00C0E0121AB015811581AE227F00C006C0E3
:10039D00077425C0E07420C0E0121AB0E58124FC7A
:1003AD00F58122AF82BF0D028004BF1B1122743E66
:1003BD00C0E07420C0E0121AB015811581227E00B4
:1003CD00C007C0067441C0E07420C0E0121AB0E549
:1003DD008124FCF58122AF82741BB5250280028039
:1003ED0079AE268E22AC227D00C007C006C004C0A7
:1003FD00057444C0E07420C0E0121AB0E58124FCFD
:10040D00F581D006D007BF0002800DBF010280210B
:10041D00BF020280350204AA7F018E22758201C0BF
:10042D0007120341852722758201120341D00780EF
:10043D006C7F028E22758202C0071203418527222E
:10044D00758202120341D00780537F008E22758280
:10045D0000C007120341D0078043BF0002800ABFCE
:10046D0001028014BF0236801E852622852582C09A
:10047D00071203B0D0078025852722852582C00766
:10048D001203B0D0078016852622852582C007125B
:10049D0003B08527228525821203B0D0078F8222D3
:1004AD00C0E0C0D0758CFF758AF30523E4B5230237
:1004BD000524D0D0D0E032C0E0E5EC75EC00D0E002
:1004CD0032AF827E00EE2EFD8DF005F0EF8002C37F
:1004DD0013D5F0FBFC5304017B00ED04F5F005F0A2
:1004ED00EF8002C313D5F0FBFD5305017A00ECB587
:1004FD000508EBB50204758200220EBE040040C54E
:10050D0075820122AF827E007D04EF30E003430649
:10051D0080EF0303543FFFEEC313FEDDED8E822209
:10052D00AF827E007D04EEC313FEEF30E003430681
:10053D0080EF0303543FFFDDED8E8222AE8753061D
:10054D00107F00BE1041BF003EAF84AE857D00EF31
:10055D002FFFED33FD5306017C00EE2FFFEC3DFD2B
:10056D00EF24F1FFED34FFFD8F06530601EDC313AC
:10057D00CF13CFFD75C7AA75C7558F8475C7AA75DB
:10058D00C7558E855387EF22AF82752201BF31018A
:10059D0022BF320122BF33028032BF340122BF504D
:1005AD00028049BF5303020639BF5402805EBF5615
:1005BD0003020649BF70028023BF7302805EBF74C1
:1005CD00028039BF7603020649020659745BC0E00A
:1005DD007420C0E0121AB015811581227472C0E02A
:1005ED007420C0E0121AB015811581227485C0E007
:1005FD007420C0E0121AB015811581227497C0E0E5
:10060D007420C0E0121AB0158115812274ACC0E0BF
:10061D007420C0E0121AB0158115812274C2C0E099
:10062D007420C0E0121AB0158115812274DAC0E071
:10063D007420C0E0121AB0158115812274F1C0E04A
:10064D007420C0E0121AB01581158122740BC0E020
:10065D007421C0E0121AB0158115817422C0E074A6
:10066D0021C0E0121AB0158115817439C0E07421D2
:10067D00C0E0121AB015811581745AC0E07421C002
:10068D00E0121AB0158115817475C0E07421C0E0B7
:10069D00121AB0158115817494C0E07421C0E01256
:1006AD001AB01581158174B5C0E07421C0E0121A1D
:1006BD00B0158115812275B10075B20075B3007545
:1006CD00B40075AC0075AD0043B32053B4DF43B136
:1006DD000453B2FB43B18053B27F53B3BF43B44015
:1006ED0053B3F743B40853B3EF43B41053B3FB43C1
:1006FD00B40453B3FD43B40253B3FE43B40153B139
:10070D00FE43B20153B1FD43B20253B1EF43B210F8
:10071D0053B1F743B208C296D292D293D294C2800B
:10072D00C281C284C28322AF827E04EFB52814AB8E
:10073D0018AC19AD1A8B828C838DF0E4121FD9750C
:10074D00820422AB18AC19AD1A8B828C838DF0E428
:10075D00121FD97A008AF005F0E5288002C313D55F
:10076D00F0FBF85300017900B80005B90002805480
:10077D00B80105B90002800302081B8AF005F0EFED
:10078D008002C313D5F0FBF85300017900B80005C2
:10079D00B90002800302081B8F288B828C838DF099
:1007AD00121FF4F98A0088F005F07401800225E02B
:1007BD00D5F0FBF842018B828C838DF0E9121FD9A5
:1007CD007E00804A8AF005F0EF8002C313D5F0FB5E
:1007DD00F85300017900B80005B900028030B80166
:1007ED002DB9002A8F288B828C838DF0121FF4F97E
:1007FD008A0088F005F07401800225E0D5F0FBF841
:10080D0042018B828C838DF0E9121FD97E010ABAC9
:10081D00050050030207628E8222E582FF6054EFCD
:10082D0030E002B294EF30E102B293EF30E202B267
:10083D0092EF30E348900015E0FF24FC4024EF2FA9
:10084D00900851738006800A800E8012C281C2808A
:10085D008010D281C280800AD281D2808004C28170
:10086D00D280900015EF04F0E0FFBF04109000154A
:10087D00E4F022D294D293D292C281C28022AF826E
:10088D00E518C4540FFE53070FE4FDFCEEB5070841
:10089D00ECB505047582012275820022AD82AE830E
:1008AD00AFF074012DFAE43EFB8F048A828B838CAA
:1008BD00F0121FF4FC24F9500122EC2C2C9008CEE0
:1008CD00730209D60209D60209D60209D60208E337
:1008DD000209670209BD74052DF529E43EF52A8F3D
:1008ED002B852982852A83852BF0121FF4F8A312FC
:1008FD001FF4F9A3121FF4FC888289838CF0121F58
:10090D00F424FF9294852982852A83852BF0121F6A
:10091D00F4FAA3121FF4FBA3121FF4FC0ABA000190
:10092D000B8A828B838CF0121FF424FF92938529FE
:10093D0082852A83852BF0121FF4FAA3121FF4FB74
:10094D00A3121FF4FC74022AFAE43BFB8A828B8308
:10095D008CF0121FF424FF92922274052DFDE43EBB
:10096D00FE8D828E838FF0121FF4FAA3121FF4FBFB
:10097D00A3121FF4FC0ABA00010B8A828B838CF040
:10098D00121FF424FF92808D828E838FF0121FF43C
:10099D00FDA3121FF4FEA3121FF4FF74022DFDE43C
:1009AD003EFE8D828E838FF0121FF424FF928122E2
:1009BD00AE217F00C006C00774E2C0E07421C0E024
:1009CD00121AB0E58124FCF58122AD82AE83AFF021
:1009DD0074012DFAE43EFB8F048A828B838CF01216
:1009ED001FF4FC6058BC020122BC035130954E74BB
:1009FD00022DFDE43EFE8D828E838FF0121FF4FCDE
:100A0D007B00C007C006C005C004C00374F7C0E07A
:100A1D007421C0E0121AB0E58124FCF581D005D017
:100A2D0006D0078D828E838FF0121FF4F52190373B
:100A3D00001210D78521109037000210EB227F0095
:100A4D00754C01754D02754E03754F047550057546
:100A5D0051017552008F538F547D00C007C0051290
:100A6D0006C3121A9490E100E4F5F0121A1712055C
:100A7D0049538EF7D2A9D28C752200740BC0E07445
:100A8D0022C0E0121AB015811581752201741BC0A8
:100A9D00E07422C0E0121AB015811581D005D0077F
:100AAD007B307C7500000000001BBBFF011CEB4C74
:100ABD0070F2F522A282A295E433FC439B02D2AFE1
:100ACD00208202D284903700E493F52190002D7599
:100ADD00F040C007C005C0041219EFE582D004D064
:100AED0005D0077003020D247431B52D02804274B8
:100AFD0032B52D0280777433B52D03020BB67434E5
:100B0D00B52D03020BF27435B52D03020C2E743680
:100B1D00B52D03020C4C7437B52D03020C887438B7
:100B2D00B52D03020CC37474B52D03020CFE020D1A
:100B3D0024B296C007C005C004742BC0E07422C057
:100B4D00E0121AB015811581A296E433FA7B00C02C
:100B5D0002C0037434C0E07422C0E0121AB0E58103
:100B6D0024FCF581D004D005D007020D24B294C029
:100B7D0007C005C0047439C0E07422C0E0121AB079
:100B8D0015811581A294E433FA7B00C002C0037471
:100B9D0034C0E07422C0E0121AB0E58124FCF58166
:100BAD00D004D005D007020D24B293C007C005C0F4
:100BBD00047440C0E07422C0E0121AB01581158192
:100BCD00A293E433FA7B00C002C0037434C0E07416
:100BDD0022C0E0121AB0E58124FCF581D004D005C5
:100BED00D007020D24B292C007C005C0047447C0DF
:100BFD00E07422C0E0121AB015811581A292E4337F
:100C0D00FA7B00C002C0037434C0E07422C0E0124D
:100C1D001AB0E58124FCF581D004D005D007020D72
:100C2D0024C007C005C004744EC0E07422C0E01299
:100C3D001AB015811581D004D005D007020D24B24C
:100C4D0080C007C005C004745CC0E07422C0E0120F
:100C5D001AB015811581A280E433FA7B00C002C061
:100C6D00037434C0E07422C0E0121AB0E58124FC94
:100C7D00F581D004D005D007020D24B281C007C084
:100C8D0005C0047466C0E07422C0E0121AB015816C
:100C9D001581A281E433FA7B00C002C0037434C015
:100CAD00E07422C0E0121AB0E58124FCF581D00475
:100CBD00D005D0078061B284C007C005C00474712F
:100CCD00C0E07422C0E0121AB015811581A284E42F
:100CDD0033FA7B00C002C0037434C0E07422C0E05C
:100CED00121AB0E58124FCF581D004D005D007801F
:100CFD0026C007C005C004C023C024747DC0E074A5
:100D0D0022C0E0121AB0E58124FCF581D004D00593
:100D1D00D007E4F523F5248C03A295E433FAEBB563
:100D2D000202805DA295E433FA7B00C007C005C0C6
:100D3D0002C0037488C0E07422C0E0121AB0E581CD
:100D4D0024FCF581D005D007209531052CE52C54D8
:100D5D000124FF9294E52C03540124FFE433FB247A
:100D6D00FF9293E52C0303540124FFE433FA24FF8F
:100D7D009292EB24FF9280EA24FF9281A295E433B4
:100D8D00FCA295A282BF0002800DBF01028034BF7C
:100D9D000202806F020AD990002D75F040C007C085
:100DAD0005C00412125AE582D004D005D007700395
:100DBD00020AD9E4F523F524755401852D2E7F0102
:100DCD00020AD990002D75F040C007C005C004126D
:100DDD00125AE582D004D005D0076012E4F523F550
:100DED0024AB540554EB242EF8A62D020AD9C37456
:100DFD00E89523740395244003020AD9AD547F026C
:100E0D00020AD9BD0141852E18758203C005C004A3
:100E1D0012088BE582D004D0056027AA2E7B00C076
:100E2D0005C004C002C0037494C0E07422C0E01277
:100E3D001AB0E58124FCF581852D82120827D00496
:100E4D00D0057F00020AD9BD0800506D8D027B00D0
:100E5D00C005C004C002C003749CC0E07422C0E091
:100E6D00121AB0E58124FCF581D004D0057B00C3B6
:100E7D00EB9D502CEB242EF987027E00C005C0049B
:100E8D00C003C002C00674A9C0E07422C0E0121AEB
:100E9D00B0E58124FCF581D003D004D0050B80CFC3
:100EAD00C005C0047410C0E07420C0E0121AB01563
:100EBD00811581D004D005803E75622E7563007555
:100ECD00644075654C7566007567408D82C005C0C0
:100EDD000412139390004C75F0401209D7D004D032
:100EED0005E54EB5211190004C75F040C005C004CC
:0C0EFD001208A9D004D0057F00020AD919
:102010000A0D0073656C66200063726F7373006253
:102020006F74682000206F75747075743A54686915
:1020300073206973205541525425640A0D000D0A1E
:10204000002563000D0A696E7075743A54686973EF
:10205000206973205541525425640049646C652001
:10206000707265616D626C65206F6E2F6F66660DB4
:102070000A004C696E65466920506F776572204F83
:1020800066660D0A004C696E65466920506F77657B
:1020900072204F6E0D0A004C696E654669205561CD
:1020A0007274205478204C6F770D0A004C696E656D
:1020B0004669205561727420547820486967680D1C
:1020C0000A004C696E6546692043534320727820AC
:1020D00046534D204F66660D0A004C696E65466991
:1020E000204353432072782046534D204F4E0D0A13
:1020F0000056657273696F6E20312E34206F6E202A
:1021000032303233313032360D0A00313A20646FCA
:10211000776E6C696E6B207061636B657420310D36
:102120000A00323A20646F776E6C696E6B207061C2
:10213000636B657420320D0A00333A2075706C6948
:102140006E6B2069646C6520707265616D626C6590
:10215000206F6E2F6F66660D0A00702F503A204C6C
:10216000696E65466920506F776572206F66662FCD
:102170006F6E0D0A00742F543A204C696E654669E3
:102180002055617274205478204C6F772F4869670E
:10219000680D0A00732F533A204C696E65466965D5
:1021A000204353432052782046534D206F66662FBC
:1021B0006F6E0D0A00746573742070726F636564CE
:1021C0007572653A2070202D3E2050202D3E2054FF
:1021D000202D3E2053202D3E2031206F7220320DC5
:1021E0000A004D79206164647265737320697320FD
:1021F000307825780D0A0073657420616464726517
:1022000073732061732025640D0A0054686973207C
:1022100069732055415254300A0D00546869732087
:1022200069732055415254310A0D00554152545F93
:1022300054583D0025640A0D004C45445F523D0052
:102240004C45445F473D004C45445F423D006E6F46
:10225000204D4F544F525F454E0D0A004D4F544F85
:10226000525F43573D004D4F544F525F4343573DDC
:102270000053454C5F52585F504F4C3D00636F75A3
:102280006E743A25640D0A005357495443483A2561
:10229000640A0D0052783A25640A0D0052782073C2
:0F22A000697A653A25640A0D00307825782000A8
:1037000000000000000000000000000000000000B9
:1037100000000000000000000000000000000000A9
:103720000000000000000000000000000000000099
:103730000000000000000000000000000000000089
:103740000000000000000000000000000000000079
:103750000000000000000000000000000000000069
:103760000000000000000000000000000000000059
:103770000000000000000000000000000000000049
:100F090075C7AA75C75575FD5A75C7AA75C75575A9
:100F1900FDA575820022AC82AD83AEF0FF538EF73A
:100F2900438901D28CEC4D4E4F601A758A76758CC7
:100F3900FF108D0280FB1CBCFF091DBDFF051EBEF5
:100F4900FF011F80E0C28C22AC82AD83AEF0FF535B
:100F59008EF7438901D28CEC4D4E4F601A758A98F1
:100F6900758CFA108D0280FB1CBCFF091DBDFF05A5
:100F79001EBEFF011F80E0C28C22AC82AD83AEF0A1
:100F8900FF538EEF438910D28EEC4D4E4F601A7588
:100F99008BF6758DC9108F0280FB1CBCFF091DBD26
:100FA900FF051EBEFF011F80E0C28E22AC82AD8309
:100FB900AEF0FF53C9BF53C9DF43C910D2CAEC4DC4
:100FC9004E4F601A75CCE575CDF710CF0280FB1C2A
:100FD900BCFF091DBDFF051EBEFF011F80E0C2CA7F
:100FE90022AC82AD83AEF0FF75C40743C408EC4D53
:100FF9004E4F602575C55775C6CDAAC45302107BDF
:1010090000BA10F6BB00F353C4EF1CBCFF091DBDA9
:10101900FF051EBEFF011F80D553C4F722AC82AD68
:1010290083AEF0FF75C40743C408EC4D4E4F6025ED
:1010390075C5D775C6FFAAC45302107B00BA10F64E
:10104900BB00F353C4EF1CBCFF091DBDFF051EBE49
:10105900FF011F80D553C4F722AF82A2AF9200C20D
:10106900AF75C7AA75C755439F01A20092AFE51B8B
:101079006013A2AF9200C2AF75C7AA75C75543A541
:1010890001A20092AF8519A68518A7851AAE8FAF60
:10109900A2AF9200C2AF75C7AA75C75543A401A2F2
:1010A9000092AFE51B6026A2AF9200C2AF75C7AA36
:1010B90075C75553A5FEA20092AFA2AF9200C2AF69
:1010C90075C7AA75C755539FFEA20092AF22AE827B
:1010D900AF838F188E19751AFF751B01758222024D
:1010E9001062AE82AF838F188E1985101A751B0195
:1010F90075822102106275180075190C751A007530
:101109001B00758204121062AFAE75180075190DB7
:10111900751A00751B00758204C007121062D0078A
:10112900E5AE540FFEA2AF9200C2AF75C7AA75C74C
:1011390055539FFEA20092AFE4C454F0CFC4CF6FC1
:10114900CF54F0CF6FFD7C00EE2FF582EC3DF58397
:1011590022858219751800751A00751B007582049D
:1011690012106285AE82A2AF9200C2AF75C7AA758E
:0A117900C755539FFEA20092AF225B
:10013D00E4F55FF56090004E7446F07423A3F074FF
:10014D0080A3F09000517451F07423A3F07480A338
:10015D00F0900054745CF07423A3F07480A3F090BD
:10016D0000577467F07423A3F07480A3F090005AC5
:10017D007474F07423A3F07480A3F090005D748008
:10018D00F07423A3F07480A3F0900060748FF0746A
:10019D0023A3F07480A3F0900063749DF07423A3E7
:1001AD00F07480A3F0900066749DF07423A3F07436
:1001BD0080A3F0900069749DF07423A3F07480A364
:1001CD00F090006C749DF07423A3F07480A3F090F4
:1001DD00006F749DF07423A3F07480A3F0900072EF
:1001ED00749DF07423A3F07480A3F0900075749D3A
:1001FD00F07423A3F07480A3F0900078749DF074D4
:10020D0023A3F07480A3F090007B749DF07423A35E
:10021D00F07480A3F090007E749DF07423A3F074AD
:10022D0080A3F0900081749DF07423A3F07480A3DB
:10023D00F0900084749DF07423A3F07480A3F0906B
:10024D000087749DF07423A3F07480A3F090008A4E
:10025D00749DF07423A3F07480A3F090008D749DB1
:10026D00F07423A3F07480A3F0900090749DF0744B
:10027D0023A3F07480A3F0900093749DF07423A3D6
:10028D00F07480A3F0900096749DF07423A3F07425
:10029D0080A3F0900099749DF07423A3F07480A353
:1002AD00F090009C749DF07423A3F07480A3F090E3
:0D02BD00009F749DF07423A3F07480A3F0E3
:10118300AD82AE83AFF074032DFDE43EFE8D828EFF
:10119300838FF0121FF42405F58222AD82AE83AF54
:1011A300F08D028E038F047518047519FF8A828BE4
:1011B300838CF0C007C006C005121719858219D0A9
:1011C30005D006D00774052DFAE43EFB8F048A820E
:1011D3008B838CF0121FF4FAA3121FF4FBA3121FCC
:1011E300F4FC74032DFDE43EFE8D828E838FF0129A
:1011F3001FF4F5188A828B838CF0021719AD82AE27
:1012030083AFF0C007C006C00512119EAC82D005A3
:10121300D006D00774042DFDE43EFE8D828E838FAD
:10122300F0EC021FD9AD82AE83AFF0C007C006C099
:101233000512119EAC82D005D006D00774042DFD93
:10124300E43EFE8D828E838FF0121FF4B504047585
:1012530082012275820022021A6C021A8AAD82AEC2
:1012630083AFF0C007C006C00512119EAC82D00543
:10127300D006D0078D018E028F0389828A838BF07B
:10128300121FF4F58209B900010AC007C006C005A0
:10129300C004C003C002C00112125DD001D002D04D
:1012A30003D004D005D006D00789828A838BF0123D
:1012B3001FF4F58209B900010AC007C006C005C0C2
:1012C30004C003C002C00112125DD001D002D003DA
:1012D300D004D005D006D00789828A838BF0121FF1
:1012E300F4F809B900010A8882C007C006C005C026
:1012F30004C003C002C00112125DD001D002D003AA
:1013030089828A838BF0121FF4F58212125DD00456
:101313008C8212125DD005D006D00774052DFAE435
:101323003EFB8F0474032DFDE43EFE7561008D8248
:101333008E838FF0121FF4F8C3E561985051C005F6
:10134300C006C0078A828B838CF0121FF4F8A312A5
:101353001FF4F9A3121FF4FFE56128F8E439F988B3
:101363008289838FF0121FF4F582C007C006C0057F
:10137300C004C003C00212125DD002D003D004D057
:1013830005D006D0070561D007D006D005809F227F
:10139300AF82BF0500500475820322AD65AE66AF10
:1013A30067AA62AB63AC648A828B838CF0121FF4EE
:1013B300F974012AF562E43BF5638C648D828E83B4
:1013C3008FF0E9121FD90DBD00010EAA62AB63AC09
:1013D300648A828B838CF0121FF4F974012AF562FC
:1013E300E43BF5638C648D828E838FF0E9121FD901
:1013F3000DBD00010EAA62AB63AC648A828B838C41
:10140300F0121FF4F974012AF562E43BF5638C646E
:101413008D828E838FF0E9121FD90DBD00010EAAB4
:1014230062AB63AC648A828B838CF0121FF4F97411
:10143300012AF562E43BF5638C648D828E838FF021
:10144300E9121FD90DBD00010EAA62AB63AC648A19
:10145300828B838CF0121FF4F974012AF562E43B4A
:10146300F5638C648D828E838FF0E9121FD9AD658D
:10147300AE66AF6774032DFAE43EFB8F04856269A1
:1014830085636A85646B7568008A828B838CF0122E
:101493001FF4F8C3E568985052C002C003C0047437
:1014A300052DF8E43EF98F04888289838CF0121F9E
:1014B300F4F8A3121FF4F9A3121FF4FCE56828F84B
:1014C300E439F9856982856A83856BF0121FF4FB21
:1014D300A385826985836A888289838CF0EB121FD6
:1014E300D90568D004D003D002809E8D828E838F6D
:1014F300F0121228E582700475820422758202229A
:10150300AD82AE83AFF0C007C006C00574AFC0E0C4
:101513007422C0E0121AB015811581D005D006D00F
:10152300078D828E838FF0121FF4FC7B00C007C0EF
:1015330006C005C004C00374D1C0E07422C0E01229
:101543001AB0E58124FCF581D005D006D0077401DB
:101553002DFAE43EFB8F048A828B838CF0121FF4F6
:10156300FA75F003A4244EF582740035F0F583E098
:10157300F9A3E0FBA3E0FC8A007A00C007C006C021
:1015830005C001C003C004C000C00274DCC0E07425
:1015930022C0E0121AB0E58124F9F581D005D00606
:1015A300D00774022DFAE43EFB8F048A828B838C6E
:1015B300F0121FF4FA7C00C007C006C005C002C0C9
:1015C3000474EBC0E07422C0E0121AB0E58124FC7D
:1015D300F581D005D006D00774032DFAE43EFB8FC6
:1015E300048A828B838CF0121FF4FA7C00C007C03C
:1015F30006C005C002C00474F6C0E07422C0E01245
:101603001AB0E58124FCF581D005D006D0078D8280
:101613008E838FF0C007C006C00512119EAC82D026
:1016230005D006D0077B0074042DF8E43EF98F0241
:10163300888289838AF0121FF4F87A00C007C006F3
:10164300C005C004C003C000C0027401C0E074231D
:10165300C0E0121AB0E58124FAF5817414C0E07475
:1016630023C0E0121AB015811581D005D006D0072A
:1016730074052DFAE43EFB8F0474032DFDE43EFE56
:10168300756C008D828E838FF0121FF4F8C3E56CA6
:10169300985064C005C006C0078A828B838CF01201
:1016A3001FF4F8A3121FF4F9A3121FF4FFE56C282B
:1016B300F8E439F9888289838FF0121FF4F87F00E8
:1016C300C007C006C005C004C003C002C000C007F5
:1016D300741BC0E07423C0E0121AB0E58124FCF54A
:1016E30081D002D003D004D005D006D007056CD03A
:1016F30007D006D005808C7421C0E07423C0E012AB
:101703001AB01581158174AFC0E07422C0E0121ABB
:10171300B01581158122AD82AE83AFF0AC19ED4EC9
:1017230060217B00C3EB951850198D828E838FF057
:10173300121FF4FAA3AD82AE83EC6A90185593FCA2
:101743000B80E18C8222AF82AD5FAE60055FE4B5B2
:101753005F020560C007C005C0067424C0E074239F
:10176300C0E0121AB0E58124FCF581742AC0E0744C
:1017730023C0E0121AB015811581D0077E00C3EE95
:101783009F50248E047D00C007C006C004C00574AA
:1017930032C0E07423C0E0121AB0E58124FCF58165
:1017A300D006D0070E80D7C0077421C0E07423C0D1
:1017B300E0121AB0158115817439C0E07423C0E0BA
:1017C300121AB015811581D0077E00C3EE9F5072A7
:1017D300AB6DAC6EAD6F8B828C838DF0121FF4FA00
:1017E300BA100050308A0174012BF56DE43CF56E9C
:1017F3008D6F89007900C007C006C000C001743F27
:10180300C0E07423C0E0121AB0E58124FCF581D056
:1018130006D007802A74012BF56DE43CF56E8D6FBD
:101823007D00C007C006C002C005741BC0E074235E
:10183300C0E0121AB0E58124FCF581D006D0070E72
:1018430080897421C0E07423C0E0121AB015811599
:021853008122F0
:1022AF002D2D2D2D2D2D2D2D2D2D2D2D2D2D2D2D4F
:1022BF002D2D2D2D2D2D2D2D2D2D2D2D2D2D2D0D5F
:1022CF000A00566572203A2025640D0A0054797071
:1022DF00653A202564282573290D0A00416464722C
:1022EF003A2025640D0A0053697A653A2025640D5A
:1022FF000A0043524320636F6D70203A20256420FB
:10230F0025640D0A00444154413A20003078257865
:05231F0020000D0A0082
:1018550000316253C4F5A697B988DBEA7D4C1F2E8B
:101865004372211087B6E5D4FACB98A93E0F5C6D7B
:1018750086B7E4D5427320113F0E5D6CFBCA99A86B
:10188500C5F4A796013063527C4D1E2FB889DAEB5B
:101895003D0C5F6EF9C89BAA84B5E6D7407122134B
:1018A5007E4F1C2DBA8BD8E9C7F6A594033261503B
:1018B500BB8AD9E87F4E1D2C02336051C6F7A4952B
:1018C500F8C99AAB3C0D5E6F4170231285B4E7D61B
:1018D5007A4B1829BE8FDCEDC3F2A190073665540B
:1018E50039085B6AFDCC9FAE80B1E2D344752617FB
:1018F500FCCD9EAF38095A6B4574271681B0E3D2EB
:10190500BF8EDDEC7B4A192806376455C2F3A091DA
:101915004776251483B2E1D0FECF9CAD3A0B5869CA
:1019250004356657C0F1A293BD8CDFEE79481B2ABA
:10193500C1F0A3920534675678491A2BBC8DDEEFAA
:1019450082B3E0D1467724153B0A5968FFCE9DAC9A
:102324002325640D0A00726177203A2020002532AB
:102334006420202000646174613A0030783025788C
:102344002000547970655F4263617374005479703E
:10235400655F556361737400547970655F4D6361A3
:10236400737400547970655F5365744164647200DA
:10237400547970655F5365744C45440054797065B5
:102384005F4374726C4D6F746F7200547970655F43
:10239400526561644164647200547970655F4E6F84
:0323A4006E650063
:10195500AC82AD83AEF0FF53B1BF53B2BF53B17F7D
:1019650053B27F759850438920438780438E105327
:10197500C4DF8C188D198E1A8F1B90D4BC75F00F8F
:10198500E4121F31AC82C3E49CF58DD28ED299222C
:10199500AC82AD83AEF0FF53B1BF53B2BF53B17F3D
:1019A50053B27F75985043878053C4F843C4208C45
:1019B500188D198E1A8F1B90D4BC75F00FE4121F69
:1019C50031AC82AD83AEF0FFE4C39CE49DF97401B4
:1019D5009EE49F89C6C3E49CFC8CC543C408D29988
:1019E500223098FD859982C29822AD82AE83AFF0F0
:1019F5003098118D828E838FF0E599121FD9C29888
:101A05007582012275820022AF82C2998F99309921
:101A1500FD22AC82AD83AEF0FF53B1FB53B2FB5355
:101A2500B3BF53B4BF75F85875C40853C4DF8C18D9
:101A35008D198E1A8F1B90D4BC75F00FE4121F31CF
:101A4500AC82AD83AEF0FFE4C39CE49DF974019EC6
:101A5500E49F89C6C3E49CFC8CC543C4082230F8C6
:101A6500FD859A82C2F822AD82AE83AFF030F811BF
:101A75008D828E838FF0E59A121FD9C2F875820187
:101A85002275820022AF82C2F98F9A30F9FD229029
:101A9500E100E4F5F012195590C20075F001E41269
:101AA5001A17C299C2F9D2ACD2AF22C017858117D5
:101AB500E51724FDF8868318868218E493A3B425D8
:101AC50077C201C202C203C204C205C206791177F8
:101AD50000C207E493A324C64017240A50157005D5
:101AE500B51102D206D205FAE775F00AA42AF780E5
:101AF500E2240A2430B46C04D20180D7B46804D23D
:101B05000280D0B47303021B48B46406121E22027D
:101B15001BA4B47506121E22021BC4B4630518E685
:101B2500188017B47803021B83B46603021CD8B46B
:101B35002E0679127700809B6006121F14021AC0C8
:101B4500021F2EC083C08286F018868318868218ED
:101B5500300519C206C082C083121FF46007A315A1
:101B650011E51170F4121EFFD083D082121FF460AC
:101B750006A3121F1480F5D082D083021AC0121B4F
:101B85009B20020C121B9B300106121B9B121B9BF8
:101B9500121F26021AC0E6121F04E618021F05EDE1
:101BA50030E71CD204E9F42401F9200212EAF434E6
:101BB50000FA30010AEBF43400FBECF43400FC20AD
:101BC5000210300108EB7024EC7021C201EA701C90
:101BD500D202E97017200714300509E511600515D3
:101BE50011121EFF7430121F14021AC0C082C08366
:101BF500121E3C300560790A30011DEB54F0703639
:101C050019EB540F703019EA54F0702A19EA540F81
:101C1500702419EF54F0701E790520020BEF540F54
:101C2500701419EE54F0700E7903EE540F70071905
:101C3500ED54F0700119E511A204994019F511C090
:101C450003C002C007C006C005121EFFD005D0069E
:101C5500D007D002D003300419C003C002C007C0AA
:101C650006C005742D121F14D005D006D007D0026A
:101C7500D00320024030012CC005C006C0078A826F
:101C8500EBF583121F04E583121F05E582121F047D
:101C9500E582121F05D0E0F582121F04E582D0838C
:101CA500D08280058D828E83EF121F05E583121F7A
:101CB50004E58380038D82EE121F05E582121F0461
:101CC500E582121F05121F26D083D082300701221C
:101CD500021AC030050EE511D39512F5115028757D
:101CE50011008023E6547FFA18860308AE82AF837D
:101CF5009025737D07E4932BA3E4933A5003A3DD6A
:101D0500F48D128E828F83C000121E04C082C083A0
:101D1500EFB47E02801940112482FDC3EA33FAEB49
:101D250033FBEC33FCDDF48006F4247F121F96753B
:101D3500F01BE4F8FFFEFD902507E933F9EA33FAD5
:101D4500EB33FBEC33FC5017E4932DD4FD74019376
:101D55003ED4FE7402933FD4FF74039338D4F8A3A2
:101D6500A3A3A3D5F0D4E47C50FBFAF9E512232311
:101D750054FC8883121F96ED29D4F516EE3AD4F556
:101D850015EF3BD4F514E5833CD4F51392D5D083F8
:101D9500D082D000121E04C000C3749E9F5005D08F
:101DA50000021AD8C082121F96D08230D50FE924BE
:101DB50001F9E43AFAE43BFBE43CFC40E2D20712C9
:101DC5001BC420050CE5126008121DF47003D51222
:101DD500F4E5126015742E121F147800D20308E87A
:101DE500121DF4121F05E8B512F4D000021AC01432
:101DF500C31392D52413F9E720D501C4540F22E665
:101E050018F9E618FC33E9339204FF6003430480B4
:101E1500E618FBE618FA7900C202D20122E6F9FDBE
:101E250018200212AA01E6F91830010AAC02AB012A
:101E3500E6FA18E6F91822E975F06484FE740AC515
:101E4500F084C445F0FD30020122EA540FF99023D5
:101E5500A7932DD4FDE94410933ED4FEEAC4540F54
:101E6500F99023C7932DD4FDE94410933ED4FEE9A0
:101E75004420933400D4FF20010122EB540FF99044
:101E850023F7932DD4FDE94410933ED4FEE9442075
:101E9500933FD4FFE43400FAEBC4540FF9902427A0
:101EA500932DD4FDE94410933ED4FEE94420933F9D
:101EB500D4FFE94430933AD4FAEC540FF9902467EF
:101EC5007B00121ED2ECC4540FF99024B7932DD485
:101ED500FDE94410933ED4FEE94420933FD4FFE945
:101EE5004430933AD4FAE94440933BD4FB2274201E
:101EF5003006027430121F141511E51170F022C45A
:101F0500540F7003300319D2032490D43440D4C045
:101F150083C082C000F5821202CDD000D082D0836A
:0C1F2500222003FC7430021F14D017228D
:1023A70000561268248036924804601672288440CA
:1023B700000205071012151720232528303335385A
:1023C70000969288848076726864605652484440CA
:1023D70000408122630445862768095091327314AF
:1023E70000000001010202020303040404050506BC
:1023F700003672084480165288246096326804407A
:102407000055106621763287429853086419753053
:102417000006131926323945525865727885919806
:102427000076522804805632088460361288644049
:102437000085715743281400867157432914008675
:10244700000409141924293438434853586368721F
:1024570000010203040506070809101112131415D9
:102467000016324864809612284460769208244009
:1024770000724416886032057749219365381082C7
:102487000077553310886644219977543210886550
:10249700001633506783001734506784011834518E
:1024A7000000000000000101010101010202020217
:1024B70000561268248036924804601672288440B9
:1024C700005409631872278136914500540963182F
:1024D70000438730741761044891357922660953A0
:1024E70000683605734210794715845221895826AA
:1024F7000002050810131618212426293234374004
:1025070000000050000000250000501200002506C2
:102517000050120300255601501278002506390095
:102527001253190056760900288804001444020043
:102537000722010004610000523000002615000048
:10254700630700008103000091010000950000006F
:1025570048000000240000001200000006000000F0
:102567000300000001000000010000007DC5DDC37D
:0A25770034C2E0BE38BD86BBE4B9F3
:101F3100FB7A20E4FCFDFEFFE5822582F582E58344
:101F410033F583E5F033F5F0EB33FB4017DAE98045
:101F510042E5822582F582E58333F583E5F033F5A9
:101F6100F0EB33FBEC33FCED33FDEE33FEEF33FFEF
:101F7100EC9518ED9519EE951AEF951B4013EC951C
:101F810018FCED9519FDEE951AFEEF951BFF4382A6
:051F910001DABEEB22A5
:06004E00E478FFF6D8FD86
:101F96006040F82582500274FFF582E824F8501E4E
:101FA600CCCBCAF9E4CC24F85014CBCAF9E4CB2440
:101FB600F8500BCAF9E4CA24F85003790022240821
:101FC6006010F8C3EC13FCEB13FBEA13FAE913F900
:101FD600D8F12220F71130F6138883A88220F5095C
:0E1FE600F6A8837583002280FEF280F5F022BB
:0D00410075816F120F09E582600302003E19
:101FF40020F71430F6148883A88220F507E6A88316
:0C20040075830022E280F7E49322E022C2
:00000001FF
