:040000000200413287
:03000B00020531BA
:0100130032BA
:01001B0032B2
:0100230032AA
:01002B0032A2
:01003300329A
:03003B0002055467
:1000540075250090006FE4F075210090000174F0A4
:10006400F07434A3F07480A3F09000047412F0745C
:1000740035A3F07480A3F09000077431F07435A3B5
:10008400F07480A3F090000A7458F07435A3F074EF
:1000940080A3F090000D23F090000EF090000FF07C
:1000A400900010F090001104F0900012F0900013F2
:1000B400F0900014F090001504F0900016F09000F9
:1000C40017F0900018F090001904F090001AF090C6
:1000D400001BF090001CF090001D04F090001EF036
:1000E40090001FF0900020F09000217402F0900026
:1000F40022F0900023F0900024F090002514F0905A
:100104000026F0900027F0900028F0900029740455
:10011400F090002AF090002BF090002CF090002D2D
:1001240014F090002EF090002FF0900030F090002A
:10013400317405F0900032F0900033F0900034F008
:100144009000377460F07409A3F0E4A3F0A3F09076
:10015400003B7480F07470A3F0E4A3F0A3F090006B
:100164003FF07496A3F0E4A3F0A3F0900043F0747E
:10017400E1A3F0E4A3F0A3F0900047F074C2A3F06D
:100184007401A3F0E4A3F090004BF07484A3F07422
:1001940003A3F0E4A3F090004F74E0F07493A3F091
:1001A4007404A3F0E4A3F0900053F07408A3F014D3
:1001B400A3F0E4A3F09000577420F074A1A3F074AA
:1001C40007A3F0E4A3F090005B74C0F07427A3F0DD
:1001D4007409A3F0E4A3F090005F7460F074AEA31C
:1001E400F0740AA3F0E4A3F0900063F07435A3F074
:1001F400740CA3F0E4A3F090006774A0F074BBA3A4
:10020400F0740DA3F0E4A3F090006BF07410A3F06D
:07021400740EA3F0E4A3F057
:0303A80002003E12
:03003E00020FD0DE
:1003AB00AE82E5217009C2998E9920990980FBC212
:1003BB00F98E9A30F9FD90000022AF82C007743B92
:1003CB00C0E07431C0E01222D015811581D007BF77
:1003DB000002800ABF01028016BF02338022743EE6
:1003EB00C0E07431C0E01222D015811581802074D9
:1003FB0044C0E07431C0E01222D015811581800F0A
:10040B00744AC0E07431C0E01222D015811581AE60
:10041B00217F00C006C0077450C0E07431C0E012E9
:10042B0022D0E58124FCF58122AF82BF0D0280042E
:10043B00BF1B11227469C0E07431C0E01222D015C9
:10044B00811581227E00C007C006746CC0E0743138
:10045B00C0E01222D0E58124FCF58122AF82741B0F
:10046B00B5220280028079AE238E21AC217D00C0A3
:10047B0007C006C004C005746FC0E07431C0E01241
:10048B0022D0E58124FCF581D006D007BF00028085
:10049B000DBF01028021BF0202803502052E7F01B4
:1004AB008E21758201C0071203C585242175820137
:1004BB001203C5D007806C7F028E21758202C007A4
:1004CB001203C58524217582021203C5D007805300
:1004DB007F008E21758200C0071203C5D0078043B1
:1004EB00BF0002800ABF01028014BF0236801E8546
:1004FB002321852282C007120434D007802585244E
:10050B0021852282C007120434D00780168523214F
:10051B00852282C00712043485242185228212048D
:10052B0034D0078F8222C0E0C082C083C0D0758CCC
:10053B00D4758A13900035E02401F0A3E03400F069
:10054B00D0D0D083D082D0E032C0E0E5EC75EC00A7
:10055B00D0E032AF827E00EE2EFD8DF005F0EF8005
:10056B0002C313D5F0FBFC5304017B00ED04F5F043
:10057B0005F0EF8002C313D5F0FBFD5305017A00A4
:10058B00ECB50508EBB50204758200220EBE040023
:10059B0040C575820122AF827E007D04EF30E003FF
:1005AB00430680EF0303543FFFEEC313FEED14FD30
:1005BB0070EA8E8222AF827E007D04EEC313FEEFC3
:1005CB0030E003430680EF0303543FFFED14FD704F
:1005DB00EA8E8222AE875306107F00BE1041BF0009
:1005EB003EAF84AE857D00EF2FFFED33FD5306014B
:1005FB007C00EE2FFFEC3DFDEF24F1FFED34FFFD12
:10060B008F06530601EDC313CF13CFFD75C7AA7524
:10061B00C7558F8475C7AA75C7558E855387EF222B
:10062B00AF82752101BF310122BF320122BF3302DC
:10063B008032BF340122BF50028049BF53030206F0
:10064B00CFBF5402805EBF56030206DFBF7002802D
:10065B0023BF7302805EBF74028039BF760302062C
:10066B00DF0206EF7486C0E07431C0E01222D015B1
:10067B0081158122749DC0E07431C0E01222D01527
:10068B008115812274B0C0E07431C0E01222D01504
:10069B008115812274C2C0E07431C0E01222D015E2
:1006AB008115812274D7C0E07431C0E01222D015BD
:1006BB008115812274EDC0E07431C0E01222D01597
:1006CB00811581227405C0E07432C0E01222D0156E
:1006DB0081158122741CC0E07432C0E01222D01547
:1006EB00811581227436C0E07432C0E01222D0151D
:1006FB00811581744DC0E07432C0E01222D0158197
:10070B0015817464C0E07432C0E01222D0158115DB
:10071B00817485C0E07432C0E01222D0158115813E
:10072B0074A0C0E07432C0E01222D0158115817420
:10073B00BFC0E07432C0E01222D01581158174E085
:10074B00C0E07432C0E01222D0158115812275B140
:10075B000075B20075B30075B40075AC0075AD00D3
:10076B0043B30853B4F743AC0153ADFE43B38053CB
:10077B00B47F43B10153B2FE43B32053B4DF43B153
:10078B002053B2DF43B11053B2EF53B3FE43B40166
:10079B0053B3FD43B40253B3FB43B404C290C291B1
:1007AB00C29222AF827E04EFB52514AB19AC1AAD01
:1007BB001B8B828C838DF0E41227F975820422AB9C
:1007CB0019AC1AAD1B8B828C838DF0E41227F97A4E
:1007DB00008AF005F0E5258002C313D5F0FBF85332
:1007EB0000017900B80005B900028055B80105B9C0
:1007FB00000280030208978AF005F0EF8002C31312
:10080B00D5F0FBF85300017900B80005B900028060
:10081B00030208978F258B828C838DF012311FF981
:10082B008A0088F005F07401800225E0D5F0FBF812
:10083B00E942008B828C838DF0E81227F97E0080D1
:10084B004B8AF005F0EF8002C313D5F0FBF8530091
:10085B00017900B80005B900028031B8012EB9004A
:10086B002B8F258B828C838DF012311FF98A008898
:10087B00F005F07401800225E0D5F0FBF8E94200A9
:10088B008B828C838DF0E81227F97E010ABA050062
:10089B0050030207DC8E8222AF82AC26AD27AE2836
:1008AB007B00C3EB9F503F8C828D838EF012311FE8
:1008BB00FAA3AC82AD838A017A00C007C006C005DB
:1008CB00C004C003C001C002746CC0E07431C0E04E
:1008DB001222D0E58124FCF581D003D004D005D0C1
:1008EB0006D0070B80BC7469C0E07431C0E01222E3
:1008FB00D01581158122740DC0E07433C0E0122233
:10090B00D0158115817418C0E07433C0E01222D069
:10091B00158115817430C0E07433C0E01222D015FC
:10092B008115817444C0E07433C0E01222D015816C
:10093B0015817449C0E07433C0E01222D0158115C3
:10094B0081744EC0E07433C0E01222D01581158142
:10095B007453C0E07433C0E01222D015811581743A
:10096B0058C0E07433C0E01222D015811581745D3C
:10097B00C0E07433C0E01222D0158115817462C0BF
:10098B00E07433C0E01222D015811581746EC0E083
:10099B007433C0E01222D0158115817479C0E074D4
:1009AB0033C0E01222D0158115817484C0E07433FA
:1009BB00C0E01222D0158115817490C0E07433C051
:1009CB00E01222D01581158122AF82BF2B03020FBB
:1009DB0075BF2D03020F9ABF3003020A7DBF31038F
:1009EB00020A96BF3203020AABBF3303020AC0BF2F
:1009FB003403020AD5BF3503020AF7BF3603020BD5
:100A0B002DBF3703020B5BBF4803020901BF530322
:100A1B00020F4BBF6103020FBEBF6203020FC4BFC5
:100A2B006303020FCABF6803020B89BF6A03020C80
:100A3B0015BF6B03020C48BF6C03020C7BBF730327
:100A4B00020D07BF74028007BF7503020ED42290FC
:100A5B000035E0C0E0A3E0C0E0749DC0E07433C09B
:100A6B00E01222D0E58124FCF581900035E4F0A35F
:100A7B00F022752100C290C291C29274A2C0E074A0
:100A8B0033C0E01222D01581158122752100D2903E
:100A9B0074B1C0E07433C0E01222D01581158122ED
:100AAB00752100C29674C0C0E07433C0E01222D02E
:100ABB001581158122752100D29674CEC0E0743356
:100ACB00C0E01222D01581158122752100B296A2A9
:100ADB0096E433FE7F00C006C00774DCC0E07433BD
:100AEB00C0E01222D0E58124FCF581227521002083
:100AFB009002D296B29074EBC0E07433C0E0122235
:100B0B00D015811581A290E433FE7F00C006C0078B
:100B1B0074F7C0E07433C0E01222D0E58124FCF5F9
:100B2B008122B29174FCC0E07433C0E01222D01564
:100B3B00811581A291E433FE7F00C006C00774F7D4
:100B4B00C0E07433C0E01222D0E58124FCF5812291
:100B5B00B2927408C0E07434C0E01222D015811533
:100B6B0081A292E433FE7F00C006C00774F7C0E099
:100B7B007433C0E01222D0E58124FCF58122AD2C28
:100B8B00AE2DAF2E8D828E838FF012311FFC1C8DFC
:100B9B00828E838FF0EC1227F9AA29AB2AAC2B8A11
:100BAB00828B838CF012311FFABA013C8D828E83BB
:100BBB008FF012311F75F004A42437F582740035C1
:100BCB00F0F583E0F9A3E0FAA3E0FBA3E0FCC0019E
:100BDB00C002C003C0047414C0E07434C0E012221D
:100BEB00D0E58124FAF581228D828E838FF012312C
:100BFB001FFD7F00C005C0077427C0E07434C0E040
:100C0B001222D0E58124FCF58122AD29AE2AAF2B2F
:100C1B008D828E838FF012311FFC1C8D828E838F01
:100C2B00F0EC1227F97F00C004C0077435C0E074E4
:100C3B0034C0E01222D0E58124FCF58122AD29AE2F
:100C4B002AAF2B8D828E838FF012311FFC0C8D827D
:100C5B008E838FF0EC1227F97F00C004C007743528
:100C6B00C0E07434C0E01222D0E58124FCF581226F
:100C7B00AD2CAE2DAF2E8D828E838FF012311FFCDB
:100C8B000C8D828E838FF0EC1227F9AA29AB2AAC3C
:100C9B002B8A828B838CF012311FFABA013C8D8226
:100CAB008E838FF012311F75F004A42437F58274F4
:100CBB000035F0F583E0F9A3E0FAA3E0FBA3E0FC39
:100CCB00C001C002C003C0047414C0E07434C0E09F
:100CDB001222D0E58124FAF581228D828E838FF04A
:100CEB0012311FFD7F00C005C0077427C0E07434AC
:100CFB00C0E01222D0E58124FCF58122AD29AE2A79
:100D0B00AF2B8D828E838FF012311FFC6009BC01DB
:100D1B0003020DB5020E62852C2F852D30852E31E9
:100D2B00852F828530838531F012311FC454F0F842
:100D3B005300F0740F5C48F582C007C006C0051263
:100D4B001A7DD005D006D007852F8285308385315B
:100D5B00F012311FF8E4C8C4C868C854F0C868FB67
:100D6B008D828E838FF012311F7A004200EA42038C
:100D7B00C000C0037443C0E07434C0E01222D0E55D
:100D8B008124FCF581852F828530838531F01231EA
:100D9B001FFB7A00C003C002745BC0E07434C0E078
:100DAB001222D0E58124FCF58122852C2F852D3054
:100DBB00852E31852F828530838531F012311FC40A
:100DCB0054F0F85300F0740F5C48F582C007C0066E
:100DDB00C005121A7DD005D006D007852F8285302D
:100DEB00838531F012311FF8E4C8C4C868C854F0C9
:100DFB00C868FB8D828E838FF012311F7A00420000
:100E0B00EA4203C000C0037443C0E07434C0E01274
:100E1B0022D0E58124FCF581852F828530838531B5
:100E2B00F012311F75F004A42437F582740035F0ED
:100E3B00F583E0F8A3E0F9A3E0FAA3E0FBC000C060
:100E4B0001C002C0037414C0E07434C0E01222D09D
:100E5B00E58124FAF58122A92CAA2DAB2E89828A51
:100E6B00838BF012311FC454F0F85300F0740F5CF5
:100E7B0048F582C007C006C005C003C002C00112FE
:100E8B001A7DD001D002D003D005D006D0078982BD
:100E9B008A838BF012311FF9E4C9C4C969C954F0B4
:100EAB00C969FC8D828E838FF012311F7F00420146
:100EBB00EF4204C001C0047443C0E07434C0E012BC
:100ECB0022D0E58124FCF58122AD2CAE2DAF2E8DE9
:100EDB00828E838FF012311F75F004A42437F582B4
:100EEB00740035F0F583E0F9A3E0FAA3E0FBA3E08F
:100EFB00FCC007C006C005C001C002C003C004741B
:100F0B0014C0E07434C0E01222D0E58124FAF581DC
:100F1B00D005D006D0078D828E838FF012311F75CE
:100F2B00F004A42437F582740035F0F583E0FCA3BC
:100F3B00E0FDA3E0FEA3E08C828D838EF0022237CE
:100F4B0090006FE0F582121A7D90006FE0FF7E003B
:100F5B00C007C006C007C006746CC0E07434C0E0A4
:100F6B001222D0E58124FAF5812290006FE0240152
:100F7B00F0E0FF7E00C007C006C007C0067487C044
:100F8B00E07434C0E01222D0E58124FAF58122907E
:100F9B00006FE014F0E0FF7E00C007C006C007C082
:100FAB00067487C0E07434C0E01222D0E58124FAC5
:100FBB00F58122758211021A7D758212021A7D75D6
:100FCB008213021A7D7533017534017F017E009007
:100FDB0000D4E4F09000D5F09000D6F09000D7F05C
:100FEB009000D8F09000D9F09000DAF09000DBF090
:100FFB009000DCF09000DDF09000DEF09000DFF070
:10100B009000E004F09000E104F09000E214F09006
:10101B0000E3740AF09000E403F09000E5740DF027
:10102B007400A3F0E4A3F09000E804F09000E9044E
:10103B00F09000EAF09000EB740AF09000EC03F0F3
:10104B009000ED740DF07400A3F0E4A3F09000F0A9
:10105B0004F09000F104F09000F204F09000F374AF
:10106B000AF09000F403F09000F5740DF07400A3F7
:10107B00F0E4A3F09000F804F09000F904F0900075
:10108B00FA23F09000FB740AF09000FC03F0900040
:10109B00FD740DF07400A3F0E4A3F090010004F0D4
:1010AB0090010104F09001027405F090010323F00C
:1010BB0090010403F0900105740DF07400A3F0E4AB
:1010CB00A3F08F3675370275380375390A753A05F3
:1010DB00753B0D753C00F53DC007C0061207591254
:1010EB0022B41205DF538EF7D2A9D28C752100746E
:1010FB009CC0E07434C0E01222D01581158174AC11
:10110B00C0E07434C0E01222D01581158175210125
:10111B0074BCC0E07434C0E01222D015811581D0AC
:10112B0006D0077C307D7500000000001CBCFF0161
:10113B001DEC4D70F2D296C290752100900037E0F5
:10114B00FAA3E0FBA3E0FCA3E08A828B838CF0C0C4
:10115B0007C006122237758231121A7DD006D007CE
:10116B007C307D7500000000001CBCFF011DEC4DA8
:10117B0070F2900043E0FAA3E0FBA3E0FCA3E08A4B
:10118B00828B838CF0C007C006122237D006D007A3
:10119B007C307D7500000000001CBCFF011DEC4D78
:1011AB0070F2D296C290D291C292900001E0FBA352
:1011BB00E0FCA3E0FDC007C006C003C004C005747B
:1011CB00CCC0E07434C0E07480C0E012283CE581F0
:1011DB0024FAF581D006D00790003275F040C00795
:1011EB00C00612220FE582D006D00770030214A1AD
:1011FB00741BB532430EBE04027E00EE75F003A4E1
:10120B002401F582740035F0F583E0FBA3E0FCA329
:10121B00E0FDC007C006C003C004C00574D1C0E028
:10122B007434C0E07480C0E012283CE58124FAF5E8
:10123B0081D006D0070214E9EE24FB50030214E917
:10124B00EE2E2E901252730212610212840212A21F
:10125B000213930214E9752934752A00752B407516
:10126B002C33752D00752E40853282C007C00612B7
:10127B0009D4D006D0070214E9900035E4F0A3F0AE
:10128B009000DFE0FD04F0ED2470F582E43400F50E
:10129B0083E532F00214E97466B53202801F74677D
:1012AB00B5320280267468B532028027746AB53273
:1012BB0002803C746BB5320280620213521533E527
:1012CB00336003021352753301807CD53479753446
:1012DB00018074753BD4753C00753D0090003675EC
:1012EB00F040C007C006121A80D006D00780580500
:1012FB00347465B53403753464AC347D00C007C0F9
:10130B0006C004C0057435C0E07434C0E01222D0AE
:10131B00E58124FCF581D006D007802B05337410B2
:10132B00B5330375330FAC337D00C007C006C00463
:10133B00C0057427C0E07434C0E01222D0E58124CC
:10134B00FCF581D006D0077466B532028020746735
:10135B00B5320280197468B532030214E9746AB5A8
:10136B003202800A746BB5320280030214E98533B2
:10137B003885343790003675F040C007C006121D13
:10138B0023D006D0070214E97468B53202801574B5
:10139B006AB532028020746BB532028033746CB53F
:1013AB00325A80469000DEE014F0E0FDBDFF4D9018
:1013BB0000DEE4F080469000DEE024D4FDE434004F
:1013CB00FC8D828C83E0FB1B8D828C83EBF0802C5D
:1013DB009000DEE024D4FDE43400FC8D828C83E0AD
:1013EB00FB0B8D828C83EBF080129000DEE02401EE
:1013FB00F0E0FDBD0A06ED149000DEF07468B53226
:10140B00028018746AB532028038746BB532028070
:10141B0031746CB5320280030214E99000DEE0FDFA
:10142B007C00C007C006C005C00474DDC0E0743486
:10143B00C0E01222D0E58124FCF581D006D0070252
:10144B0014E97D00ED24D4F582E43400F583E0FC4F
:10145B007B00C007C006C005C004C00374EAC0E02F
:10146B007434C0E07480C0E012283CE58124FBF5A5
:10147B0081D005D006D0070DBD0A0040C7C007C0FC
:10148B00067469C0E07431C0E01222D01581158159
:10149B00D006D0078048EE24FB4043EE2E9014ACD0
:1014AB0073803B8006803780358033900035E0FCBD
:1014BB00A3E0FDC3740A9CE49D50239000DFE0FD84
:1014CB00E0601B7526707527007528008D82C0079C
:1014DB00C0061208A3D006D0079000DFE4F0EF702F
:1014EB00030215D5A295E433FDA2B0E43325E04207
:1014FB0005A280E43325E025E04205A293E433C442
:10150B000354F84205A297E433C454F04DF58275A9
:10151B001935751A00751B40C007C0061207AEAD12
:10152B0082D006D007BD010280030211E3EF24FA3B
:10153B0050030211E3EF2F2F901547730211E302B3
:10154B0015590215610215C90215CD0215D1D29696
:10155B00D2900F0211E3900037E0FAA3E0FBA3E077
:10156B00FCA3E08A828B838CF0C006122237758233
:10157B0031121A7D900043E0FAA3E0FBA3E0FCA339
:10158B00E0FDC002C003C004C0057414C0E0743495
:10159B00C0E01222D0E58124FAF581900043E0FAF5
:1015AB00A3E0FBA3E0FCA3E08A828B838CF01222E6
:1015BB0037D0067534027533017F000211E30F0239
:1015CB0011E30F0211E30F0211E3A295E433FDA225
:1015DB00B0E43325E04205A280E43325E025E04268
:1015EB0005A293E433C40354F84205A297E433C431
:1015FB0054F04DF582751935751A00751B40C007EF
:10160B00C0061207AEAD82D006D007BD0102800323
:10161B000211E3AD35BD01030216FB7402B53502B1
:10162B0080437404B535030216CD7408B5350280BA
:10163B000A7410B5350280570211E3D533037533A5
:10164B0001AC337D00C007C006C004C0057427C0C1
:10165B00E07434C0E01222D0E58124FCF581D00681
:10166B00D0070211E3D53403753401AC347D00C0CF
:10167B0007C006C004C0057435C0E07434C0E01266
:10168B0022D0E58124FCF581D006D0070211E38539
:10169B003338853437E53330E00B753B0D753C0043
:1016AB00753D008009753B21753C00753D00900030
:1016BB003675F040C007C006121A80D006D007025C
:1016CB0011E305347465B53403753464AC347D00B3
:1016DB00C007C006C004C0057435C0E07434C0E058
:1016EB001222D0E58124FCF581D006D0070211E34C
:1016FB0005337410B5330375330FAC337D00C0075E
:10170B00C006C004C0057427C0E07434C0E01222C8
:0E171B00D0E58124FCF581D006D0070211E351
:10313B000A0D0073656C66200063726F7373006217
:10314B006F74682000206F75747075743A546869D9
:10315B0073206973205541525425640A0D000D0AE2
:10316B00002563000D0A696E7075743A54686973B3
:10317B00206973205541525425640049646C6520C5
:10318B00707265616D626C65206F6E2F6F66660D78
:10319B000A004C696E65466920506F776572204F47
:1031AB0066660D0A004C696E65466920506F77653F
:1031BB0072204F6E0D0A004C696E65466920556191
:1031CB007274205478204C6F770D0A004C696E6531
:1031DB004669205561727420547820486967680DE0
:1031EB000A004C696E654669204353432072782070
:1031FB0046534D204F66660D0A004C696E65466955
:10320B00204353432072782046534D204F4E0D0AD6
:10321B000056657273696F6E20312E34206F6E20ED
:10322B0032303233313032360D0A00313A20646F8E
:10323B00776E6C696E6B207061636B657420310DFA
:10324B000A00323A20646F776E6C696E6B20706186
:10325B00636B657420320D0A00333A2075706C690C
:10326B006E6B2069646C6520707265616D626C6554
:10327B00206F6E2F6F66660D0A00702F503A204C30
:10328B00696E65466920506F776572206F66662F91
:10329B006F6E0D0A00742F543A204C696E654669A7
:1032AB002055617274205478204C6F772F486967D2
:1032BB00680D0A00732F533A204C696E6546696599
:1032CB00204353432052782046534D206F66662F80
:1032DB006F6E0D0A00746573742070726F63656492
:1032EB007572653A2070202D3E2050202D3E2054C3
:1032FB00202D3E2053202D3E2031206F7220320D89
:10330B000A00743A2074696D65720D0A00303A2018
:10331B004C696E65466920454E302C312C32206F3E
:10332B0066660D0A00313A204C696E654669204588
:10333B004E30203D20310D0A00323A0D0A00333A4F
:10334B000D0A00343A0D0A00353A0D0A00363A0DD3
:10335B000A00373A0D0A00683A20416464722D2D39
:10336B000D0A006A3A20436D642D2D0D0A006B3A4D
:10337B0020436D642B2B0D0A006C3A204164647260
:10338B002B2B0D0A00733A2073656E64696E670D03
:10339B000A0025750A0D004C494E4546495F454EBE
:1033AB00303D300A0D004C494E4546495F454E3085
:1033BB003D310A0D004C494E4546495F54583D304E
:1033CB000A0D004C494E4546495F54583D310A0D94
:1033DB00004C494E4546495F54583D25640A0D0043
:1033EB004C494E4546495F454E303D0025640A0D1C
:1033FB00004C494E4546495F454E313D004C494EC8
:10340B004546495F454E323D0075617274207370BD
:10341B006565643A20256C753A0A0D006164647227
:10342B006573733A2025640A0D00636F6D6D616ED1
:10343B00643A2025640A0D004C696E654669205379
:10344B00656E64696E673A20307825783A0A0D000C
:10345B00616464726573733A20307825643A0A0D9F
:10346B00004C696E6546692053656E64696E673AF8
:10347B002025642830782578290A0D0073656E6441
:10348B0020646174612025642830782578290A0D21
:10349B0000546869732069732055415254300A0DEA
:1034AB00004C696E654669204D61737465720A0D37
:1034BB0000546869732069732055415254310A0DC9
:1034CB000025730D0A00647263686F692025730D04
:1034DB000A00446174614964783A25640D0A00302E
:1034EB00782578200055415254305F494E50555441
:1034FB005F4D4F4445303A6F6E65206B65792063A5
:10350B006F6E74726F6C0055415254305F494E5060
:10351B0055545F4D4F4445313A737472696E672051
:10352B00696E7075740055415254305F494E505559
:10353B00545F4D4F4445323A6D696D696320356B6D
:10354B00657973206F6E20626F6172640055415212
:10355B0054305F494E5055545F4D4F4445333A6498
:0C356B006174612073657474696E670000
:1017290075C7AA75C75575FD5A75C7AA75C7557581
:10173900FDA575820022AC82AD83AEF0FF538EF712
:10174900438901D28CEC4D4E4F601A758A76758C9F
:10175900FF108D0280FB1CBCFF091DBDFF051EBECD
:10176900FF011F80E0C28C22AC82AD83AEF0FF5333
:101779008EF7438901D28CEC4D4E4F601A758A98C9
:10178900758CFA108D0280FB1CBCFF091DBDFF057D
:101799001EBEFF011F80E0C28C22AC82AD83AEF079
:1017A900FF538EEF438910D28EEC4D4E4F601A7560
:1017B9008BF6758DC9108F0280FB1CBCFF091DBDFE
:1017C900FF051EBEFF011F80E0C28E22AC82AD83E1
:1017D900AEF0FF53C9BF53C9DF43C910D2CAEC4D9C
:1017E9004E4F601A75CCE575CDF710CF0280FB1C02
:1017F900BCFF091DBDFF051EBEFF011F80E0C2CA57
:1018090022AC82AD83AEF0FF75C40743C408EC4D2A
:101819004E4F602575C55775C6CDAAC45302107BB6
:1018290000BA10F6BB00F353C4EF1CBCFF091DBD81
:10183900FF051EBEFF011F80D553C4F722AC82AD40
:1018490083AEF0FF75C40743C408EC4D4E4F6025C5
:1018590075C5D775C6FFAAC45302107B00BA10F626
:10186900BB00F353C4EF1CBCFF091DBDFF051EBE21
:10187900FF011F80D553C4F722AF82A2AF9200C2E5
:10188900AF75C7AA75C755439F01A20092AFE51C62
:101899006013A2AF9200C2AF75C7AA75C75543A519
:1018A90001A20092AF851AA68519A7851BAE8FAF35
:1018B900A2AF9200C2AF75C7AA75C75543A401A2CA
:1018C9000092AFE51C6026A2AF9200C2AF75C7AA0D
:1018D90075C75553A5FEA20092AFA2AF9200C2AF41
:1018E90075C7AA75C755539FFEA20092AF22AE8253
:1018F900AF838F198E1A751BFF751C017582220221
:101909001882AE82AF838F198E1A85101B751C0140
:10191900758221021882751900751A0C751B0075DC
:101929001C00758204121882AFAE751900751A0D64
:10193900751B00751C00758204C007121882D00738
:10194900E5AE540FFEA2AF9200C2AF75C7AA75C724
:1019590055539FFEA20092AFE4C454F0CFC4CF6F99
:10196900CF54F0CF6FFD7C00EE2FF582EC3DF5836F
:101979002285821A751900751B00751C0075820471
:1019890012188285AE82A2AF9200C2AF75C7AA753E
:0A199900C755539FFEA20092AF2233
:10021B00E4F53EF53F900108740EF07436A3F074CC
:10022B0080A3F090010B7419F07436A3F07480A3C3
:10023B00F090010E7424F07436A3F07480A3F09048
:10024B000111742FF07436A3F07480A3F090011495
:10025B00743CF07436A3F07480A3F09001177448CB
:10026B00F07436A3F07480A3F090011A7457F074F5
:10027B0036A3F07480A3F090011D7465F07436A35F
:10028B00F07480A3F09001207465F07436A3F074C1
:10029B0080A3F09001237465F07436A3F07480A3EF
:1002AB00F09001267465F07436A3F07480A3F0907F
:1002BB0001297465F07436A3F07480A3F090012CBF
:1002CB007465F07436A3F07480A3F090012F7465FD
:1002DB00F07436A3F07480A3F09001327465F0745F
:1002EB0036A3F07480A3F09001357465F07436A3D7
:1002FB00F07480A3F09001387465F07436A3F07439
:10030B0080A3F090013B7465F07436A3F07480A366
:10031B00F090013E7465F07436A3F07480A3F090F6
:10032B0001417465F07436A3F07480A3F09001441E
:10033B007465F07436A3F07480A3F0900147746574
:10034B00F07436A3F07480A3F090014A7465F074D6
:10035B0036A3F07480A3F090014D7465F07436A34E
:10036B00F07480A3F09001507465F07436A3F074B0
:10037B0080A3F09001537465F07436A3F07480A3DE
:10038B00F09001567465F07436A3F07480A3F0906E
:0D039B0001597465F07436A3F07480A3F06E
:1019A300AD82AE83AFF074032DFDE43EFE8D828ED7
:1019B300838FF012311F2405F58222AD82AE83AFEF
:1019C300F08D028E038F04751904751AFF8A828BBA
:1019D300838CF0C007C006C005121F3985821AD058
:1019E30005D006D00774052DFAE43EFB8F048A82E6
:1019F3008B838CF012311FFAA312311FFBA3123118
:101A03001FFC74032DFDE43EFE8D828E838FF01246
:101A1300311FF5198A828B838CF0021F39AD82AE98
:101A230083AFF0C007C006C0051219BEAC82D00553
:101A3300D006D00774042DFDE43EFE8D828E838F85
:101A4300F0EC0227F9AD82AE83AFF0C007C006C049
:101A5300051219BEAC82D005D006D00774042DFD43
:101A6300E43EFE8D828E838FF012311FB504047520
:101A73008201227582002202228C0222AAAD82AE4A
:101A830083AFF0C007C006C0051219BEAC82D005F3
:101A9300D006D0078D018E028F0389828A838BF053
:101AA30012311FF58209B900010AC007C006C0053B
:101AB300C004C003C002C001121A7DD001D002D0FD
:101AC30003D004D005D006D00789828A838BF01215
:101AD300311FF58209B900010AC007C006C005C05D
:101AE30004C003C002C001121A7DD001D002D0038A
:101AF300D004D005D006D00789828A838BF01231B7
:101B03001FF809B900010A8882C007C006C005C0D2
:101B130004C003C002C001121A7DD001D002D00359
:101B230089828A838BF012311FF582121A7DD004C9
:101B33008C82121A7DD005D006D00774052DFAE4E5
:101B43003EFB8F0474032DFDE43EFE7540008D8241
:101B53008E838FF012311FF8C3E540985051C005B2
:101B6300C006C0078A828B838CF012311FF8A31240
:101B7300311FF9A312311FFFE54028F8E439F98832
:101B83008289838FF012311FF582C007C006C0051A
:101B9300C004C003C002121A7DD002D003D004D007
:101BA30005D006D0070540D007D006D005809F2278
:101BB300AF82BF0500500475820322AD44AE45AF2A
:101BC30046AA41AB42AC438A828B838CF012311F0D
:101BD300F974012AF541E43BF5428C438D828E83EF
:101BE3008FF0E91227F90DBD00010EAA41AB42ACFB
:101BF300438A828B838CF012311FF974012AF541D9
:101C0300E43BF5428C438D828E838FF0E91227F9F2
:101C13000DBD00010EAA41AB42AC438A828B838C7B
:101C2300F012311FF974012AF541E43BF5428C436C
:101C33008D828E838FF0E91227F90DBD00010EAA64
:101C430041AB42AC438A828B838CF012311FF9740F
:101C5300012AF541E43BF5428C438D828E838FF05C
:101C6300E91227F90DBD00010EAA41AB42AC438A2C
:101C7300828B838CF012311FF974012AF541E43B06
:101C8300F5428C438D828E838FF0E91227F9AD44A0
:101C9300AE45AF4674032DFAE43EFB8F04854148FD
:101CA30085424985434A7547008A828B838CF012AB
:101CB300311FF8C3E547985052C002C003C00474F3
:101CC300052DF8E43EF98F04888289838CF0123164
:101CD3001FF8A312311FF9A312311FFCE54728F89F
:101CE300E439F9854882854983854AF012311FFB1F
:101CF300A3858248858349888289838CF0EB1227E8
:101D0300F90547D004D003D002809E8D828E838F45
:101D1300F0121A48E5827004758204227582022249
:101D2300AD82AE83AFF0C007C006C0057477C0E0D4
:101D33007435C0E01222D015811581D005D006D0AC
:101D4300078D828E838FF012311FFC7B00C007C08A
:101D530006C005C004C0037499C0E07435C0E01226
:101D630022D0E58124FCF581D005D006D00774018B
:101D73002DFAE43EFB8F048A828B838CF012311F91
:101D8300FA75F003A42408F582740135F0F583E0B5
:101D9300F9A3E0FBA3E0FC8A007A00C007C006C0F9
:101DA30005C001C003C004C000C00274A4C0E07435
:101DB30035C0E01222D0E58124F9F581D005D006A3
:101DC300D00774022DFAE43EFB8F048A828B838C46
:101DD300F012311FFA7C00C007C006C005C002C064
:101DE3000474B3C0E07435C0E01222D0E58124FC52
:101DF300F581D005D006D00774032DFAE43EFB8F9E
:101E0300048A828B838CF012311FFA7C00C007C0D6
:101E130006C005C002C00474BEC0E07435C0E01241
:101E230022D0E58124FCF581D005D006D0078D8230
:101E33008E838FF0C007C006C0051219BEAC82D0D6
:101E430005D006D0077B0074042DF8E43EF98F0219
:101E5300888289838AF012311FF87A00C007C0068E
:101E6300C005C004C003C000C00274C9C0E074351B
:101E7300C0E01222D0E58124FAF58174DCC0E0745D
:101E830035C0E01222D015811581D005D006D007C8
:101E930074052DFAE43EFB8F0474032DFDE43EFE2E
:101EA300754B008D828E838FF012311FF8C3E54B83
:101EB300985064C005C006C0078A828B838CF012D9
:101EC300311FF8A312311FF9A312311FFFE54B286D
:101ED300F8E439F9888289838FF012311FF87F0083
:101EE300C007C006C005C004C003C002C000C007CD
:101EF30074E3C0E07435C0E01222D0E58124FCF520
:101F030081D002D003D004D005D006D007054BD032
:101F130007D006D005808C74E9C0E07435C0E012A8
:101F230022D0158115817477C0E07435C0E0122288
:101F3300D01581158122AD82AE83AFF0AC1AED4E80
:101F430060217B00C3EB951950198D828E838FF02E
:101F530012311FFAA3AD82AE83EC6A90207593FC15
:101F63000B80E18C8222AF82AD3EAE3F053EE4B5ED
:101F73003E02053FC007C005C00674ECC0E07435DF
:101F8300C0E01222D0E58124FCF58174F2C0E07434
:101F930035C0E01222D015811581D0077E00C3EE33
:101FA3009F50248E047D00C007C006C004C0057482
:101FB300FAC0E07435C0E01222D0E58124FCF5813B
:101FC300D006D0070E80D7C00774E9C0E07435C0CF
:101FD300E01222D0158115817401C0E07436C0E08F
:101FE3001222D015811581D0077E00C3EE9F507257
:101FF300AB4CAC4DAD4E8B828C838DF012311FFAFE
:10200300BA100050308A0174012BF54CE43CF54DB5
:102013008D4E89007900C007C006C000C001740757
:10202300C0E07436C0E01222D0E58124FCF581D0F3
:1020330006D007802A74012BF54CE43CF54D8D4EF8
:102043007D00C007C006C002C00574E3C0E074355C
:10205300C0E01222D0E58124FCF581D006D0070E22
:10206300808974E9C0E07435C0E01222D01581156F
:022073008122C8
:103577002D2D2D2D2D2D2D2D2D2D2D2D2D2D2D2D74
:103587002D2D2D2D2D2D2D2D2D2D2D2D2D2D2D0D84
:103597000A00566572203A2025640D0A0054797096
:1035A700653A202564282573290D0A004164647251
:1035B7003A2025640D0A0053697A653A2025640D7F
:1035C7000A0043524320636F6D70203A2025642020
:1035D70025640D0A00444154413A2000307825788B
:0535E70020000D0A00A8
:1020750000316253C4F5A697B988DBEA7D4C1F2E63
:102085004372211087B6E5D4FACB98A93E0F5C6D53
:1020950086B7E4D5427320113F0E5D6CFBCA99A843
:1020A500C5F4A796013063527C4D1E2FB889DAEB33
:1020B5003D0C5F6EF9C89BAA84B5E6D74071221323
:1020C5007E4F1C2DBA8BD8E9C7F6A5940332615013
:1020D500BB8AD9E87F4E1D2C02336051C6F7A49503
:1020E500F8C99AAB3C0D5E6F4170231285B4E7D6F3
:1020F5007A4B1829BE8FDCEDC3F2A19007366554E3
:1021050039085B6AFDCC9FAE80B1E2D344752617D2
:10211500FCCD9EAF38095A6B4574271681B0E3D2C2
:10212500BF8EDDEC7B4A192806376455C2F3A091B2
:102135004776251483B2E1D0FECF9CAD3A0B5869A2
:1021450004356657C0F1A293BD8CDFEE79481B2A92
:10215500C1F0A3920534675678491A2BBC8DDEEF82
:1021650082B3E0D1467724153B0A5968FFCE9DAC72
:1035EC002325640D0A00726177203A2020002532D1
:1035FC006420202000646174613A003078302578B2
:10360C002000547970655F42636173740054797063
:10361C00655F556361737400547970655F4D6361C8
:10362C00737400547970655F5365744164647200FF
:10363C00547970655F5365744C45440054797065DA
:10364C005F4374726C4D6F746F7200547970655F68
:10365C00526561644164647200547970655F4E6FA9
:03366C006E650088
:10217500AC82AD83AEF0FF53B1BF53B2BF53B17F55
:1021850053B27F759850438920438780438E1053FF
:10219500C4DF8C198D1A8E1B8F1C90D4BC75F00F63
:1021A500E4122751AC82C3E49CF58DD28ED29922DC
:1021B500AC82AD83AEF0FF53B1BF53B2BF53B17F15
:1021C50053B27F75985043878053C4F843C4208C1D
:1021D500198D1A8E1B8F1C90D4BC75F00FE4122735
:1021E50051AC82AD83AEF0FFE4C39CE49DF974016C
:1021F5009EE49F89C6C3E49CFC8CC543C408D29960
:10220500223098FD859982C29822AD82AE83AFF0C7
:102215003098118D828E838FF0E5991227F9C29837
:102225007582012275820022AF82C2998F993099F9
:10223500FD22AC82AD83AEF0FF53B1FB53B2FB532D
:10224500B3BF53B4BF75F85875C40853C4DF8C19B0
:102255008D1A8E1B8F1C90D4BC75F00FE41227517C
:10226500AC82AD83AEF0FFE4C39CE49DF974019E9E
:10227500E49F89C6C3E49CFC8CC543C4082230F89E
:10228500FD859A82C2F822AD82AE83AFF030F81197
:102295008D828E838FF0E59A1227F9C2F875820137
:1022A5002275820022AF82C2F98F9A30F9FD229001
:1022B500E100E4F5F012217590C20075F001E41219
:1022C5002237C299C2F9D2ACD2AF22C01785811785
:1022D500E51724FDF8868318868218E493A3B425B0
:1022E50077C201C202C203C204C205C206791177D0
:1022F50000C207E493A324C64017240A50157005AD
:10230500B51102D206D205FAE775F00AA42AF780BC
:10231500E2240A2430B46C04D20180D7B46804D214
:102325000280D0B47303022368B464061226420205
:1023350023C4B475061226420223E4B4630518E6E5
:10234500188017B478030223A3B466030224F8B4F3
:102355002E0679127700809B60061227340222E050
:1023650002274EC083C08286F0188683188682189D
:10237500300519C206C082C08312311F6007A3153C
:1023850011E51170F412271FD083D08212311F601E
:1023950006A312273480F5D082D0830222E01223CF
:1023A500BB20020C1223BB3001061223BB1223BB38
:1023B5001227460222E0E6122724E618022725ED19
:1023C50030E71CD204E9F42401F9200212EAF434BE
:1023D50000FA30010AEBF43400FBECF43400FC2085
:1023E5000210300108EB7024EC7021C201EA701C68
:1023F500D202E97017200714300509E511600515AB
:102405001112271F74301227340222E0C082C083C4
:1024150012265C300560790A30011DEB54F07036E8
:1024250019EB540F703019EA54F0702A19EA540F59
:10243500702419EF54F0701E790520020BEF540F2C
:10244500701419EE54F0700E7903EE540F700719DD
:10245500ED54F0700119E511A204994019F511C068
:1024650003C002C007C006C00512271FD005D0064D
:10247500D007D002D003300419C003C002C007C082
:1024850006C005742D122734D005D006D007D0021A
:10249500D00320024030012CC005C006C0078A8247
:1024A500EBF583122724E583122725E582122724DD
:1024B500E582122725D0E0F582122724E582D08314
:1024C500D08280058D828E83EF122725E583122722
:1024D50024E58380038D82EE122725E582122724C9
:1024E500E582122725122746D083D08230070122A4
:1024F5000222E030050EE511D39512F5115028752D
:1025050011008023E6547FFA18860308AE82AF8354
:1025150090383B7D07E4932BA3E4933A5003A3DD66
:10252500F48D128E828F83C000122624C082C08350
:10253500EFB47E02801940112482FDC3EA33FAEB21
:1025450033FBEC33FCDDF48006F4247F1227B675EB
:10255500F01BE4F8FFFEFD9037CFE933F9EA33FAD3
:10256500EB33FBEC33FC5017E4932DD4FD7401934E
:102575003ED4FE7402933FD4FF74039338D4F8A37A
:10258500A3A3A3D5F0D4E47C50FBFAF9E5122323E9
:1025950054FC88831227B6ED29D4F516EE3AD4F506
:1025A50015EF3BD4F514E5833CD4F51392D5D083D0
:1025B500D082D000122624C000C3749E9F5005D03F
:1025C500000222F8C0821227B6D08230D50FE92446
:1025D50001F9E43AFAE43BFBE43CFC40E2D20712A1
:1025E50023E420050CE51260081226147003D512A9
:1025F500F4E5126015742E1227347800D20308E82A
:10260500122614122725E8B512F4D0000222E01490
:10261500C31392D52413F9E720D501C4540F22E63C
:1026250018F9E618FC33E9339204FF60034304808C
:10263500E618FBE618FA7900C202D20122E6F9FD96
:1026450018200212AA01E6F91830010AAC02AB0102
:10265500E6FA18E6F91822E975F06484FE740AC5ED
:10266500F084C445F0FD30020122EA540FF990369A
:102675006F932DD4FDE94410933ED4FEEAC4540F64
:10268500F990368F932DD4FDE94410933ED4FEE99D
:102695004420933400D4FF20010122EB540FF9901C
:1026A50036BF932DD4FDE94410933ED4FEE9442072
:1026B500933FD4FFE43400FAEBC4540FF99036EF9E
:1026C500932DD4FDE94410933ED4FEE94420933F75
:1026D500D4FFE94430933AD4FAEC540FF990372FEC
:1026E5007B001226F2ECC4540FF990377F932DD45A
:1026F500FDE94410933ED4FEE94420933FD4FFE91D
:102705004430933AD4FAE94440933BD4FB227420F5
:1027150030060274301227341511E51170F022C409
:10272500540F7003300319D2032490D43440D4C01D
:1027350083C082C000F5821203ABD000D082D08363
:0C274500222003FC7430022734D017223D
:10366F0000561268248036924804601672288440EF
:10367F00000205071012151720232528303335387F
:10368F0000969288848076726864605652484440EF
:10369F0000408122630445862768095091327314D4
:1036AF0000000001010202020303040404050506E1
:1036BF00003672084480165288246096326804409F
:1036CF000055106621763287429853086419753079
:1036DF00000613192632394552586572788591982C
:1036EF00007652280480563208846036128864406F
:1036FF00008571574328140086715743291400869B
:10370F000004091419242934384348535863687244
:10371F0000010203040506070809101112131415FE
:10372F00001632486480961228446076920824402E
:10373F0000724416886032057749219365381082EC
:10374F000077553310886644219977543210886575
:10375F0000163350678300173450678401183451B3
:10376F00000000000000010101010101020202023C
:10377F0000561268248036924804601672288440DE
:10378F000054096318722781369145005409631854
:10379F0000438730741761044891357922660953C5
:1037AF0000683605734210794715845221895826CF
:1037BF000002050810131618212426293234374029
:1037CF0000000050000000250000501200002506E8
:1037DF0000501203002556015012780025063900BB
:1037EF001253190056760900288804001444020069
:1037FF00072201000461000052300000261500006E
:10380F006307000081030000910100009500000094
:10381F004800000024000000120000000600000015
:10382F000300000001000000010000007DC5DDC3A2
:0A383F0034C2E0BE38BD86BBE4B918
:10275100FB7A20E4FCFDFEFFE5822582F582E5831C
:1027610033F583E5F033F5F0EB33FB4017DAE9801D
:1027710042E5822582F582E58333F583E5F033F581
:10278100F0EB33FBEC33FCED33FDEE33FEEF33FFC7
:10279100EC9519ED951AEE951BEF951C4013EC95F0
:1027A10019FCED951AFDEE951BFEEF951CFF43827A
:0527B10001DABEEB227D
:06004E00E478FFF6D8FD86
:1027B6006040F82582500274FFF582E824F8501E26
:1027C600CCCBCAF9E4CC24F85014CBCAF9E4CB2418
:1027D600F8500BCAF9E4CA24F850037900222408F9
:1027E6006010F8C3EC13FCEB13FBEA13FAE913F9D8
:1027F600D8F12220F71130F6138883A88220F50934
:10280600F6A8837583002280FEF280F5F022C017B9
:102816008581177E008E831203ABD0172285825FD7
:1028260085836085F061E4F55CF55DF55E8518628B
:10283600902814022902C017E581F51724FBFF8FA3
:1028460062E4F55CF55DF55EE51724FBF8865F0846
:102856008660088661902814122902D01722AF825A
:10286600C052C053C0541228718007C050C0518F47
:102876008222158115811581055AE4B55A02055B38
:1028860022AF8274302FFF24C6500B74072FFFE54A
:102896004F60034307208F82022864E582FFC454F9
:1028A6000FF582C007122887D007740F5FF58202E2
:1028B6002887858219AB55AC56AD57AE58AA5975BF
:1028C6001B208A07EF2FF51AEE235401451AFAEB5F
:1028D6002BFBEC33FCED33FDEE33FEC3EA951940DA
:1028E60008EAC39519FA430301E51B14FF8F1B7011
:1028F600D18B558C568D578E588A59228582508594
:102906008351855C52855D53855E54E4F55AF55BCB
:10291600AD5FAE60AF618D828E838FF012311FFC8A
:1029260074012DF55FE43EF5608F61ECFF700302E4
:1029360030E3BF250280030230DB7E007D008E631C
:102946008E647A007B008E657C008E66E4F56EF5FB
:102956006F7567FF7568FF855F7085607185617249
:102966008570828571838572F012311FF573A38598
:10297600827085837185705F85716085726174254B
:10298600B57308857382122864808574D0257340D8
:1029960003022A44E57324C65003022A4474FFB591
:1029A6006755B56852856E19856F1A90000AC0067C
:1029B600C005C004C003C00212310285827485833B
:1029C60075D002D003D004D005D00685737675770E
:1029D60000E5762574F576E5773575F577E57624A1
:1029E600D0F56EE57734FFF56FE56E456F6003024F
:1029F60029667D0102296685671985681A90000A8D
:102A0600C006C005C004C003C0021231028582762A
:102A1600858377D002D003D004D005D006857374A1
:102A2600757500E5742576F576E5753577F577E500
:102A36007624D0F567E57734FFF568022966742EAB
:102A4600B5731574FFB56705B5680280030229667C
:102A5600E4F567F568022966749F2573500EE573E1
:102A6600248540085373DF754F018003754F00744A
:102A760020B57303022B10742BB57303022B0A7453
:102A86002DB5730280797442B57303022B16744315
:102A9600B57303022B217444B57303022D6E74467D
:102AA600B57303022D847448B5730302296674490D
:102AB600B57303022D6E744AB57303022966744C0E
:102AC600B573028050744FB57303022D757450B5FB
:102AD6007303022CB97453B5730280767454B573BC
:102AE600030229667455B57303022D7A7458B573BB
:102AF60003022D7F745AB57303022966022D887E60
:102B06000102296675630102296675640102296658
:102B16007B01022966756501022966EB600AE5629A
:102B260014F989628776800DE56224FEF574857452
:102B360062A9748776857682C006C005C004C00384
:102B4600C002122864D002D003D004D005D00602F9
:102B56002DAAE56224FDF576857662A97687700949
:102B6600877109877219198570558571568572574F
:102B76008570828571838572F0C006C005C004C069
:102B860003C0021230EA858276858377D002D003AD
:102B9600D004D005D00674FFB56709B568068576FA
:102BA60067857768EE704FC3E576956EE577956F26
:102BB6005044E56EC39576F574E56F9577F57585A2
:102BC6007470857571157474FFB574021575E570AA
:102BD6004571601C758220C006C005C004C003C0D4
:102BE60002122864D002D003D004D005D00680CFCC
:102BF60085746E85756F856774856875855582855C
:102C060056838557F012311FF57085706B604FC380
:102C1600E4957474808575F063F08095F0503F15E7
:102C26007474FFB574021575856B82C006C005C045
:102C360004C003C002122864D002D003D004D00519
:102C4600D0068555708556718557720570E4B57046
:102C5600020571857055857156857257809EEE7096
:102C660003022DAAC3E576956EE577956F400302BC
:102C76002DAAE56EC39576F576E56F9577F577859A
:102C86007674857775157674FFB576021577E574D3
:102C960045757003022DA4758220C006C005C004C8
:102CA600C003C002122864D002D003D004D005D0DD
:102CB6000680CCE56224FDF574857462A97487707C
:102CC600098771098772191985705585715685723C
:102CD6005785576C7480256C50057574438019743C
:102CE600A0256C5005757450800E74C0256C500577
:102CF6007574498003757458857482C006C005C012
:102D060004C003C00212286475823A1228647582D0
:102D160030122864758278122864D002D003D00459
:102D2600D005D0067449B5740280217450B574027A
:102D3600801A855682C006C005C004C003C00212B0
:102D460028A1D002D003D004D005D006855582C074
:102D560006C005C004C003C0021228A1D002D003D9
:102D6600D004D005D006803C7A0175660A80357598
:102D76006608803075660A802B75661080267C0191
:102D86008022857382C006C005C004C003C002123B
:102D96002864D002D003D004D005D00680068576FC
:102DA6006E85776FEC6068E56224FCFC8C628C01B2
:102DB600877809877909877A09877B1919198578A8
:102DC60055857956857A57857B5875554975563890
:102DD60075578085557885567985577A7401257893
:102DE600F570E43579F571857A7285705585715679
:102DF600857257857882857983857AF012311FFC32
:102E06008C78700302291685788212286480C4E5BE
:102E1600667003022916EB603FE56214F989628742
:102E2600048C78757900757A00757B0085785585F0
:102E36007956857A57857B58EA6003022EC78555F1
:102E460078757900757A00757B0085785585795691
:102E5600857A57857B588069E5656025E56224FC9F
:102E6600FC8C628C01877809877909877A09877BC8
:102E7600191919857855857956857A57857B58802D
:102E860040E56224FEFC8C628C01870309870419E5
:102E96008B78ECF5793395E0F57AF57B8578558571
:102EA6007956857A57857B58EA7016855578855602
:102EB60079F57AF57B857855857956857A57857BB8
:102EC60058EA602AE55830E723C3E49555F578E4D7
:102ED6009556F579E49557F57AE49558F57B857816
:102EE60055857956857A57857B5880027A007C010C
:102EF6007981E4F578F579755900856682C006C052
:102F060005C004C002C0011228B8D001D002D00406
:102F1600D005D006EC700DE559C4F576E7FB45768D
:102F2600F7198002A7590578E4B578020579ECB45B
:102F36000100E433FCE55545564557455870B889B8
:102F46006D85786985796AE56E456F7005756E01E0
:102F5600F56FED7043EE7040856E78856F79AB69DD
:102F66000B8B76757700C3E5769578E5779579507E
:102F760021758220C006C005C004C002122864D094
:102F860002D004D005D006157874FFB578021579FD
:102F960080CC85786E85796FEA601D75822DC006B6
:102FA600C005C004122864D004D005D006156E747E
:102FB600FFB56E02156F8046E569456A6040E563B8
:102FC600601D75822BC006C005C004122864D0049B
:102FD600D005D006156E74FFB56E02156F801FE51D
:102FE60064601B758220C006C005C004122864D028
:102FF60004D005D006156E74FFB56E02156FEE701F
:103006003C856E78856F79AA78AB79157874FFB5AB
:1030160078021579C3E5699AE56A9B5041ED600629
:103026007A307B0080047A207B008A82C006C00545
:10303600C004122864D004D005D00680CAC3E5694E
:10304600956EE56A956F500FE56EC39569F576E561
:103056006F956AF577800DE4F576F57780068578C5
:1030660076857977A96D856978856A79AA78AD7943
:10307600157874FFB578021579EA4D602EECB40127
:1030860000E433FC700A09E7C4540FFD8D5980072C
:103096008705740F5DF559855982C006C004C001C5
:1030A600122887D001D004D00680C1EE7003022911
:1030B60016AD76AE778D038E041DBDFF011EEB4C5B
:1030C6007003022916758220C006C005122864D036
:1030D60005D00680E08F82122864022916855A825E
:0430E600855B832261
:0B3849003C4E4F20464C4F41543E00C7
:1030EA00AA82AB8312311F6003A380F8C3E5829AD8
:1030FA00F582E5839BF58322E5828519F0A4C582D2
:10310A00C0F0851AF0A4D0F025F0C5838519F0A483
:05311A002583F583226E
:0D004100758181121729E582600302003EDF
:10311F0020F71430F6148883A88220F507E6A883D9
:0C312F0075830022E280F7E49322E02286
:00000001FF
